{
  "_format": "hh-sol-artifact-1",
  "contractName": "gnsPool",
  "sourceName": "contracts/gnsPool.sol",
  "abi": [
    {
      "inputs": [
        {
          "internalType": "address",
          "name": "loaner_",
          "type": "address"
        },
        {
          "internalType": "address",
          "name": "vault_",
          "type": "address"
        }
      ],
      "stateMutability": "nonpayable",
      "type": "constructor"
    },
    {
      "anonymous": false,
      "inputs": [
        {
          "indexed": false,
          "internalType": "uint256",
          "name": "tokenId",
          "type": "uint256"
        },
        {
          "indexed": false,
          "internalType": "uint256",
          "name": "amount",
          "type": "uint256"
        }
      ],
      "name": "AddedColateral",
      "type": "event"
    },
    {
      "anonymous": false,
      "inputs": [
        {
          "indexed": true,
          "internalType": "address",
          "name": "owner",
          "type": "address"
        },
        {
          "indexed": true,
          "internalType": "address",
          "name": "approved",
          "type": "address"
        },
        {
          "indexed": true,
          "internalType": "uint256",
          "name": "tokenId",
          "type": "uint256"
        }
      ],
      "name": "Approval",
      "type": "event"
    },
    {
      "anonymous": false,
      "inputs": [
        {
          "indexed": true,
          "internalType": "address",
          "name": "owner",
          "type": "address"
        },
        {
          "indexed": true,
          "internalType": "address",
          "name": "operator",
          "type": "address"
        },
        {
          "indexed": false,
          "internalType": "bool",
          "name": "approved",
          "type": "bool"
        }
      ],
      "name": "ApprovalForAll",
      "type": "event"
    },
    {
      "anonymous": false,
      "inputs": [
        {
          "indexed": false,
          "internalType": "uint256",
          "name": "tokenId",
          "type": "uint256"
        },
        {
          "indexed": false,
          "internalType": "uint256",
          "name": "amountToVault",
          "type": "uint256"
        },
        {
          "indexed": false,
          "internalType": "uint256",
          "name": "amountToBorrower",
          "type": "uint256"
        },
        {
          "indexed": false,
          "internalType": "uint256",
          "name": "amountToFund",
          "type": "uint256"
        }
      ],
      "name": "Liquidation",
      "type": "event"
    },
    {
      "anonymous": false,
      "inputs": [
        {
          "indexed": false,
          "internalType": "address",
          "name": "receiver",
          "type": "address"
        },
        {
          "indexed": false,
          "internalType": "uint256",
          "name": "tokenId",
          "type": "uint256"
        },
        {
          "indexed": false,
          "internalType": "uint256",
          "name": "amount",
          "type": "uint256"
        }
      ],
      "name": "LoanClose",
      "type": "event"
    },
    {
      "anonymous": false,
      "inputs": [
        {
          "indexed": false,
          "internalType": "address",
          "name": "mintor",
          "type": "address"
        },
        {
          "indexed": false,
          "internalType": "uint256",
          "name": "tokenId",
          "type": "uint256"
        },
        {
          "indexed": false,
          "internalType": "uint256",
          "name": "amount",
          "type": "uint256"
        }
      ],
      "name": "LoanOpen",
      "type": "event"
    },
    {
      "anonymous": false,
      "inputs": [
        {
          "indexed": false,
          "internalType": "uint256",
          "name": "tokenId",
          "type": "uint256"
        },
        {
          "indexed": false,
          "internalType": "address",
          "name": "payer",
          "type": "address"
        },
        {
          "indexed": false,
          "internalType": "uint256",
          "name": "amountRepaid",
          "type": "uint256"
        },
        {
          "indexed": false,
          "internalType": "uint256",
          "name": "outstandingLoanValue",
          "type": "uint256"
        }
      ],
      "name": "RepaidLoan",
      "type": "event"
    },
    {
      "anonymous": false,
      "inputs": [
        {
          "indexed": false,
          "internalType": "uint256",
          "name": "tokenId",
          "type": "uint256"
        },
        {
          "indexed": false,
          "internalType": "uint256",
          "name": "amount",
          "type": "uint256"
        }
      ],
      "name": "SentLoan",
      "type": "event"
    },
    {
      "anonymous": false,
      "inputs": [
        {
          "indexed": false,
          "internalType": "uint256",
          "name": "amount",
          "type": "uint256"
        },
        {
          "indexed": false,
          "internalType": "uint256",
          "name": "tokenId",
          "type": "uint256"
        }
      ],
      "name": "StakedColateral",
      "type": "event"
    },
    {
      "anonymous": false,
      "inputs": [
        {
          "indexed": true,
          "internalType": "address",
          "name": "from",
          "type": "address"
        },
        {
          "indexed": true,
          "internalType": "address",
          "name": "to",
          "type": "address"
        },
        {
          "indexed": true,
          "internalType": "uint256",
          "name": "tokenId",
          "type": "uint256"
        }
      ],
      "name": "Transfer",
      "type": "event"
    },
    {
      "anonymous": false,
      "inputs": [
        {
          "indexed": false,
          "internalType": "uint256",
          "name": "amount",
          "type": "uint256"
        },
        {
          "indexed": false,
          "internalType": "uint256",
          "name": "tokenId",
          "type": "uint256"
        }
      ],
      "name": "UnstakedColateral",
      "type": "event"
    },
    {
      "inputs": [
        {
          "internalType": "uint256",
          "name": "",
          "type": "uint256"
        }
      ],
      "name": "_loanLiqudations",
      "outputs": [
        {
          "internalType": "uint256",
          "name": "liquidationPenalty",
          "type": "uint256"
        },
        {
          "internalType": "uint256",
          "name": "liquidationLenderSplit",
          "type": "uint256"
        },
        {
          "internalType": "uint256",
          "name": "liquidationProjectSplit",
          "type": "uint256"
        }
      ],
      "stateMutability": "view",
      "type": "function"
    },
    {
      "inputs": [
        {
          "internalType": "uint256",
          "name": "",
          "type": "uint256"
        }
      ],
      "name": "_outstandingLoans",
      "outputs": [
        {
          "internalType": "uint256",
          "name": "daiRatioPayout",
          "type": "uint256"
        },
        {
          "internalType": "uint256",
          "name": "stakedGns",
          "type": "uint256"
        },
        {
          "internalType": "uint256",
          "name": "borrowedUsdc",
          "type": "uint256"
        },
        {
          "internalType": "uint256",
          "name": "unlockTime",
          "type": "uint256"
        },
        {
          "internalType": "uint256",
          "name": "maxBorrowedUsdc",
          "type": "uint256"
        },
        {
          "internalType": "uint256",
          "name": "maxHealthFactor",
          "type": "uint256"
        },
        {
          "internalType": "uint256",
          "name": "lowerLiq",
          "type": "uint256"
        },
        {
          "internalType": "uint256",
          "name": "higherLiq",
          "type": "uint256"
        },
        {
          "internalType": "uint256",
          "name": "lenderRewardsSplit",
          "type": "uint256"
        },
        {
          "internalType": "uint256",
          "name": "borrowerRewardsSplit",
          "type": "uint256"
        },
        {
          "internalType": "uint256",
          "name": "projectRewardsSplit",
          "type": "uint256"
        }
      ],
      "stateMutability": "view",
      "type": "function"
    },
    {
      "inputs": [
        {
          "internalType": "uint256",
          "name": "loanId_",
          "type": "uint256"
        },
        {
          "internalType": "uint256",
          "name": "amount_",
          "type": "uint256"
        }
      ],
      "name": "addColateral",
      "outputs": [
        {
          "internalType": "uint256",
          "name": "",
          "type": "uint256"
        }
      ],
      "stateMutability": "nonpayable",
      "type": "function"
    },
    {
      "inputs": [
        {
          "internalType": "address",
          "name": "to",
          "type": "address"
        },
        {
          "internalType": "uint256",
          "name": "tokenId",
          "type": "uint256"
        }
      ],
      "name": "approve",
      "outputs": [],
      "stateMutability": "nonpayable",
      "type": "function"
    },
    {
      "inputs": [
        {
          "internalType": "address",
          "name": "owner",
          "type": "address"
        }
      ],
      "name": "balanceOf",
      "outputs": [
        {
          "internalType": "uint256",
          "name": "",
          "type": "uint256"
        }
      ],
      "stateMutability": "view",
      "type": "function"
    },
    {
      "inputs": [
        {
          "internalType": "uint256",
          "name": "loanId_",
          "type": "uint256"
        },
        {
          "internalType": "uint256",
          "name": "amount_",
          "type": "uint256"
        },
        {
          "internalType": "address payable",
          "name": "sendTo_",
          "type": "address"
        }
      ],
      "name": "borrow",
      "outputs": [
        {
          "internalType": "uint256",
          "name": "",
          "type": "uint256"
        }
      ],
      "stateMutability": "nonpayable",
      "type": "function"
    },
    {
      "inputs": [
        {
          "internalType": "address",
          "name": "vault_",
          "type": "address"
        },
        {
          "internalType": "address",
          "name": "loaner_",
          "type": "address"
        }
      ],
      "name": "changeContracts",
      "outputs": [],
      "stateMutability": "nonpayable",
      "type": "function"
    },
    {
      "inputs": [
        {
          "internalType": "uint256",
          "name": "lowerLiq_",
          "type": "uint256"
        },
        {
          "internalType": "uint256",
          "name": "higherLiq_",
          "type": "uint256"
        },
        {
          "internalType": "uint256",
          "name": "maxLTV_",
          "type": "uint256"
        },
        {
          "internalType": "uint256",
          "name": "minLTVLiq_",
          "type": "uint256"
        }
      ],
      "name": "changeLTVandMaxHF",
      "outputs": [],
      "stateMutability": "nonpayable",
      "type": "function"
    },
    {
      "inputs": [
        {
          "internalType": "uint256",
          "name": "liqPenalty_",
          "type": "uint256"
        },
        {
          "internalType": "uint256",
          "name": "liqPenLender_",
          "type": "uint256"
        },
        {
          "internalType": "uint256",
          "name": "liqPenProject_",
          "type": "uint256"
        }
      ],
      "name": "changeLiquidationPenalties",
      "outputs": [],
      "stateMutability": "nonpayable",
      "type": "function"
    },
    {
      "inputs": [
        {
          "internalType": "uint256",
          "name": "borrowerSplit_",
          "type": "uint256"
        },
        {
          "internalType": "uint256",
          "name": "lenderSplit_",
          "type": "uint256"
        },
        {
          "internalType": "uint256",
          "name": "projectSplit_",
          "type": "uint256"
        }
      ],
      "name": "changeRewardsSplit",
      "outputs": [],
      "stateMutability": "nonpayable",
      "type": "function"
    },
    {
      "inputs": [],
      "name": "currDaiRatio",
      "outputs": [
        {
          "internalType": "uint256",
          "name": "",
          "type": "uint256"
        }
      ],
      "stateMutability": "view",
      "type": "function"
    },
    {
      "inputs": [],
      "name": "currGnsPrice",
      "outputs": [
        {
          "internalType": "uint256",
          "name": "",
          "type": "uint256"
        }
      ],
      "stateMutability": "view",
      "type": "function"
    },
    {
      "inputs": [
        {
          "internalType": "address",
          "name": "receiver_",
          "type": "address"
        },
        {
          "internalType": "uint256",
          "name": "amount_",
          "type": "uint256"
        }
      ],
      "name": "depositColateral",
      "outputs": [
        {
          "internalType": "uint256",
          "name": "",
          "type": "uint256"
        }
      ],
      "stateMutability": "nonpayable",
      "type": "function"
    },
    {
      "inputs": [
        {
          "internalType": "uint256",
          "name": "tokenId",
          "type": "uint256"
        }
      ],
      "name": "getApproved",
      "outputs": [
        {
          "internalType": "address",
          "name": "",
          "type": "address"
        }
      ],
      "stateMutability": "view",
      "type": "function"
    },
    {
      "inputs": [
        {
          "internalType": "uint256",
          "name": "loanId_",
          "type": "uint256"
        }
      ],
      "name": "getCurrHealth",
      "outputs": [
        {
          "internalType": "uint256",
          "name": "",
          "type": "uint256"
        }
      ],
      "stateMutability": "view",
      "type": "function"
    },
    {
      "inputs": [
        {
          "internalType": "uint256",
          "name": "loanId_",
          "type": "uint256"
        },
        {
          "internalType": "uint256",
          "name": "amount_",
          "type": "uint256"
        }
      ],
      "name": "getNewBorrowHealth",
      "outputs": [
        {
          "internalType": "uint256",
          "name": "",
          "type": "uint256"
        }
      ],
      "stateMutability": "view",
      "type": "function"
    },
    {
      "inputs": [
        {
          "internalType": "uint256",
          "name": "loanId_",
          "type": "uint256"
        },
        {
          "internalType": "uint256",
          "name": "amount_",
          "type": "uint256"
        }
      ],
      "name": "getNewLiqHealth",
      "outputs": [
        {
          "internalType": "uint256",
          "name": "",
          "type": "uint256"
        }
      ],
      "stateMutability": "view",
      "type": "function"
    },
    {
      "inputs": [
        {
          "internalType": "uint256",
          "name": "amount_",
          "type": "uint256"
        }
      ],
      "name": "gnsToSend",
      "outputs": [
        {
          "internalType": "uint256",
          "name": "",
          "type": "uint256"
        }
      ],
      "stateMutability": "view",
      "type": "function"
    },
    {
      "inputs": [
        {
          "internalType": "address",
          "name": "owner",
          "type": "address"
        },
        {
          "internalType": "address",
          "name": "operator",
          "type": "address"
        }
      ],
      "name": "isApprovedForAll",
      "outputs": [
        {
          "internalType": "bool",
          "name": "",
          "type": "bool"
        }
      ],
      "stateMutability": "view",
      "type": "function"
    },
    {
      "inputs": [
        {
          "internalType": "uint256",
          "name": "loanId_",
          "type": "uint256"
        },
        {
          "internalType": "uint256",
          "name": "amount_",
          "type": "uint256"
        },
        {
          "internalType": "address",
          "name": "payer_",
          "type": "address"
        }
      ],
      "name": "liquidate",
      "outputs": [],
      "stateMutability": "nonpayable",
      "type": "function"
    },
    {
      "inputs": [],
      "name": "name",
      "outputs": [
        {
          "internalType": "string",
          "name": "",
          "type": "string"
        }
      ],
      "stateMutability": "view",
      "type": "function"
    },
    {
      "inputs": [
        {
          "internalType": "uint256",
          "name": "tokenId",
          "type": "uint256"
        }
      ],
      "name": "ownerOf",
      "outputs": [
        {
          "internalType": "address",
          "name": "",
          "type": "address"
        }
      ],
      "stateMutability": "view",
      "type": "function"
    },
    {
      "inputs": [],
      "name": "pendingDai",
      "outputs": [
        {
          "internalType": "uint256",
          "name": "",
          "type": "uint256"
        }
      ],
      "stateMutability": "view",
      "type": "function"
    },
    {
      "inputs": [
        {
          "internalType": "uint256",
          "name": "loanId_",
          "type": "uint256"
        },
        {
          "internalType": "uint256",
          "name": "amount_",
          "type": "uint256"
        }
      ],
      "name": "repayLoan",
      "outputs": [
        {
          "internalType": "uint256",
          "name": "",
          "type": "uint256"
        }
      ],
      "stateMutability": "nonpayable",
      "type": "function"
    },
    {
      "inputs": [
        {
          "internalType": "address",
          "name": "from",
          "type": "address"
        },
        {
          "internalType": "address",
          "name": "to",
          "type": "address"
        },
        {
          "internalType": "uint256",
          "name": "tokenId",
          "type": "uint256"
        }
      ],
      "name": "safeTransferFrom",
      "outputs": [],
      "stateMutability": "nonpayable",
      "type": "function"
    },
    {
      "inputs": [
        {
          "internalType": "address",
          "name": "from",
          "type": "address"
        },
        {
          "internalType": "address",
          "name": "to",
          "type": "address"
        },
        {
          "internalType": "uint256",
          "name": "tokenId",
          "type": "uint256"
        },
        {
          "internalType": "bytes",
          "name": "data",
          "type": "bytes"
        }
      ],
      "name": "safeTransferFrom",
      "outputs": [],
      "stateMutability": "nonpayable",
      "type": "function"
    },
    {
      "inputs": [
        {
          "internalType": "address",
          "name": "operator",
          "type": "address"
        },
        {
          "internalType": "bool",
          "name": "approved",
          "type": "bool"
        }
      ],
      "name": "setApprovalForAll",
      "outputs": [],
      "stateMutability": "nonpayable",
      "type": "function"
    },
    {
      "inputs": [
        {
          "internalType": "bytes4",
          "name": "interfaceId",
          "type": "bytes4"
        }
      ],
      "name": "supportsInterface",
      "outputs": [
        {
          "internalType": "bool",
          "name": "",
          "type": "bool"
        }
      ],
      "stateMutability": "view",
      "type": "function"
    },
    {
      "inputs": [],
      "name": "symbol",
      "outputs": [
        {
          "internalType": "string",
          "name": "",
          "type": "string"
        }
      ],
      "stateMutability": "view",
      "type": "function"
    },
    {
      "inputs": [
        {
          "internalType": "uint256",
          "name": "tokenId",
          "type": "uint256"
        }
      ],
      "name": "tokenURI",
      "outputs": [
        {
          "internalType": "string",
          "name": "",
          "type": "string"
        }
      ],
      "stateMutability": "view",
      "type": "function"
    },
    {
      "inputs": [],
      "name": "totalLoanedOut",
      "outputs": [
        {
          "internalType": "uint256",
          "name": "",
          "type": "uint256"
        }
      ],
      "stateMutability": "view",
      "type": "function"
    },
    {
      "inputs": [
        {
          "internalType": "address",
          "name": "from",
          "type": "address"
        },
        {
          "internalType": "address",
          "name": "to",
          "type": "address"
        },
        {
          "internalType": "uint256",
          "name": "tokenId",
          "type": "uint256"
        }
      ],
      "name": "transferFrom",
      "outputs": [],
      "stateMutability": "nonpayable",
      "type": "function"
    },
    {
      "inputs": [],
      "name": "updateDaiRatio",
      "outputs": [],
      "stateMutability": "nonpayable",
      "type": "function"
    },
    {
      "inputs": [
        {
          "internalType": "address",
          "name": "receiver_",
          "type": "address"
        },
        {
          "internalType": "uint256",
          "name": "loanId_",
          "type": "uint256"
        }
      ],
      "name": "widthdrawColateral",
      "outputs": [
        {
          "internalType": "uint256",
          "name": "",
          "type": "uint256"
        }
      ],
      "stateMutability": "nonpayable",
      "type": "function"
    }
  ],
  "bytecode": "0x610120604052738f3cf7ad23cd3cadbd9735aff958023239c6a06373ffffffffffffffffffffffffffffffffffffffff1660809073ffffffffffffffffffffffffffffffffffffffff1681525073e5417af564e4bfda1c483642db7200787139789673ffffffffffffffffffffffffffffffffffffffff1660a09073ffffffffffffffffffffffffffffffffffffffff1681525073fb06a737f549eb2512eb6082a808fc7f16c0819d73ffffffffffffffffffffffffffffffffffffffff1660c09073ffffffffffffffffffffffffffffffffffffffff1681525073631e885028e75fcbb34c06d8ecb8e20ea18f663273ffffffffffffffffffffffffffffffffffffffff1660e09073ffffffffffffffffffffffffffffffffffffffff16815250670de0b6b3a7640000610100908152503480156200013e57600080fd5b5060405162005f9a38038062005f9a8339818101604052810190620001649190620003ae565b6040518060400160405280600981526020017f466574746920474e5300000000000000000000000000000000000000000000008152506040518060400160405280600681526020017f466574476e7300000000000000000000000000000000000000000000000000008152508160009081620001e191906200066f565b508060019081620001f391906200066f565b50505033600c60006101000a81548173ffffffffffffffffffffffffffffffffffffffff021916908373ffffffffffffffffffffffffffffffffffffffff16021790555081600d60006101000a81548173ffffffffffffffffffffffffffffffffffffffff021916908373ffffffffffffffffffffffffffffffffffffffff16021790555080600e60006101000a81548173ffffffffffffffffffffffffffffffffffffffff021916908373ffffffffffffffffffffffffffffffffffffffff1602179055506000600b8190555060006008819055506000600981905550600f80819055506046601081905550600f60118190555067048b8383cbf0c0006012819055506705eec8fc297ac0006013819055506706f05b59d3b20000601481905550670853a0d2313c0000601581905550600a601681905550604b6017819055506019601881905550505062000756565b600080fd5b600073ffffffffffffffffffffffffffffffffffffffff82169050919050565b6000620003768262000349565b9050919050565b620003888162000369565b81146200039457600080fd5b50565b600081519050620003a8816200037d565b92915050565b60008060408385031215620003c857620003c762000344565b5b6000620003d88582860162000397565b9250506020620003eb8582860162000397565b9150509250929050565b600081519050919050565b7f4e487b7100000000000000000000000000000000000000000000000000000000600052604160045260246000fd5b7f4e487b7100000000000000000000000000000000000000000000000000000000600052602260045260246000fd5b600060028204905060018216806200047757607f821691505b6020821081036200048d576200048c6200042f565b5b50919050565b60008190508160005260206000209050919050565b60006020601f8301049050919050565b600082821b905092915050565b600060088302620004f77fffffffffffffffffffffffffffffffffffffffffffffffffffffffffffffffff82620004b8565b620005038683620004b8565b95508019841693508086168417925050509392505050565b6000819050919050565b6000819050919050565b6000620005506200054a62000544846200051b565b62000525565b6200051b565b9050919050565b6000819050919050565b6200056c836200052f565b620005846200057b8262000557565b848454620004c5565b825550505050565b600090565b6200059b6200058c565b620005a881848462000561565b505050565b5b81811015620005d057620005c460008262000591565b600181019050620005ae565b5050565b601f8211156200061f57620005e98162000493565b620005f484620004a8565b8101602085101562000604578190505b6200061c6200061385620004a8565b830182620005ad565b50505b505050565b600082821c905092915050565b6000620006446000198460080262000624565b1980831691505092915050565b60006200065f838362000631565b9150826002028217905092915050565b6200067a82620003f5565b67ffffffffffffffff81111562000696576200069562000400565b5b620006a282546200045e565b620006af828285620005d4565b600060209050601f831160018114620006e75760008415620006d2578287015190505b620006de858262000651565b8655506200074e565b601f198416620006f78662000493565b60005b828110156200072157848901518255600182019150602085019450602081019050620006fa565b868310156200074157848901516200073d601f89168262000631565b8355505b6001600288020188555050505b505050505050565b60805160a05160c05160e0516101005161578162000819600039600081816115db0152818161279601526137130152600061216b0152600081816115580152818161162e01528181612b4501528181612bc8015261368501526000818161095201528181610a2e01528181610b1c01528181610e230152818161242d0152818161251d015281816125f901528181612b090152612e4f0152600081816118a801528181612325015281816128250152818161291301526129e701526157816000f3fe608060405234801561001057600080fd5b50600436106102065760003560e01c806370a082311161011a578063bf1a0140116100ad578063d6bda0c01161007c578063d6bda0c014610665578063e7fb079014610695578063e985e9c5146106b3578063ef97ed73146106e3578063f354a3391461070157610206565b8063bf1a0140146105cb578063c87b56dd146105e7578063d246e48414610617578063d5ce6b121461064957610206565b806395d89b41116100e957806395d89b41146105455780639f7b272d14610563578063a22cb46514610593578063b88d4fde146105af57610206565b806370a082311461049757806376e7db09146104c75780638a700b53146104e5578063952773381461051557610206565b80631e969a801161019d578063309627b61161016c578063309627b61461040757806342842e0e146104235780634b5f7a791461043f578063606708ce146104495780636352211e1461046757610206565b80631e969a801461035157806322e3ea691461038157806323b872dd146103b15780632b7564f9146103cd57610206565b8063095ea7b3116101d9578063095ea7b3146102b95780630b7860d8146102d557806314393ba3146102f15780631e3f68b81461032157610206565b806301ffc9a71461020b57806306fdde031461023b578063081812fc1461025957806308ef74c914610289575b600080fd5b61022560048036038101906102209190613e43565b61071d565b6040516102329190613e8b565b60405180910390f35b6102436107ff565b6040516102509190613f36565b60405180910390f35b610273600480360381019061026e9190613f8e565b610891565b6040516102809190613ffc565b60405180910390f35b6102a3600480360381019061029e9190614017565b6108d7565b6040516102b09190614066565b60405180910390f35b6102d360048036038101906102ce91906140ad565b610c1d565b005b6102ef60048036038101906102ea91906140ed565b610d34565b005b61030b600480360381019061030691906140ad565b610da8565b6040516103189190614066565b60405180910390f35b61033b60048036038101906103369190614017565b61108d565b6040516103489190614066565b60405180910390f35b61036b60048036038101906103669190613f8e565b611112565b6040516103789190614066565b60405180910390f35b61039b600480360381019061039691906140ad565b611197565b6040516103a89190614066565b60405180910390f35b6103cb60048036038101906103c69190614140565b611390565b005b6103e760048036038101906103e29190613f8e565b6113f0565b6040516103fe9b9a99989796959493929190614193565b60405180910390f35b610421600480360381019061041c919061423e565b61144a565b005b61043d60048036038101906104389190614140565b61152a565b005b61044761154a565b005b61045161162a565b60405161045e9190614066565b60405180910390f35b610481600480360381019061047c9190613f8e565b6116c0565b60405161048e9190613ffc565b60405180910390f35b6104b160048036038101906104ac919061427e565b611746565b6040516104be9190614066565b60405180910390f35b6104cf6117fd565b6040516104dc9190614066565b60405180910390f35b6104ff60048036038101906104fa9190614017565b611803565b60405161050c9190614066565b60405180910390f35b61052f600480360381019061052a9190614017565b611a21565b60405161053c9190614066565b60405180910390f35b61054d611ab9565b60405161055a9190613f36565b60405180910390f35b61057d60048036038101906105789190613f8e565b611b4b565b60405161058a9190614066565b60405180910390f35b6105ad60048036038101906105a891906142d7565b611bab565b005b6105c960048036038101906105c4919061444c565b611bc1565b005b6105e560048036038101906105e091906140ed565b611c23565b005b61060160048036038101906105fc9190613f8e565b611c97565b60405161060e9190613f36565b60405180910390f35b610631600480360381019061062c9190613f8e565b611cff565b604051610640939291906144cf565b60405180910390f35b610663600480360381019061065e9190614506565b611d29565b005b61067f600480360381019061067a91906145ab565b611da5565b60405161068c9190614066565b60405180910390f35b61069d6120c5565b6040516106aa9190614066565b60405180910390f35b6106cd60048036038101906106c8919061423e565b6120cf565b6040516106da9190613e8b565b60405180910390f35b6106eb612163565b6040516106f89190614066565b60405180910390f35b61071b600480360381019061071691906145fe565b61220b565b005b60007f80ac58cd000000000000000000000000000000000000000000000000000000007bffffffffffffffffffffffffffffffffffffffffffffffffffffffff1916827bffffffffffffffffffffffffffffffffffffffffffffffffffffffff191614806107e857507f5b5e139f000000000000000000000000000000000000000000000000000000007bffffffffffffffffffffffffffffffffffffffffffffffffffffffff1916827bffffffffffffffffffffffffffffffffffffffffffffffffffffffff1916145b806107f857506107f7826126dd565b5b9050919050565b60606000805461080e90614680565b80601f016020809104026020016040519081016040528092919081815260200182805461083a90614680565b80156108875780601f1061085c57610100808354040283529160200191610887565b820191906000526020600020905b81548152906001019060200180831161086a57829003601f168201915b5050505050905090565b600061089c82612747565b6004600083815260200190815260200160002060009054906101000a900473ffffffffffffffffffffffffffffffffffffffff169050919050565b60006108e2836116c0565b73ffffffffffffffffffffffffffffffffffffffff163373ffffffffffffffffffffffffffffffffffffffff161461094f576040517f08c379a000000000000000000000000000000000000000000000000000000000815260040161094690614723565b60405180910390fd5b817f000000000000000000000000000000000000000000000000000000000000000073ffffffffffffffffffffffffffffffffffffffff166370a08231336040518263ffffffff1660e01b81526004016109a99190613ffc565b602060405180830381865afa1580156109c6573d6000803e3d6000fd5b505050506040513d601f19601f820116820180604052508101906109ea9190614758565b1015610a2b576040517f08c379a0000000000000000000000000000000000000000000000000000000008152600401610a22906147d1565b60405180910390fd5b817f000000000000000000000000000000000000000000000000000000000000000073ffffffffffffffffffffffffffffffffffffffff1663dd62ed3e33306040518363ffffffff1660e01b8152600401610a879291906147f1565b602060405180830381865afa158015610aa4573d6000803e3d6000fd5b505050506040513d601f19601f82011682018060405250810190610ac89190614758565b1015610b09576040517f08c379a0000000000000000000000000000000000000000000000000000000008152600401610b009061488c565b60405180910390fd5b610b1161154a565b610b1a83612792565b7f000000000000000000000000000000000000000000000000000000000000000073ffffffffffffffffffffffffffffffffffffffff166323b872dd3330856040518463ffffffff1660e01b8152600401610b77939291906148ac565b6020604051808303816000875af1158015610b96573d6000803e3d6000fd5b505050506040513d601f19601f82011682018060405250810190610bba91906148f8565b50610bc58284612ad7565b7fe1c740f43755bafaef4a64ecab591e42206755349e1726105aca3babc787e03e8383604051610bf6929190614925565b60405180910390a16006600084815260200190815260200160002060010154905092915050565b6000610c28826116c0565b90508073ffffffffffffffffffffffffffffffffffffffff168373ffffffffffffffffffffffffffffffffffffffff1603610c98576040517f08c379a0000000000000000000000000000000000000000000000000000000008152600401610c8f906149c0565b60405180910390fd5b8073ffffffffffffffffffffffffffffffffffffffff16610cb7612cbb565b73ffffffffffffffffffffffffffffffffffffffff161480610ce65750610ce581610ce0612cbb565b6120cf565b5b610d25576040517f08c379a0000000000000000000000000000000000000000000000000000000008152600401610d1c90614a52565b60405180910390fd5b610d2f8383612cc3565b505050565b600c60009054906101000a900473ffffffffffffffffffffffffffffffffffffffff1673ffffffffffffffffffffffffffffffffffffffff163373ffffffffffffffffffffffffffffffffffffffff1614610d8e57600080fd5b826016819055508160178190555080601881905550505050565b600080610db433611746565b14610df4576040517f08c379a0000000000000000000000000000000000000000000000000000000008152600401610deb90614ae4565b60405180910390fd5b6000600a5414610e0757610e0661154a565b5b600160086000828254610e1a9190614b33565b925050819055507f000000000000000000000000000000000000000000000000000000000000000073ffffffffffffffffffffffffffffffffffffffff166323b872dd3330856040518463ffffffff1660e01b8152600401610e7e939291906148ac565b6020604051808303816000875af1158015610e9d573d6000803e3d6000fd5b505050506040513d601f19601f82011682018060405250810190610ec191906148f8565b5081600a6000828254610ed49190614b33565b9250508190555060006202a30042610eec9190614b33565b9050604051806101600160405280600b548152602001600081526020016000815260200182815260200160145481526020016015548152602001601254815260200160135481526020016010548152602001600f548152602001601154815250600660006008548152602001908152602001600020600082015181600001556020820151816001015560408201518160020155606082015181600301556080820151816004015560a0820151816005015560c0820151816006015560e082015181600701556101008201518160080155610120820151816009015561014082015181600a015590505060405180606001604052806016548152602001601754815260200160185481525060076000600854815260200190815260200160002060008201518160000155602082015181600101556040820151816002015590505061103883600854612ad7565b61104484600854612d7c565b7fae0f727485da7b33863fd0317e9f7e8c135c3fa284516512f159ab96e1f290c9846008548560405161107993929190614b67565b60405180910390a160085491505092915050565b600080611098612163565b60066000868152602001908152602001600020600101546110b99190614b9e565b620f4240670de0b6b3a76400008560066000898152602001908152602001600020600201546110e89190614b33565b6110f29190614b9e565b6110fc9190614b9e565b6111069190614c0f565b90508091505092915050565b600080670de0b6b3a7640000600660008581526020019081526020016000206002015461113f9190614b9e565b9050600061114b612163565b600660008681526020019081526020016000206001015461116c9190614b9e565b9050600081620f4240846111809190614b9e565b61118a9190614c0f565b9050809350505050919050565b60006111a282612d9a565b6111e1576040517f08c379a00000000000000000000000000000000000000000000000000000000081526004016111d890614c8c565b60405180910390fd5b42600660008481526020019081526020016000206003015410611239576040517f08c379a000000000000000000000000000000000000000000000000000000000815260040161123090614cf8565b60405180910390fd5b6000600660008481526020019081526020016000206002015414611292576040517f08c379a000000000000000000000000000000000000000000000000000000000815260040161128990614d8a565b60405180910390fd5b61129b826116c0565b73ffffffffffffffffffffffffffffffffffffffff163373ffffffffffffffffffffffffffffffffffffffff1614611308576040517f08c379a00000000000000000000000000000000000000000000000000000000081526004016112ff90614df6565b60405180910390fd5b600080600660008581526020019081526020016000206001015461132c9190614b33565b905061133783612792565b611342818486612ddb565b61134b83612f2a565b7f85097a6f83df032cbdf92cdcbc7e798e309a5f5e8113391edba3221c20f9558284848360405161137e93929190614b67565b60405180910390a18091505092915050565b6113a161139b612cbb565b82612fa4565b6113e0576040517f08c379a00000000000000000000000000000000000000000000000000000000081526004016113d790614e88565b60405180910390fd5b6113eb838383613039565b505050565b600660205280600052604060002060009150905080600001549080600101549080600201549080600301549080600401549080600501549080600601549080600701549080600801549080600901549080600a015490508b565b600c60009054906101000a900473ffffffffffffffffffffffffffffffffffffffff1673ffffffffffffffffffffffffffffffffffffffff163373ffffffffffffffffffffffffffffffffffffffff16146114a457600080fd5b81600e60006101000a81548173ffffffffffffffffffffffffffffffffffffffff021916908373ffffffffffffffffffffffffffffffffffffffff16021790555080600d60006101000a81548173ffffffffffffffffffffffffffffffffffffffff021916908373ffffffffffffffffffffffffffffffffffffffff1602179055505050565b61154583838360405180602001604052806000815250611bc1565b505050565b600061155461162a565b90507f000000000000000000000000000000000000000000000000000000000000000073ffffffffffffffffffffffffffffffffffffffff16634641257d6040518163ffffffff1660e01b8152600401600060405180830381600087803b1580156115be57600080fd5b505af11580156115d2573d6000803e3d6000fd5b50505050600a547f0000000000000000000000000000000000000000000000000000000000000000826116059190614b9e565b61160f9190614c0f565b600b60008282546116209190614b33565b9250508190555050565b60007f000000000000000000000000000000000000000000000000000000000000000073ffffffffffffffffffffffffffffffffffffffff1663f68183456040518163ffffffff1660e01b8152600401602060405180830381865afa158015611697573d6000803e3d6000fd5b505050506040513d601f19601f820116820180604052508101906116bb9190614758565b905090565b6000806116cc83613332565b9050600073ffffffffffffffffffffffffffffffffffffffff168173ffffffffffffffffffffffffffffffffffffffff160361173d576040517f08c379a000000000000000000000000000000000000000000000000000000000815260040161173490614ef4565b60405180910390fd5b80915050919050565b60008073ffffffffffffffffffffffffffffffffffffffff168273ffffffffffffffffffffffffffffffffffffffff16036117b6576040517f08c379a00000000000000000000000000000000000000000000000000000000081526004016117ad90614f86565b60405180910390fd5b600360008373ffffffffffffffffffffffffffffffffffffffff1673ffffffffffffffffffffffffffffffffffffffff168152602001908152602001600020549050919050565b600b5481565b600061180e83612d9a565b61184d576040517f08c379a000000000000000000000000000000000000000000000000000000000815260040161184490614c8c565b60405180910390fd5b60066000848152602001908152602001600020600201548211156118a6576040517f08c379a000000000000000000000000000000000000000000000000000000000815260040161189d9061503e565b60405180910390fd5b7f000000000000000000000000000000000000000000000000000000000000000073ffffffffffffffffffffffffffffffffffffffff166323b872dd33600e60009054906101000a900473ffffffffffffffffffffffffffffffffffffffff16856040518463ffffffff1660e01b8152600401611925939291906148ac565b6020604051808303816000875af1158015611944573d6000803e3d6000fd5b505050506040513d601f19601f8201168201806040525081019061196891906148f8565b50816009600082825461197b919061505e565b92505081905550816006600085815260200190815260200160002060020160008282546119a8919061505e565b925050819055507f261cb50047d46ec6565d3c46b06e1fc687ca92512796866c8ef15aa37bcb264a83338460066000888152602001908152602001600020600201546040516119fa9493929190615092565b60405180910390a16006600084815260200190815260200160002060020154905092915050565b600080611a2c612163565b611a3584611b4b565b6006600087815260200190815260200160002060010154611a56919061505e565b611a609190614b9e565b620f4240670de0b6b3a7640000856006600089815260200190815260200160002060020154611a8f919061505e565b611a999190614b9e565b611aa39190614b9e565b611aad9190614c0f565b90508091505092915050565b606060018054611ac890614680565b80601f0160208091040260200160405190810160405280929190818152602001828054611af490614680565b8015611b415780601f10611b1657610100808354040283529160200191611b41565b820191906000526020600020905b815481529060010190602001808311611b2457829003601f168201915b5050505050905090565b600080611b56612163565b9050806001826103e8620f424061049788611b719190614b9e565b611b7b9190614b9e565b611b859190614c0f565b611b8f9190614b33565b611b99919061505e565b611ba39190614c0f565b915050919050565b611bbd611bb6612cbb565b838361336f565b5050565b611bd2611bcc612cbb565b83612fa4565b611c11576040517f08c379a0000000000000000000000000000000000000000000000000000000008152600401611c0890614e88565b60405180910390fd5b611c1d848484846134db565b50505050565b600c60009054906101000a900473ffffffffffffffffffffffffffffffffffffffff1673ffffffffffffffffffffffffffffffffffffffff163373ffffffffffffffffffffffffffffffffffffffff1614611c7d57600080fd5b82600f819055508160108190555080601181905550505050565b6060611ca282612747565b6000611cac613537565b90506000815111611ccc5760405180602001604052806000815250611cf7565b80611cd68461354e565b604051602001611ce7929190615113565b6040516020818303038152906040525b915050919050565b60076020528060005260406000206000915090508060000154908060010154908060020154905083565b600c60009054906101000a900473ffffffffffffffffffffffffffffffffffffffff1673ffffffffffffffffffffffffffffffffffffffff163373ffffffffffffffffffffffffffffffffffffffff1614611d8357600080fd5b8360128190555082601381905550816014819055508060158190555050505050565b6000611db084612d9a565b611def576040517f08c379a0000000000000000000000000000000000000000000000000000000008152600401611de690615183565b60405180910390fd5b6006600085815260200190815260200160002060040154611e10858561108d565b10611e50576040517f08c379a0000000000000000000000000000000000000000000000000000000008152600401611e47906151ef565b60405180910390fd5b611e59846116c0565b73ffffffffffffffffffffffffffffffffffffffff163373ffffffffffffffffffffffffffffffffffffffff1614611ec6576040517f08c379a0000000000000000000000000000000000000000000000000000000008152600401611ebd9061525b565b60405180910390fd5b82600d60009054906101000a900473ffffffffffffffffffffffffffffffffffffffff1673ffffffffffffffffffffffffffffffffffffffff1663d86dbf306040518163ffffffff1660e01b81526004016020604051808303816000875af1158015611f36573d6000803e3d6000fd5b505050506040513d601f19601f82011682018060405250810190611f5a9190614758565b1015611f9b576040517f08c379a0000000000000000000000000000000000000000000000000000000008152600401611f92906152ed565b60405180910390fd5b8260096000828254611fad9190614b33565b9250508190555082600660008681526020019081526020016000206002016000828254611fda9190614b33565b92505081905550600d60009054906101000a900473ffffffffffffffffffffffffffffffffffffffff1673ffffffffffffffffffffffffffffffffffffffff16631343a35f83856040518363ffffffff1660e01b815260040161203e92919061531c565b6020604051808303816000875af115801561205d573d6000803e3d6000fd5b505050506040513d601f19601f820116820180604052508101906120819190614758565b507f747f86a640fd2014faf029d8353250f39acadbdd99ad7c8961706fbb16aace4084846040516120b3929190614925565b60405180910390a18290509392505050565b6000600954905090565b6000600560008473ffffffffffffffffffffffffffffffffffffffff1673ffffffffffffffffffffffffffffffffffffffff16815260200190815260200160002060008373ffffffffffffffffffffffffffffffffffffffff1673ffffffffffffffffffffffffffffffffffffffff16815260200190815260200160002060009054906101000a900460ff16905092915050565b6000806127107f000000000000000000000000000000000000000000000000000000000000000073ffffffffffffffffffffffffffffffffffffffff16633c88e8826040518163ffffffff1660e01b8152600401602060405180830381865afa1580156121d4573d6000803e3d6000fd5b505050506040513d601f19601f820116820180604052508101906121f89190614758565b6122029190614c0f565b90508091505090565b600060076000858152602001908152602001600020604051806060016040529081600082015481526020016001820154815260200160028201548152505090506000600660008681526020019081526020016000206040518061016001604052908160008201548152602001600182015481526020016002820154815260200160038201548152602001600482015481526020016005820154815260200160068201548152602001600782015481526020016008820154815260200160098201548152602001600a8201548152505090506122e585611112565b8160a00151106122f457600080fd5b60006123008686611a21565b9050808260c001511115801561231a5750808260e0015110155b61232357600080fd5b7f000000000000000000000000000000000000000000000000000000000000000073ffffffffffffffffffffffffffffffffffffffff166323b872dd8530886040518463ffffffff1660e01b8152600401612380939291906148ac565b6020604051808303816000875af115801561239f573d6000803e3d6000fd5b505050506040513d601f19601f820116820180604052508101906123c391906148f8565b50846006600088815260200190815260200160002060020160008282546123ea919061505e565b9250508190555060006123fc86611b4b565b905080600660008981526020019081526020016000206001016000828254612424919061505e565b925050819055507f000000000000000000000000000000000000000000000000000000000000000073ffffffffffffffffffffffffffffffffffffffff1663a9059cbb33836040518363ffffffff1660e01b8152600401612486929190615345565b6020604051808303816000875af11580156124a5573d6000803e3d6000fd5b505050506040513d601f19601f820116820180604052508101906124c991906148f8565b5060006064846020015186600001516124e29190614b9e565b6124ec9190614c0f565b905080600660008a81526020019081526020016000206001016000828254612514919061505e565b925050819055507f000000000000000000000000000000000000000000000000000000000000000073ffffffffffffffffffffffffffffffffffffffff1663a9059cbb600e60009054906101000a900473ffffffffffffffffffffffffffffffffffffffff16606484896020015161258c9190614b9e565b6125969190614c0f565b6040518363ffffffff1660e01b81526004016125b3929190615345565b6020604051808303816000875af11580156125d2573d6000803e3d6000fd5b505050506040513d601f19601f820116820180604052508101906125f691906148f8565b507f000000000000000000000000000000000000000000000000000000000000000073ffffffffffffffffffffffffffffffffffffffff1663a9059cbb600c60009054906101000a900473ffffffffffffffffffffffffffffffffffffffff1660648489604001516126689190614b9e565b6126729190614c0f565b6040518363ffffffff1660e01b815260040161268f929190615345565b6020604051808303816000875af11580156126ae573d6000803e3d6000fd5b505050506040513d601f19601f820116820180604052508101906126d291906148f8565b505050505050505050565b60007f01ffc9a7000000000000000000000000000000000000000000000000000000007bffffffffffffffffffffffffffffffffffffffffffffffffffffffff1916827bffffffffffffffffffffffffffffffffffffffffffffffffffffffff1916149050919050565b61275081612d9a565b61278f576040517f08c379a000000000000000000000000000000000000000000000000000000000815260040161278690614ef4565b60405180910390fd5b50565b60007f00000000000000000000000000000000000000000000000000000000000000006006600084815260200190815260200160002060000154600b546127d9919061505e565b60066000858152602001908152602001600020600101546127fa9190614b9e565b6128049190614c0f565b9050600b5460066000848152602001908152602001600020600001819055507f000000000000000000000000000000000000000000000000000000000000000073ffffffffffffffffffffffffffffffffffffffff1663a9059cbb600e60009054906101000a900473ffffffffffffffffffffffffffffffffffffffff1660646006600087815260200190815260200160002060080154856128a69190614b9e565b6128b09190614c0f565b6040518363ffffffff1660e01b81526004016128cd929190615345565b6020604051808303816000875af11580156128ec573d6000803e3d6000fd5b505050506040513d601f19601f8201168201806040525081019061291091906148f8565b507f000000000000000000000000000000000000000000000000000000000000000073ffffffffffffffffffffffffffffffffffffffff1663a9059cbb612956846116c0565b606460066000878152602001908152602001600020600901548561297a9190614b9e565b6129849190614c0f565b6040518363ffffffff1660e01b81526004016129a1929190615345565b6020604051808303816000875af11580156129c0573d6000803e3d6000fd5b505050506040513d601f19601f820116820180604052508101906129e491906148f8565b507f000000000000000000000000000000000000000000000000000000000000000073ffffffffffffffffffffffffffffffffffffffff1663a9059cbb600c60009054906101000a900473ffffffffffffffffffffffffffffffffffffffff16606460066000878152602001908152602001600020600a015485612a689190614b9e565b612a729190614c0f565b6040518363ffffffff1660e01b8152600401612a8f929190615345565b6020604051808303816000875af1158015612aae573d6000803e3d6000fd5b505050506040513d601f19601f82011682018060405250810190612ad291906148f8565b505050565b6000600a5414612aea57612ae961154a565b5b600b5460066000838152602001908152602001600020600001819055507f000000000000000000000000000000000000000000000000000000000000000073ffffffffffffffffffffffffffffffffffffffff1663095ea7b37f0000000000000000000000000000000000000000000000000000000000000000846040518363ffffffff1660e01b8152600401612b82929190615345565b6020604051808303816000875af1158015612ba1573d6000803e3d6000fd5b505050506040513d601f19601f82011682018060405250810190612bc591906148f8565b507f000000000000000000000000000000000000000000000000000000000000000073ffffffffffffffffffffffffffffffffffffffff16637547c7a3836040518263ffffffff1660e01b8152600401612c1f9190614066565b600060405180830381600087803b158015612c3957600080fd5b505af1158015612c4d573d6000803e3d6000fd5b5050505081600660008381526020019081526020016000206001016000828254612c779190614b33565b925050819055507f6e67b53c0074071d6873369bf18e3a14fbb623db525f1a84a881b4e958f8910d8282604051612caf929190614925565b60405180910390a15050565b600033905090565b816004600083815260200190815260200160002060006101000a81548173ffffffffffffffffffffffffffffffffffffffff021916908373ffffffffffffffffffffffffffffffffffffffff160217905550808273ffffffffffffffffffffffffffffffffffffffff16612d36836116c0565b73ffffffffffffffffffffffffffffffffffffffff167f8c5be1e5ebec7d5bd14f71427d1e84f3dd0314c0f7b2291e5b200ac8c7c3b92560405160405180910390a45050565b612d9682826040518060200160405280600081525061361c565b5050565b60008073ffffffffffffffffffffffffffffffffffffffff16612dbc83613332565b73ffffffffffffffffffffffffffffffffffffffff1614159050919050565b8260066000848152602001908152602001600020600101541015612dfe57600080fd5b612e0783613677565b82600660008481526020019081526020016000206001016000828254612e2d919061505e565b9250508190555082600a6000828254612e46919061505e565b925050819055507f000000000000000000000000000000000000000000000000000000000000000073ffffffffffffffffffffffffffffffffffffffff1663a9059cbb82856040518363ffffffff1660e01b8152600401612ea8929190615345565b6020604051808303816000875af1158015612ec7573d6000803e3d6000fd5b505050506040513d601f19601f82011682018060405250810190612eeb91906148f8565b507f11340af311bcc95a8166801ef671a7d9f3b329513878a6d942203623c4db612e8383604051612f1d929190614925565b60405180910390a1505050565b60066000828152602001908152602001600020600080820160009055600182016000905560028201600090556003820160009055600482016000905560058201600090556006820160009055600782016000905560088201600090556009820160009055600a8201600090555050612fa181613763565b50565b600080612fb0836116c0565b90508073ffffffffffffffffffffffffffffffffffffffff168473ffffffffffffffffffffffffffffffffffffffff161480612ff25750612ff181856120cf565b5b8061303057508373ffffffffffffffffffffffffffffffffffffffff1661301884610891565b73ffffffffffffffffffffffffffffffffffffffff16145b91505092915050565b8273ffffffffffffffffffffffffffffffffffffffff16613059826116c0565b73ffffffffffffffffffffffffffffffffffffffff16146130af576040517f08c379a00000000000000000000000000000000000000000000000000000000081526004016130a6906153e0565b60405180910390fd5b600073ffffffffffffffffffffffffffffffffffffffff168273ffffffffffffffffffffffffffffffffffffffff160361311e576040517f08c379a000000000000000000000000000000000000000000000000000000000815260040161311590615472565b60405180910390fd5b61312b83838360016138b1565b8273ffffffffffffffffffffffffffffffffffffffff1661314b826116c0565b73ffffffffffffffffffffffffffffffffffffffff16146131a1576040517f08c379a0000000000000000000000000000000000000000000000000000000008152600401613198906153e0565b60405180910390fd5b6004600082815260200190815260200160002060006101000a81549073ffffffffffffffffffffffffffffffffffffffff02191690556001600360008573ffffffffffffffffffffffffffffffffffffffff1673ffffffffffffffffffffffffffffffffffffffff168152602001908152602001600020600082825403925050819055506001600360008473ffffffffffffffffffffffffffffffffffffffff1673ffffffffffffffffffffffffffffffffffffffff16815260200190815260200160002060008282540192505081905550816002600083815260200190815260200160002060006101000a81548173ffffffffffffffffffffffffffffffffffffffff021916908373ffffffffffffffffffffffffffffffffffffffff160217905550808273ffffffffffffffffffffffffffffffffffffffff168473ffffffffffffffffffffffffffffffffffffffff167fddf252ad1be2c89b69c2b068fc378daa952ba7f163c4a11628f55a4df523b3ef60405160405180910390a461332d83838360016138b7565b505050565b60006002600083815260200190815260200160002060009054906101000a900473ffffffffffffffffffffffffffffffffffffffff169050919050565b8173ffffffffffffffffffffffffffffffffffffffff168373ffffffffffffffffffffffffffffffffffffffff16036133dd576040517f08c379a00000000000000000000000000000000000000000000000000000000081526004016133d4906154de565b60405180910390fd5b80600560008573ffffffffffffffffffffffffffffffffffffffff1673ffffffffffffffffffffffffffffffffffffffff16815260200190815260200160002060008473ffffffffffffffffffffffffffffffffffffffff1673ffffffffffffffffffffffffffffffffffffffff16815260200190815260200160002060006101000a81548160ff0219169083151502179055508173ffffffffffffffffffffffffffffffffffffffff168373ffffffffffffffffffffffffffffffffffffffff167f17307eab39ab6107e8899845ad3d59bd9653f200f220920489ca2b5937696c31836040516134ce9190613e8b565b60405180910390a3505050565b6134e6848484613039565b6134f2848484846138bd565b613531576040517f08c379a000000000000000000000000000000000000000000000000000000000815260040161352890615570565b60405180910390fd5b50505050565b606060405180602001604052806000815250905090565b60606000600161355d84613a44565b01905060008167ffffffffffffffff81111561357c5761357b614321565b5b6040519080825280601f01601f1916602001820160405280156135ae5781602001600182028036833780820191505090505b509050600082602001820190505b600115613611578080600190039150507f3031323334353637383961626364656600000000000000000000000000000000600a86061a8153600a858161360557613604614be0565b5b049450600085036135bc575b819350505050919050565b6136268383613b97565b61363360008484846138bd565b613672576040517f08c379a000000000000000000000000000000000000000000000000000000000815260040161366990615570565b60405180910390fd5b505050565b600061368161162a565b90507f000000000000000000000000000000000000000000000000000000000000000073ffffffffffffffffffffffffffffffffffffffff1663608e4dd0836040518263ffffffff1660e01b81526004016136dc9190614066565b600060405180830381600087803b1580156136f657600080fd5b505af115801561370a573d6000803e3d6000fd5b50505050600a547f00000000000000000000000000000000000000000000000000000000000000008261373d9190614b9e565b6137479190614c0f565b600b60008282546137589190614b33565b925050819055505050565b600061376e826116c0565b905061377e8160008460016138b1565b613787826116c0565b90506004600083815260200190815260200160002060006101000a81549073ffffffffffffffffffffffffffffffffffffffff02191690556001600360008373ffffffffffffffffffffffffffffffffffffffff1673ffffffffffffffffffffffffffffffffffffffff168152602001908152602001600020600082825403925050819055506002600083815260200190815260200160002060006101000a81549073ffffffffffffffffffffffffffffffffffffffff021916905581600073ffffffffffffffffffffffffffffffffffffffff168273ffffffffffffffffffffffffffffffffffffffff167fddf252ad1be2c89b69c2b068fc378daa952ba7f163c4a11628f55a4df523b3ef60405160405180910390a46138ad8160008460016138b7565b5050565b50505050565b50505050565b60006138de8473ffffffffffffffffffffffffffffffffffffffff16613db4565b15613a37578373ffffffffffffffffffffffffffffffffffffffff1663150b7a02613907612cbb565b8786866040518563ffffffff1660e01b815260040161392994939291906155e5565b6020604051808303816000875af192505050801561396557506040513d601f19601f820116820180604052508101906139629190615646565b60015b6139e7573d8060008114613995576040519150601f19603f3d011682016040523d82523d6000602084013e61399a565b606091505b5060008151036139df576040517f08c379a00000000000000000000000000000000000000000000000000000000081526004016139d690615570565b60405180910390fd5b805181602001fd5b63150b7a0260e01b7bffffffffffffffffffffffffffffffffffffffffffffffffffffffff1916817bffffffffffffffffffffffffffffffffffffffffffffffffffffffff191614915050613a3c565b600190505b949350505050565b600080600090507a184f03e93ff9f4daa797ed6e38ed64bf6a1f0100000000000000008310613aa2577a184f03e93ff9f4daa797ed6e38ed64bf6a1f0100000000000000008381613a9857613a97614be0565b5b0492506040810190505b6d04ee2d6d415b85acef81000000008310613adf576d04ee2d6d415b85acef81000000008381613ad557613ad4614be0565b5b0492506020810190505b662386f26fc100008310613b0e57662386f26fc100008381613b0457613b03614be0565b5b0492506010810190505b6305f5e1008310613b37576305f5e1008381613b2d57613b2c614be0565b5b0492506008810190505b6127108310613b5c576127108381613b5257613b51614be0565b5b0492506004810190505b60648310613b7f5760648381613b7557613b74614be0565b5b0492506002810190505b600a8310613b8e576001810190505b80915050919050565b600073ffffffffffffffffffffffffffffffffffffffff168273ffffffffffffffffffffffffffffffffffffffff1603613c06576040517f08c379a0000000000000000000000000000000000000000000000000000000008152600401613bfd906156bf565b60405180910390fd5b613c0f81612d9a565b15613c4f576040517f08c379a0000000000000000000000000000000000000000000000000000000008152600401613c469061572b565b60405180910390fd5b613c5d6000838360016138b1565b613c6681612d9a565b15613ca6576040517f08c379a0000000000000000000000000000000000000000000000000000000008152600401613c9d9061572b565b60405180910390fd5b6001600360008473ffffffffffffffffffffffffffffffffffffffff1673ffffffffffffffffffffffffffffffffffffffff16815260200190815260200160002060008282540192505081905550816002600083815260200190815260200160002060006101000a81548173ffffffffffffffffffffffffffffffffffffffff021916908373ffffffffffffffffffffffffffffffffffffffff160217905550808273ffffffffffffffffffffffffffffffffffffffff16600073ffffffffffffffffffffffffffffffffffffffff167fddf252ad1be2c89b69c2b068fc378daa952ba7f163c4a11628f55a4df523b3ef60405160405180910390a4613db06000838360016138b7565b5050565b6000808273ffffffffffffffffffffffffffffffffffffffff163b119050919050565b6000604051905090565b600080fd5b600080fd5b60007fffffffff0000000000000000000000000000000000000000000000000000000082169050919050565b613e2081613deb565b8114613e2b57600080fd5b50565b600081359050613e3d81613e17565b92915050565b600060208284031215613e5957613e58613de1565b5b6000613e6784828501613e2e565b91505092915050565b60008115159050919050565b613e8581613e70565b82525050565b6000602082019050613ea06000830184613e7c565b92915050565b600081519050919050565b600082825260208201905092915050565b60005b83811015613ee0578082015181840152602081019050613ec5565b60008484015250505050565b6000601f19601f8301169050919050565b6000613f0882613ea6565b613f128185613eb1565b9350613f22818560208601613ec2565b613f2b81613eec565b840191505092915050565b60006020820190508181036000830152613f508184613efd565b905092915050565b6000819050919050565b613f6b81613f58565b8114613f7657600080fd5b50565b600081359050613f8881613f62565b92915050565b600060208284031215613fa457613fa3613de1565b5b6000613fb284828501613f79565b91505092915050565b600073ffffffffffffffffffffffffffffffffffffffff82169050919050565b6000613fe682613fbb565b9050919050565b613ff681613fdb565b82525050565b60006020820190506140116000830184613fed565b92915050565b6000806040838503121561402e5761402d613de1565b5b600061403c85828601613f79565b925050602061404d85828601613f79565b9150509250929050565b61406081613f58565b82525050565b600060208201905061407b6000830184614057565b92915050565b61408a81613fdb565b811461409557600080fd5b50565b6000813590506140a781614081565b92915050565b600080604083850312156140c4576140c3613de1565b5b60006140d285828601614098565b92505060206140e385828601613f79565b9150509250929050565b60008060006060848603121561410657614105613de1565b5b600061411486828701613f79565b935050602061412586828701613f79565b925050604061413686828701613f79565b9150509250925092565b60008060006060848603121561415957614158613de1565b5b600061416786828701614098565b935050602061417886828701614098565b925050604061418986828701613f79565b9150509250925092565b6000610160820190506141a9600083018e614057565b6141b6602083018d614057565b6141c3604083018c614057565b6141d0606083018b614057565b6141dd608083018a614057565b6141ea60a0830189614057565b6141f760c0830188614057565b61420460e0830187614057565b614212610100830186614057565b614220610120830185614057565b61422e610140830184614057565b9c9b505050505050505050505050565b6000806040838503121561425557614254613de1565b5b600061426385828601614098565b925050602061427485828601614098565b9150509250929050565b60006020828403121561429457614293613de1565b5b60006142a284828501614098565b91505092915050565b6142b481613e70565b81146142bf57600080fd5b50565b6000813590506142d1816142ab565b92915050565b600080604083850312156142ee576142ed613de1565b5b60006142fc85828601614098565b925050602061430d858286016142c2565b9150509250929050565b600080fd5b600080fd5b7f4e487b7100000000000000000000000000000000000000000000000000000000600052604160045260246000fd5b61435982613eec565b810181811067ffffffffffffffff8211171561437857614377614321565b5b80604052505050565b600061438b613dd7565b90506143978282614350565b919050565b600067ffffffffffffffff8211156143b7576143b6614321565b5b6143c082613eec565b9050602081019050919050565b82818337600083830152505050565b60006143ef6143ea8461439c565b614381565b90508281526020810184848401111561440b5761440a61431c565b5b6144168482856143cd565b509392505050565b600082601f83011261443357614432614317565b5b81356144438482602086016143dc565b91505092915050565b6000806000806080858703121561446657614465613de1565b5b600061447487828801614098565b945050602061448587828801614098565b935050604061449687828801613f79565b925050606085013567ffffffffffffffff8111156144b7576144b6613de6565b5b6144c38782880161441e565b91505092959194509250565b60006060820190506144e46000830186614057565b6144f16020830185614057565b6144fe6040830184614057565b949350505050565b600080600080608085870312156145205761451f613de1565b5b600061452e87828801613f79565b945050602061453f87828801613f79565b935050604061455087828801613f79565b925050606061456187828801613f79565b91505092959194509250565b600061457882613fbb565b9050919050565b6145888161456d565b811461459357600080fd5b50565b6000813590506145a58161457f565b92915050565b6000806000606084860312156145c4576145c3613de1565b5b60006145d286828701613f79565b93505060206145e386828701613f79565b92505060406145f486828701614596565b9150509250925092565b60008060006060848603121561461757614616613de1565b5b600061462586828701613f79565b935050602061463686828701613f79565b925050604061464786828701614098565b9150509250925092565b7f4e487b7100000000000000000000000000000000000000000000000000000000600052602260045260246000fd5b6000600282049050600182168061469857607f821691505b6020821081036146ab576146aa614651565b5b50919050565b7f4c6f616e20646f65736e2774206578697374206f7220796f7520617265206e6f60008201527f7420746865206f776e6572206f6620746865206c6f616e000000000000000000602082015250565b600061470d603783613eb1565b9150614718826146b1565b604082019050919050565b6000602082019050818103600083015261473c81614700565b9050919050565b60008151905061475281613f62565b92915050565b60006020828403121561476e5761476d613de1565b5b600061477c84828501614743565b91505092915050565b7f646f6e2774206861766520656e6f75676820676e730000000000000000000000600082015250565b60006147bb601583613eb1565b91506147c682614785565b602082019050919050565b600060208201905081810360008301526147ea816147ae565b9050919050565b60006040820190506148066000830185613fed565b6148136020830184613fed565b9392505050565b7f6d757374206861766520656e6f75676820746f6b656e7320617070726f76656460008201527f20696e2074686520676e7320636f6e7472616374000000000000000000000000602082015250565b6000614876603483613eb1565b91506148818261481a565b604082019050919050565b600060208201905081810360008301526148a581614869565b9050919050565b60006060820190506148c16000830186613fed565b6148ce6020830185613fed565b6148db6040830184614057565b949350505050565b6000815190506148f2816142ab565b92915050565b60006020828403121561490e5761490d613de1565b5b600061491c848285016148e3565b91505092915050565b600060408201905061493a6000830185614057565b6149476020830184614057565b9392505050565b7f4552433732313a20617070726f76616c20746f2063757272656e74206f776e6560008201527f7200000000000000000000000000000000000000000000000000000000000000602082015250565b60006149aa602183613eb1565b91506149b58261494e565b604082019050919050565b600060208201905081810360008301526149d98161499d565b9050919050565b7f4552433732313a20617070726f76652063616c6c6572206973206e6f7420746f60008201527f6b656e206f776e6572206f7220617070726f76656420666f7220616c6c000000602082015250565b6000614a3c603d83613eb1565b9150614a47826149e0565b604082019050919050565b60006020820190508181036000830152614a6b81614a2f565b9050919050565b7f63616e206f6e6c792068617665206f6e65206c6f616e2070657220616464726560008201527f7373000000000000000000000000000000000000000000000000000000000000602082015250565b6000614ace602283613eb1565b9150614ad982614a72565b604082019050919050565b60006020820190508181036000830152614afd81614ac1565b9050919050565b7f4e487b7100000000000000000000000000000000000000000000000000000000600052601160045260246000fd5b6000614b3e82613f58565b9150614b4983613f58565b9250828201905080821115614b6157614b60614b04565b5b92915050565b6000606082019050614b7c6000830186613fed565b614b896020830185614057565b614b966040830184614057565b949350505050565b6000614ba982613f58565b9150614bb483613f58565b9250828202614bc281613f58565b91508282048414831517614bd957614bd8614b04565b5b5092915050565b7f4e487b7100000000000000000000000000000000000000000000000000000000600052601260045260246000fd5b6000614c1a82613f58565b9150614c2583613f58565b925082614c3557614c34614be0565b5b828204905092915050565b7f6c6f616e4964206d7573742062652061206f70656e206c6f616e000000000000600082015250565b6000614c76601a83613eb1565b9150614c8182614c40565b602082019050919050565b60006020820190508181036000830152614ca581614c69565b9050919050565b7f436f6c61746572616c206973207374696c6c206c6f636b656400000000000000600082015250565b6000614ce2601983613eb1565b9150614ced82614cac565b602082019050919050565b60006020820190508181036000830152614d1181614cd5565b9050919050565b7f4d75737420726570617920656e74697265206c6f616e206265666f726520726560008201527f6d6f76696e6720636f6c61746572616c00000000000000000000000000000000602082015250565b6000614d74603083613eb1565b9150614d7f82614d18565b604082019050919050565b60006020820190508181036000830152614da381614d67565b9050919050565b7f4d75737420626520746865206f776e6572206f6620746865206c6f616e000000600082015250565b6000614de0601d83613eb1565b9150614deb82614daa565b602082019050919050565b60006020820190508181036000830152614e0f81614dd3565b9050919050565b7f4552433732313a2063616c6c6572206973206e6f7420746f6b656e206f776e6560008201527f72206f7220617070726f76656400000000000000000000000000000000000000602082015250565b6000614e72602d83613eb1565b9150614e7d82614e16565b604082019050919050565b60006020820190508181036000830152614ea181614e65565b9050919050565b7f4552433732313a20696e76616c696420746f6b656e2049440000000000000000600082015250565b6000614ede601883613eb1565b9150614ee982614ea8565b602082019050919050565b60006020820190508181036000830152614f0d81614ed1565b9050919050565b7f4552433732313a2061646472657373207a65726f206973206e6f74206120766160008201527f6c6964206f776e65720000000000000000000000000000000000000000000000602082015250565b6000614f70602983613eb1565b9150614f7b82614f14565b604082019050919050565b60006020820190508181036000830152614f9f81614f63565b9050919050565b7f616d6f756e74206d7573742062652067726561746572207468616e203020616e60008201527f64206c657373207468616e20796f7572206c6f616e6564206f757420616d6f7560208201527f6e74000000000000000000000000000000000000000000000000000000000000604082015250565b6000615028604283613eb1565b915061503382614fa6565b606082019050919050565b600060208201905081810360008301526150578161501b565b9050919050565b600061506982613f58565b915061507483613f58565b925082820390508181111561508c5761508b614b04565b5b92915050565b60006080820190506150a76000830187614057565b6150b46020830186613fed565b6150c16040830185614057565b6150ce6060830184614057565b95945050505050565b600081905092915050565b60006150ed82613ea6565b6150f781856150d7565b9350615107818560208601613ec2565b80840191505092915050565b600061511f82856150e2565b915061512b82846150e2565b91508190509392505050565b7f4c6f616e20646f65736e74206578697374000000000000000000000000000000600082015250565b600061516d601183613eb1565b915061517882615137565b602082019050919050565b6000602082019050818103600083015261519c81615160565b9050919050565b7f52657175657374696e6720746f6f206d75636820757364630000000000000000600082015250565b60006151d9601883613eb1565b91506151e4826151a3565b602082019050919050565b60006020820190508181036000830152615208816151cc565b9050919050565b7f6d757374206265206f776e657200000000000000000000000000000000000000600082015250565b6000615245600d83613eb1565b91506152508261520f565b602082019050919050565b6000602082019050818103600083015261527481615238565b9050919050565b7f6c6f616e657220646f6573206e6f74206861766520656e6f756768207573646360008201527f20746f20636f76657220796f757220616d6f756e740000000000000000000000602082015250565b60006152d7603583613eb1565b91506152e28261527b565b604082019050919050565b60006020820190508181036000830152615306816152ca565b9050919050565b6153168161456d565b82525050565b6000604082019050615331600083018561530d565b61533e6020830184614057565b9392505050565b600060408201905061535a6000830185613fed565b6153676020830184614057565b9392505050565b7f4552433732313a207472616e736665722066726f6d20696e636f72726563742060008201527f6f776e6572000000000000000000000000000000000000000000000000000000602082015250565b60006153ca602583613eb1565b91506153d58261536e565b604082019050919050565b600060208201905081810360008301526153f9816153bd565b9050919050565b7f4552433732313a207472616e7366657220746f20746865207a65726f2061646460008201527f7265737300000000000000000000000000000000000000000000000000000000602082015250565b600061545c602483613eb1565b915061546782615400565b604082019050919050565b6000602082019050818103600083015261548b8161544f565b9050919050565b7f4552433732313a20617070726f766520746f2063616c6c657200000000000000600082015250565b60006154c8601983613eb1565b91506154d382615492565b602082019050919050565b600060208201905081810360008301526154f7816154bb565b9050919050565b7f4552433732313a207472616e7366657220746f206e6f6e20455243373231526560008201527f63656976657220696d706c656d656e7465720000000000000000000000000000602082015250565b600061555a603283613eb1565b9150615565826154fe565b604082019050919050565b600060208201905081810360008301526155898161554d565b9050919050565b600081519050919050565b600082825260208201905092915050565b60006155b782615590565b6155c1818561559b565b93506155d1818560208601613ec2565b6155da81613eec565b840191505092915050565b60006080820190506155fa6000830187613fed565b6156076020830186613fed565b6156146040830185614057565b818103606083015261562681846155ac565b905095945050505050565b60008151905061564081613e17565b92915050565b60006020828403121561565c5761565b613de1565b5b600061566a84828501615631565b91505092915050565b7f4552433732313a206d696e7420746f20746865207a65726f2061646472657373600082015250565b60006156a9602083613eb1565b91506156b482615673565b602082019050919050565b600060208201905081810360008301526156d88161569c565b9050919050565b7f4552433732313a20746f6b656e20616c7265616479206d696e74656400000000600082015250565b6000615715601c83613eb1565b9150615720826156df565b602082019050919050565b6000602082019050818103600083015261574481615708565b905091905056fea264697066735822122025527ef598a3fe66205e51de4be5ab5d281bc09c85cb691a3f8a7987d517e16f64736f6c63430008110033",
  "linkReferences": {},
  "deployedLinkReferences": {}
}