{
  "_format": "hh-sol-artifact-1",
  "contractName": "gnsPool",
  "sourceName": "contracts/gnsPool.sol",
  "abi": [
    {
      "inputs": [
        {
          "internalType": "address",
          "name": "loaner_",
          "type": "address"
        },
        {
          "internalType": "address",
          "name": "vault_",
          "type": "address"
        }
      ],
      "stateMutability": "nonpayable",
      "type": "constructor"
    },
    {
      "anonymous": false,
      "inputs": [
        {
          "indexed": true,
          "internalType": "address",
          "name": "owner",
          "type": "address"
        },
        {
          "indexed": true,
          "internalType": "address",
          "name": "approved",
          "type": "address"
        },
        {
          "indexed": true,
          "internalType": "uint256",
          "name": "tokenId",
          "type": "uint256"
        }
      ],
      "name": "Approval",
      "type": "event"
    },
    {
      "anonymous": false,
      "inputs": [
        {
          "indexed": true,
          "internalType": "address",
          "name": "owner",
          "type": "address"
        },
        {
          "indexed": true,
          "internalType": "address",
          "name": "operator",
          "type": "address"
        },
        {
          "indexed": false,
          "internalType": "bool",
          "name": "approved",
          "type": "bool"
        }
      ],
      "name": "ApprovalForAll",
      "type": "event"
    },
    {
      "anonymous": false,
      "inputs": [
        {
          "indexed": true,
          "internalType": "address",
          "name": "from",
          "type": "address"
        },
        {
          "indexed": true,
          "internalType": "address",
          "name": "to",
          "type": "address"
        },
        {
          "indexed": true,
          "internalType": "uint256",
          "name": "tokenId",
          "type": "uint256"
        }
      ],
      "name": "Transfer",
      "type": "event"
    },
    {
      "inputs": [],
      "name": "_borrowerSplit",
      "outputs": [
        {
          "internalType": "uint256",
          "name": "",
          "type": "uint256"
        }
      ],
      "stateMutability": "view",
      "type": "function"
    },
    {
      "inputs": [],
      "name": "_lenderSplit",
      "outputs": [
        {
          "internalType": "uint256",
          "name": "",
          "type": "uint256"
        }
      ],
      "stateMutability": "view",
      "type": "function"
    },
    {
      "inputs": [
        {
          "internalType": "uint256",
          "name": "",
          "type": "uint256"
        }
      ],
      "name": "_loanLiqudations",
      "outputs": [
        {
          "internalType": "uint256",
          "name": "liquidationPenalty",
          "type": "uint256"
        },
        {
          "internalType": "uint256",
          "name": "liquidationLenderSplit",
          "type": "uint256"
        },
        {
          "internalType": "uint256",
          "name": "liquidationProjectSplit",
          "type": "uint256"
        }
      ],
      "stateMutability": "view",
      "type": "function"
    },
    {
      "inputs": [
        {
          "internalType": "uint256",
          "name": "",
          "type": "uint256"
        }
      ],
      "name": "_outstandingLoans",
      "outputs": [
        {
          "internalType": "uint256",
          "name": "daiRatioPayout",
          "type": "uint256"
        },
        {
          "internalType": "uint256",
          "name": "stakedGns",
          "type": "uint256"
        },
        {
          "internalType": "uint256",
          "name": "borrowedUsdc",
          "type": "uint256"
        },
        {
          "internalType": "uint256",
          "name": "unlockTime",
          "type": "uint256"
        },
        {
          "internalType": "uint256",
          "name": "maxBorrowedUsdc",
          "type": "uint256"
        },
        {
          "internalType": "uint256",
          "name": "maxHealthFactor",
          "type": "uint256"
        },
        {
          "internalType": "uint256",
          "name": "lowerLiq",
          "type": "uint256"
        },
        {
          "internalType": "uint256",
          "name": "higherLiq",
          "type": "uint256"
        },
        {
          "internalType": "uint256",
          "name": "lenderRewardsSplit",
          "type": "uint256"
        },
        {
          "internalType": "uint256",
          "name": "borrowerRewardsSplit",
          "type": "uint256"
        },
        {
          "internalType": "uint256",
          "name": "projectRewardsSplit",
          "type": "uint256"
        }
      ],
      "stateMutability": "view",
      "type": "function"
    },
    {
      "inputs": [],
      "name": "_projectSplit",
      "outputs": [
        {
          "internalType": "uint256",
          "name": "",
          "type": "uint256"
        }
      ],
      "stateMutability": "view",
      "type": "function"
    },
    {
      "inputs": [
        {
          "internalType": "uint256",
          "name": "loanId_",
          "type": "uint256"
        },
        {
          "internalType": "uint256",
          "name": "amount_",
          "type": "uint256"
        }
      ],
      "name": "addColateral",
      "outputs": [
        {
          "internalType": "uint256",
          "name": "",
          "type": "uint256"
        }
      ],
      "stateMutability": "nonpayable",
      "type": "function"
    },
    {
      "inputs": [
        {
          "internalType": "address",
          "name": "to",
          "type": "address"
        },
        {
          "internalType": "uint256",
          "name": "tokenId",
          "type": "uint256"
        }
      ],
      "name": "approve",
      "outputs": [],
      "stateMutability": "nonpayable",
      "type": "function"
    },
    {
      "inputs": [
        {
          "internalType": "address",
          "name": "owner",
          "type": "address"
        }
      ],
      "name": "balanceOf",
      "outputs": [
        {
          "internalType": "uint256",
          "name": "",
          "type": "uint256"
        }
      ],
      "stateMutability": "view",
      "type": "function"
    },
    {
      "inputs": [
        {
          "internalType": "uint256",
          "name": "loanId_",
          "type": "uint256"
        },
        {
          "internalType": "uint256",
          "name": "amount_",
          "type": "uint256"
        },
        {
          "internalType": "address payable",
          "name": "sendTo_",
          "type": "address"
        }
      ],
      "name": "borrow",
      "outputs": [
        {
          "internalType": "uint256",
          "name": "",
          "type": "uint256"
        }
      ],
      "stateMutability": "nonpayable",
      "type": "function"
    },
    {
      "inputs": [],
      "name": "currDaiRatio",
      "outputs": [
        {
          "internalType": "uint256",
          "name": "",
          "type": "uint256"
        }
      ],
      "stateMutability": "view",
      "type": "function"
    },
    {
      "inputs": [],
      "name": "currGnsPrice",
      "outputs": [
        {
          "internalType": "uint256",
          "name": "",
          "type": "uint256"
        }
      ],
      "stateMutability": "view",
      "type": "function"
    },
    {
      "inputs": [
        {
          "internalType": "address",
          "name": "receiver_",
          "type": "address"
        },
        {
          "internalType": "uint256",
          "name": "amount_",
          "type": "uint256"
        }
      ],
      "name": "depositColateral",
      "outputs": [
        {
          "internalType": "uint256",
          "name": "",
          "type": "uint256"
        }
      ],
      "stateMutability": "nonpayable",
      "type": "function"
    },
    {
      "inputs": [
        {
          "internalType": "uint256",
          "name": "tokenId",
          "type": "uint256"
        }
      ],
      "name": "getApproved",
      "outputs": [
        {
          "internalType": "address",
          "name": "",
          "type": "address"
        }
      ],
      "stateMutability": "view",
      "type": "function"
    },
    {
      "inputs": [
        {
          "internalType": "uint256",
          "name": "loanId_",
          "type": "uint256"
        }
      ],
      "name": "getCurrHealth",
      "outputs": [
        {
          "internalType": "uint256",
          "name": "",
          "type": "uint256"
        }
      ],
      "stateMutability": "view",
      "type": "function"
    },
    {
      "inputs": [
        {
          "internalType": "uint256",
          "name": "loanId_",
          "type": "uint256"
        },
        {
          "internalType": "uint256",
          "name": "amount_",
          "type": "uint256"
        }
      ],
      "name": "getNewBorrowHealth",
      "outputs": [
        {
          "internalType": "uint256",
          "name": "",
          "type": "uint256"
        }
      ],
      "stateMutability": "view",
      "type": "function"
    },
    {
      "inputs": [
        {
          "internalType": "uint256",
          "name": "loanId_",
          "type": "uint256"
        },
        {
          "internalType": "uint256",
          "name": "amount_",
          "type": "uint256"
        }
      ],
      "name": "getNewLiqHealth",
      "outputs": [
        {
          "internalType": "uint256",
          "name": "",
          "type": "uint256"
        }
      ],
      "stateMutability": "view",
      "type": "function"
    },
    {
      "inputs": [
        {
          "internalType": "uint256",
          "name": "amount_",
          "type": "uint256"
        }
      ],
      "name": "gnsToSend",
      "outputs": [
        {
          "internalType": "uint256",
          "name": "",
          "type": "uint256"
        }
      ],
      "stateMutability": "view",
      "type": "function"
    },
    {
      "inputs": [
        {
          "internalType": "address",
          "name": "owner",
          "type": "address"
        },
        {
          "internalType": "address",
          "name": "operator",
          "type": "address"
        }
      ],
      "name": "isApprovedForAll",
      "outputs": [
        {
          "internalType": "bool",
          "name": "",
          "type": "bool"
        }
      ],
      "stateMutability": "view",
      "type": "function"
    },
    {
      "inputs": [],
      "name": "lenderSplit",
      "outputs": [
        {
          "internalType": "uint256",
          "name": "",
          "type": "uint256"
        }
      ],
      "stateMutability": "view",
      "type": "function"
    },
    {
      "inputs": [
        {
          "internalType": "uint256",
          "name": "loanId_",
          "type": "uint256"
        },
        {
          "internalType": "uint256",
          "name": "amount_",
          "type": "uint256"
        },
        {
          "internalType": "address",
          "name": "payer_",
          "type": "address"
        }
      ],
      "name": "liquidate",
      "outputs": [],
      "stateMutability": "nonpayable",
      "type": "function"
    },
    {
      "inputs": [],
      "name": "name",
      "outputs": [
        {
          "internalType": "string",
          "name": "",
          "type": "string"
        }
      ],
      "stateMutability": "view",
      "type": "function"
    },
    {
      "inputs": [
        {
          "internalType": "uint256",
          "name": "tokenId",
          "type": "uint256"
        }
      ],
      "name": "ownerOf",
      "outputs": [
        {
          "internalType": "address",
          "name": "",
          "type": "address"
        }
      ],
      "stateMutability": "view",
      "type": "function"
    },
    {
      "inputs": [],
      "name": "pendingDai",
      "outputs": [
        {
          "internalType": "uint256",
          "name": "",
          "type": "uint256"
        }
      ],
      "stateMutability": "view",
      "type": "function"
    },
    {
      "inputs": [
        {
          "internalType": "uint256",
          "name": "loanId_",
          "type": "uint256"
        },
        {
          "internalType": "uint256",
          "name": "amount_",
          "type": "uint256"
        }
      ],
      "name": "repayLoan",
      "outputs": [
        {
          "internalType": "uint256",
          "name": "",
          "type": "uint256"
        }
      ],
      "stateMutability": "nonpayable",
      "type": "function"
    },
    {
      "inputs": [
        {
          "internalType": "address",
          "name": "from",
          "type": "address"
        },
        {
          "internalType": "address",
          "name": "to",
          "type": "address"
        },
        {
          "internalType": "uint256",
          "name": "tokenId",
          "type": "uint256"
        }
      ],
      "name": "safeTransferFrom",
      "outputs": [],
      "stateMutability": "nonpayable",
      "type": "function"
    },
    {
      "inputs": [
        {
          "internalType": "address",
          "name": "from",
          "type": "address"
        },
        {
          "internalType": "address",
          "name": "to",
          "type": "address"
        },
        {
          "internalType": "uint256",
          "name": "tokenId",
          "type": "uint256"
        },
        {
          "internalType": "bytes",
          "name": "data",
          "type": "bytes"
        }
      ],
      "name": "safeTransferFrom",
      "outputs": [],
      "stateMutability": "nonpayable",
      "type": "function"
    },
    {
      "inputs": [
        {
          "internalType": "address",
          "name": "operator",
          "type": "address"
        },
        {
          "internalType": "bool",
          "name": "approved",
          "type": "bool"
        }
      ],
      "name": "setApprovalForAll",
      "outputs": [],
      "stateMutability": "nonpayable",
      "type": "function"
    },
    {
      "inputs": [
        {
          "internalType": "bytes4",
          "name": "interfaceId",
          "type": "bytes4"
        }
      ],
      "name": "supportsInterface",
      "outputs": [
        {
          "internalType": "bool",
          "name": "",
          "type": "bool"
        }
      ],
      "stateMutability": "view",
      "type": "function"
    },
    {
      "inputs": [],
      "name": "symbol",
      "outputs": [
        {
          "internalType": "string",
          "name": "",
          "type": "string"
        }
      ],
      "stateMutability": "view",
      "type": "function"
    },
    {
      "inputs": [
        {
          "internalType": "uint256",
          "name": "tokenId",
          "type": "uint256"
        }
      ],
      "name": "tokenURI",
      "outputs": [
        {
          "internalType": "string",
          "name": "",
          "type": "string"
        }
      ],
      "stateMutability": "view",
      "type": "function"
    },
    {
      "inputs": [],
      "name": "totalCollateral",
      "outputs": [
        {
          "internalType": "uint256",
          "name": "",
          "type": "uint256"
        }
      ],
      "stateMutability": "view",
      "type": "function"
    },
    {
      "inputs": [],
      "name": "totalLoanedOut",
      "outputs": [
        {
          "internalType": "uint256",
          "name": "",
          "type": "uint256"
        }
      ],
      "stateMutability": "view",
      "type": "function"
    },
    {
      "inputs": [
        {
          "internalType": "address",
          "name": "from",
          "type": "address"
        },
        {
          "internalType": "address",
          "name": "to",
          "type": "address"
        },
        {
          "internalType": "uint256",
          "name": "tokenId",
          "type": "uint256"
        }
      ],
      "name": "transferFrom",
      "outputs": [],
      "stateMutability": "nonpayable",
      "type": "function"
    },
    {
      "inputs": [],
      "name": "updateDaiRatio",
      "outputs": [],
      "stateMutability": "nonpayable",
      "type": "function"
    },
    {
      "inputs": [
        {
          "internalType": "address",
          "name": "receiver_",
          "type": "address"
        },
        {
          "internalType": "uint256",
          "name": "loanId_",
          "type": "uint256"
        }
      ],
      "name": "widthdrawColateral",
      "outputs": [
        {
          "internalType": "uint256",
          "name": "",
          "type": "uint256"
        }
      ],
      "stateMutability": "nonpayable",
      "type": "function"
    }
  ],
  "bytecode": "0x610120604052738f3cf7ad23cd3cadbd9735aff958023239c6a06373ffffffffffffffffffffffffffffffffffffffff1660809073ffffffffffffffffffffffffffffffffffffffff1681525073e5417af564e4bfda1c483642db7200787139789673ffffffffffffffffffffffffffffffffffffffff1660a09073ffffffffffffffffffffffffffffffffffffffff1681525073fb06a737f549eb2512eb6082a808fc7f16c0819d73ffffffffffffffffffffffffffffffffffffffff1660c09073ffffffffffffffffffffffffffffffffffffffff1681525073631e885028e75fcbb34c06d8ecb8e20ea18f663273ffffffffffffffffffffffffffffffffffffffff1660e09073ffffffffffffffffffffffffffffffffffffffff16815250670de0b6b3a7640000610100908152503480156200013e57600080fd5b5060405162005ac838038062005ac88339818101604052810190620001649190620003ae565b6040518060400160405280600981526020017f466574746920474e5300000000000000000000000000000000000000000000008152506040518060400160405280600681526020017f466574476e7300000000000000000000000000000000000000000000000000008152508160009081620001e191906200066f565b508060019081620001f391906200066f565b50505033600c60006101000a81548173ffffffffffffffffffffffffffffffffffffffff021916908373ffffffffffffffffffffffffffffffffffffffff16021790555081600d60006101000a81548173ffffffffffffffffffffffffffffffffffffffff021916908373ffffffffffffffffffffffffffffffffffffffff16021790555080600e60006101000a81548173ffffffffffffffffffffffffffffffffffffffff021916908373ffffffffffffffffffffffffffffffffffffffff1602179055506000600b8190555060006008819055506000600981905550600f80819055506046601081905550600f60118190555067048b8383cbf0c0006012819055506705eec8fc297ac0006013819055506706f05b59d3b20000601481905550670853a0d2313c0000601581905550600a601681905550604b6017819055506019601881905550505062000756565b600080fd5b600073ffffffffffffffffffffffffffffffffffffffff82169050919050565b6000620003768262000349565b9050919050565b620003888162000369565b81146200039457600080fd5b50565b600081519050620003a8816200037d565b92915050565b60008060408385031215620003c857620003c762000344565b5b6000620003d88582860162000397565b9250506020620003eb8582860162000397565b9150509250929050565b600081519050919050565b7f4e487b7100000000000000000000000000000000000000000000000000000000600052604160045260246000fd5b7f4e487b7100000000000000000000000000000000000000000000000000000000600052602260045260246000fd5b600060028204905060018216806200047757607f821691505b6020821081036200048d576200048c6200042f565b5b50919050565b60008190508160005260206000209050919050565b60006020601f8301049050919050565b600082821b905092915050565b600060088302620004f77fffffffffffffffffffffffffffffffffffffffffffffffffffffffffffffffff82620004b8565b620005038683620004b8565b95508019841693508086168417925050509392505050565b6000819050919050565b6000819050919050565b6000620005506200054a62000544846200051b565b62000525565b6200051b565b9050919050565b6000819050919050565b6200056c836200052f565b620005846200057b8262000557565b848454620004c5565b825550505050565b600090565b6200059b6200058c565b620005a881848462000561565b505050565b5b81811015620005d057620005c460008262000591565b600181019050620005ae565b5050565b601f8211156200061f57620005e98162000493565b620005f484620004a8565b8101602085101562000604578190505b6200061c6200061385620004a8565b830182620005ad565b50505b505050565b600082821c905092915050565b6000620006446000198460080262000624565b1980831691505092915050565b60006200065f838362000631565b9150826002028217905092915050565b6200067a82620003f5565b67ffffffffffffffff81111562000696576200069562000400565b5b620006a282546200045e565b620006af828285620005d4565b600060209050601f831160018114620006e75760008415620006d2578287015190505b620006de858262000651565b8655506200074e565b601f198416620006f78662000493565b60005b828110156200072157848901518255600182019150602085019450602081019050620006fa565b868310156200074157848901516200073d601f89168262000631565b8355505b6001600288020188555050505b505050505050565b60805160a05160c05160e051610100516152af62000819600039600081816113eb01528181612448015261339f01526000611e1501526000818161136801528181611444015281816127f70152818161287a015261331301526000818161098301528181610a5f01528181610b4501528181610d85015281816120d7015281816121c7015281816122a3015281816127bb0152612ac80152600081816116ce01528181611fcf015281816124d7015281816125c5015261269901526152af6000f3fe608060405234801561001057600080fd5b50600436106102115760003560e01c80636352211e11610125578063a22cb465116100ad578063d6bda0c01161007c578063d6bda0c014610696578063e7fb0790146106c6578063e985e9c5146106e4578063ef97ed7314610714578063f354a3391461073257610211565b8063a22cb465146105fc578063b88d4fde14610618578063c87b56dd14610634578063d246e4841461066457610211565b80637b943d35116100f45780637b943d35146105305780638a700b531461054e578063952773381461057e57806395d89b41146105ae5780639f7b272d146105cc57610211565b80636352211e146104945780636ec4753a146104c457806370a08231146104e257806376e7db091461051257610211565b806322e3ea69116101a857806342842e0e1161017757806342842e0e146104145780634ac8eb5f146104305780634b5f7a791461044e578063575c38ec14610458578063606708ce1461047657610211565b806322e3ea691461037057806323b872dd146103a05780632b7564f9146103bc5780632dafc103146103f657610211565b8063095ea7b3116101e4578063095ea7b3146102c457806314393ba3146102e05780631e3f68b8146103105780631e969a801461034057610211565b806301ffc9a71461021657806306fdde0314610246578063081812fc1461026457806308ef74c914610294575b600080fd5b610230600480360381019061022b9190613ad0565b61074e565b60405161023d9190613b18565b60405180910390f35b61024e610830565b60405161025b9190613bc3565b60405180910390f35b61027e60048036038101906102799190613c1b565b6108c2565b60405161028b9190613c89565b60405180910390f35b6102ae60048036038101906102a99190613ca4565b610908565b6040516102bb9190613cf3565b60405180910390f35b6102de60048036038101906102d99190613d3a565b610c0d565b005b6102fa60048036038101906102f59190613d3a565b610d24565b6040516103079190613cf3565b60405180910390f35b61032a60048036038101906103259190613ca4565b610fb3565b6040516103379190613cf3565b60405180910390f35b61035a60048036038101906103559190613c1b565b611038565b6040516103679190613cf3565b60405180910390f35b61038a60048036038101906103859190613d3a565b6110bd565b6040516103979190613cf3565b60405180910390f35b6103ba60048036038101906103b59190613d7a565b611270565b005b6103d660048036038101906103d19190613c1b565b6112d0565b6040516103ed9b9a99989796959493929190613dcd565b60405180910390f35b6103fe61132a565b60405161040b9190613cf3565b60405180910390f35b61042e60048036038101906104299190613d7a565b611330565b005b610438611350565b6040516104459190613cf3565b60405180910390f35b61045661135a565b005b61046061143a565b60405161046d9190613cf3565b60405180910390f35b61047e611440565b60405161048b9190613cf3565b60405180910390f35b6104ae60048036038101906104a99190613c1b565b6114d6565b6040516104bb9190613c89565b60405180910390f35b6104cc61155c565b6040516104d99190613cf3565b60405180910390f35b6104fc60048036038101906104f79190613e78565b611562565b6040516105099190613cf3565b60405180910390f35b61051a611619565b6040516105279190613cf3565b60405180910390f35b61053861161f565b6040516105459190613cf3565b60405180910390f35b61056860048036038101906105639190613ca4565b611629565b6040516105759190613cf3565b60405180910390f35b61059860048036038101906105939190613ca4565b6117f4565b6040516105a59190613cf3565b60405180910390f35b6105b661188c565b6040516105c39190613bc3565b60405180910390f35b6105e660048036038101906105e19190613c1b565b61191e565b6040516105f39190613cf3565b60405180910390f35b61061660048036038101906106119190613ed1565b61197e565b005b610632600480360381019061062d9190614046565b611994565b005b61064e60048036038101906106499190613c1b565b6119f6565b60405161065b9190613bc3565b60405180910390f35b61067e60048036038101906106799190613c1b565b611a5e565b60405161068d939291906140c9565b60405180910390f35b6106b060048036038101906106ab919061413e565b611a88565b6040516106bd9190613cf3565b60405180910390f35b6106ce611d6f565b6040516106db9190613cf3565b60405180910390f35b6106fe60048036038101906106f99190614191565b611d79565b60405161070b9190613b18565b60405180910390f35b61071c611e0d565b6040516107299190613cf3565b60405180910390f35b61074c600480360381019061074791906141d1565b611eb5565b005b60007f80ac58cd000000000000000000000000000000000000000000000000000000007bffffffffffffffffffffffffffffffffffffffffffffffffffffffff1916827bffffffffffffffffffffffffffffffffffffffffffffffffffffffff1916148061081957507f5b5e139f000000000000000000000000000000000000000000000000000000007bffffffffffffffffffffffffffffffffffffffffffffffffffffffff1916827bffffffffffffffffffffffffffffffffffffffffffffffffffffffff1916145b80610829575061082882612387565b5b9050919050565b60606000805461083f90614253565b80601f016020809104026020016040519081016040528092919081815260200182805461086b90614253565b80156108b85780601f1061088d576101008083540402835291602001916108b8565b820191906000526020600020905b81548152906001019060200180831161089b57829003601f168201915b5050505050905090565b60006108cd826123f1565b6004600083815260200190815260200160002060009054906101000a900473ffffffffffffffffffffffffffffffffffffffff169050919050565b6000610913836114d6565b73ffffffffffffffffffffffffffffffffffffffff163373ffffffffffffffffffffffffffffffffffffffff1614610980576040517f08c379a0000000000000000000000000000000000000000000000000000000008152600401610977906142f6565b60405180910390fd5b817f000000000000000000000000000000000000000000000000000000000000000073ffffffffffffffffffffffffffffffffffffffff166370a08231336040518263ffffffff1660e01b81526004016109da9190613c89565b602060405180830381865afa1580156109f7573d6000803e3d6000fd5b505050506040513d601f19601f82011682018060405250810190610a1b919061432b565b1015610a5c576040517f08c379a0000000000000000000000000000000000000000000000000000000008152600401610a53906143a4565b60405180910390fd5b817f000000000000000000000000000000000000000000000000000000000000000073ffffffffffffffffffffffffffffffffffffffff1663dd62ed3e33306040518363ffffffff1660e01b8152600401610ab89291906143c4565b602060405180830381865afa158015610ad5573d6000803e3d6000fd5b505050506040513d601f19601f82011682018060405250810190610af9919061432b565b1015610b3a576040517f08c379a0000000000000000000000000000000000000000000000000000000008152600401610b319061445f565b60405180910390fd5b610b438361243c565b7f000000000000000000000000000000000000000000000000000000000000000073ffffffffffffffffffffffffffffffffffffffff166323b872dd3330856040518463ffffffff1660e01b8152600401610ba09392919061447f565b6020604051808303816000875af1158015610bbf573d6000803e3d6000fd5b505050506040513d601f19601f82011682018060405250810190610be391906144cb565b50610bee8284612789565b6006600084815260200190815260200160002060010154905092915050565b6000610c18826114d6565b90508073ffffffffffffffffffffffffffffffffffffffff168373ffffffffffffffffffffffffffffffffffffffff1603610c88576040517f08c379a0000000000000000000000000000000000000000000000000000000008152600401610c7f9061456a565b60405180910390fd5b8073ffffffffffffffffffffffffffffffffffffffff16610ca761294d565b73ffffffffffffffffffffffffffffffffffffffff161480610cd65750610cd581610cd061294d565b611d79565b5b610d15576040517f08c379a0000000000000000000000000000000000000000000000000000000008152600401610d0c906145fc565b60405180910390fd5b610d1f8383612955565b505050565b600080610d3033611562565b14610d70576040517f08c379a0000000000000000000000000000000000000000000000000000000008152600401610d679061468e565b60405180910390fd5b6000600a5414610d8357610d8261135a565b5b7f000000000000000000000000000000000000000000000000000000000000000073ffffffffffffffffffffffffffffffffffffffff166323b872dd3330856040518463ffffffff1660e01b8152600401610de09392919061447f565b6020604051808303816000875af1158015610dff573d6000803e3d6000fd5b505050506040513d601f19601f82011682018060405250810190610e2391906144cb565b5060006202a30042610e3591906146dd565b9050600160086000828254610e4a91906146dd565b92505081905550604051806101600160405280600b548152602001600081526020016000815260200182815260200160145481526020016015548152602001601254815260200160135481526020016010548152602001600f548152602001601154815250600660006008548152602001908152602001600020600082015181600001556020820151816001015560408201518160020155606082015181600301556080820151816004015560a0820151816005015560c0820151816006015560e082015181600701556101008201518160080155610120820151816009015561014082015181600a0155905050604051806060016040528060165481526020016017548152602001601854815250600760006008548152602001908152602001600020600082015181600001556020820151816001015560408201518160020155905050610f9b83600854612789565b610fa784600854612a0e565b60085491505092915050565b600080610fbe611e0d565b6006600086815260200190815260200160002060010154610fdf9190614711565b620f4240670de0b6b3a764000085600660008981526020019081526020016000206002015461100e91906146dd565b6110189190614711565b6110229190614711565b61102c9190614782565b90508091505092915050565b600080670de0b6b3a764000060066000858152602001908152602001600020600201546110659190614711565b90506000611071611e0d565b60066000868152602001908152602001600020600101546110929190614711565b9050600081620f4240846110a69190614711565b6110b09190614782565b9050809350505050919050565b60006110c882612a2c565b611107576040517f08c379a00000000000000000000000000000000000000000000000000000000081526004016110fe906147ff565b60405180910390fd5b4260066000848152602001908152602001600020600301541061115f576040517f08c379a00000000000000000000000000000000000000000000000000000000081526004016111569061486b565b60405180910390fd5b60006006600084815260200190815260200160002060020154146111b8576040517f08c379a00000000000000000000000000000000000000000000000000000000081526004016111af906148fd565b60405180910390fd5b6111c1826114d6565b73ffffffffffffffffffffffffffffffffffffffff163373ffffffffffffffffffffffffffffffffffffffff161461122e576040517f08c379a000000000000000000000000000000000000000000000000000000000815260040161122590614969565b60405180910390fd5b6000600660008481526020019081526020016000206001015490506112528361243c565b61125d818486612a6d565b61126683612b6a565b8091505092915050565b61128161127b61294d565b82612c12565b6112c0576040517f08c379a00000000000000000000000000000000000000000000000000000000081526004016112b7906149fb565b60405180910390fd5b6112cb838383612ca7565b505050565b600660205280600052604060002060009150905080600001549080600101549080600201549080600301549080600401549080600501549080600601549080600701549080600801549080600901549080600a015490508b565b600f5481565b61134b83838360405180602001604052806000815250611994565b505050565b6000600a54905090565b6000611364611440565b90507f000000000000000000000000000000000000000000000000000000000000000073ffffffffffffffffffffffffffffffffffffffff16634641257d6040518163ffffffff1660e01b8152600401600060405180830381600087803b1580156113ce57600080fd5b505af11580156113e2573d6000803e3d6000fd5b50505050600a547f0000000000000000000000000000000000000000000000000000000000000000826114159190614711565b61141f9190614782565b600b600082825461143091906146dd565b9250508190555050565b60115481565b60007f000000000000000000000000000000000000000000000000000000000000000073ffffffffffffffffffffffffffffffffffffffff1663f68183456040518163ffffffff1660e01b8152600401602060405180830381865afa1580156114ad573d6000803e3d6000fd5b505050506040513d601f19601f820116820180604052508101906114d1919061432b565b905090565b6000806114e283612fa0565b9050600073ffffffffffffffffffffffffffffffffffffffff168173ffffffffffffffffffffffffffffffffffffffff1603611553576040517f08c379a000000000000000000000000000000000000000000000000000000000815260040161154a90614a67565b60405180910390fd5b80915050919050565b60105481565b60008073ffffffffffffffffffffffffffffffffffffffff168273ffffffffffffffffffffffffffffffffffffffff16036115d2576040517f08c379a00000000000000000000000000000000000000000000000000000000081526004016115c990614af9565b60405180910390fd5b600360008373ffffffffffffffffffffffffffffffffffffffff1673ffffffffffffffffffffffffffffffffffffffff168152602001908152602001600020549050919050565b600b5481565b6000601054905090565b600061163483612a2c565b611673576040517f08c379a000000000000000000000000000000000000000000000000000000000815260040161166a906147ff565b60405180910390fd5b60066000848152602001908152602001600020600201548211156116cc576040517f08c379a00000000000000000000000000000000000000000000000000000000081526004016116c390614bb1565b60405180910390fd5b7f000000000000000000000000000000000000000000000000000000000000000073ffffffffffffffffffffffffffffffffffffffff166323b872dd33600e60009054906101000a900473ffffffffffffffffffffffffffffffffffffffff16856040518463ffffffff1660e01b815260040161174b9392919061447f565b6020604051808303816000875af115801561176a573d6000803e3d6000fd5b505050506040513d601f19601f8201168201806040525081019061178e91906144cb565b5081600960008282546117a19190614bd1565b92505081905550816006600085815260200190815260200160002060020160008282546117ce9190614bd1565b925050819055506006600084815260200190815260200160002060020154905092915050565b6000806117ff611e0d565b6118088461191e565b60066000878152602001908152602001600020600101546118299190614bd1565b6118339190614711565b620f4240670de0b6b3a76400008560066000898152602001908152602001600020600201546118629190614bd1565b61186c9190614711565b6118769190614711565b6118809190614782565b90508091505092915050565b60606001805461189b90614253565b80601f01602080910402602001604051908101604052809291908181526020018280546118c790614253565b80156119145780601f106118e957610100808354040283529160200191611914565b820191906000526020600020905b8154815290600101906020018083116118f757829003601f168201915b5050505050905090565b600080611929611e0d565b9050806001826103e8620f4240610497886119449190614711565b61194e9190614711565b6119589190614782565b61196291906146dd565b61196c9190614bd1565b6119769190614782565b915050919050565b61199061198961294d565b8383612fdd565b5050565b6119a561199f61294d565b83612c12565b6119e4576040517f08c379a00000000000000000000000000000000000000000000000000000000081526004016119db906149fb565b60405180910390fd5b6119f084848484613149565b50505050565b6060611a01826123f1565b6000611a0b6131a5565b90506000815111611a2b5760405180602001604052806000815250611a56565b80611a35846131bc565b604051602001611a46929190614c41565b6040516020818303038152906040525b915050919050565b60076020528060005260406000206000915090508060000154908060010154908060020154905083565b6000611a9384612a2c565b611ad2576040517f08c379a0000000000000000000000000000000000000000000000000000000008152600401611ac990614cb1565b60405180910390fd5b6006600085815260200190815260200160002060040154611af38585610fb3565b10611b33576040517f08c379a0000000000000000000000000000000000000000000000000000000008152600401611b2a90614d1d565b60405180910390fd5b611b3c846114d6565b73ffffffffffffffffffffffffffffffffffffffff163373ffffffffffffffffffffffffffffffffffffffff1614611ba9576040517f08c379a0000000000000000000000000000000000000000000000000000000008152600401611ba090614d89565b60405180910390fd5b82600d60009054906101000a900473ffffffffffffffffffffffffffffffffffffffff1673ffffffffffffffffffffffffffffffffffffffff1663d86dbf306040518163ffffffff1660e01b81526004016020604051808303816000875af1158015611c19573d6000803e3d6000fd5b505050506040513d601f19601f82011682018060405250810190611c3d919061432b565b1015611c7e576040517f08c379a0000000000000000000000000000000000000000000000000000000008152600401611c7590614e1b565b60405180910390fd5b8260096000828254611c9091906146dd565b9250508190555082600660008681526020019081526020016000206002016000828254611cbd91906146dd565b92505081905550600d60009054906101000a900473ffffffffffffffffffffffffffffffffffffffff1673ffffffffffffffffffffffffffffffffffffffff16631343a35f83856040518363ffffffff1660e01b8152600401611d21929190614e4a565b6020604051808303816000875af1158015611d40573d6000803e3d6000fd5b505050506040513d601f19601f82011682018060405250810190611d64919061432b565b508290509392505050565b6000600954905090565b6000600560008473ffffffffffffffffffffffffffffffffffffffff1673ffffffffffffffffffffffffffffffffffffffff16815260200190815260200160002060008373ffffffffffffffffffffffffffffffffffffffff1673ffffffffffffffffffffffffffffffffffffffff16815260200190815260200160002060009054906101000a900460ff16905092915050565b6000806127107f000000000000000000000000000000000000000000000000000000000000000073ffffffffffffffffffffffffffffffffffffffff16633c88e8826040518163ffffffff1660e01b8152600401602060405180830381865afa158015611e7e573d6000803e3d6000fd5b505050506040513d601f19601f82011682018060405250810190611ea2919061432b565b611eac9190614782565b90508091505090565b600060076000858152602001908152602001600020604051806060016040529081600082015481526020016001820154815260200160028201548152505090506000600660008681526020019081526020016000206040518061016001604052908160008201548152602001600182015481526020016002820154815260200160038201548152602001600482015481526020016005820154815260200160068201548152602001600782015481526020016008820154815260200160098201548152602001600a820154815250509050611f8f85611038565b8160a0015110611f9e57600080fd5b6000611faa86866117f4565b9050808260c0015111158015611fc45750808260e0015110155b611fcd57600080fd5b7f000000000000000000000000000000000000000000000000000000000000000073ffffffffffffffffffffffffffffffffffffffff166323b872dd8530886040518463ffffffff1660e01b815260040161202a9392919061447f565b6020604051808303816000875af1158015612049573d6000803e3d6000fd5b505050506040513d601f19601f8201168201806040525081019061206d91906144cb565b50846006600088815260200190815260200160002060020160008282546120949190614bd1565b9250508190555060006120a68661191e565b9050806006600089815260200190815260200160002060010160008282546120ce9190614bd1565b925050819055507f000000000000000000000000000000000000000000000000000000000000000073ffffffffffffffffffffffffffffffffffffffff1663a9059cbb33836040518363ffffffff1660e01b8152600401612130929190614e73565b6020604051808303816000875af115801561214f573d6000803e3d6000fd5b505050506040513d601f19601f8201168201806040525081019061217391906144cb565b50600060648460200151866000015161218c9190614711565b6121969190614782565b905080600660008a815260200190815260200160002060010160008282546121be9190614bd1565b925050819055507f000000000000000000000000000000000000000000000000000000000000000073ffffffffffffffffffffffffffffffffffffffff1663a9059cbb600e60009054906101000a900473ffffffffffffffffffffffffffffffffffffffff1660648489602001516122369190614711565b6122409190614782565b6040518363ffffffff1660e01b815260040161225d929190614e73565b6020604051808303816000875af115801561227c573d6000803e3d6000fd5b505050506040513d601f19601f820116820180604052508101906122a091906144cb565b507f000000000000000000000000000000000000000000000000000000000000000073ffffffffffffffffffffffffffffffffffffffff1663a9059cbb600c60009054906101000a900473ffffffffffffffffffffffffffffffffffffffff1660648489604001516123129190614711565b61231c9190614782565b6040518363ffffffff1660e01b8152600401612339929190614e73565b6020604051808303816000875af1158015612358573d6000803e3d6000fd5b505050506040513d601f19601f8201168201806040525081019061237c91906144cb565b505050505050505050565b60007f01ffc9a7000000000000000000000000000000000000000000000000000000007bffffffffffffffffffffffffffffffffffffffffffffffffffffffff1916827bffffffffffffffffffffffffffffffffffffffffffffffffffffffff1916149050919050565b6123fa81612a2c565b612439576040517f08c379a000000000000000000000000000000000000000000000000000000000815260040161243090614a67565b60405180910390fd5b50565b61244461135a565b60007f00000000000000000000000000000000000000000000000000000000000000006006600084815260200190815260200160002060000154600b5461248b9190614bd1565b60066000858152602001908152602001600020600101546124ac9190614711565b6124b69190614782565b9050600b5460066000848152602001908152602001600020600001819055507f000000000000000000000000000000000000000000000000000000000000000073ffffffffffffffffffffffffffffffffffffffff1663a9059cbb600e60009054906101000a900473ffffffffffffffffffffffffffffffffffffffff1660646006600087815260200190815260200160002060080154856125589190614711565b6125629190614782565b6040518363ffffffff1660e01b815260040161257f929190614e73565b6020604051808303816000875af115801561259e573d6000803e3d6000fd5b505050506040513d601f19601f820116820180604052508101906125c291906144cb565b507f000000000000000000000000000000000000000000000000000000000000000073ffffffffffffffffffffffffffffffffffffffff1663a9059cbb612608846114d6565b606460066000878152602001908152602001600020600901548561262c9190614711565b6126369190614782565b6040518363ffffffff1660e01b8152600401612653929190614e73565b6020604051808303816000875af1158015612672573d6000803e3d6000fd5b505050506040513d601f19601f8201168201806040525081019061269691906144cb565b507f000000000000000000000000000000000000000000000000000000000000000073ffffffffffffffffffffffffffffffffffffffff1663a9059cbb600c60009054906101000a900473ffffffffffffffffffffffffffffffffffffffff16606460066000878152602001908152602001600020600a01548561271a9190614711565b6127249190614782565b6040518363ffffffff1660e01b8152600401612741929190614e73565b6020604051808303816000875af1158015612760573d6000803e3d6000fd5b505050506040513d601f19601f8201168201806040525081019061278491906144cb565b505050565b6000600a541461279c5761279b61135a565b5b600b5460066000838152602001908152602001600020600001819055507f000000000000000000000000000000000000000000000000000000000000000073ffffffffffffffffffffffffffffffffffffffff1663095ea7b37f0000000000000000000000000000000000000000000000000000000000000000846040518363ffffffff1660e01b8152600401612834929190614e73565b6020604051808303816000875af1158015612853573d6000803e3d6000fd5b505050506040513d601f19601f8201168201806040525081019061287791906144cb565b507f000000000000000000000000000000000000000000000000000000000000000073ffffffffffffffffffffffffffffffffffffffff16637547c7a3836040518263ffffffff1660e01b81526004016128d19190613cf3565b600060405180830381600087803b1580156128eb57600080fd5b505af11580156128ff573d6000803e3d6000fd5b5050505081600a600082825461291591906146dd565b925050819055508160066000838152602001908152602001600020600101600082825461294291906146dd565b925050819055505050565b600033905090565b816004600083815260200190815260200160002060006101000a81548173ffffffffffffffffffffffffffffffffffffffff021916908373ffffffffffffffffffffffffffffffffffffffff160217905550808273ffffffffffffffffffffffffffffffffffffffff166129c8836114d6565b73ffffffffffffffffffffffffffffffffffffffff167f8c5be1e5ebec7d5bd14f71427d1e84f3dd0314c0f7b2291e5b200ac8c7c3b92560405160405180910390a45050565b612a2882826040518060200160405280600081525061328a565b5050565b60008073ffffffffffffffffffffffffffffffffffffffff16612a4e83612fa0565b73ffffffffffffffffffffffffffffffffffffffff1614159050919050565b8260066000848152602001908152602001600020600101541015612a9057600080fd5b82600660008481526020019081526020016000206001016000828254612ab69190614bd1565b92505081905550612ac6836132e5565b7f000000000000000000000000000000000000000000000000000000000000000073ffffffffffffffffffffffffffffffffffffffff1663a9059cbb82856040518363ffffffff1660e01b8152600401612b21929190614e73565b6020604051808303816000875af1158015612b40573d6000803e3d6000fd5b505050506040513d601f19601f82011682018060405250810190612b6491906144cb565b50505050565b60066000828152602001908152602001600020600080820160009055600182016000905560028201600090556003820160009055600482016000905560058201600090556006820160009055600782016000905560088201600090556009820160009055600a820160009055505060076000828152602001908152602001600020600080820160009055600182016000905560028201600090555050612c0f816133f0565b50565b600080612c1e836114d6565b90508073ffffffffffffffffffffffffffffffffffffffff168473ffffffffffffffffffffffffffffffffffffffff161480612c605750612c5f8185611d79565b5b80612c9e57508373ffffffffffffffffffffffffffffffffffffffff16612c86846108c2565b73ffffffffffffffffffffffffffffffffffffffff16145b91505092915050565b8273ffffffffffffffffffffffffffffffffffffffff16612cc7826114d6565b73ffffffffffffffffffffffffffffffffffffffff1614612d1d576040517f08c379a0000000000000000000000000000000000000000000000000000000008152600401612d1490614f0e565b60405180910390fd5b600073ffffffffffffffffffffffffffffffffffffffff168273ffffffffffffffffffffffffffffffffffffffff1603612d8c576040517f08c379a0000000000000000000000000000000000000000000000000000000008152600401612d8390614fa0565b60405180910390fd5b612d99838383600161353e565b8273ffffffffffffffffffffffffffffffffffffffff16612db9826114d6565b73ffffffffffffffffffffffffffffffffffffffff1614612e0f576040517f08c379a0000000000000000000000000000000000000000000000000000000008152600401612e0690614f0e565b60405180910390fd5b6004600082815260200190815260200160002060006101000a81549073ffffffffffffffffffffffffffffffffffffffff02191690556001600360008573ffffffffffffffffffffffffffffffffffffffff1673ffffffffffffffffffffffffffffffffffffffff168152602001908152602001600020600082825403925050819055506001600360008473ffffffffffffffffffffffffffffffffffffffff1673ffffffffffffffffffffffffffffffffffffffff16815260200190815260200160002060008282540192505081905550816002600083815260200190815260200160002060006101000a81548173ffffffffffffffffffffffffffffffffffffffff021916908373ffffffffffffffffffffffffffffffffffffffff160217905550808273ffffffffffffffffffffffffffffffffffffffff168473ffffffffffffffffffffffffffffffffffffffff167fddf252ad1be2c89b69c2b068fc378daa952ba7f163c4a11628f55a4df523b3ef60405160405180910390a4612f9b8383836001613544565b505050565b60006002600083815260200190815260200160002060009054906101000a900473ffffffffffffffffffffffffffffffffffffffff169050919050565b8173ffffffffffffffffffffffffffffffffffffffff168373ffffffffffffffffffffffffffffffffffffffff160361304b576040517f08c379a00000000000000000000000000000000000000000000000000000000081526004016130429061500c565b60405180910390fd5b80600560008573ffffffffffffffffffffffffffffffffffffffff1673ffffffffffffffffffffffffffffffffffffffff16815260200190815260200160002060008473ffffffffffffffffffffffffffffffffffffffff1673ffffffffffffffffffffffffffffffffffffffff16815260200190815260200160002060006101000a81548160ff0219169083151502179055508173ffffffffffffffffffffffffffffffffffffffff168373ffffffffffffffffffffffffffffffffffffffff167f17307eab39ab6107e8899845ad3d59bd9653f200f220920489ca2b5937696c318360405161313c9190613b18565b60405180910390a3505050565b613154848484612ca7565b6131608484848461354a565b61319f576040517f08c379a00000000000000000000000000000000000000000000000000000000081526004016131969061509e565b60405180910390fd5b50505050565b606060405180602001604052806000815250905090565b6060600060016131cb846136d1565b01905060008167ffffffffffffffff8111156131ea576131e9613f1b565b5b6040519080825280601f01601f19166020018201604052801561321c5781602001600182028036833780820191505090505b509050600082602001820190505b60011561327f578080600190039150507f3031323334353637383961626364656600000000000000000000000000000000600a86061a8153600a858161327357613272614753565b5b0494506000850361322a575b819350505050919050565b6132948383613824565b6132a1600084848461354a565b6132e0576040517f08c379a00000000000000000000000000000000000000000000000000000000081526004016132d79061509e565b60405180910390fd5b505050565b60006132ef611440565b90506000600a54905082600a600082825461330a9190614bd1565b925050819055507f000000000000000000000000000000000000000000000000000000000000000073ffffffffffffffffffffffffffffffffffffffff1663608e4dd0846040518263ffffffff1660e01b815260040161336a9190613cf3565b600060405180830381600087803b15801561338457600080fd5b505af1158015613398573d6000803e3d6000fd5b50505050807f0000000000000000000000000000000000000000000000000000000000000000836133c99190614711565b6133d39190614782565b600b60008282546133e491906146dd565b92505081905550505050565b60006133fb826114d6565b905061340b81600084600161353e565b613414826114d6565b90506004600083815260200190815260200160002060006101000a81549073ffffffffffffffffffffffffffffffffffffffff02191690556001600360008373ffffffffffffffffffffffffffffffffffffffff1673ffffffffffffffffffffffffffffffffffffffff168152602001908152602001600020600082825403925050819055506002600083815260200190815260200160002060006101000a81549073ffffffffffffffffffffffffffffffffffffffff021916905581600073ffffffffffffffffffffffffffffffffffffffff168273ffffffffffffffffffffffffffffffffffffffff167fddf252ad1be2c89b69c2b068fc378daa952ba7f163c4a11628f55a4df523b3ef60405160405180910390a461353a816000846001613544565b5050565b50505050565b50505050565b600061356b8473ffffffffffffffffffffffffffffffffffffffff16613a41565b156136c4578373ffffffffffffffffffffffffffffffffffffffff1663150b7a0261359461294d565b8786866040518563ffffffff1660e01b81526004016135b69493929190615113565b6020604051808303816000875af19250505080156135f257506040513d601f19601f820116820180604052508101906135ef9190615174565b60015b613674573d8060008114613622576040519150601f19603f3d011682016040523d82523d6000602084013e613627565b606091505b50600081510361366c576040517f08c379a00000000000000000000000000000000000000000000000000000000081526004016136639061509e565b60405180910390fd5b805181602001fd5b63150b7a0260e01b7bffffffffffffffffffffffffffffffffffffffffffffffffffffffff1916817bffffffffffffffffffffffffffffffffffffffffffffffffffffffff1916149150506136c9565b600190505b949350505050565b600080600090507a184f03e93ff9f4daa797ed6e38ed64bf6a1f010000000000000000831061372f577a184f03e93ff9f4daa797ed6e38ed64bf6a1f010000000000000000838161372557613724614753565b5b0492506040810190505b6d04ee2d6d415b85acef8100000000831061376c576d04ee2d6d415b85acef8100000000838161376257613761614753565b5b0492506020810190505b662386f26fc10000831061379b57662386f26fc10000838161379157613790614753565b5b0492506010810190505b6305f5e10083106137c4576305f5e10083816137ba576137b9614753565b5b0492506008810190505b61271083106137e95761271083816137df576137de614753565b5b0492506004810190505b6064831061380c576064838161380257613801614753565b5b0492506002810190505b600a831061381b576001810190505b80915050919050565b600073ffffffffffffffffffffffffffffffffffffffff168273ffffffffffffffffffffffffffffffffffffffff1603613893576040517f08c379a000000000000000000000000000000000000000000000000000000000815260040161388a906151ed565b60405180910390fd5b61389c81612a2c565b156138dc576040517f08c379a00000000000000000000000000000000000000000000000000000000081526004016138d390615259565b60405180910390fd5b6138ea60008383600161353e565b6138f381612a2c565b15613933576040517f08c379a000000000000000000000000000000000000000000000000000000000815260040161392a90615259565b60405180910390fd5b6001600360008473ffffffffffffffffffffffffffffffffffffffff1673ffffffffffffffffffffffffffffffffffffffff16815260200190815260200160002060008282540192505081905550816002600083815260200190815260200160002060006101000a81548173ffffffffffffffffffffffffffffffffffffffff021916908373ffffffffffffffffffffffffffffffffffffffff160217905550808273ffffffffffffffffffffffffffffffffffffffff16600073ffffffffffffffffffffffffffffffffffffffff167fddf252ad1be2c89b69c2b068fc378daa952ba7f163c4a11628f55a4df523b3ef60405160405180910390a4613a3d600083836001613544565b5050565b6000808273ffffffffffffffffffffffffffffffffffffffff163b119050919050565b6000604051905090565b600080fd5b600080fd5b60007fffffffff0000000000000000000000000000000000000000000000000000000082169050919050565b613aad81613a78565b8114613ab857600080fd5b50565b600081359050613aca81613aa4565b92915050565b600060208284031215613ae657613ae5613a6e565b5b6000613af484828501613abb565b91505092915050565b60008115159050919050565b613b1281613afd565b82525050565b6000602082019050613b2d6000830184613b09565b92915050565b600081519050919050565b600082825260208201905092915050565b60005b83811015613b6d578082015181840152602081019050613b52565b60008484015250505050565b6000601f19601f8301169050919050565b6000613b9582613b33565b613b9f8185613b3e565b9350613baf818560208601613b4f565b613bb881613b79565b840191505092915050565b60006020820190508181036000830152613bdd8184613b8a565b905092915050565b6000819050919050565b613bf881613be5565b8114613c0357600080fd5b50565b600081359050613c1581613bef565b92915050565b600060208284031215613c3157613c30613a6e565b5b6000613c3f84828501613c06565b91505092915050565b600073ffffffffffffffffffffffffffffffffffffffff82169050919050565b6000613c7382613c48565b9050919050565b613c8381613c68565b82525050565b6000602082019050613c9e6000830184613c7a565b92915050565b60008060408385031215613cbb57613cba613a6e565b5b6000613cc985828601613c06565b9250506020613cda85828601613c06565b9150509250929050565b613ced81613be5565b82525050565b6000602082019050613d086000830184613ce4565b92915050565b613d1781613c68565b8114613d2257600080fd5b50565b600081359050613d3481613d0e565b92915050565b60008060408385031215613d5157613d50613a6e565b5b6000613d5f85828601613d25565b9250506020613d7085828601613c06565b9150509250929050565b600080600060608486031215613d9357613d92613a6e565b5b6000613da186828701613d25565b9350506020613db286828701613d25565b9250506040613dc386828701613c06565b9150509250925092565b600061016082019050613de3600083018e613ce4565b613df0602083018d613ce4565b613dfd604083018c613ce4565b613e0a606083018b613ce4565b613e17608083018a613ce4565b613e2460a0830189613ce4565b613e3160c0830188613ce4565b613e3e60e0830187613ce4565b613e4c610100830186613ce4565b613e5a610120830185613ce4565b613e68610140830184613ce4565b9c9b505050505050505050505050565b600060208284031215613e8e57613e8d613a6e565b5b6000613e9c84828501613d25565b91505092915050565b613eae81613afd565b8114613eb957600080fd5b50565b600081359050613ecb81613ea5565b92915050565b60008060408385031215613ee857613ee7613a6e565b5b6000613ef685828601613d25565b9250506020613f0785828601613ebc565b9150509250929050565b600080fd5b600080fd5b7f4e487b7100000000000000000000000000000000000000000000000000000000600052604160045260246000fd5b613f5382613b79565b810181811067ffffffffffffffff82111715613f7257613f71613f1b565b5b80604052505050565b6000613f85613a64565b9050613f918282613f4a565b919050565b600067ffffffffffffffff821115613fb157613fb0613f1b565b5b613fba82613b79565b9050602081019050919050565b82818337600083830152505050565b6000613fe9613fe484613f96565b613f7b565b90508281526020810184848401111561400557614004613f16565b5b614010848285613fc7565b509392505050565b600082601f83011261402d5761402c613f11565b5b813561403d848260208601613fd6565b91505092915050565b600080600080608085870312156140605761405f613a6e565b5b600061406e87828801613d25565b945050602061407f87828801613d25565b935050604061409087828801613c06565b925050606085013567ffffffffffffffff8111156140b1576140b0613a73565b5b6140bd87828801614018565b91505092959194509250565b60006060820190506140de6000830186613ce4565b6140eb6020830185613ce4565b6140f86040830184613ce4565b949350505050565b600061410b82613c48565b9050919050565b61411b81614100565b811461412657600080fd5b50565b60008135905061413881614112565b92915050565b60008060006060848603121561415757614156613a6e565b5b600061416586828701613c06565b935050602061417686828701613c06565b925050604061418786828701614129565b9150509250925092565b600080604083850312156141a8576141a7613a6e565b5b60006141b685828601613d25565b92505060206141c785828601613d25565b9150509250929050565b6000806000606084860312156141ea576141e9613a6e565b5b60006141f886828701613c06565b935050602061420986828701613c06565b925050604061421a86828701613d25565b9150509250925092565b7f4e487b7100000000000000000000000000000000000000000000000000000000600052602260045260246000fd5b6000600282049050600182168061426b57607f821691505b60208210810361427e5761427d614224565b5b50919050565b7f4c6f616e20646f65736e2774206578697374206f7220796f7520617265206e6f60008201527f7420746865206f776e6572206f6620746865206c6f616e000000000000000000602082015250565b60006142e0603783613b3e565b91506142eb82614284565b604082019050919050565b6000602082019050818103600083015261430f816142d3565b9050919050565b60008151905061432581613bef565b92915050565b60006020828403121561434157614340613a6e565b5b600061434f84828501614316565b91505092915050565b7f646f6e2774206861766520656e6f75676820676e730000000000000000000000600082015250565b600061438e601583613b3e565b915061439982614358565b602082019050919050565b600060208201905081810360008301526143bd81614381565b9050919050565b60006040820190506143d96000830185613c7a565b6143e66020830184613c7a565b9392505050565b7f6d757374206861766520656e6f75676820746f6b656e7320617070726f76656460008201527f20696e2074686520676e7320636f6e7472616374000000000000000000000000602082015250565b6000614449603483613b3e565b9150614454826143ed565b604082019050919050565b600060208201905081810360008301526144788161443c565b9050919050565b60006060820190506144946000830186613c7a565b6144a16020830185613c7a565b6144ae6040830184613ce4565b949350505050565b6000815190506144c581613ea5565b92915050565b6000602082840312156144e1576144e0613a6e565b5b60006144ef848285016144b6565b91505092915050565b7f4552433732313a20617070726f76616c20746f2063757272656e74206f776e6560008201527f7200000000000000000000000000000000000000000000000000000000000000602082015250565b6000614554602183613b3e565b915061455f826144f8565b604082019050919050565b6000602082019050818103600083015261458381614547565b9050919050565b7f4552433732313a20617070726f76652063616c6c6572206973206e6f7420746f60008201527f6b656e206f776e6572206f7220617070726f76656420666f7220616c6c000000602082015250565b60006145e6603d83613b3e565b91506145f18261458a565b604082019050919050565b60006020820190508181036000830152614615816145d9565b9050919050565b7f63616e206f6e6c792068617665206f6e65206c6f616e2070657220616464726560008201527f7373000000000000000000000000000000000000000000000000000000000000602082015250565b6000614678602283613b3e565b91506146838261461c565b604082019050919050565b600060208201905081810360008301526146a78161466b565b9050919050565b7f4e487b7100000000000000000000000000000000000000000000000000000000600052601160045260246000fd5b60006146e882613be5565b91506146f383613be5565b925082820190508082111561470b5761470a6146ae565b5b92915050565b600061471c82613be5565b915061472783613be5565b925082820261473581613be5565b9150828204841483151761474c5761474b6146ae565b5b5092915050565b7f4e487b7100000000000000000000000000000000000000000000000000000000600052601260045260246000fd5b600061478d82613be5565b915061479883613be5565b9250826147a8576147a7614753565b5b828204905092915050565b7f6c6f616e4964206d7573742062652061206f70656e206c6f616e000000000000600082015250565b60006147e9601a83613b3e565b91506147f4826147b3565b602082019050919050565b60006020820190508181036000830152614818816147dc565b9050919050565b7f436f6c61746572616c206973207374696c6c206c6f636b656400000000000000600082015250565b6000614855601983613b3e565b91506148608261481f565b602082019050919050565b6000602082019050818103600083015261488481614848565b9050919050565b7f4d75737420726570617920656e74697265206c6f616e206265666f726520726560008201527f6d6f76696e6720636f6c61746572616c00000000000000000000000000000000602082015250565b60006148e7603083613b3e565b91506148f28261488b565b604082019050919050565b60006020820190508181036000830152614916816148da565b9050919050565b7f4d75737420626520746865206f776e6572206f6620746865206c6f616e000000600082015250565b6000614953601d83613b3e565b915061495e8261491d565b602082019050919050565b6000602082019050818103600083015261498281614946565b9050919050565b7f4552433732313a2063616c6c6572206973206e6f7420746f6b656e206f776e6560008201527f72206f7220617070726f76656400000000000000000000000000000000000000602082015250565b60006149e5602d83613b3e565b91506149f082614989565b604082019050919050565b60006020820190508181036000830152614a14816149d8565b9050919050565b7f4552433732313a20696e76616c696420746f6b656e2049440000000000000000600082015250565b6000614a51601883613b3e565b9150614a5c82614a1b565b602082019050919050565b60006020820190508181036000830152614a8081614a44565b9050919050565b7f4552433732313a2061646472657373207a65726f206973206e6f74206120766160008201527f6c6964206f776e65720000000000000000000000000000000000000000000000602082015250565b6000614ae3602983613b3e565b9150614aee82614a87565b604082019050919050565b60006020820190508181036000830152614b1281614ad6565b9050919050565b7f616d6f756e74206d7573742062652067726561746572207468616e203020616e60008201527f64206c657373207468616e20796f7572206c6f616e6564206f757420616d6f7560208201527f6e74000000000000000000000000000000000000000000000000000000000000604082015250565b6000614b9b604283613b3e565b9150614ba682614b19565b606082019050919050565b60006020820190508181036000830152614bca81614b8e565b9050919050565b6000614bdc82613be5565b9150614be783613be5565b9250828203905081811115614bff57614bfe6146ae565b5b92915050565b600081905092915050565b6000614c1b82613b33565b614c258185614c05565b9350614c35818560208601613b4f565b80840191505092915050565b6000614c4d8285614c10565b9150614c598284614c10565b91508190509392505050565b7f4c6f616e20646f65736e74206578697374000000000000000000000000000000600082015250565b6000614c9b601183613b3e565b9150614ca682614c65565b602082019050919050565b60006020820190508181036000830152614cca81614c8e565b9050919050565b7f52657175657374696e6720746f6f206d75636820757364630000000000000000600082015250565b6000614d07601883613b3e565b9150614d1282614cd1565b602082019050919050565b60006020820190508181036000830152614d3681614cfa565b9050919050565b7f6d757374206265206f776e657200000000000000000000000000000000000000600082015250565b6000614d73600d83613b3e565b9150614d7e82614d3d565b602082019050919050565b60006020820190508181036000830152614da281614d66565b9050919050565b7f6c6f616e657220646f6573206e6f74206861766520656e6f756768207573646360008201527f20746f20636f76657220796f757220616d6f756e740000000000000000000000602082015250565b6000614e05603583613b3e565b9150614e1082614da9565b604082019050919050565b60006020820190508181036000830152614e3481614df8565b9050919050565b614e4481614100565b82525050565b6000604082019050614e5f6000830185614e3b565b614e6c6020830184613ce4565b9392505050565b6000604082019050614e886000830185613c7a565b614e956020830184613ce4565b9392505050565b7f4552433732313a207472616e736665722066726f6d20696e636f72726563742060008201527f6f776e6572000000000000000000000000000000000000000000000000000000602082015250565b6000614ef8602583613b3e565b9150614f0382614e9c565b604082019050919050565b60006020820190508181036000830152614f2781614eeb565b9050919050565b7f4552433732313a207472616e7366657220746f20746865207a65726f2061646460008201527f7265737300000000000000000000000000000000000000000000000000000000602082015250565b6000614f8a602483613b3e565b9150614f9582614f2e565b604082019050919050565b60006020820190508181036000830152614fb981614f7d565b9050919050565b7f4552433732313a20617070726f766520746f2063616c6c657200000000000000600082015250565b6000614ff6601983613b3e565b915061500182614fc0565b602082019050919050565b6000602082019050818103600083015261502581614fe9565b9050919050565b7f4552433732313a207472616e7366657220746f206e6f6e20455243373231526560008201527f63656976657220696d706c656d656e7465720000000000000000000000000000602082015250565b6000615088603283613b3e565b91506150938261502c565b604082019050919050565b600060208201905081810360008301526150b78161507b565b9050919050565b600081519050919050565b600082825260208201905092915050565b60006150e5826150be565b6150ef81856150c9565b93506150ff818560208601613b4f565b61510881613b79565b840191505092915050565b60006080820190506151286000830187613c7a565b6151356020830186613c7a565b6151426040830185613ce4565b818103606083015261515481846150da565b905095945050505050565b60008151905061516e81613aa4565b92915050565b60006020828403121561518a57615189613a6e565b5b60006151988482850161515f565b91505092915050565b7f4552433732313a206d696e7420746f20746865207a65726f2061646472657373600082015250565b60006151d7602083613b3e565b91506151e2826151a1565b602082019050919050565b60006020820190508181036000830152615206816151ca565b9050919050565b7f4552433732313a20746f6b656e20616c7265616479206d696e74656400000000600082015250565b6000615243601c83613b3e565b915061524e8261520d565b602082019050919050565b6000602082019050818103600083015261527281615236565b905091905056fea2646970667358221220854075e14466d1ec980a98ed6bed822b6b8548faf96da1db5841cc693d4b023d64736f6c63430008110033",
  "linkReferences": {},
  "deployedLinkReferences": {}
}