{
  "_format": "hh-sol-artifact-1",
  "contractName": "gnsPool",
  "sourceName": "contracts/gnsPool.sol",
  "abi": [
    {
      "inputs": [
        {
          "internalType": "address",
          "name": "loaner_",
          "type": "address"
        },
        {
          "internalType": "address",
          "name": "vault_",
          "type": "address"
        }
      ],
      "stateMutability": "nonpayable",
      "type": "constructor"
    },
    {
      "anonymous": false,
      "inputs": [
        {
          "indexed": true,
          "internalType": "address",
          "name": "owner",
          "type": "address"
        },
        {
          "indexed": true,
          "internalType": "address",
          "name": "approved",
          "type": "address"
        },
        {
          "indexed": true,
          "internalType": "uint256",
          "name": "tokenId",
          "type": "uint256"
        }
      ],
      "name": "Approval",
      "type": "event"
    },
    {
      "anonymous": false,
      "inputs": [
        {
          "indexed": true,
          "internalType": "address",
          "name": "owner",
          "type": "address"
        },
        {
          "indexed": true,
          "internalType": "address",
          "name": "operator",
          "type": "address"
        },
        {
          "indexed": false,
          "internalType": "bool",
          "name": "approved",
          "type": "bool"
        }
      ],
      "name": "ApprovalForAll",
      "type": "event"
    },
    {
      "anonymous": false,
      "inputs": [
        {
          "indexed": true,
          "internalType": "address",
          "name": "from",
          "type": "address"
        },
        {
          "indexed": true,
          "internalType": "address",
          "name": "to",
          "type": "address"
        },
        {
          "indexed": true,
          "internalType": "uint256",
          "name": "tokenId",
          "type": "uint256"
        }
      ],
      "name": "Transfer",
      "type": "event"
    },
    {
      "inputs": [],
      "name": "_borrowerSplit",
      "outputs": [
        {
          "internalType": "uint256",
          "name": "",
          "type": "uint256"
        }
      ],
      "stateMutability": "view",
      "type": "function"
    },
    {
      "inputs": [],
      "name": "_lenderSplit",
      "outputs": [
        {
          "internalType": "uint256",
          "name": "",
          "type": "uint256"
        }
      ],
      "stateMutability": "view",
      "type": "function"
    },
    {
      "inputs": [
        {
          "internalType": "uint256",
          "name": "",
          "type": "uint256"
        }
      ],
      "name": "_loanLiqudations",
      "outputs": [
        {
          "internalType": "uint256",
          "name": "liquidationPenalty",
          "type": "uint256"
        },
        {
          "internalType": "uint256",
          "name": "liquidationLenderSplit",
          "type": "uint256"
        },
        {
          "internalType": "uint256",
          "name": "liquidationProjectSplit",
          "type": "uint256"
        }
      ],
      "stateMutability": "view",
      "type": "function"
    },
    {
      "inputs": [],
      "name": "_lockTime",
      "outputs": [
        {
          "internalType": "uint256",
          "name": "",
          "type": "uint256"
        }
      ],
      "stateMutability": "view",
      "type": "function"
    },
    {
      "inputs": [
        {
          "internalType": "uint256",
          "name": "",
          "type": "uint256"
        }
      ],
      "name": "_outstandingLoans",
      "outputs": [
        {
          "internalType": "uint256",
          "name": "daiRatioPayout",
          "type": "uint256"
        },
        {
          "internalType": "uint256",
          "name": "stakedGns",
          "type": "uint256"
        },
        {
          "internalType": "uint256",
          "name": "borrowedUsdc",
          "type": "uint256"
        },
        {
          "internalType": "uint256",
          "name": "unlockTime",
          "type": "uint256"
        },
        {
          "internalType": "uint256",
          "name": "maxBorrowedUsdc",
          "type": "uint256"
        },
        {
          "internalType": "uint256",
          "name": "maxHealthFactor",
          "type": "uint256"
        },
        {
          "internalType": "uint256",
          "name": "lowerLiq",
          "type": "uint256"
        },
        {
          "internalType": "uint256",
          "name": "higherLiq",
          "type": "uint256"
        },
        {
          "internalType": "uint256",
          "name": "lenderRewardsSplit",
          "type": "uint256"
        },
        {
          "internalType": "uint256",
          "name": "borrowerRewardsSplit",
          "type": "uint256"
        },
        {
          "internalType": "uint256",
          "name": "projectRewardsSplit",
          "type": "uint256"
        }
      ],
      "stateMutability": "view",
      "type": "function"
    },
    {
      "inputs": [],
      "name": "_projectSplit",
      "outputs": [
        {
          "internalType": "uint256",
          "name": "",
          "type": "uint256"
        }
      ],
      "stateMutability": "view",
      "type": "function"
    },
    {
      "inputs": [
        {
          "internalType": "uint256",
          "name": "loanId_",
          "type": "uint256"
        },
        {
          "internalType": "uint256",
          "name": "amount_",
          "type": "uint256"
        }
      ],
      "name": "addColateral",
      "outputs": [
        {
          "internalType": "uint256",
          "name": "",
          "type": "uint256"
        }
      ],
      "stateMutability": "nonpayable",
      "type": "function"
    },
    {
      "inputs": [
        {
          "internalType": "address",
          "name": "to",
          "type": "address"
        },
        {
          "internalType": "uint256",
          "name": "tokenId",
          "type": "uint256"
        }
      ],
      "name": "approve",
      "outputs": [],
      "stateMutability": "nonpayable",
      "type": "function"
    },
    {
      "inputs": [
        {
          "internalType": "address",
          "name": "owner",
          "type": "address"
        }
      ],
      "name": "balanceOf",
      "outputs": [
        {
          "internalType": "uint256",
          "name": "",
          "type": "uint256"
        }
      ],
      "stateMutability": "view",
      "type": "function"
    },
    {
      "inputs": [
        {
          "internalType": "uint256",
          "name": "loanId_",
          "type": "uint256"
        },
        {
          "internalType": "uint256",
          "name": "amount_",
          "type": "uint256"
        },
        {
          "internalType": "address payable",
          "name": "sendTo_",
          "type": "address"
        }
      ],
      "name": "borrow",
      "outputs": [
        {
          "internalType": "uint256",
          "name": "",
          "type": "uint256"
        }
      ],
      "stateMutability": "nonpayable",
      "type": "function"
    },
    {
      "inputs": [],
      "name": "currDaiRatio",
      "outputs": [
        {
          "internalType": "uint256",
          "name": "",
          "type": "uint256"
        }
      ],
      "stateMutability": "view",
      "type": "function"
    },
    {
      "inputs": [],
      "name": "currGnsPrice",
      "outputs": [
        {
          "internalType": "uint256",
          "name": "",
          "type": "uint256"
        }
      ],
      "stateMutability": "view",
      "type": "function"
    },
    {
      "inputs": [
        {
          "internalType": "address",
          "name": "receiver_",
          "type": "address"
        },
        {
          "internalType": "uint256",
          "name": "amount_",
          "type": "uint256"
        }
      ],
      "name": "depositColateral",
      "outputs": [
        {
          "internalType": "uint256",
          "name": "",
          "type": "uint256"
        }
      ],
      "stateMutability": "nonpayable",
      "type": "function"
    },
    {
      "inputs": [
        {
          "internalType": "uint256",
          "name": "tokenId",
          "type": "uint256"
        }
      ],
      "name": "getApproved",
      "outputs": [
        {
          "internalType": "address",
          "name": "",
          "type": "address"
        }
      ],
      "stateMutability": "view",
      "type": "function"
    },
    {
      "inputs": [
        {
          "internalType": "uint256",
          "name": "loanId_",
          "type": "uint256"
        }
      ],
      "name": "getCurrHealth",
      "outputs": [
        {
          "internalType": "uint256",
          "name": "",
          "type": "uint256"
        }
      ],
      "stateMutability": "view",
      "type": "function"
    },
    {
      "inputs": [
        {
          "internalType": "uint256",
          "name": "loanId_",
          "type": "uint256"
        },
        {
          "internalType": "uint256",
          "name": "amount_",
          "type": "uint256"
        }
      ],
      "name": "getNewBorrowHealth",
      "outputs": [
        {
          "internalType": "uint256",
          "name": "",
          "type": "uint256"
        }
      ],
      "stateMutability": "view",
      "type": "function"
    },
    {
      "inputs": [
        {
          "internalType": "uint256",
          "name": "loanId_",
          "type": "uint256"
        },
        {
          "internalType": "uint256",
          "name": "amount_",
          "type": "uint256"
        }
      ],
      "name": "getNewLiqHealth",
      "outputs": [
        {
          "internalType": "uint256",
          "name": "",
          "type": "uint256"
        }
      ],
      "stateMutability": "view",
      "type": "function"
    },
    {
      "inputs": [
        {
          "internalType": "uint256",
          "name": "amount_",
          "type": "uint256"
        }
      ],
      "name": "gnsToSend",
      "outputs": [
        {
          "internalType": "uint256",
          "name": "",
          "type": "uint256"
        }
      ],
      "stateMutability": "view",
      "type": "function"
    },
    {
      "inputs": [
        {
          "internalType": "address",
          "name": "owner",
          "type": "address"
        },
        {
          "internalType": "address",
          "name": "operator",
          "type": "address"
        }
      ],
      "name": "isApprovedForAll",
      "outputs": [
        {
          "internalType": "bool",
          "name": "",
          "type": "bool"
        }
      ],
      "stateMutability": "view",
      "type": "function"
    },
    {
      "inputs": [],
      "name": "lenderSplit",
      "outputs": [
        {
          "internalType": "uint256",
          "name": "",
          "type": "uint256"
        }
      ],
      "stateMutability": "view",
      "type": "function"
    },
    {
      "inputs": [
        {
          "internalType": "uint256",
          "name": "loanId_",
          "type": "uint256"
        },
        {
          "internalType": "uint256",
          "name": "amount_",
          "type": "uint256"
        },
        {
          "internalType": "address",
          "name": "payer_",
          "type": "address"
        }
      ],
      "name": "liquidate",
      "outputs": [],
      "stateMutability": "nonpayable",
      "type": "function"
    },
    {
      "inputs": [],
      "name": "name",
      "outputs": [
        {
          "internalType": "string",
          "name": "",
          "type": "string"
        }
      ],
      "stateMutability": "view",
      "type": "function"
    },
    {
      "inputs": [
        {
          "internalType": "uint256",
          "name": "tokenId",
          "type": "uint256"
        }
      ],
      "name": "ownerOf",
      "outputs": [
        {
          "internalType": "address",
          "name": "",
          "type": "address"
        }
      ],
      "stateMutability": "view",
      "type": "function"
    },
    {
      "inputs": [],
      "name": "pendingDai",
      "outputs": [
        {
          "internalType": "uint256",
          "name": "",
          "type": "uint256"
        }
      ],
      "stateMutability": "view",
      "type": "function"
    },
    {
      "inputs": [
        {
          "internalType": "uint256",
          "name": "loanId_",
          "type": "uint256"
        },
        {
          "internalType": "uint256",
          "name": "amount_",
          "type": "uint256"
        }
      ],
      "name": "repayLoan",
      "outputs": [
        {
          "internalType": "uint256",
          "name": "",
          "type": "uint256"
        }
      ],
      "stateMutability": "nonpayable",
      "type": "function"
    },
    {
      "inputs": [
        {
          "internalType": "address",
          "name": "from",
          "type": "address"
        },
        {
          "internalType": "address",
          "name": "to",
          "type": "address"
        },
        {
          "internalType": "uint256",
          "name": "tokenId",
          "type": "uint256"
        }
      ],
      "name": "safeTransferFrom",
      "outputs": [],
      "stateMutability": "nonpayable",
      "type": "function"
    },
    {
      "inputs": [
        {
          "internalType": "address",
          "name": "from",
          "type": "address"
        },
        {
          "internalType": "address",
          "name": "to",
          "type": "address"
        },
        {
          "internalType": "uint256",
          "name": "tokenId",
          "type": "uint256"
        },
        {
          "internalType": "bytes",
          "name": "data",
          "type": "bytes"
        }
      ],
      "name": "safeTransferFrom",
      "outputs": [],
      "stateMutability": "nonpayable",
      "type": "function"
    },
    {
      "inputs": [
        {
          "internalType": "address",
          "name": "operator",
          "type": "address"
        },
        {
          "internalType": "bool",
          "name": "approved",
          "type": "bool"
        }
      ],
      "name": "setApprovalForAll",
      "outputs": [],
      "stateMutability": "nonpayable",
      "type": "function"
    },
    {
      "inputs": [
        {
          "internalType": "bytes4",
          "name": "interfaceId",
          "type": "bytes4"
        }
      ],
      "name": "supportsInterface",
      "outputs": [
        {
          "internalType": "bool",
          "name": "",
          "type": "bool"
        }
      ],
      "stateMutability": "view",
      "type": "function"
    },
    {
      "inputs": [],
      "name": "symbol",
      "outputs": [
        {
          "internalType": "string",
          "name": "",
          "type": "string"
        }
      ],
      "stateMutability": "view",
      "type": "function"
    },
    {
      "inputs": [
        {
          "internalType": "uint256",
          "name": "tokenId",
          "type": "uint256"
        }
      ],
      "name": "tokenURI",
      "outputs": [
        {
          "internalType": "string",
          "name": "",
          "type": "string"
        }
      ],
      "stateMutability": "view",
      "type": "function"
    },
    {
      "inputs": [],
      "name": "totalCollateral",
      "outputs": [
        {
          "internalType": "uint256",
          "name": "",
          "type": "uint256"
        }
      ],
      "stateMutability": "view",
      "type": "function"
    },
    {
      "inputs": [],
      "name": "totalLoanedOut",
      "outputs": [
        {
          "internalType": "uint256",
          "name": "",
          "type": "uint256"
        }
      ],
      "stateMutability": "view",
      "type": "function"
    },
    {
      "inputs": [
        {
          "internalType": "address",
          "name": "from",
          "type": "address"
        },
        {
          "internalType": "address",
          "name": "to",
          "type": "address"
        },
        {
          "internalType": "uint256",
          "name": "tokenId",
          "type": "uint256"
        }
      ],
      "name": "transferFrom",
      "outputs": [],
      "stateMutability": "nonpayable",
      "type": "function"
    },
    {
      "inputs": [],
      "name": "updateDaiRatio",
      "outputs": [],
      "stateMutability": "nonpayable",
      "type": "function"
    },
    {
      "inputs": [
        {
          "internalType": "address",
          "name": "receiver_",
          "type": "address"
        },
        {
          "internalType": "uint256",
          "name": "loanId_",
          "type": "uint256"
        }
      ],
      "name": "widthdrawColateral",
      "outputs": [
        {
          "internalType": "uint256",
          "name": "",
          "type": "uint256"
        }
      ],
      "stateMutability": "nonpayable",
      "type": "function"
    }
  ],
  "bytecode": "0x610120604052738f3cf7ad23cd3cadbd9735aff958023239c6a06373ffffffffffffffffffffffffffffffffffffffff1660809073ffffffffffffffffffffffffffffffffffffffff1681525073e5417af564e4bfda1c483642db7200787139789673ffffffffffffffffffffffffffffffffffffffff1660a09073ffffffffffffffffffffffffffffffffffffffff1681525073fb06a737f549eb2512eb6082a808fc7f16c0819d73ffffffffffffffffffffffffffffffffffffffff1660c09073ffffffffffffffffffffffffffffffffffffffff1681525073631e885028e75fcbb34c06d8ecb8e20ea18f663273ffffffffffffffffffffffffffffffffffffffff1660e09073ffffffffffffffffffffffffffffffffffffffff16815250670de0b6b3a7640000610100908152503480156200013e57600080fd5b5060405162005b0138038062005b018339818101604052810190620001649190620003be565b6040518060400160405280600981526020017f466574746920474e5300000000000000000000000000000000000000000000008152506040518060400160405280600681526020017f466574476e7300000000000000000000000000000000000000000000000000008152508160009081620001e191906200067f565b508060019081620001f391906200067f565b50505033600c60006101000a81548173ffffffffffffffffffffffffffffffffffffffff021916908373ffffffffffffffffffffffffffffffffffffffff16021790555081600d60006101000a81548173ffffffffffffffffffffffffffffffffffffffff021916908373ffffffffffffffffffffffffffffffffffffffff16021790555080600e60006101000a81548173ffffffffffffffffffffffffffffffffffffffff021916908373ffffffffffffffffffffffffffffffffffffffff1602179055506000600b81905550600060088190555060006009819055506000600a81905550600f6010819055506046601181905550600f60128190555067048b8383cbf0c0006013819055506705eec8fc297ac0006014819055506706f05b59d3b20000601581905550670853a0d2313c0000601681905550600a601781905550604b60188190555060198081905550603c600f81905550505062000766565b600080fd5b600073ffffffffffffffffffffffffffffffffffffffff82169050919050565b6000620003868262000359565b9050919050565b620003988162000379565b8114620003a457600080fd5b50565b600081519050620003b8816200038d565b92915050565b60008060408385031215620003d857620003d762000354565b5b6000620003e885828601620003a7565b9250506020620003fb85828601620003a7565b9150509250929050565b600081519050919050565b7f4e487b7100000000000000000000000000000000000000000000000000000000600052604160045260246000fd5b7f4e487b7100000000000000000000000000000000000000000000000000000000600052602260045260246000fd5b600060028204905060018216806200048757607f821691505b6020821081036200049d576200049c6200043f565b5b50919050565b60008190508160005260206000209050919050565b60006020601f8301049050919050565b600082821b905092915050565b600060088302620005077fffffffffffffffffffffffffffffffffffffffffffffffffffffffffffffffff82620004c8565b620005138683620004c8565b95508019841693508086168417925050509392505050565b6000819050919050565b6000819050919050565b6000620005606200055a62000554846200052b565b62000535565b6200052b565b9050919050565b6000819050919050565b6200057c836200053f565b620005946200058b8262000567565b848454620004d5565b825550505050565b600090565b620005ab6200059c565b620005b881848462000571565b505050565b5b81811015620005e057620005d4600082620005a1565b600181019050620005be565b5050565b601f8211156200062f57620005f981620004a3565b6200060484620004b8565b8101602085101562000614578190505b6200062c6200062385620004b8565b830182620005bd565b50505b505050565b600082821c905092915050565b6000620006546000198460080262000634565b1980831691505092915050565b60006200066f838362000641565b9150826002028217905092915050565b6200068a8262000405565b67ffffffffffffffff811115620006a657620006a562000410565b5b620006b282546200046e565b620006bf828285620005e4565b600060209050601f831160018114620006f75760008415620006e2578287015190505b620006ee858262000661565b8655506200075e565b601f1984166200070786620004a3565b60005b8281101562000731578489015182556001820191506020850194506020810190506200070a565b868310156200075157848901516200074d601f89168262000641565b8355505b6001600288020188555050505b505050505050565b60805160a05160c05160e051610100516152d862000829600039600081816114130152818161247601526133c801526000611e430152600081816113900152818161146c01528181612820015281816128a3015261333c0152600081816109ac01528181610a8801528181610b6e01528181610dae01528181612105015281816121f5015281816122d1015281816127e40152612af10152600081816116fc01528181611ffd015281816125840152818161264501526126ec01526152d86000f3fe608060405234801561001057600080fd5b506004361061021c5760003560e01c80636ec4753a11610125578063a22cb465116100ad578063d6bda0c01161007c578063d6bda0c0146106bf578063e7fb0790146106ef578063e985e9c51461070d578063ef97ed731461073d578063f354a3391461075b5761021c565b8063a22cb46514610625578063b88d4fde14610641578063c87b56dd1461065d578063d246e4841461068d5761021c565b80637b943d35116100f45780637b943d35146105595780638a700b531461057757806395277338146105a757806395d89b41146105d75780639f7b272d146105f55761021c565b80636ec4753a146104cf57806370a08231146104ed57806376e7db091461051d57806379af25a61461053b5761021c565b806323b872dd116101a85780634ac8eb5f116101775780634ac8eb5f1461043b5780634b5f7a7914610459578063575c38ec14610463578063606708ce146104815780636352211e1461049f5761021c565b806323b872dd146103ab5780632b7564f9146103c75780632dafc1031461040157806342842e0e1461041f5761021c565b8063095ea7b3116101ef578063095ea7b3146102cf57806314393ba3146102eb5780631e3f68b81461031b5780631e969a801461034b57806322e3ea691461037b5761021c565b806301ffc9a71461022157806306fdde0314610251578063081812fc1461026f57806308ef74c91461029f575b600080fd5b61023b60048036038101906102369190613af9565b610777565b6040516102489190613b41565b60405180910390f35b610259610859565b6040516102669190613bec565b60405180910390f35b61028960048036038101906102849190613c44565b6108eb565b6040516102969190613cb2565b60405180910390f35b6102b960048036038101906102b49190613ccd565b610931565b6040516102c69190613d1c565b60405180910390f35b6102e960048036038101906102e49190613d63565b610c36565b005b61030560048036038101906103009190613d63565b610d4d565b6040516103129190613d1c565b60405180910390f35b61033560048036038101906103309190613ccd565b610fdb565b6040516103429190613d1c565b60405180910390f35b61036560048036038101906103609190613c44565b611060565b6040516103729190613d1c565b60405180910390f35b61039560048036038101906103909190613d63565b6110e5565b6040516103a29190613d1c565b60405180910390f35b6103c560048036038101906103c09190613da3565b611298565b005b6103e160048036038101906103dc9190613c44565b6112f8565b6040516103f89b9a99989796959493929190613df6565b60405180910390f35b610409611352565b6040516104169190613d1c565b60405180910390f35b61043960048036038101906104349190613da3565b611358565b005b610443611378565b6040516104509190613d1c565b60405180910390f35b610461611382565b005b61046b611462565b6040516104789190613d1c565b60405180910390f35b610489611468565b6040516104969190613d1c565b60405180910390f35b6104b960048036038101906104b49190613c44565b6114fe565b6040516104c69190613cb2565b60405180910390f35b6104d7611584565b6040516104e49190613d1c565b60405180910390f35b61050760048036038101906105029190613ea1565b61158a565b6040516105149190613d1c565b60405180910390f35b610525611641565b6040516105329190613d1c565b60405180910390f35b610543611647565b6040516105509190613d1c565b60405180910390f35b61056161164d565b60405161056e9190613d1c565b60405180910390f35b610591600480360381019061058c9190613ccd565b611657565b60405161059e9190613d1c565b60405180910390f35b6105c160048036038101906105bc9190613ccd565b611822565b6040516105ce9190613d1c565b60405180910390f35b6105df6118ba565b6040516105ec9190613bec565b60405180910390f35b61060f600480360381019061060a9190613c44565b61194c565b60405161061c9190613d1c565b60405180910390f35b61063f600480360381019061063a9190613efa565b6119ac565b005b61065b6004803603810190610656919061406f565b6119c2565b005b61067760048036038101906106729190613c44565b611a24565b6040516106849190613bec565b60405180910390f35b6106a760048036038101906106a29190613c44565b611a8c565b6040516106b6939291906140f2565b60405180910390f35b6106d960048036038101906106d49190614167565b611ab6565b6040516106e69190613d1c565b60405180910390f35b6106f7611d9d565b6040516107049190613d1c565b60405180910390f35b610727600480360381019061072291906141ba565b611da7565b6040516107349190613b41565b60405180910390f35b610745611e3b565b6040516107529190613d1c565b60405180910390f35b610775600480360381019061077091906141fa565b611ee3565b005b60007f80ac58cd000000000000000000000000000000000000000000000000000000007bffffffffffffffffffffffffffffffffffffffffffffffffffffffff1916827bffffffffffffffffffffffffffffffffffffffffffffffffffffffff1916148061084257507f5b5e139f000000000000000000000000000000000000000000000000000000007bffffffffffffffffffffffffffffffffffffffffffffffffffffffff1916827bffffffffffffffffffffffffffffffffffffffffffffffffffffffff1916145b806108525750610851826123b5565b5b9050919050565b6060600080546108689061427c565b80601f01602080910402602001604051908101604052809291908181526020018280546108949061427c565b80156108e15780601f106108b6576101008083540402835291602001916108e1565b820191906000526020600020905b8154815290600101906020018083116108c457829003601f168201915b5050505050905090565b60006108f68261241f565b6004600083815260200190815260200160002060009054906101000a900473ffffffffffffffffffffffffffffffffffffffff169050919050565b600061093c836114fe565b73ffffffffffffffffffffffffffffffffffffffff163373ffffffffffffffffffffffffffffffffffffffff16146109a9576040517f08c379a00000000000000000000000000000000000000000000000000000000081526004016109a09061431f565b60405180910390fd5b817f000000000000000000000000000000000000000000000000000000000000000073ffffffffffffffffffffffffffffffffffffffff166370a08231336040518263ffffffff1660e01b8152600401610a039190613cb2565b602060405180830381865afa158015610a20573d6000803e3d6000fd5b505050506040513d601f19601f82011682018060405250810190610a449190614354565b1015610a85576040517f08c379a0000000000000000000000000000000000000000000000000000000008152600401610a7c906143cd565b60405180910390fd5b817f000000000000000000000000000000000000000000000000000000000000000073ffffffffffffffffffffffffffffffffffffffff1663dd62ed3e33306040518363ffffffff1660e01b8152600401610ae19291906143ed565b602060405180830381865afa158015610afe573d6000803e3d6000fd5b505050506040513d601f19601f82011682018060405250810190610b229190614354565b1015610b63576040517f08c379a0000000000000000000000000000000000000000000000000000000008152600401610b5a90614488565b60405180910390fd5b610b6c8361246a565b7f000000000000000000000000000000000000000000000000000000000000000073ffffffffffffffffffffffffffffffffffffffff166323b872dd3330856040518463ffffffff1660e01b8152600401610bc9939291906144a8565b6020604051808303816000875af1158015610be8573d6000803e3d6000fd5b505050506040513d601f19601f82011682018060405250810190610c0c91906144f4565b50610c1782846127b2565b6006600084815260200190815260200160002060010154905092915050565b6000610c41826114fe565b90508073ffffffffffffffffffffffffffffffffffffffff168373ffffffffffffffffffffffffffffffffffffffff1603610cb1576040517f08c379a0000000000000000000000000000000000000000000000000000000008152600401610ca890614593565b60405180910390fd5b8073ffffffffffffffffffffffffffffffffffffffff16610cd0612976565b73ffffffffffffffffffffffffffffffffffffffff161480610cff5750610cfe81610cf9612976565b611da7565b5b610d3e576040517f08c379a0000000000000000000000000000000000000000000000000000000008152600401610d3590614625565b60405180910390fd5b610d48838361297e565b505050565b600080610d593361158a565b14610d99576040517f08c379a0000000000000000000000000000000000000000000000000000000008152600401610d90906146b7565b60405180910390fd5b6000600a5414610dac57610dab611382565b5b7f000000000000000000000000000000000000000000000000000000000000000073ffffffffffffffffffffffffffffffffffffffff166323b872dd3330856040518463ffffffff1660e01b8152600401610e09939291906144a8565b6020604051808303816000875af1158015610e28573d6000803e3d6000fd5b505050506040513d601f19601f82011682018060405250810190610e4c91906144f4565b506000600f5442610e5d9190614706565b9050600160086000828254610e729190614706565b92505081905550604051806101600160405280600b5481526020016000815260200160008152602001828152602001601554815260200160165481526020016013548152602001601454815260200160115481526020016010548152602001601254815250600660006008548152602001908152602001600020600082015181600001556020820151816001015560408201518160020155606082015181600301556080820151816004015560a0820151816005015560c0820151816006015560e082015181600701556101008201518160080155610120820151816009015561014082015181600a0155905050604051806060016040528060175481526020016018548152602001601954815250600760006008548152602001908152602001600020600082015181600001556020820151816001015560408201518160020155905050610fc3836008546127b2565b610fcf84600854612a37565b60085491505092915050565b600080610fe6611e3b565b6006600086815260200190815260200160002060010154611007919061473a565b620f4240670de0b6b3a76400008560066000898152602001908152602001600020600201546110369190614706565b611040919061473a565b61104a919061473a565b61105491906147ab565b90508091505092915050565b600080670de0b6b3a7640000600660008581526020019081526020016000206002015461108d919061473a565b90506000611099611e3b565b60066000868152602001908152602001600020600101546110ba919061473a565b9050600081620f4240846110ce919061473a565b6110d891906147ab565b9050809350505050919050565b60006110f082612a55565b61112f576040517f08c379a000000000000000000000000000000000000000000000000000000000815260040161112690614828565b60405180910390fd5b42600660008481526020019081526020016000206003015410611187576040517f08c379a000000000000000000000000000000000000000000000000000000000815260040161117e90614894565b60405180910390fd5b60006006600084815260200190815260200160002060020154146111e0576040517f08c379a00000000000000000000000000000000000000000000000000000000081526004016111d790614926565b60405180910390fd5b6111e9826114fe565b73ffffffffffffffffffffffffffffffffffffffff163373ffffffffffffffffffffffffffffffffffffffff1614611256576040517f08c379a000000000000000000000000000000000000000000000000000000000815260040161124d90614992565b60405180910390fd5b60006006600084815260200190815260200160002060010154905061127a8361246a565b611285818486612a96565b61128e83612b93565b8091505092915050565b6112a96112a3612976565b82612c3b565b6112e8576040517f08c379a00000000000000000000000000000000000000000000000000000000081526004016112df90614a24565b60405180910390fd5b6112f3838383612cd0565b505050565b600660205280600052604060002060009150905080600001549080600101549080600201549080600301549080600401549080600501549080600601549080600701549080600801549080600901549080600a015490508b565b60105481565b611373838383604051806020016040528060008152506119c2565b505050565b6000600a54905090565b600061138c611468565b90507f000000000000000000000000000000000000000000000000000000000000000073ffffffffffffffffffffffffffffffffffffffff16634641257d6040518163ffffffff1660e01b8152600401600060405180830381600087803b1580156113f657600080fd5b505af115801561140a573d6000803e3d6000fd5b50505050600a547f00000000000000000000000000000000000000000000000000000000000000008261143d919061473a565b61144791906147ab565b600b60008282546114589190614706565b9250508190555050565b60125481565b60007f000000000000000000000000000000000000000000000000000000000000000073ffffffffffffffffffffffffffffffffffffffff1663f68183456040518163ffffffff1660e01b8152600401602060405180830381865afa1580156114d5573d6000803e3d6000fd5b505050506040513d601f19601f820116820180604052508101906114f99190614354565b905090565b60008061150a83612fc9565b9050600073ffffffffffffffffffffffffffffffffffffffff168173ffffffffffffffffffffffffffffffffffffffff160361157b576040517f08c379a000000000000000000000000000000000000000000000000000000000815260040161157290614a90565b60405180910390fd5b80915050919050565b60115481565b60008073ffffffffffffffffffffffffffffffffffffffff168273ffffffffffffffffffffffffffffffffffffffff16036115fa576040517f08c379a00000000000000000000000000000000000000000000000000000000081526004016115f190614b22565b60405180910390fd5b600360008373ffffffffffffffffffffffffffffffffffffffff1673ffffffffffffffffffffffffffffffffffffffff168152602001908152602001600020549050919050565b600b5481565b600f5481565b6000601154905090565b600061166283612a55565b6116a1576040517f08c379a000000000000000000000000000000000000000000000000000000000815260040161169890614828565b60405180910390fd5b60066000848152602001908152602001600020600201548211156116fa576040517f08c379a00000000000000000000000000000000000000000000000000000000081526004016116f190614bda565b60405180910390fd5b7f000000000000000000000000000000000000000000000000000000000000000073ffffffffffffffffffffffffffffffffffffffff166323b872dd33600e60009054906101000a900473ffffffffffffffffffffffffffffffffffffffff16856040518463ffffffff1660e01b8152600401611779939291906144a8565b6020604051808303816000875af1158015611798573d6000803e3d6000fd5b505050506040513d601f19601f820116820180604052508101906117bc91906144f4565b5081600960008282546117cf9190614bfa565b92505081905550816006600085815260200190815260200160002060020160008282546117fc9190614bfa565b925050819055506006600084815260200190815260200160002060020154905092915050565b60008061182d611e3b565b6118368461194c565b60066000878152602001908152602001600020600101546118579190614bfa565b611861919061473a565b620f4240670de0b6b3a76400008560066000898152602001908152602001600020600201546118909190614bfa565b61189a919061473a565b6118a4919061473a565b6118ae91906147ab565b90508091505092915050565b6060600180546118c99061427c565b80601f01602080910402602001604051908101604052809291908181526020018280546118f59061427c565b80156119425780601f1061191757610100808354040283529160200191611942565b820191906000526020600020905b81548152906001019060200180831161192557829003601f168201915b5050505050905090565b600080611957611e3b565b9050806001826103e8620f424061049788611972919061473a565b61197c919061473a565b61198691906147ab565b6119909190614706565b61199a9190614bfa565b6119a491906147ab565b915050919050565b6119be6119b7612976565b8383613006565b5050565b6119d36119cd612976565b83612c3b565b611a12576040517f08c379a0000000000000000000000000000000000000000000000000000000008152600401611a0990614a24565b60405180910390fd5b611a1e84848484613172565b50505050565b6060611a2f8261241f565b6000611a396131ce565b90506000815111611a595760405180602001604052806000815250611a84565b80611a63846131e5565b604051602001611a74929190614c6a565b6040516020818303038152906040525b915050919050565b60076020528060005260406000206000915090508060000154908060010154908060020154905083565b6000611ac184612a55565b611b00576040517f08c379a0000000000000000000000000000000000000000000000000000000008152600401611af790614cda565b60405180910390fd5b6006600085815260200190815260200160002060040154611b218585610fdb565b10611b61576040517f08c379a0000000000000000000000000000000000000000000000000000000008152600401611b5890614d46565b60405180910390fd5b611b6a846114fe565b73ffffffffffffffffffffffffffffffffffffffff163373ffffffffffffffffffffffffffffffffffffffff1614611bd7576040517f08c379a0000000000000000000000000000000000000000000000000000000008152600401611bce90614db2565b60405180910390fd5b82600d60009054906101000a900473ffffffffffffffffffffffffffffffffffffffff1673ffffffffffffffffffffffffffffffffffffffff1663d86dbf306040518163ffffffff1660e01b81526004016020604051808303816000875af1158015611c47573d6000803e3d6000fd5b505050506040513d601f19601f82011682018060405250810190611c6b9190614354565b1015611cac576040517f08c379a0000000000000000000000000000000000000000000000000000000008152600401611ca390614e44565b60405180910390fd5b8260096000828254611cbe9190614706565b9250508190555082600660008681526020019081526020016000206002016000828254611ceb9190614706565b92505081905550600d60009054906101000a900473ffffffffffffffffffffffffffffffffffffffff1673ffffffffffffffffffffffffffffffffffffffff16631343a35f83856040518363ffffffff1660e01b8152600401611d4f929190614e73565b6020604051808303816000875af1158015611d6e573d6000803e3d6000fd5b505050506040513d601f19601f82011682018060405250810190611d929190614354565b508290509392505050565b6000600954905090565b6000600560008473ffffffffffffffffffffffffffffffffffffffff1673ffffffffffffffffffffffffffffffffffffffff16815260200190815260200160002060008373ffffffffffffffffffffffffffffffffffffffff1673ffffffffffffffffffffffffffffffffffffffff16815260200190815260200160002060009054906101000a900460ff16905092915050565b6000806127107f000000000000000000000000000000000000000000000000000000000000000073ffffffffffffffffffffffffffffffffffffffff16633c88e8826040518163ffffffff1660e01b8152600401602060405180830381865afa158015611eac573d6000803e3d6000fd5b505050506040513d601f19601f82011682018060405250810190611ed09190614354565b611eda91906147ab565b90508091505090565b600060076000858152602001908152602001600020604051806060016040529081600082015481526020016001820154815260200160028201548152505090506000600660008681526020019081526020016000206040518061016001604052908160008201548152602001600182015481526020016002820154815260200160038201548152602001600482015481526020016005820154815260200160068201548152602001600782015481526020016008820154815260200160098201548152602001600a820154815250509050611fbd85611060565b8160a0015110611fcc57600080fd5b6000611fd88686611822565b9050808260c0015111158015611ff25750808260e0015110155b611ffb57600080fd5b7f000000000000000000000000000000000000000000000000000000000000000073ffffffffffffffffffffffffffffffffffffffff166323b872dd8530886040518463ffffffff1660e01b8152600401612058939291906144a8565b6020604051808303816000875af1158015612077573d6000803e3d6000fd5b505050506040513d601f19601f8201168201806040525081019061209b91906144f4565b50846006600088815260200190815260200160002060020160008282546120c29190614bfa565b9250508190555060006120d48661194c565b9050806006600089815260200190815260200160002060010160008282546120fc9190614bfa565b925050819055507f000000000000000000000000000000000000000000000000000000000000000073ffffffffffffffffffffffffffffffffffffffff1663a9059cbb33836040518363ffffffff1660e01b815260040161215e929190614e9c565b6020604051808303816000875af115801561217d573d6000803e3d6000fd5b505050506040513d601f19601f820116820180604052508101906121a191906144f4565b5060006064846020015186600001516121ba919061473a565b6121c491906147ab565b905080600660008a815260200190815260200160002060010160008282546121ec9190614bfa565b925050819055507f000000000000000000000000000000000000000000000000000000000000000073ffffffffffffffffffffffffffffffffffffffff1663a9059cbb600e60009054906101000a900473ffffffffffffffffffffffffffffffffffffffff166064848960200151612264919061473a565b61226e91906147ab565b6040518363ffffffff1660e01b815260040161228b929190614e9c565b6020604051808303816000875af11580156122aa573d6000803e3d6000fd5b505050506040513d601f19601f820116820180604052508101906122ce91906144f4565b507f000000000000000000000000000000000000000000000000000000000000000073ffffffffffffffffffffffffffffffffffffffff1663a9059cbb600c60009054906101000a900473ffffffffffffffffffffffffffffffffffffffff166064848960400151612340919061473a565b61234a91906147ab565b6040518363ffffffff1660e01b8152600401612367929190614e9c565b6020604051808303816000875af1158015612386573d6000803e3d6000fd5b505050506040513d601f19601f820116820180604052508101906123aa91906144f4565b505050505050505050565b60007f01ffc9a7000000000000000000000000000000000000000000000000000000007bffffffffffffffffffffffffffffffffffffffffffffffffffffffff1916827bffffffffffffffffffffffffffffffffffffffffffffffffffffffff1916149050919050565b61242881612a55565b612467576040517f08c379a000000000000000000000000000000000000000000000000000000000815260040161245e90614a90565b60405180910390fd5b50565b612472611382565b60007f00000000000000000000000000000000000000000000000000000000000000006006600084815260200190815260200160002060000154600b546124b99190614bfa565b60066000858152602001908152602001600020600101546124da919061473a565b6124e491906147ab565b90506000606460066000858152602001908152602001600020600801548361250c919061473a565b61251691906147ab565b90506000606460066000868152602001908152602001600020600901548461253e919061473a565b61254891906147ab565b905060008183856125599190614bfa565b6125639190614bfa565b9050600b5460066000878152602001908152602001600020600001819055507f000000000000000000000000000000000000000000000000000000000000000073ffffffffffffffffffffffffffffffffffffffff1663a9059cbb600e60009054906101000a900473ffffffffffffffffffffffffffffffffffffffff16856040518363ffffffff1660e01b81526004016125ff929190614e9c565b6020604051808303816000875af115801561261e573d6000803e3d6000fd5b505050506040513d601f19601f8201168201806040525081019061264291906144f4565b507f000000000000000000000000000000000000000000000000000000000000000073ffffffffffffffffffffffffffffffffffffffff1663a9059cbb612688876114fe565b846040518363ffffffff1660e01b81526004016126a6929190614e9c565b6020604051808303816000875af11580156126c5573d6000803e3d6000fd5b505050506040513d601f19601f820116820180604052508101906126e991906144f4565b507f000000000000000000000000000000000000000000000000000000000000000073ffffffffffffffffffffffffffffffffffffffff1663a9059cbb600c60009054906101000a900473ffffffffffffffffffffffffffffffffffffffff16836040518363ffffffff1660e01b8152600401612767929190614e9c565b6020604051808303816000875af1158015612786573d6000803e3d6000fd5b505050506040513d601f19601f820116820180604052508101906127aa91906144f4565b505050505050565b6000600a54146127c5576127c4611382565b5b600b5460066000838152602001908152602001600020600001819055507f000000000000000000000000000000000000000000000000000000000000000073ffffffffffffffffffffffffffffffffffffffff1663095ea7b37f0000000000000000000000000000000000000000000000000000000000000000846040518363ffffffff1660e01b815260040161285d929190614e9c565b6020604051808303816000875af115801561287c573d6000803e3d6000fd5b505050506040513d601f19601f820116820180604052508101906128a091906144f4565b507f000000000000000000000000000000000000000000000000000000000000000073ffffffffffffffffffffffffffffffffffffffff16637547c7a3836040518263ffffffff1660e01b81526004016128fa9190613d1c565b600060405180830381600087803b15801561291457600080fd5b505af1158015612928573d6000803e3d6000fd5b5050505081600a600082825461293e9190614706565b925050819055508160066000838152602001908152602001600020600101600082825461296b9190614706565b925050819055505050565b600033905090565b816004600083815260200190815260200160002060006101000a81548173ffffffffffffffffffffffffffffffffffffffff021916908373ffffffffffffffffffffffffffffffffffffffff160217905550808273ffffffffffffffffffffffffffffffffffffffff166129f1836114fe565b73ffffffffffffffffffffffffffffffffffffffff167f8c5be1e5ebec7d5bd14f71427d1e84f3dd0314c0f7b2291e5b200ac8c7c3b92560405160405180910390a45050565b612a518282604051806020016040528060008152506132b3565b5050565b60008073ffffffffffffffffffffffffffffffffffffffff16612a7783612fc9565b73ffffffffffffffffffffffffffffffffffffffff1614159050919050565b8260066000848152602001908152602001600020600101541015612ab957600080fd5b82600660008481526020019081526020016000206001016000828254612adf9190614bfa565b92505081905550612aef8361330e565b7f000000000000000000000000000000000000000000000000000000000000000073ffffffffffffffffffffffffffffffffffffffff1663a9059cbb82856040518363ffffffff1660e01b8152600401612b4a929190614e9c565b6020604051808303816000875af1158015612b69573d6000803e3d6000fd5b505050506040513d601f19601f82011682018060405250810190612b8d91906144f4565b50505050565b60066000828152602001908152602001600020600080820160009055600182016000905560028201600090556003820160009055600482016000905560058201600090556006820160009055600782016000905560088201600090556009820160009055600a820160009055505060076000828152602001908152602001600020600080820160009055600182016000905560028201600090555050612c3881613419565b50565b600080612c47836114fe565b90508073ffffffffffffffffffffffffffffffffffffffff168473ffffffffffffffffffffffffffffffffffffffff161480612c895750612c888185611da7565b5b80612cc757508373ffffffffffffffffffffffffffffffffffffffff16612caf846108eb565b73ffffffffffffffffffffffffffffffffffffffff16145b91505092915050565b8273ffffffffffffffffffffffffffffffffffffffff16612cf0826114fe565b73ffffffffffffffffffffffffffffffffffffffff1614612d46576040517f08c379a0000000000000000000000000000000000000000000000000000000008152600401612d3d90614f37565b60405180910390fd5b600073ffffffffffffffffffffffffffffffffffffffff168273ffffffffffffffffffffffffffffffffffffffff1603612db5576040517f08c379a0000000000000000000000000000000000000000000000000000000008152600401612dac90614fc9565b60405180910390fd5b612dc28383836001613567565b8273ffffffffffffffffffffffffffffffffffffffff16612de2826114fe565b73ffffffffffffffffffffffffffffffffffffffff1614612e38576040517f08c379a0000000000000000000000000000000000000000000000000000000008152600401612e2f90614f37565b60405180910390fd5b6004600082815260200190815260200160002060006101000a81549073ffffffffffffffffffffffffffffffffffffffff02191690556001600360008573ffffffffffffffffffffffffffffffffffffffff1673ffffffffffffffffffffffffffffffffffffffff168152602001908152602001600020600082825403925050819055506001600360008473ffffffffffffffffffffffffffffffffffffffff1673ffffffffffffffffffffffffffffffffffffffff16815260200190815260200160002060008282540192505081905550816002600083815260200190815260200160002060006101000a81548173ffffffffffffffffffffffffffffffffffffffff021916908373ffffffffffffffffffffffffffffffffffffffff160217905550808273ffffffffffffffffffffffffffffffffffffffff168473ffffffffffffffffffffffffffffffffffffffff167fddf252ad1be2c89b69c2b068fc378daa952ba7f163c4a11628f55a4df523b3ef60405160405180910390a4612fc4838383600161356d565b505050565b60006002600083815260200190815260200160002060009054906101000a900473ffffffffffffffffffffffffffffffffffffffff169050919050565b8173ffffffffffffffffffffffffffffffffffffffff168373ffffffffffffffffffffffffffffffffffffffff1603613074576040517f08c379a000000000000000000000000000000000000000000000000000000000815260040161306b90615035565b60405180910390fd5b80600560008573ffffffffffffffffffffffffffffffffffffffff1673ffffffffffffffffffffffffffffffffffffffff16815260200190815260200160002060008473ffffffffffffffffffffffffffffffffffffffff1673ffffffffffffffffffffffffffffffffffffffff16815260200190815260200160002060006101000a81548160ff0219169083151502179055508173ffffffffffffffffffffffffffffffffffffffff168373ffffffffffffffffffffffffffffffffffffffff167f17307eab39ab6107e8899845ad3d59bd9653f200f220920489ca2b5937696c31836040516131659190613b41565b60405180910390a3505050565b61317d848484612cd0565b61318984848484613573565b6131c8576040517f08c379a00000000000000000000000000000000000000000000000000000000081526004016131bf906150c7565b60405180910390fd5b50505050565b606060405180602001604052806000815250905090565b6060600060016131f4846136fa565b01905060008167ffffffffffffffff81111561321357613212613f44565b5b6040519080825280601f01601f1916602001820160405280156132455781602001600182028036833780820191505090505b509050600082602001820190505b6001156132a8578080600190039150507f3031323334353637383961626364656600000000000000000000000000000000600a86061a8153600a858161329c5761329b61477c565b5b04945060008503613253575b819350505050919050565b6132bd838361384d565b6132ca6000848484613573565b613309576040517f08c379a0000000000000000000000000000000000000000000000000000000008152600401613300906150c7565b60405180910390fd5b505050565b6000613318611468565b90506000600a54905082600a60008282546133339190614bfa565b925050819055507f000000000000000000000000000000000000000000000000000000000000000073ffffffffffffffffffffffffffffffffffffffff1663608e4dd0846040518263ffffffff1660e01b81526004016133939190613d1c565b600060405180830381600087803b1580156133ad57600080fd5b505af11580156133c1573d6000803e3d6000fd5b50505050807f0000000000000000000000000000000000000000000000000000000000000000836133f2919061473a565b6133fc91906147ab565b600b600082825461340d9190614706565b92505081905550505050565b6000613424826114fe565b9050613434816000846001613567565b61343d826114fe565b90506004600083815260200190815260200160002060006101000a81549073ffffffffffffffffffffffffffffffffffffffff02191690556001600360008373ffffffffffffffffffffffffffffffffffffffff1673ffffffffffffffffffffffffffffffffffffffff168152602001908152602001600020600082825403925050819055506002600083815260200190815260200160002060006101000a81549073ffffffffffffffffffffffffffffffffffffffff021916905581600073ffffffffffffffffffffffffffffffffffffffff168273ffffffffffffffffffffffffffffffffffffffff167fddf252ad1be2c89b69c2b068fc378daa952ba7f163c4a11628f55a4df523b3ef60405160405180910390a461356381600084600161356d565b5050565b50505050565b50505050565b60006135948473ffffffffffffffffffffffffffffffffffffffff16613a6a565b156136ed578373ffffffffffffffffffffffffffffffffffffffff1663150b7a026135bd612976565b8786866040518563ffffffff1660e01b81526004016135df949392919061513c565b6020604051808303816000875af192505050801561361b57506040513d601f19601f82011682018060405250810190613618919061519d565b60015b61369d573d806000811461364b576040519150601f19603f3d011682016040523d82523d6000602084013e613650565b606091505b506000815103613695576040517f08c379a000000000000000000000000000000000000000000000000000000000815260040161368c906150c7565b60405180910390fd5b805181602001fd5b63150b7a0260e01b7bffffffffffffffffffffffffffffffffffffffffffffffffffffffff1916817bffffffffffffffffffffffffffffffffffffffffffffffffffffffff1916149150506136f2565b600190505b949350505050565b600080600090507a184f03e93ff9f4daa797ed6e38ed64bf6a1f0100000000000000008310613758577a184f03e93ff9f4daa797ed6e38ed64bf6a1f010000000000000000838161374e5761374d61477c565b5b0492506040810190505b6d04ee2d6d415b85acef81000000008310613795576d04ee2d6d415b85acef8100000000838161378b5761378a61477c565b5b0492506020810190505b662386f26fc1000083106137c457662386f26fc1000083816137ba576137b961477c565b5b0492506010810190505b6305f5e10083106137ed576305f5e10083816137e3576137e261477c565b5b0492506008810190505b61271083106138125761271083816138085761380761477c565b5b0492506004810190505b60648310613835576064838161382b5761382a61477c565b5b0492506002810190505b600a8310613844576001810190505b80915050919050565b600073ffffffffffffffffffffffffffffffffffffffff168273ffffffffffffffffffffffffffffffffffffffff16036138bc576040517f08c379a00000000000000000000000000000000000000000000000000000000081526004016138b390615216565b60405180910390fd5b6138c581612a55565b15613905576040517f08c379a00000000000000000000000000000000000000000000000000000000081526004016138fc90615282565b60405180910390fd5b613913600083836001613567565b61391c81612a55565b1561395c576040517f08c379a000000000000000000000000000000000000000000000000000000000815260040161395390615282565b60405180910390fd5b6001600360008473ffffffffffffffffffffffffffffffffffffffff1673ffffffffffffffffffffffffffffffffffffffff16815260200190815260200160002060008282540192505081905550816002600083815260200190815260200160002060006101000a81548173ffffffffffffffffffffffffffffffffffffffff021916908373ffffffffffffffffffffffffffffffffffffffff160217905550808273ffffffffffffffffffffffffffffffffffffffff16600073ffffffffffffffffffffffffffffffffffffffff167fddf252ad1be2c89b69c2b068fc378daa952ba7f163c4a11628f55a4df523b3ef60405160405180910390a4613a6660008383600161356d565b5050565b6000808273ffffffffffffffffffffffffffffffffffffffff163b119050919050565b6000604051905090565b600080fd5b600080fd5b60007fffffffff0000000000000000000000000000000000000000000000000000000082169050919050565b613ad681613aa1565b8114613ae157600080fd5b50565b600081359050613af381613acd565b92915050565b600060208284031215613b0f57613b0e613a97565b5b6000613b1d84828501613ae4565b91505092915050565b60008115159050919050565b613b3b81613b26565b82525050565b6000602082019050613b566000830184613b32565b92915050565b600081519050919050565b600082825260208201905092915050565b60005b83811015613b96578082015181840152602081019050613b7b565b60008484015250505050565b6000601f19601f8301169050919050565b6000613bbe82613b5c565b613bc88185613b67565b9350613bd8818560208601613b78565b613be181613ba2565b840191505092915050565b60006020820190508181036000830152613c068184613bb3565b905092915050565b6000819050919050565b613c2181613c0e565b8114613c2c57600080fd5b50565b600081359050613c3e81613c18565b92915050565b600060208284031215613c5a57613c59613a97565b5b6000613c6884828501613c2f565b91505092915050565b600073ffffffffffffffffffffffffffffffffffffffff82169050919050565b6000613c9c82613c71565b9050919050565b613cac81613c91565b82525050565b6000602082019050613cc76000830184613ca3565b92915050565b60008060408385031215613ce457613ce3613a97565b5b6000613cf285828601613c2f565b9250506020613d0385828601613c2f565b9150509250929050565b613d1681613c0e565b82525050565b6000602082019050613d316000830184613d0d565b92915050565b613d4081613c91565b8114613d4b57600080fd5b50565b600081359050613d5d81613d37565b92915050565b60008060408385031215613d7a57613d79613a97565b5b6000613d8885828601613d4e565b9250506020613d9985828601613c2f565b9150509250929050565b600080600060608486031215613dbc57613dbb613a97565b5b6000613dca86828701613d4e565b9350506020613ddb86828701613d4e565b9250506040613dec86828701613c2f565b9150509250925092565b600061016082019050613e0c600083018e613d0d565b613e19602083018d613d0d565b613e26604083018c613d0d565b613e33606083018b613d0d565b613e40608083018a613d0d565b613e4d60a0830189613d0d565b613e5a60c0830188613d0d565b613e6760e0830187613d0d565b613e75610100830186613d0d565b613e83610120830185613d0d565b613e91610140830184613d0d565b9c9b505050505050505050505050565b600060208284031215613eb757613eb6613a97565b5b6000613ec584828501613d4e565b91505092915050565b613ed781613b26565b8114613ee257600080fd5b50565b600081359050613ef481613ece565b92915050565b60008060408385031215613f1157613f10613a97565b5b6000613f1f85828601613d4e565b9250506020613f3085828601613ee5565b9150509250929050565b600080fd5b600080fd5b7f4e487b7100000000000000000000000000000000000000000000000000000000600052604160045260246000fd5b613f7c82613ba2565b810181811067ffffffffffffffff82111715613f9b57613f9a613f44565b5b80604052505050565b6000613fae613a8d565b9050613fba8282613f73565b919050565b600067ffffffffffffffff821115613fda57613fd9613f44565b5b613fe382613ba2565b9050602081019050919050565b82818337600083830152505050565b600061401261400d84613fbf565b613fa4565b90508281526020810184848401111561402e5761402d613f3f565b5b614039848285613ff0565b509392505050565b600082601f83011261405657614055613f3a565b5b8135614066848260208601613fff565b91505092915050565b6000806000806080858703121561408957614088613a97565b5b600061409787828801613d4e565b94505060206140a887828801613d4e565b93505060406140b987828801613c2f565b925050606085013567ffffffffffffffff8111156140da576140d9613a9c565b5b6140e687828801614041565b91505092959194509250565b60006060820190506141076000830186613d0d565b6141146020830185613d0d565b6141216040830184613d0d565b949350505050565b600061413482613c71565b9050919050565b61414481614129565b811461414f57600080fd5b50565b6000813590506141618161413b565b92915050565b6000806000606084860312156141805761417f613a97565b5b600061418e86828701613c2f565b935050602061419f86828701613c2f565b92505060406141b086828701614152565b9150509250925092565b600080604083850312156141d1576141d0613a97565b5b60006141df85828601613d4e565b92505060206141f085828601613d4e565b9150509250929050565b60008060006060848603121561421357614212613a97565b5b600061422186828701613c2f565b935050602061423286828701613c2f565b925050604061424386828701613d4e565b9150509250925092565b7f4e487b7100000000000000000000000000000000000000000000000000000000600052602260045260246000fd5b6000600282049050600182168061429457607f821691505b6020821081036142a7576142a661424d565b5b50919050565b7f4c6f616e20646f65736e2774206578697374206f7220796f7520617265206e6f60008201527f7420746865206f776e6572206f6620746865206c6f616e000000000000000000602082015250565b6000614309603783613b67565b9150614314826142ad565b604082019050919050565b60006020820190508181036000830152614338816142fc565b9050919050565b60008151905061434e81613c18565b92915050565b60006020828403121561436a57614369613a97565b5b60006143788482850161433f565b91505092915050565b7f646f6e2774206861766520656e6f75676820676e730000000000000000000000600082015250565b60006143b7601583613b67565b91506143c282614381565b602082019050919050565b600060208201905081810360008301526143e6816143aa565b9050919050565b60006040820190506144026000830185613ca3565b61440f6020830184613ca3565b9392505050565b7f6d757374206861766520656e6f75676820746f6b656e7320617070726f76656460008201527f20696e2074686520676e7320636f6e7472616374000000000000000000000000602082015250565b6000614472603483613b67565b915061447d82614416565b604082019050919050565b600060208201905081810360008301526144a181614465565b9050919050565b60006060820190506144bd6000830186613ca3565b6144ca6020830185613ca3565b6144d76040830184613d0d565b949350505050565b6000815190506144ee81613ece565b92915050565b60006020828403121561450a57614509613a97565b5b6000614518848285016144df565b91505092915050565b7f4552433732313a20617070726f76616c20746f2063757272656e74206f776e6560008201527f7200000000000000000000000000000000000000000000000000000000000000602082015250565b600061457d602183613b67565b915061458882614521565b604082019050919050565b600060208201905081810360008301526145ac81614570565b9050919050565b7f4552433732313a20617070726f76652063616c6c6572206973206e6f7420746f60008201527f6b656e206f776e6572206f7220617070726f76656420666f7220616c6c000000602082015250565b600061460f603d83613b67565b915061461a826145b3565b604082019050919050565b6000602082019050818103600083015261463e81614602565b9050919050565b7f63616e206f6e6c792068617665206f6e65206c6f616e2070657220616464726560008201527f7373000000000000000000000000000000000000000000000000000000000000602082015250565b60006146a1602283613b67565b91506146ac82614645565b604082019050919050565b600060208201905081810360008301526146d081614694565b9050919050565b7f4e487b7100000000000000000000000000000000000000000000000000000000600052601160045260246000fd5b600061471182613c0e565b915061471c83613c0e565b9250828201905080821115614734576147336146d7565b5b92915050565b600061474582613c0e565b915061475083613c0e565b925082820261475e81613c0e565b91508282048414831517614775576147746146d7565b5b5092915050565b7f4e487b7100000000000000000000000000000000000000000000000000000000600052601260045260246000fd5b60006147b682613c0e565b91506147c183613c0e565b9250826147d1576147d061477c565b5b828204905092915050565b7f6c6f616e4964206d7573742062652061206f70656e206c6f616e000000000000600082015250565b6000614812601a83613b67565b915061481d826147dc565b602082019050919050565b6000602082019050818103600083015261484181614805565b9050919050565b7f436f6c61746572616c206973207374696c6c206c6f636b656400000000000000600082015250565b600061487e601983613b67565b915061488982614848565b602082019050919050565b600060208201905081810360008301526148ad81614871565b9050919050565b7f4d75737420726570617920656e74697265206c6f616e206265666f726520726560008201527f6d6f76696e6720636f6c61746572616c00000000000000000000000000000000602082015250565b6000614910603083613b67565b915061491b826148b4565b604082019050919050565b6000602082019050818103600083015261493f81614903565b9050919050565b7f4d75737420626520746865206f776e6572206f6620746865206c6f616e000000600082015250565b600061497c601d83613b67565b915061498782614946565b602082019050919050565b600060208201905081810360008301526149ab8161496f565b9050919050565b7f4552433732313a2063616c6c6572206973206e6f7420746f6b656e206f776e6560008201527f72206f7220617070726f76656400000000000000000000000000000000000000602082015250565b6000614a0e602d83613b67565b9150614a19826149b2565b604082019050919050565b60006020820190508181036000830152614a3d81614a01565b9050919050565b7f4552433732313a20696e76616c696420746f6b656e2049440000000000000000600082015250565b6000614a7a601883613b67565b9150614a8582614a44565b602082019050919050565b60006020820190508181036000830152614aa981614a6d565b9050919050565b7f4552433732313a2061646472657373207a65726f206973206e6f74206120766160008201527f6c6964206f776e65720000000000000000000000000000000000000000000000602082015250565b6000614b0c602983613b67565b9150614b1782614ab0565b604082019050919050565b60006020820190508181036000830152614b3b81614aff565b9050919050565b7f616d6f756e74206d7573742062652067726561746572207468616e203020616e60008201527f64206c657373207468616e20796f7572206c6f616e6564206f757420616d6f7560208201527f6e74000000000000000000000000000000000000000000000000000000000000604082015250565b6000614bc4604283613b67565b9150614bcf82614b42565b606082019050919050565b60006020820190508181036000830152614bf381614bb7565b9050919050565b6000614c0582613c0e565b9150614c1083613c0e565b9250828203905081811115614c2857614c276146d7565b5b92915050565b600081905092915050565b6000614c4482613b5c565b614c4e8185614c2e565b9350614c5e818560208601613b78565b80840191505092915050565b6000614c768285614c39565b9150614c828284614c39565b91508190509392505050565b7f4c6f616e20646f65736e74206578697374000000000000000000000000000000600082015250565b6000614cc4601183613b67565b9150614ccf82614c8e565b602082019050919050565b60006020820190508181036000830152614cf381614cb7565b9050919050565b7f52657175657374696e6720746f6f206d75636820757364630000000000000000600082015250565b6000614d30601883613b67565b9150614d3b82614cfa565b602082019050919050565b60006020820190508181036000830152614d5f81614d23565b9050919050565b7f6d757374206265206f776e657200000000000000000000000000000000000000600082015250565b6000614d9c600d83613b67565b9150614da782614d66565b602082019050919050565b60006020820190508181036000830152614dcb81614d8f565b9050919050565b7f6c6f616e657220646f6573206e6f74206861766520656e6f756768207573646360008201527f20746f20636f76657220796f757220616d6f756e740000000000000000000000602082015250565b6000614e2e603583613b67565b9150614e3982614dd2565b604082019050919050565b60006020820190508181036000830152614e5d81614e21565b9050919050565b614e6d81614129565b82525050565b6000604082019050614e886000830185614e64565b614e956020830184613d0d565b9392505050565b6000604082019050614eb16000830185613ca3565b614ebe6020830184613d0d565b9392505050565b7f4552433732313a207472616e736665722066726f6d20696e636f72726563742060008201527f6f776e6572000000000000000000000000000000000000000000000000000000602082015250565b6000614f21602583613b67565b9150614f2c82614ec5565b604082019050919050565b60006020820190508181036000830152614f5081614f14565b9050919050565b7f4552433732313a207472616e7366657220746f20746865207a65726f2061646460008201527f7265737300000000000000000000000000000000000000000000000000000000602082015250565b6000614fb3602483613b67565b9150614fbe82614f57565b604082019050919050565b60006020820190508181036000830152614fe281614fa6565b9050919050565b7f4552433732313a20617070726f766520746f2063616c6c657200000000000000600082015250565b600061501f601983613b67565b915061502a82614fe9565b602082019050919050565b6000602082019050818103600083015261504e81615012565b9050919050565b7f4552433732313a207472616e7366657220746f206e6f6e20455243373231526560008201527f63656976657220696d706c656d656e7465720000000000000000000000000000602082015250565b60006150b1603283613b67565b91506150bc82615055565b604082019050919050565b600060208201905081810360008301526150e0816150a4565b9050919050565b600081519050919050565b600082825260208201905092915050565b600061510e826150e7565b61511881856150f2565b9350615128818560208601613b78565b61513181613ba2565b840191505092915050565b60006080820190506151516000830187613ca3565b61515e6020830186613ca3565b61516b6040830185613d0d565b818103606083015261517d8184615103565b905095945050505050565b60008151905061519781613acd565b92915050565b6000602082840312156151b3576151b2613a97565b5b60006151c184828501615188565b91505092915050565b7f4552433732313a206d696e7420746f20746865207a65726f2061646472657373600082015250565b6000615200602083613b67565b915061520b826151ca565b602082019050919050565b6000602082019050818103600083015261522f816151f3565b9050919050565b7f4552433732313a20746f6b656e20616c7265616479206d696e74656400000000600082015250565b600061526c601c83613b67565b915061527782615236565b602082019050919050565b6000602082019050818103600083015261529b8161525f565b905091905056fea2646970667358221220ae33757c6eb58d6046f522e7e477150429dfcda4a1e387c6e017c7f0de16467864736f6c63430008110033",
  "linkReferences": {},
  "deployedLinkReferences": {}
}