{
  "_format": "hh-sol-artifact-1",
  "contractName": "gnsPool",
  "sourceName": "contracts/gnsPool.sol",
  "abi": [
    {
      "inputs": [
        {
          "internalType": "address",
          "name": "loaner_",
          "type": "address"
        },
        {
          "internalType": "address",
          "name": "vault_",
          "type": "address"
        }
      ],
      "stateMutability": "nonpayable",
      "type": "constructor"
    },
    {
      "anonymous": false,
      "inputs": [
        {
          "indexed": true,
          "internalType": "address",
          "name": "owner",
          "type": "address"
        },
        {
          "indexed": true,
          "internalType": "address",
          "name": "approved",
          "type": "address"
        },
        {
          "indexed": true,
          "internalType": "uint256",
          "name": "tokenId",
          "type": "uint256"
        }
      ],
      "name": "Approval",
      "type": "event"
    },
    {
      "anonymous": false,
      "inputs": [
        {
          "indexed": true,
          "internalType": "address",
          "name": "owner",
          "type": "address"
        },
        {
          "indexed": true,
          "internalType": "address",
          "name": "operator",
          "type": "address"
        },
        {
          "indexed": false,
          "internalType": "bool",
          "name": "approved",
          "type": "bool"
        }
      ],
      "name": "ApprovalForAll",
      "type": "event"
    },
    {
      "anonymous": false,
      "inputs": [
        {
          "indexed": true,
          "internalType": "address",
          "name": "from",
          "type": "address"
        },
        {
          "indexed": true,
          "internalType": "address",
          "name": "to",
          "type": "address"
        },
        {
          "indexed": true,
          "internalType": "uint256",
          "name": "tokenId",
          "type": "uint256"
        }
      ],
      "name": "Transfer",
      "type": "event"
    },
    {
      "inputs": [],
      "name": "_borrowerSplit",
      "outputs": [
        {
          "internalType": "uint256",
          "name": "",
          "type": "uint256"
        }
      ],
      "stateMutability": "view",
      "type": "function"
    },
    {
      "inputs": [],
      "name": "_lenderSplit",
      "outputs": [
        {
          "internalType": "uint256",
          "name": "",
          "type": "uint256"
        }
      ],
      "stateMutability": "view",
      "type": "function"
    },
    {
      "inputs": [
        {
          "internalType": "uint256",
          "name": "",
          "type": "uint256"
        }
      ],
      "name": "_loanLiqudations",
      "outputs": [
        {
          "internalType": "uint256",
          "name": "liquidationPenalty",
          "type": "uint256"
        },
        {
          "internalType": "uint256",
          "name": "liquidationLenderSplit",
          "type": "uint256"
        },
        {
          "internalType": "uint256",
          "name": "liquidationProjectSplit",
          "type": "uint256"
        }
      ],
      "stateMutability": "view",
      "type": "function"
    },
    {
      "inputs": [],
      "name": "_lockTime",
      "outputs": [
        {
          "internalType": "uint256",
          "name": "",
          "type": "uint256"
        }
      ],
      "stateMutability": "view",
      "type": "function"
    },
    {
      "inputs": [
        {
          "internalType": "uint256",
          "name": "",
          "type": "uint256"
        }
      ],
      "name": "_outstandingLoans",
      "outputs": [
        {
          "internalType": "uint256",
          "name": "daiRatioPayout",
          "type": "uint256"
        },
        {
          "internalType": "uint256",
          "name": "stakedGns",
          "type": "uint256"
        },
        {
          "internalType": "uint256",
          "name": "borrowedUsdc",
          "type": "uint256"
        },
        {
          "internalType": "uint256",
          "name": "unlockTime",
          "type": "uint256"
        },
        {
          "internalType": "uint256",
          "name": "maxBorrowedUsdc",
          "type": "uint256"
        },
        {
          "internalType": "uint256",
          "name": "maxHealthFactor",
          "type": "uint256"
        },
        {
          "internalType": "uint256",
          "name": "lowerLiq",
          "type": "uint256"
        },
        {
          "internalType": "uint256",
          "name": "higherLiq",
          "type": "uint256"
        },
        {
          "internalType": "uint256",
          "name": "lenderRewardsSplit",
          "type": "uint256"
        },
        {
          "internalType": "uint256",
          "name": "borrowerRewardsSplit",
          "type": "uint256"
        },
        {
          "internalType": "uint256",
          "name": "projectRewardsSplit",
          "type": "uint256"
        }
      ],
      "stateMutability": "view",
      "type": "function"
    },
    {
      "inputs": [],
      "name": "_projectSplit",
      "outputs": [
        {
          "internalType": "uint256",
          "name": "",
          "type": "uint256"
        }
      ],
      "stateMutability": "view",
      "type": "function"
    },
    {
      "inputs": [
        {
          "internalType": "uint256",
          "name": "loanId_",
          "type": "uint256"
        },
        {
          "internalType": "uint256",
          "name": "amount_",
          "type": "uint256"
        }
      ],
      "name": "addColateral",
      "outputs": [
        {
          "internalType": "uint256",
          "name": "",
          "type": "uint256"
        }
      ],
      "stateMutability": "nonpayable",
      "type": "function"
    },
    {
      "inputs": [
        {
          "internalType": "address",
          "name": "to",
          "type": "address"
        },
        {
          "internalType": "uint256",
          "name": "tokenId",
          "type": "uint256"
        }
      ],
      "name": "approve",
      "outputs": [],
      "stateMutability": "nonpayable",
      "type": "function"
    },
    {
      "inputs": [
        {
          "internalType": "address",
          "name": "owner",
          "type": "address"
        }
      ],
      "name": "balanceOf",
      "outputs": [
        {
          "internalType": "uint256",
          "name": "",
          "type": "uint256"
        }
      ],
      "stateMutability": "view",
      "type": "function"
    },
    {
      "inputs": [
        {
          "internalType": "uint256",
          "name": "loanId_",
          "type": "uint256"
        },
        {
          "internalType": "uint256",
          "name": "amount_",
          "type": "uint256"
        },
        {
          "internalType": "address payable",
          "name": "sendTo_",
          "type": "address"
        }
      ],
      "name": "borrow",
      "outputs": [
        {
          "internalType": "uint256",
          "name": "",
          "type": "uint256"
        }
      ],
      "stateMutability": "nonpayable",
      "type": "function"
    },
    {
      "inputs": [],
      "name": "currDaiRatio",
      "outputs": [
        {
          "internalType": "uint256",
          "name": "",
          "type": "uint256"
        }
      ],
      "stateMutability": "view",
      "type": "function"
    },
    {
      "inputs": [],
      "name": "currGnsPrice",
      "outputs": [
        {
          "internalType": "uint256",
          "name": "",
          "type": "uint256"
        }
      ],
      "stateMutability": "view",
      "type": "function"
    },
    {
      "inputs": [
        {
          "internalType": "address",
          "name": "receiver_",
          "type": "address"
        },
        {
          "internalType": "uint256",
          "name": "amount_",
          "type": "uint256"
        }
      ],
      "name": "depositColateral",
      "outputs": [
        {
          "internalType": "uint256",
          "name": "",
          "type": "uint256"
        }
      ],
      "stateMutability": "nonpayable",
      "type": "function"
    },
    {
      "inputs": [
        {
          "internalType": "uint256",
          "name": "tokenId",
          "type": "uint256"
        }
      ],
      "name": "getApproved",
      "outputs": [
        {
          "internalType": "address",
          "name": "",
          "type": "address"
        }
      ],
      "stateMutability": "view",
      "type": "function"
    },
    {
      "inputs": [
        {
          "internalType": "uint256",
          "name": "loanId_",
          "type": "uint256"
        }
      ],
      "name": "getCurrHealth",
      "outputs": [
        {
          "internalType": "uint256",
          "name": "",
          "type": "uint256"
        }
      ],
      "stateMutability": "view",
      "type": "function"
    },
    {
      "inputs": [
        {
          "internalType": "uint256",
          "name": "loanId_",
          "type": "uint256"
        },
        {
          "internalType": "uint256",
          "name": "amount_",
          "type": "uint256"
        }
      ],
      "name": "getNewBorrowHealth",
      "outputs": [
        {
          "internalType": "uint256",
          "name": "",
          "type": "uint256"
        }
      ],
      "stateMutability": "view",
      "type": "function"
    },
    {
      "inputs": [
        {
          "internalType": "uint256",
          "name": "loanId_",
          "type": "uint256"
        },
        {
          "internalType": "uint256",
          "name": "amount_",
          "type": "uint256"
        }
      ],
      "name": "getNewLiqHealth",
      "outputs": [
        {
          "internalType": "uint256",
          "name": "",
          "type": "uint256"
        }
      ],
      "stateMutability": "view",
      "type": "function"
    },
    {
      "inputs": [
        {
          "internalType": "uint256",
          "name": "amount_",
          "type": "uint256"
        }
      ],
      "name": "gnsToSend",
      "outputs": [
        {
          "internalType": "uint256",
          "name": "",
          "type": "uint256"
        }
      ],
      "stateMutability": "view",
      "type": "function"
    },
    {
      "inputs": [
        {
          "internalType": "address",
          "name": "owner",
          "type": "address"
        },
        {
          "internalType": "address",
          "name": "operator",
          "type": "address"
        }
      ],
      "name": "isApprovedForAll",
      "outputs": [
        {
          "internalType": "bool",
          "name": "",
          "type": "bool"
        }
      ],
      "stateMutability": "view",
      "type": "function"
    },
    {
      "inputs": [],
      "name": "lenderSplit",
      "outputs": [
        {
          "internalType": "uint256",
          "name": "",
          "type": "uint256"
        }
      ],
      "stateMutability": "view",
      "type": "function"
    },
    {
      "inputs": [
        {
          "internalType": "uint256",
          "name": "loanId_",
          "type": "uint256"
        },
        {
          "internalType": "uint256",
          "name": "amount_",
          "type": "uint256"
        },
        {
          "internalType": "address",
          "name": "payer_",
          "type": "address"
        }
      ],
      "name": "liquidate",
      "outputs": [],
      "stateMutability": "nonpayable",
      "type": "function"
    },
    {
      "inputs": [],
      "name": "name",
      "outputs": [
        {
          "internalType": "string",
          "name": "",
          "type": "string"
        }
      ],
      "stateMutability": "view",
      "type": "function"
    },
    {
      "inputs": [
        {
          "internalType": "uint256",
          "name": "tokenId",
          "type": "uint256"
        }
      ],
      "name": "ownerOf",
      "outputs": [
        {
          "internalType": "address",
          "name": "",
          "type": "address"
        }
      ],
      "stateMutability": "view",
      "type": "function"
    },
    {
      "inputs": [],
      "name": "pendingDai",
      "outputs": [
        {
          "internalType": "uint256",
          "name": "",
          "type": "uint256"
        }
      ],
      "stateMutability": "view",
      "type": "function"
    },
    {
      "inputs": [
        {
          "internalType": "uint256",
          "name": "loanId_",
          "type": "uint256"
        },
        {
          "internalType": "uint256",
          "name": "amount_",
          "type": "uint256"
        }
      ],
      "name": "repayLoan",
      "outputs": [
        {
          "internalType": "uint256",
          "name": "",
          "type": "uint256"
        }
      ],
      "stateMutability": "nonpayable",
      "type": "function"
    },
    {
      "inputs": [
        {
          "internalType": "address",
          "name": "from",
          "type": "address"
        },
        {
          "internalType": "address",
          "name": "to",
          "type": "address"
        },
        {
          "internalType": "uint256",
          "name": "tokenId",
          "type": "uint256"
        }
      ],
      "name": "safeTransferFrom",
      "outputs": [],
      "stateMutability": "nonpayable",
      "type": "function"
    },
    {
      "inputs": [
        {
          "internalType": "address",
          "name": "from",
          "type": "address"
        },
        {
          "internalType": "address",
          "name": "to",
          "type": "address"
        },
        {
          "internalType": "uint256",
          "name": "tokenId",
          "type": "uint256"
        },
        {
          "internalType": "bytes",
          "name": "data",
          "type": "bytes"
        }
      ],
      "name": "safeTransferFrom",
      "outputs": [],
      "stateMutability": "nonpayable",
      "type": "function"
    },
    {
      "inputs": [
        {
          "internalType": "address",
          "name": "operator",
          "type": "address"
        },
        {
          "internalType": "bool",
          "name": "approved",
          "type": "bool"
        }
      ],
      "name": "setApprovalForAll",
      "outputs": [],
      "stateMutability": "nonpayable",
      "type": "function"
    },
    {
      "inputs": [
        {
          "internalType": "bytes4",
          "name": "interfaceId",
          "type": "bytes4"
        }
      ],
      "name": "supportsInterface",
      "outputs": [
        {
          "internalType": "bool",
          "name": "",
          "type": "bool"
        }
      ],
      "stateMutability": "view",
      "type": "function"
    },
    {
      "inputs": [],
      "name": "symbol",
      "outputs": [
        {
          "internalType": "string",
          "name": "",
          "type": "string"
        }
      ],
      "stateMutability": "view",
      "type": "function"
    },
    {
      "inputs": [
        {
          "internalType": "uint256",
          "name": "tokenId",
          "type": "uint256"
        }
      ],
      "name": "tokenURI",
      "outputs": [
        {
          "internalType": "string",
          "name": "",
          "type": "string"
        }
      ],
      "stateMutability": "view",
      "type": "function"
    },
    {
      "inputs": [],
      "name": "totalCollateral",
      "outputs": [
        {
          "internalType": "uint256",
          "name": "",
          "type": "uint256"
        }
      ],
      "stateMutability": "view",
      "type": "function"
    },
    {
      "inputs": [],
      "name": "totalLoanedOut",
      "outputs": [
        {
          "internalType": "uint256",
          "name": "",
          "type": "uint256"
        }
      ],
      "stateMutability": "view",
      "type": "function"
    },
    {
      "inputs": [
        {
          "internalType": "address",
          "name": "from",
          "type": "address"
        },
        {
          "internalType": "address",
          "name": "to",
          "type": "address"
        },
        {
          "internalType": "uint256",
          "name": "tokenId",
          "type": "uint256"
        }
      ],
      "name": "transferFrom",
      "outputs": [],
      "stateMutability": "nonpayable",
      "type": "function"
    },
    {
      "inputs": [],
      "name": "updateDaiRatio",
      "outputs": [],
      "stateMutability": "nonpayable",
      "type": "function"
    },
    {
      "inputs": [
        {
          "internalType": "address",
          "name": "receiver_",
          "type": "address"
        },
        {
          "internalType": "uint256",
          "name": "loanId_",
          "type": "uint256"
        }
      ],
      "name": "widthdrawColateral",
      "outputs": [
        {
          "internalType": "uint256",
          "name": "",
          "type": "uint256"
        }
      ],
      "stateMutability": "nonpayable",
      "type": "function"
    }
  ],
  "bytecode": "0x610120604052738f3cf7ad23cd3cadbd9735aff958023239c6a06373ffffffffffffffffffffffffffffffffffffffff1660809073ffffffffffffffffffffffffffffffffffffffff1681525073e5417af564e4bfda1c483642db7200787139789673ffffffffffffffffffffffffffffffffffffffff1660a09073ffffffffffffffffffffffffffffffffffffffff1681525073fb06a737f549eb2512eb6082a808fc7f16c0819d73ffffffffffffffffffffffffffffffffffffffff1660c09073ffffffffffffffffffffffffffffffffffffffff1681525073631e885028e75fcbb34c06d8ecb8e20ea18f663273ffffffffffffffffffffffffffffffffffffffff1660e09073ffffffffffffffffffffffffffffffffffffffff16815250670de0b6b3a7640000610100908152503480156200013e57600080fd5b5060405162005afe38038062005afe8339818101604052810190620001649190620003b6565b6040518060400160405280600981526020017f466574746920474e5300000000000000000000000000000000000000000000008152506040518060400160405280600681526020017f466574476e7300000000000000000000000000000000000000000000000000008152508160009081620001e1919062000677565b508060019081620001f3919062000677565b50505033600c60006101000a81548173ffffffffffffffffffffffffffffffffffffffff021916908373ffffffffffffffffffffffffffffffffffffffff16021790555081600d60006101000a81548173ffffffffffffffffffffffffffffffffffffffff021916908373ffffffffffffffffffffffffffffffffffffffff16021790555080600e60006101000a81548173ffffffffffffffffffffffffffffffffffffffff021916908373ffffffffffffffffffffffffffffffffffffffff1602179055506000600b8190555060006008819055506000600981905550600f6010819055506046601181905550600f60128190555067048b8383cbf0c0006013819055506705eec8fc297ac0006014819055506706f05b59d3b20000601581905550670853a0d2313c0000601681905550600a601781905550604b60188190555060198081905550603c600f8190555050506200075e565b600080fd5b600073ffffffffffffffffffffffffffffffffffffffff82169050919050565b60006200037e8262000351565b9050919050565b620003908162000371565b81146200039c57600080fd5b50565b600081519050620003b08162000385565b92915050565b60008060408385031215620003d057620003cf6200034c565b5b6000620003e0858286016200039f565b9250506020620003f3858286016200039f565b9150509250929050565b600081519050919050565b7f4e487b7100000000000000000000000000000000000000000000000000000000600052604160045260246000fd5b7f4e487b7100000000000000000000000000000000000000000000000000000000600052602260045260246000fd5b600060028204905060018216806200047f57607f821691505b60208210810362000495576200049462000437565b5b50919050565b60008190508160005260206000209050919050565b60006020601f8301049050919050565b600082821b905092915050565b600060088302620004ff7fffffffffffffffffffffffffffffffffffffffffffffffffffffffffffffffff82620004c0565b6200050b8683620004c0565b95508019841693508086168417925050509392505050565b6000819050919050565b6000819050919050565b600062000558620005526200054c8462000523565b6200052d565b62000523565b9050919050565b6000819050919050565b620005748362000537565b6200058c62000583826200055f565b848454620004cd565b825550505050565b600090565b620005a362000594565b620005b081848462000569565b505050565b5b81811015620005d857620005cc60008262000599565b600181019050620005b6565b5050565b601f8211156200062757620005f1816200049b565b620005fc84620004b0565b810160208510156200060c578190505b620006246200061b85620004b0565b830182620005b5565b50505b505050565b600082821c905092915050565b60006200064c600019846008026200062c565b1980831691505092915050565b600062000667838362000639565b9150826002028217905092915050565b6200068282620003fd565b67ffffffffffffffff8111156200069e576200069d62000408565b5b620006aa825462000466565b620006b7828285620005dc565b600060209050601f831160018114620006ef5760008415620006da578287015190505b620006e6858262000659565b86555062000756565b601f198416620006ff866200049b565b60005b82811015620007295784890151825560018201915060208501945060208101905062000702565b8683101562000749578489015162000745601f89168262000639565b8355505b6001600288020188555050505b505050505050565b60805160a05160c05160e051610100516152dd62000821600039600081816114130152818161247601526133cd01526000611e430152600081816113900152818161146c01528181612825015281816128a801526133410152600081816109ac01528181610a8801528181610b6e01528181610dae01528181612105015281816121f5015281816122d1015281816127e90152612af60152600081816116fc01528181611ffd01528181612505015281816125f301526126c701526152dd6000f3fe608060405234801561001057600080fd5b506004361061021c5760003560e01c80636ec4753a11610125578063a22cb465116100ad578063d6bda0c01161007c578063d6bda0c0146106bf578063e7fb0790146106ef578063e985e9c51461070d578063ef97ed731461073d578063f354a3391461075b5761021c565b8063a22cb46514610625578063b88d4fde14610641578063c87b56dd1461065d578063d246e4841461068d5761021c565b80637b943d35116100f45780637b943d35146105595780638a700b531461057757806395277338146105a757806395d89b41146105d75780639f7b272d146105f55761021c565b80636ec4753a146104cf57806370a08231146104ed57806376e7db091461051d57806379af25a61461053b5761021c565b806323b872dd116101a85780634ac8eb5f116101775780634ac8eb5f1461043b5780634b5f7a7914610459578063575c38ec14610463578063606708ce146104815780636352211e1461049f5761021c565b806323b872dd146103ab5780632b7564f9146103c75780632dafc1031461040157806342842e0e1461041f5761021c565b8063095ea7b3116101ef578063095ea7b3146102cf57806314393ba3146102eb5780631e3f68b81461031b5780631e969a801461034b57806322e3ea691461037b5761021c565b806301ffc9a71461022157806306fdde0314610251578063081812fc1461026f57806308ef74c91461029f575b600080fd5b61023b60048036038101906102369190613afe565b610777565b6040516102489190613b46565b60405180910390f35b610259610859565b6040516102669190613bf1565b60405180910390f35b61028960048036038101906102849190613c49565b6108eb565b6040516102969190613cb7565b60405180910390f35b6102b960048036038101906102b49190613cd2565b610931565b6040516102c69190613d21565b60405180910390f35b6102e960048036038101906102e49190613d68565b610c36565b005b61030560048036038101906103009190613d68565b610d4d565b6040516103129190613d21565b60405180910390f35b61033560048036038101906103309190613cd2565b610fdb565b6040516103429190613d21565b60405180910390f35b61036560048036038101906103609190613c49565b611060565b6040516103729190613d21565b60405180910390f35b61039560048036038101906103909190613d68565b6110e5565b6040516103a29190613d21565b60405180910390f35b6103c560048036038101906103c09190613da8565b611298565b005b6103e160048036038101906103dc9190613c49565b6112f8565b6040516103f89b9a99989796959493929190613dfb565b60405180910390f35b610409611352565b6040516104169190613d21565b60405180910390f35b61043960048036038101906104349190613da8565b611358565b005b610443611378565b6040516104509190613d21565b60405180910390f35b610461611382565b005b61046b611462565b6040516104789190613d21565b60405180910390f35b610489611468565b6040516104969190613d21565b60405180910390f35b6104b960048036038101906104b49190613c49565b6114fe565b6040516104c69190613cb7565b60405180910390f35b6104d7611584565b6040516104e49190613d21565b60405180910390f35b61050760048036038101906105029190613ea6565b61158a565b6040516105149190613d21565b60405180910390f35b610525611641565b6040516105329190613d21565b60405180910390f35b610543611647565b6040516105509190613d21565b60405180910390f35b61056161164d565b60405161056e9190613d21565b60405180910390f35b610591600480360381019061058c9190613cd2565b611657565b60405161059e9190613d21565b60405180910390f35b6105c160048036038101906105bc9190613cd2565b611822565b6040516105ce9190613d21565b60405180910390f35b6105df6118ba565b6040516105ec9190613bf1565b60405180910390f35b61060f600480360381019061060a9190613c49565b61194c565b60405161061c9190613d21565b60405180910390f35b61063f600480360381019061063a9190613eff565b6119ac565b005b61065b60048036038101906106569190614074565b6119c2565b005b61067760048036038101906106729190613c49565b611a24565b6040516106849190613bf1565b60405180910390f35b6106a760048036038101906106a29190613c49565b611a8c565b6040516106b6939291906140f7565b60405180910390f35b6106d960048036038101906106d4919061416c565b611ab6565b6040516106e69190613d21565b60405180910390f35b6106f7611d9d565b6040516107049190613d21565b60405180910390f35b610727600480360381019061072291906141bf565b611da7565b6040516107349190613b46565b60405180910390f35b610745611e3b565b6040516107529190613d21565b60405180910390f35b610775600480360381019061077091906141ff565b611ee3565b005b60007f80ac58cd000000000000000000000000000000000000000000000000000000007bffffffffffffffffffffffffffffffffffffffffffffffffffffffff1916827bffffffffffffffffffffffffffffffffffffffffffffffffffffffff1916148061084257507f5b5e139f000000000000000000000000000000000000000000000000000000007bffffffffffffffffffffffffffffffffffffffffffffffffffffffff1916827bffffffffffffffffffffffffffffffffffffffffffffffffffffffff1916145b806108525750610851826123b5565b5b9050919050565b60606000805461086890614281565b80601f016020809104026020016040519081016040528092919081815260200182805461089490614281565b80156108e15780601f106108b6576101008083540402835291602001916108e1565b820191906000526020600020905b8154815290600101906020018083116108c457829003601f168201915b5050505050905090565b60006108f68261241f565b6004600083815260200190815260200160002060009054906101000a900473ffffffffffffffffffffffffffffffffffffffff169050919050565b600061093c836114fe565b73ffffffffffffffffffffffffffffffffffffffff163373ffffffffffffffffffffffffffffffffffffffff16146109a9576040517f08c379a00000000000000000000000000000000000000000000000000000000081526004016109a090614324565b60405180910390fd5b817f000000000000000000000000000000000000000000000000000000000000000073ffffffffffffffffffffffffffffffffffffffff166370a08231336040518263ffffffff1660e01b8152600401610a039190613cb7565b602060405180830381865afa158015610a20573d6000803e3d6000fd5b505050506040513d601f19601f82011682018060405250810190610a449190614359565b1015610a85576040517f08c379a0000000000000000000000000000000000000000000000000000000008152600401610a7c906143d2565b60405180910390fd5b817f000000000000000000000000000000000000000000000000000000000000000073ffffffffffffffffffffffffffffffffffffffff1663dd62ed3e33306040518363ffffffff1660e01b8152600401610ae19291906143f2565b602060405180830381865afa158015610afe573d6000803e3d6000fd5b505050506040513d601f19601f82011682018060405250810190610b229190614359565b1015610b63576040517f08c379a0000000000000000000000000000000000000000000000000000000008152600401610b5a9061448d565b60405180910390fd5b610b6c8361246a565b7f000000000000000000000000000000000000000000000000000000000000000073ffffffffffffffffffffffffffffffffffffffff166323b872dd3330856040518463ffffffff1660e01b8152600401610bc9939291906144ad565b6020604051808303816000875af1158015610be8573d6000803e3d6000fd5b505050506040513d601f19601f82011682018060405250810190610c0c91906144f9565b50610c1782846127b7565b6006600084815260200190815260200160002060010154905092915050565b6000610c41826114fe565b90508073ffffffffffffffffffffffffffffffffffffffff168373ffffffffffffffffffffffffffffffffffffffff1603610cb1576040517f08c379a0000000000000000000000000000000000000000000000000000000008152600401610ca890614598565b60405180910390fd5b8073ffffffffffffffffffffffffffffffffffffffff16610cd061297b565b73ffffffffffffffffffffffffffffffffffffffff161480610cff5750610cfe81610cf961297b565b611da7565b5b610d3e576040517f08c379a0000000000000000000000000000000000000000000000000000000008152600401610d359061462a565b60405180910390fd5b610d488383612983565b505050565b600080610d593361158a565b14610d99576040517f08c379a0000000000000000000000000000000000000000000000000000000008152600401610d90906146bc565b60405180910390fd5b6000600a5414610dac57610dab611382565b5b7f000000000000000000000000000000000000000000000000000000000000000073ffffffffffffffffffffffffffffffffffffffff166323b872dd3330856040518463ffffffff1660e01b8152600401610e09939291906144ad565b6020604051808303816000875af1158015610e28573d6000803e3d6000fd5b505050506040513d601f19601f82011682018060405250810190610e4c91906144f9565b506000600f5442610e5d919061470b565b9050600160086000828254610e72919061470b565b92505081905550604051806101600160405280600b5481526020016000815260200160008152602001828152602001601554815260200160165481526020016013548152602001601454815260200160115481526020016010548152602001601254815250600660006008548152602001908152602001600020600082015181600001556020820151816001015560408201518160020155606082015181600301556080820151816004015560a0820151816005015560c0820151816006015560e082015181600701556101008201518160080155610120820151816009015561014082015181600a0155905050604051806060016040528060175481526020016018548152602001601954815250600760006008548152602001908152602001600020600082015181600001556020820151816001015560408201518160020155905050610fc3836008546127b7565b610fcf84600854612a3c565b60085491505092915050565b600080610fe6611e3b565b6006600086815260200190815260200160002060010154611007919061473f565b620f4240670de0b6b3a7640000856006600089815260200190815260200160002060020154611036919061470b565b611040919061473f565b61104a919061473f565b61105491906147b0565b90508091505092915050565b600080670de0b6b3a7640000600660008581526020019081526020016000206002015461108d919061473f565b90506000611099611e3b565b60066000868152602001908152602001600020600101546110ba919061473f565b9050600081620f4240846110ce919061473f565b6110d891906147b0565b9050809350505050919050565b60006110f082612a5a565b61112f576040517f08c379a00000000000000000000000000000000000000000000000000000000081526004016111269061482d565b60405180910390fd5b42600660008481526020019081526020016000206003015410611187576040517f08c379a000000000000000000000000000000000000000000000000000000000815260040161117e90614899565b60405180910390fd5b60006006600084815260200190815260200160002060020154146111e0576040517f08c379a00000000000000000000000000000000000000000000000000000000081526004016111d79061492b565b60405180910390fd5b6111e9826114fe565b73ffffffffffffffffffffffffffffffffffffffff163373ffffffffffffffffffffffffffffffffffffffff1614611256576040517f08c379a000000000000000000000000000000000000000000000000000000000815260040161124d90614997565b60405180910390fd5b60006006600084815260200190815260200160002060010154905061127a8361246a565b611285818486612a9b565b61128e83612b98565b8091505092915050565b6112a96112a361297b565b82612c40565b6112e8576040517f08c379a00000000000000000000000000000000000000000000000000000000081526004016112df90614a29565b60405180910390fd5b6112f3838383612cd5565b505050565b600660205280600052604060002060009150905080600001549080600101549080600201549080600301549080600401549080600501549080600601549080600701549080600801549080600901549080600a015490508b565b60105481565b611373838383604051806020016040528060008152506119c2565b505050565b6000600a54905090565b600061138c611468565b90507f000000000000000000000000000000000000000000000000000000000000000073ffffffffffffffffffffffffffffffffffffffff16634641257d6040518163ffffffff1660e01b8152600401600060405180830381600087803b1580156113f657600080fd5b505af115801561140a573d6000803e3d6000fd5b50505050600a547f00000000000000000000000000000000000000000000000000000000000000008261143d919061473f565b61144791906147b0565b600b6000828254611458919061470b565b9250508190555050565b60125481565b60007f000000000000000000000000000000000000000000000000000000000000000073ffffffffffffffffffffffffffffffffffffffff1663f68183456040518163ffffffff1660e01b8152600401602060405180830381865afa1580156114d5573d6000803e3d6000fd5b505050506040513d601f19601f820116820180604052508101906114f99190614359565b905090565b60008061150a83612fce565b9050600073ffffffffffffffffffffffffffffffffffffffff168173ffffffffffffffffffffffffffffffffffffffff160361157b576040517f08c379a000000000000000000000000000000000000000000000000000000000815260040161157290614a95565b60405180910390fd5b80915050919050565b60115481565b60008073ffffffffffffffffffffffffffffffffffffffff168273ffffffffffffffffffffffffffffffffffffffff16036115fa576040517f08c379a00000000000000000000000000000000000000000000000000000000081526004016115f190614b27565b60405180910390fd5b600360008373ffffffffffffffffffffffffffffffffffffffff1673ffffffffffffffffffffffffffffffffffffffff168152602001908152602001600020549050919050565b600b5481565b600f5481565b6000601154905090565b600061166283612a5a565b6116a1576040517f08c379a00000000000000000000000000000000000000000000000000000000081526004016116989061482d565b60405180910390fd5b60066000848152602001908152602001600020600201548211156116fa576040517f08c379a00000000000000000000000000000000000000000000000000000000081526004016116f190614bdf565b60405180910390fd5b7f000000000000000000000000000000000000000000000000000000000000000073ffffffffffffffffffffffffffffffffffffffff166323b872dd33600e60009054906101000a900473ffffffffffffffffffffffffffffffffffffffff16856040518463ffffffff1660e01b8152600401611779939291906144ad565b6020604051808303816000875af1158015611798573d6000803e3d6000fd5b505050506040513d601f19601f820116820180604052508101906117bc91906144f9565b5081600960008282546117cf9190614bff565b92505081905550816006600085815260200190815260200160002060020160008282546117fc9190614bff565b925050819055506006600084815260200190815260200160002060020154905092915050565b60008061182d611e3b565b6118368461194c565b60066000878152602001908152602001600020600101546118579190614bff565b611861919061473f565b620f4240670de0b6b3a76400008560066000898152602001908152602001600020600201546118909190614bff565b61189a919061473f565b6118a4919061473f565b6118ae91906147b0565b90508091505092915050565b6060600180546118c990614281565b80601f01602080910402602001604051908101604052809291908181526020018280546118f590614281565b80156119425780601f1061191757610100808354040283529160200191611942565b820191906000526020600020905b81548152906001019060200180831161192557829003601f168201915b5050505050905090565b600080611957611e3b565b9050806001826103e8620f424061049788611972919061473f565b61197c919061473f565b61198691906147b0565b611990919061470b565b61199a9190614bff565b6119a491906147b0565b915050919050565b6119be6119b761297b565b838361300b565b5050565b6119d36119cd61297b565b83612c40565b611a12576040517f08c379a0000000000000000000000000000000000000000000000000000000008152600401611a0990614a29565b60405180910390fd5b611a1e84848484613177565b50505050565b6060611a2f8261241f565b6000611a396131d3565b90506000815111611a595760405180602001604052806000815250611a84565b80611a63846131ea565b604051602001611a74929190614c6f565b6040516020818303038152906040525b915050919050565b60076020528060005260406000206000915090508060000154908060010154908060020154905083565b6000611ac184612a5a565b611b00576040517f08c379a0000000000000000000000000000000000000000000000000000000008152600401611af790614cdf565b60405180910390fd5b6006600085815260200190815260200160002060040154611b218585610fdb565b10611b61576040517f08c379a0000000000000000000000000000000000000000000000000000000008152600401611b5890614d4b565b60405180910390fd5b611b6a846114fe565b73ffffffffffffffffffffffffffffffffffffffff163373ffffffffffffffffffffffffffffffffffffffff1614611bd7576040517f08c379a0000000000000000000000000000000000000000000000000000000008152600401611bce90614db7565b60405180910390fd5b82600d60009054906101000a900473ffffffffffffffffffffffffffffffffffffffff1673ffffffffffffffffffffffffffffffffffffffff1663d86dbf306040518163ffffffff1660e01b81526004016020604051808303816000875af1158015611c47573d6000803e3d6000fd5b505050506040513d601f19601f82011682018060405250810190611c6b9190614359565b1015611cac576040517f08c379a0000000000000000000000000000000000000000000000000000000008152600401611ca390614e49565b60405180910390fd5b8260096000828254611cbe919061470b565b9250508190555082600660008681526020019081526020016000206002016000828254611ceb919061470b565b92505081905550600d60009054906101000a900473ffffffffffffffffffffffffffffffffffffffff1673ffffffffffffffffffffffffffffffffffffffff16631343a35f83856040518363ffffffff1660e01b8152600401611d4f929190614e78565b6020604051808303816000875af1158015611d6e573d6000803e3d6000fd5b505050506040513d601f19601f82011682018060405250810190611d929190614359565b508290509392505050565b6000600954905090565b6000600560008473ffffffffffffffffffffffffffffffffffffffff1673ffffffffffffffffffffffffffffffffffffffff16815260200190815260200160002060008373ffffffffffffffffffffffffffffffffffffffff1673ffffffffffffffffffffffffffffffffffffffff16815260200190815260200160002060009054906101000a900460ff16905092915050565b6000806127107f000000000000000000000000000000000000000000000000000000000000000073ffffffffffffffffffffffffffffffffffffffff16633c88e8826040518163ffffffff1660e01b8152600401602060405180830381865afa158015611eac573d6000803e3d6000fd5b505050506040513d601f19601f82011682018060405250810190611ed09190614359565b611eda91906147b0565b90508091505090565b600060076000858152602001908152602001600020604051806060016040529081600082015481526020016001820154815260200160028201548152505090506000600660008681526020019081526020016000206040518061016001604052908160008201548152602001600182015481526020016002820154815260200160038201548152602001600482015481526020016005820154815260200160068201548152602001600782015481526020016008820154815260200160098201548152602001600a820154815250509050611fbd85611060565b8160a0015110611fcc57600080fd5b6000611fd88686611822565b9050808260c0015111158015611ff25750808260e0015110155b611ffb57600080fd5b7f000000000000000000000000000000000000000000000000000000000000000073ffffffffffffffffffffffffffffffffffffffff166323b872dd8530886040518463ffffffff1660e01b8152600401612058939291906144ad565b6020604051808303816000875af1158015612077573d6000803e3d6000fd5b505050506040513d601f19601f8201168201806040525081019061209b91906144f9565b50846006600088815260200190815260200160002060020160008282546120c29190614bff565b9250508190555060006120d48661194c565b9050806006600089815260200190815260200160002060010160008282546120fc9190614bff565b925050819055507f000000000000000000000000000000000000000000000000000000000000000073ffffffffffffffffffffffffffffffffffffffff1663a9059cbb33836040518363ffffffff1660e01b815260040161215e929190614ea1565b6020604051808303816000875af115801561217d573d6000803e3d6000fd5b505050506040513d601f19601f820116820180604052508101906121a191906144f9565b5060006064846020015186600001516121ba919061473f565b6121c491906147b0565b905080600660008a815260200190815260200160002060010160008282546121ec9190614bff565b925050819055507f000000000000000000000000000000000000000000000000000000000000000073ffffffffffffffffffffffffffffffffffffffff1663a9059cbb600e60009054906101000a900473ffffffffffffffffffffffffffffffffffffffff166064848960200151612264919061473f565b61226e91906147b0565b6040518363ffffffff1660e01b815260040161228b929190614ea1565b6020604051808303816000875af11580156122aa573d6000803e3d6000fd5b505050506040513d601f19601f820116820180604052508101906122ce91906144f9565b507f000000000000000000000000000000000000000000000000000000000000000073ffffffffffffffffffffffffffffffffffffffff1663a9059cbb600c60009054906101000a900473ffffffffffffffffffffffffffffffffffffffff166064848960400151612340919061473f565b61234a91906147b0565b6040518363ffffffff1660e01b8152600401612367929190614ea1565b6020604051808303816000875af1158015612386573d6000803e3d6000fd5b505050506040513d601f19601f820116820180604052508101906123aa91906144f9565b505050505050505050565b60007f01ffc9a7000000000000000000000000000000000000000000000000000000007bffffffffffffffffffffffffffffffffffffffffffffffffffffffff1916827bffffffffffffffffffffffffffffffffffffffffffffffffffffffff1916149050919050565b61242881612a5a565b612467576040517f08c379a000000000000000000000000000000000000000000000000000000000815260040161245e90614a95565b60405180910390fd5b50565b612472611382565b60007f00000000000000000000000000000000000000000000000000000000000000006006600084815260200190815260200160002060000154600b546124b99190614bff565b60066000858152602001908152602001600020600101546124da919061473f565b6124e491906147b0565b9050600b5460066000848152602001908152602001600020600001819055507f000000000000000000000000000000000000000000000000000000000000000073ffffffffffffffffffffffffffffffffffffffff1663a9059cbb600e60009054906101000a900473ffffffffffffffffffffffffffffffffffffffff166064600660008781526020019081526020016000206008015485612586919061473f565b61259091906147b0565b6040518363ffffffff1660e01b81526004016125ad929190614ea1565b6020604051808303816000875af11580156125cc573d6000803e3d6000fd5b505050506040513d601f19601f820116820180604052508101906125f091906144f9565b507f000000000000000000000000000000000000000000000000000000000000000073ffffffffffffffffffffffffffffffffffffffff1663a9059cbb612636846114fe565b606460066000878152602001908152602001600020600901548561265a919061473f565b61266491906147b0565b6040518363ffffffff1660e01b8152600401612681929190614ea1565b6020604051808303816000875af11580156126a0573d6000803e3d6000fd5b505050506040513d601f19601f820116820180604052508101906126c491906144f9565b507f000000000000000000000000000000000000000000000000000000000000000073ffffffffffffffffffffffffffffffffffffffff1663a9059cbb600c60009054906101000a900473ffffffffffffffffffffffffffffffffffffffff16606460066000878152602001908152602001600020600a015485612748919061473f565b61275291906147b0565b6040518363ffffffff1660e01b815260040161276f929190614ea1565b6020604051808303816000875af115801561278e573d6000803e3d6000fd5b505050506040513d601f19601f820116820180604052508101906127b291906144f9565b505050565b6000600a54146127ca576127c9611382565b5b600b5460066000838152602001908152602001600020600001819055507f000000000000000000000000000000000000000000000000000000000000000073ffffffffffffffffffffffffffffffffffffffff1663095ea7b37f0000000000000000000000000000000000000000000000000000000000000000846040518363ffffffff1660e01b8152600401612862929190614ea1565b6020604051808303816000875af1158015612881573d6000803e3d6000fd5b505050506040513d601f19601f820116820180604052508101906128a591906144f9565b507f000000000000000000000000000000000000000000000000000000000000000073ffffffffffffffffffffffffffffffffffffffff16637547c7a3836040518263ffffffff1660e01b81526004016128ff9190613d21565b600060405180830381600087803b15801561291957600080fd5b505af115801561292d573d6000803e3d6000fd5b5050505081600a6000828254612943919061470b565b9250508190555081600660008381526020019081526020016000206001016000828254612970919061470b565b925050819055505050565b600033905090565b816004600083815260200190815260200160002060006101000a81548173ffffffffffffffffffffffffffffffffffffffff021916908373ffffffffffffffffffffffffffffffffffffffff160217905550808273ffffffffffffffffffffffffffffffffffffffff166129f6836114fe565b73ffffffffffffffffffffffffffffffffffffffff167f8c5be1e5ebec7d5bd14f71427d1e84f3dd0314c0f7b2291e5b200ac8c7c3b92560405160405180910390a45050565b612a568282604051806020016040528060008152506132b8565b5050565b60008073ffffffffffffffffffffffffffffffffffffffff16612a7c83612fce565b73ffffffffffffffffffffffffffffffffffffffff1614159050919050565b8260066000848152602001908152602001600020600101541015612abe57600080fd5b82600660008481526020019081526020016000206001016000828254612ae49190614bff565b92505081905550612af483613313565b7f000000000000000000000000000000000000000000000000000000000000000073ffffffffffffffffffffffffffffffffffffffff1663a9059cbb82856040518363ffffffff1660e01b8152600401612b4f929190614ea1565b6020604051808303816000875af1158015612b6e573d6000803e3d6000fd5b505050506040513d601f19601f82011682018060405250810190612b9291906144f9565b50505050565b60066000828152602001908152602001600020600080820160009055600182016000905560028201600090556003820160009055600482016000905560058201600090556006820160009055600782016000905560088201600090556009820160009055600a820160009055505060076000828152602001908152602001600020600080820160009055600182016000905560028201600090555050612c3d8161341e565b50565b600080612c4c836114fe565b90508073ffffffffffffffffffffffffffffffffffffffff168473ffffffffffffffffffffffffffffffffffffffff161480612c8e5750612c8d8185611da7565b5b80612ccc57508373ffffffffffffffffffffffffffffffffffffffff16612cb4846108eb565b73ffffffffffffffffffffffffffffffffffffffff16145b91505092915050565b8273ffffffffffffffffffffffffffffffffffffffff16612cf5826114fe565b73ffffffffffffffffffffffffffffffffffffffff1614612d4b576040517f08c379a0000000000000000000000000000000000000000000000000000000008152600401612d4290614f3c565b60405180910390fd5b600073ffffffffffffffffffffffffffffffffffffffff168273ffffffffffffffffffffffffffffffffffffffff1603612dba576040517f08c379a0000000000000000000000000000000000000000000000000000000008152600401612db190614fce565b60405180910390fd5b612dc7838383600161356c565b8273ffffffffffffffffffffffffffffffffffffffff16612de7826114fe565b73ffffffffffffffffffffffffffffffffffffffff1614612e3d576040517f08c379a0000000000000000000000000000000000000000000000000000000008152600401612e3490614f3c565b60405180910390fd5b6004600082815260200190815260200160002060006101000a81549073ffffffffffffffffffffffffffffffffffffffff02191690556001600360008573ffffffffffffffffffffffffffffffffffffffff1673ffffffffffffffffffffffffffffffffffffffff168152602001908152602001600020600082825403925050819055506001600360008473ffffffffffffffffffffffffffffffffffffffff1673ffffffffffffffffffffffffffffffffffffffff16815260200190815260200160002060008282540192505081905550816002600083815260200190815260200160002060006101000a81548173ffffffffffffffffffffffffffffffffffffffff021916908373ffffffffffffffffffffffffffffffffffffffff160217905550808273ffffffffffffffffffffffffffffffffffffffff168473ffffffffffffffffffffffffffffffffffffffff167fddf252ad1be2c89b69c2b068fc378daa952ba7f163c4a11628f55a4df523b3ef60405160405180910390a4612fc98383836001613572565b505050565b60006002600083815260200190815260200160002060009054906101000a900473ffffffffffffffffffffffffffffffffffffffff169050919050565b8173ffffffffffffffffffffffffffffffffffffffff168373ffffffffffffffffffffffffffffffffffffffff1603613079576040517f08c379a00000000000000000000000000000000000000000000000000000000081526004016130709061503a565b60405180910390fd5b80600560008573ffffffffffffffffffffffffffffffffffffffff1673ffffffffffffffffffffffffffffffffffffffff16815260200190815260200160002060008473ffffffffffffffffffffffffffffffffffffffff1673ffffffffffffffffffffffffffffffffffffffff16815260200190815260200160002060006101000a81548160ff0219169083151502179055508173ffffffffffffffffffffffffffffffffffffffff168373ffffffffffffffffffffffffffffffffffffffff167f17307eab39ab6107e8899845ad3d59bd9653f200f220920489ca2b5937696c318360405161316a9190613b46565b60405180910390a3505050565b613182848484612cd5565b61318e84848484613578565b6131cd576040517f08c379a00000000000000000000000000000000000000000000000000000000081526004016131c4906150cc565b60405180910390fd5b50505050565b606060405180602001604052806000815250905090565b6060600060016131f9846136ff565b01905060008167ffffffffffffffff81111561321857613217613f49565b5b6040519080825280601f01601f19166020018201604052801561324a5781602001600182028036833780820191505090505b509050600082602001820190505b6001156132ad578080600190039150507f3031323334353637383961626364656600000000000000000000000000000000600a86061a8153600a85816132a1576132a0614781565b5b04945060008503613258575b819350505050919050565b6132c28383613852565b6132cf6000848484613578565b61330e576040517f08c379a0000000000000000000000000000000000000000000000000000000008152600401613305906150cc565b60405180910390fd5b505050565b600061331d611468565b90506000600a54905082600a60008282546133389190614bff565b925050819055507f000000000000000000000000000000000000000000000000000000000000000073ffffffffffffffffffffffffffffffffffffffff1663608e4dd0846040518263ffffffff1660e01b81526004016133989190613d21565b600060405180830381600087803b1580156133b257600080fd5b505af11580156133c6573d6000803e3d6000fd5b50505050807f0000000000000000000000000000000000000000000000000000000000000000836133f7919061473f565b61340191906147b0565b600b6000828254613412919061470b565b92505081905550505050565b6000613429826114fe565b905061343981600084600161356c565b613442826114fe565b90506004600083815260200190815260200160002060006101000a81549073ffffffffffffffffffffffffffffffffffffffff02191690556001600360008373ffffffffffffffffffffffffffffffffffffffff1673ffffffffffffffffffffffffffffffffffffffff168152602001908152602001600020600082825403925050819055506002600083815260200190815260200160002060006101000a81549073ffffffffffffffffffffffffffffffffffffffff021916905581600073ffffffffffffffffffffffffffffffffffffffff168273ffffffffffffffffffffffffffffffffffffffff167fddf252ad1be2c89b69c2b068fc378daa952ba7f163c4a11628f55a4df523b3ef60405160405180910390a4613568816000846001613572565b5050565b50505050565b50505050565b60006135998473ffffffffffffffffffffffffffffffffffffffff16613a6f565b156136f2578373ffffffffffffffffffffffffffffffffffffffff1663150b7a026135c261297b565b8786866040518563ffffffff1660e01b81526004016135e49493929190615141565b6020604051808303816000875af192505050801561362057506040513d601f19601f8201168201806040525081019061361d91906151a2565b60015b6136a2573d8060008114613650576040519150601f19603f3d011682016040523d82523d6000602084013e613655565b606091505b50600081510361369a576040517f08c379a0000000000000000000000000000000000000000000000000000000008152600401613691906150cc565b60405180910390fd5b805181602001fd5b63150b7a0260e01b7bffffffffffffffffffffffffffffffffffffffffffffffffffffffff1916817bffffffffffffffffffffffffffffffffffffffffffffffffffffffff1916149150506136f7565b600190505b949350505050565b600080600090507a184f03e93ff9f4daa797ed6e38ed64bf6a1f010000000000000000831061375d577a184f03e93ff9f4daa797ed6e38ed64bf6a1f010000000000000000838161375357613752614781565b5b0492506040810190505b6d04ee2d6d415b85acef8100000000831061379a576d04ee2d6d415b85acef810000000083816137905761378f614781565b5b0492506020810190505b662386f26fc1000083106137c957662386f26fc1000083816137bf576137be614781565b5b0492506010810190505b6305f5e10083106137f2576305f5e10083816137e8576137e7614781565b5b0492506008810190505b612710831061381757612710838161380d5761380c614781565b5b0492506004810190505b6064831061383a57606483816138305761382f614781565b5b0492506002810190505b600a8310613849576001810190505b80915050919050565b600073ffffffffffffffffffffffffffffffffffffffff168273ffffffffffffffffffffffffffffffffffffffff16036138c1576040517f08c379a00000000000000000000000000000000000000000000000000000000081526004016138b89061521b565b60405180910390fd5b6138ca81612a5a565b1561390a576040517f08c379a000000000000000000000000000000000000000000000000000000000815260040161390190615287565b60405180910390fd5b61391860008383600161356c565b61392181612a5a565b15613961576040517f08c379a000000000000000000000000000000000000000000000000000000000815260040161395890615287565b60405180910390fd5b6001600360008473ffffffffffffffffffffffffffffffffffffffff1673ffffffffffffffffffffffffffffffffffffffff16815260200190815260200160002060008282540192505081905550816002600083815260200190815260200160002060006101000a81548173ffffffffffffffffffffffffffffffffffffffff021916908373ffffffffffffffffffffffffffffffffffffffff160217905550808273ffffffffffffffffffffffffffffffffffffffff16600073ffffffffffffffffffffffffffffffffffffffff167fddf252ad1be2c89b69c2b068fc378daa952ba7f163c4a11628f55a4df523b3ef60405160405180910390a4613a6b600083836001613572565b5050565b6000808273ffffffffffffffffffffffffffffffffffffffff163b119050919050565b6000604051905090565b600080fd5b600080fd5b60007fffffffff0000000000000000000000000000000000000000000000000000000082169050919050565b613adb81613aa6565b8114613ae657600080fd5b50565b600081359050613af881613ad2565b92915050565b600060208284031215613b1457613b13613a9c565b5b6000613b2284828501613ae9565b91505092915050565b60008115159050919050565b613b4081613b2b565b82525050565b6000602082019050613b5b6000830184613b37565b92915050565b600081519050919050565b600082825260208201905092915050565b60005b83811015613b9b578082015181840152602081019050613b80565b60008484015250505050565b6000601f19601f8301169050919050565b6000613bc382613b61565b613bcd8185613b6c565b9350613bdd818560208601613b7d565b613be681613ba7565b840191505092915050565b60006020820190508181036000830152613c0b8184613bb8565b905092915050565b6000819050919050565b613c2681613c13565b8114613c3157600080fd5b50565b600081359050613c4381613c1d565b92915050565b600060208284031215613c5f57613c5e613a9c565b5b6000613c6d84828501613c34565b91505092915050565b600073ffffffffffffffffffffffffffffffffffffffff82169050919050565b6000613ca182613c76565b9050919050565b613cb181613c96565b82525050565b6000602082019050613ccc6000830184613ca8565b92915050565b60008060408385031215613ce957613ce8613a9c565b5b6000613cf785828601613c34565b9250506020613d0885828601613c34565b9150509250929050565b613d1b81613c13565b82525050565b6000602082019050613d366000830184613d12565b92915050565b613d4581613c96565b8114613d5057600080fd5b50565b600081359050613d6281613d3c565b92915050565b60008060408385031215613d7f57613d7e613a9c565b5b6000613d8d85828601613d53565b9250506020613d9e85828601613c34565b9150509250929050565b600080600060608486031215613dc157613dc0613a9c565b5b6000613dcf86828701613d53565b9350506020613de086828701613d53565b9250506040613df186828701613c34565b9150509250925092565b600061016082019050613e11600083018e613d12565b613e1e602083018d613d12565b613e2b604083018c613d12565b613e38606083018b613d12565b613e45608083018a613d12565b613e5260a0830189613d12565b613e5f60c0830188613d12565b613e6c60e0830187613d12565b613e7a610100830186613d12565b613e88610120830185613d12565b613e96610140830184613d12565b9c9b505050505050505050505050565b600060208284031215613ebc57613ebb613a9c565b5b6000613eca84828501613d53565b91505092915050565b613edc81613b2b565b8114613ee757600080fd5b50565b600081359050613ef981613ed3565b92915050565b60008060408385031215613f1657613f15613a9c565b5b6000613f2485828601613d53565b9250506020613f3585828601613eea565b9150509250929050565b600080fd5b600080fd5b7f4e487b7100000000000000000000000000000000000000000000000000000000600052604160045260246000fd5b613f8182613ba7565b810181811067ffffffffffffffff82111715613fa057613f9f613f49565b5b80604052505050565b6000613fb3613a92565b9050613fbf8282613f78565b919050565b600067ffffffffffffffff821115613fdf57613fde613f49565b5b613fe882613ba7565b9050602081019050919050565b82818337600083830152505050565b600061401761401284613fc4565b613fa9565b90508281526020810184848401111561403357614032613f44565b5b61403e848285613ff5565b509392505050565b600082601f83011261405b5761405a613f3f565b5b813561406b848260208601614004565b91505092915050565b6000806000806080858703121561408e5761408d613a9c565b5b600061409c87828801613d53565b94505060206140ad87828801613d53565b93505060406140be87828801613c34565b925050606085013567ffffffffffffffff8111156140df576140de613aa1565b5b6140eb87828801614046565b91505092959194509250565b600060608201905061410c6000830186613d12565b6141196020830185613d12565b6141266040830184613d12565b949350505050565b600061413982613c76565b9050919050565b6141498161412e565b811461415457600080fd5b50565b60008135905061416681614140565b92915050565b60008060006060848603121561418557614184613a9c565b5b600061419386828701613c34565b93505060206141a486828701613c34565b92505060406141b586828701614157565b9150509250925092565b600080604083850312156141d6576141d5613a9c565b5b60006141e485828601613d53565b92505060206141f585828601613d53565b9150509250929050565b60008060006060848603121561421857614217613a9c565b5b600061422686828701613c34565b935050602061423786828701613c34565b925050604061424886828701613d53565b9150509250925092565b7f4e487b7100000000000000000000000000000000000000000000000000000000600052602260045260246000fd5b6000600282049050600182168061429957607f821691505b6020821081036142ac576142ab614252565b5b50919050565b7f4c6f616e20646f65736e2774206578697374206f7220796f7520617265206e6f60008201527f7420746865206f776e6572206f6620746865206c6f616e000000000000000000602082015250565b600061430e603783613b6c565b9150614319826142b2565b604082019050919050565b6000602082019050818103600083015261433d81614301565b9050919050565b60008151905061435381613c1d565b92915050565b60006020828403121561436f5761436e613a9c565b5b600061437d84828501614344565b91505092915050565b7f646f6e2774206861766520656e6f75676820676e730000000000000000000000600082015250565b60006143bc601583613b6c565b91506143c782614386565b602082019050919050565b600060208201905081810360008301526143eb816143af565b9050919050565b60006040820190506144076000830185613ca8565b6144146020830184613ca8565b9392505050565b7f6d757374206861766520656e6f75676820746f6b656e7320617070726f76656460008201527f20696e2074686520676e7320636f6e7472616374000000000000000000000000602082015250565b6000614477603483613b6c565b91506144828261441b565b604082019050919050565b600060208201905081810360008301526144a68161446a565b9050919050565b60006060820190506144c26000830186613ca8565b6144cf6020830185613ca8565b6144dc6040830184613d12565b949350505050565b6000815190506144f381613ed3565b92915050565b60006020828403121561450f5761450e613a9c565b5b600061451d848285016144e4565b91505092915050565b7f4552433732313a20617070726f76616c20746f2063757272656e74206f776e6560008201527f7200000000000000000000000000000000000000000000000000000000000000602082015250565b6000614582602183613b6c565b915061458d82614526565b604082019050919050565b600060208201905081810360008301526145b181614575565b9050919050565b7f4552433732313a20617070726f76652063616c6c6572206973206e6f7420746f60008201527f6b656e206f776e6572206f7220617070726f76656420666f7220616c6c000000602082015250565b6000614614603d83613b6c565b915061461f826145b8565b604082019050919050565b6000602082019050818103600083015261464381614607565b9050919050565b7f63616e206f6e6c792068617665206f6e65206c6f616e2070657220616464726560008201527f7373000000000000000000000000000000000000000000000000000000000000602082015250565b60006146a6602283613b6c565b91506146b18261464a565b604082019050919050565b600060208201905081810360008301526146d581614699565b9050919050565b7f4e487b7100000000000000000000000000000000000000000000000000000000600052601160045260246000fd5b600061471682613c13565b915061472183613c13565b9250828201905080821115614739576147386146dc565b5b92915050565b600061474a82613c13565b915061475583613c13565b925082820261476381613c13565b9150828204841483151761477a576147796146dc565b5b5092915050565b7f4e487b7100000000000000000000000000000000000000000000000000000000600052601260045260246000fd5b60006147bb82613c13565b91506147c683613c13565b9250826147d6576147d5614781565b5b828204905092915050565b7f6c6f616e4964206d7573742062652061206f70656e206c6f616e000000000000600082015250565b6000614817601a83613b6c565b9150614822826147e1565b602082019050919050565b600060208201905081810360008301526148468161480a565b9050919050565b7f436f6c61746572616c206973207374696c6c206c6f636b656400000000000000600082015250565b6000614883601983613b6c565b915061488e8261484d565b602082019050919050565b600060208201905081810360008301526148b281614876565b9050919050565b7f4d75737420726570617920656e74697265206c6f616e206265666f726520726560008201527f6d6f76696e6720636f6c61746572616c00000000000000000000000000000000602082015250565b6000614915603083613b6c565b9150614920826148b9565b604082019050919050565b6000602082019050818103600083015261494481614908565b9050919050565b7f4d75737420626520746865206f776e6572206f6620746865206c6f616e000000600082015250565b6000614981601d83613b6c565b915061498c8261494b565b602082019050919050565b600060208201905081810360008301526149b081614974565b9050919050565b7f4552433732313a2063616c6c6572206973206e6f7420746f6b656e206f776e6560008201527f72206f7220617070726f76656400000000000000000000000000000000000000602082015250565b6000614a13602d83613b6c565b9150614a1e826149b7565b604082019050919050565b60006020820190508181036000830152614a4281614a06565b9050919050565b7f4552433732313a20696e76616c696420746f6b656e2049440000000000000000600082015250565b6000614a7f601883613b6c565b9150614a8a82614a49565b602082019050919050565b60006020820190508181036000830152614aae81614a72565b9050919050565b7f4552433732313a2061646472657373207a65726f206973206e6f74206120766160008201527f6c6964206f776e65720000000000000000000000000000000000000000000000602082015250565b6000614b11602983613b6c565b9150614b1c82614ab5565b604082019050919050565b60006020820190508181036000830152614b4081614b04565b9050919050565b7f616d6f756e74206d7573742062652067726561746572207468616e203020616e60008201527f64206c657373207468616e20796f7572206c6f616e6564206f757420616d6f7560208201527f6e74000000000000000000000000000000000000000000000000000000000000604082015250565b6000614bc9604283613b6c565b9150614bd482614b47565b606082019050919050565b60006020820190508181036000830152614bf881614bbc565b9050919050565b6000614c0a82613c13565b9150614c1583613c13565b9250828203905081811115614c2d57614c2c6146dc565b5b92915050565b600081905092915050565b6000614c4982613b61565b614c538185614c33565b9350614c63818560208601613b7d565b80840191505092915050565b6000614c7b8285614c3e565b9150614c878284614c3e565b91508190509392505050565b7f4c6f616e20646f65736e74206578697374000000000000000000000000000000600082015250565b6000614cc9601183613b6c565b9150614cd482614c93565b602082019050919050565b60006020820190508181036000830152614cf881614cbc565b9050919050565b7f52657175657374696e6720746f6f206d75636820757364630000000000000000600082015250565b6000614d35601883613b6c565b9150614d4082614cff565b602082019050919050565b60006020820190508181036000830152614d6481614d28565b9050919050565b7f6d757374206265206f776e657200000000000000000000000000000000000000600082015250565b6000614da1600d83613b6c565b9150614dac82614d6b565b602082019050919050565b60006020820190508181036000830152614dd081614d94565b9050919050565b7f6c6f616e657220646f6573206e6f74206861766520656e6f756768207573646360008201527f20746f20636f76657220796f757220616d6f756e740000000000000000000000602082015250565b6000614e33603583613b6c565b9150614e3e82614dd7565b604082019050919050565b60006020820190508181036000830152614e6281614e26565b9050919050565b614e728161412e565b82525050565b6000604082019050614e8d6000830185614e69565b614e9a6020830184613d12565b9392505050565b6000604082019050614eb66000830185613ca8565b614ec36020830184613d12565b9392505050565b7f4552433732313a207472616e736665722066726f6d20696e636f72726563742060008201527f6f776e6572000000000000000000000000000000000000000000000000000000602082015250565b6000614f26602583613b6c565b9150614f3182614eca565b604082019050919050565b60006020820190508181036000830152614f5581614f19565b9050919050565b7f4552433732313a207472616e7366657220746f20746865207a65726f2061646460008201527f7265737300000000000000000000000000000000000000000000000000000000602082015250565b6000614fb8602483613b6c565b9150614fc382614f5c565b604082019050919050565b60006020820190508181036000830152614fe781614fab565b9050919050565b7f4552433732313a20617070726f766520746f2063616c6c657200000000000000600082015250565b6000615024601983613b6c565b915061502f82614fee565b602082019050919050565b6000602082019050818103600083015261505381615017565b9050919050565b7f4552433732313a207472616e7366657220746f206e6f6e20455243373231526560008201527f63656976657220696d706c656d656e7465720000000000000000000000000000602082015250565b60006150b6603283613b6c565b91506150c18261505a565b604082019050919050565b600060208201905081810360008301526150e5816150a9565b9050919050565b600081519050919050565b600082825260208201905092915050565b6000615113826150ec565b61511d81856150f7565b935061512d818560208601613b7d565b61513681613ba7565b840191505092915050565b60006080820190506151566000830187613ca8565b6151636020830186613ca8565b6151706040830185613d12565b81810360608301526151828184615108565b905095945050505050565b60008151905061519c81613ad2565b92915050565b6000602082840312156151b8576151b7613a9c565b5b60006151c68482850161518d565b91505092915050565b7f4552433732313a206d696e7420746f20746865207a65726f2061646472657373600082015250565b6000615205602083613b6c565b9150615210826151cf565b602082019050919050565b60006020820190508181036000830152615234816151f8565b9050919050565b7f4552433732313a20746f6b656e20616c7265616479206d696e74656400000000600082015250565b6000615271601c83613b6c565b915061527c8261523b565b602082019050919050565b600060208201905081810360008301526152a081615264565b905091905056fea2646970667358221220e706ede52b000aece94bf1167d011de6cca8611d77f29cc1d062c30d6b833d1264736f6c63430008110033",
  "linkReferences": {},
  "deployedLinkReferences": {}
}