{
  "_format": "hh-sol-artifact-1",
  "contractName": "Vault",
  "sourceName": "contracts/Vault.sol",
  "abi": [
    {
      "inputs": [
        {
          "internalType": "address",
          "name": "share_",
          "type": "address"
        },
        {
          "internalType": "address",
          "name": "loaner_",
          "type": "address"
        }
      ],
      "stateMutability": "nonpayable",
      "type": "constructor"
    },
    {
      "anonymous": false,
      "inputs": [
        {
          "indexed": false,
          "internalType": "address",
          "name": "caller",
          "type": "address"
        },
        {
          "indexed": false,
          "internalType": "address",
          "name": "receiver",
          "type": "address"
        },
        {
          "indexed": false,
          "internalType": "uint256",
          "name": "assets",
          "type": "uint256"
        },
        {
          "indexed": false,
          "internalType": "uint256",
          "name": "shares",
          "type": "uint256"
        }
      ],
      "name": "Deposit",
      "type": "event"
    },
    {
      "anonymous": false,
      "inputs": [
        {
          "indexed": false,
          "internalType": "address",
          "name": "caller",
          "type": "address"
        },
        {
          "indexed": false,
          "internalType": "address",
          "name": "receiver",
          "type": "address"
        },
        {
          "indexed": false,
          "internalType": "uint256",
          "name": "shares",
          "type": "uint256"
        },
        {
          "indexed": false,
          "internalType": "uint256",
          "name": "assets",
          "type": "uint256"
        }
      ],
      "name": "Widthdraw",
      "type": "event"
    },
    {
      "inputs": [
        {
          "internalType": "uint256",
          "name": "amount_",
          "type": "uint256"
        }
      ],
      "name": "sendDaiToLoaner",
      "outputs": [
        {
          "internalType": "uint256",
          "name": "amount",
          "type": "uint256"
        }
      ],
      "stateMutability": "nonpayable",
      "type": "function"
    },
    {
      "inputs": [],
      "name": "totalDai",
      "outputs": [
        {
          "internalType": "uint256",
          "name": "amount",
          "type": "uint256"
        }
      ],
      "stateMutability": "view",
      "type": "function"
    },
    {
      "inputs": [],
      "name": "totalDaiInVault",
      "outputs": [
        {
          "internalType": "uint256",
          "name": "assets",
          "type": "uint256"
        }
      ],
      "stateMutability": "view",
      "type": "function"
    },
    {
      "inputs": [
        {
          "internalType": "address",
          "name": "receiver",
          "type": "address"
        },
        {
          "internalType": "uint256",
          "name": "assets",
          "type": "uint256"
        }
      ],
      "name": "widthdraw",
      "outputs": [],
      "stateMutability": "nonpayable",
      "type": "function"
    }
  ],
  "bytecode": "0x60806040523480156200001157600080fd5b5060405162001014380380620010148339818101604052810190620000379190620001c0565b738f3cf7ad23cd3cadbd9735aff958023239c6a0636000806101000a81548173ffffffffffffffffffffffffffffffffffffffff021916908373ffffffffffffffffffffffffffffffffffffffff16021790555081600160006101000a81548173ffffffffffffffffffffffffffffffffffffffff021916908373ffffffffffffffffffffffffffffffffffffffff16021790555080600260006101000a81548173ffffffffffffffffffffffffffffffffffffffff021916908373ffffffffffffffffffffffffffffffffffffffff16021790555033600360006101000a81548173ffffffffffffffffffffffffffffffffffffffff021916908373ffffffffffffffffffffffffffffffffffffffff160217905550505062000207565b600080fd5b600073ffffffffffffffffffffffffffffffffffffffff82169050919050565b600062000188826200015b565b9050919050565b6200019a816200017b565b8114620001a657600080fd5b50565b600081519050620001ba816200018f565b92915050565b60008060408385031215620001da57620001d962000156565b5b6000620001ea85828601620001a9565b9250506020620001fd85828601620001a9565b9150509250929050565b610dfd80620002176000396000f3fe608060405234801561001057600080fd5b506004361061004c5760003560e01c80630a0d0c3f14610051578063869dcaed1461006f578063ba8fba481461009f578063c74b197c146100bd575b600080fd5b6100596100d9565b60405161006691906107db565b60405180910390f35b61008960048036038101906100849190610827565b610215565b60405161009691906107db565b60405180910390f35b6100a7610347565b6040516100b491906107db565b60405180910390f35b6100d760048036038101906100d291906108b2565b6103e9565b005b6000600260009054906101000a900473ffffffffffffffffffffffffffffffffffffffff1673ffffffffffffffffffffffffffffffffffffffff16630a0d0c3f6040518163ffffffff1660e01b8152600401602060405180830381865afa158015610148573d6000803e3d6000fd5b505050506040513d601f19601f8201168201806040525081019061016c9190610907565b60008054906101000a900473ffffffffffffffffffffffffffffffffffffffff1673ffffffffffffffffffffffffffffffffffffffff166370a08231306040518263ffffffff1660e01b81526004016101c59190610943565b602060405180830381865afa1580156101e2573d6000803e3d6000fd5b505050506040513d601f19601f820116820180604052508101906102069190610907565b610210919061098d565b905090565b6000600160009054906101000a900473ffffffffffffffffffffffffffffffffffffffff1673ffffffffffffffffffffffffffffffffffffffff163373ffffffffffffffffffffffffffffffffffffffff16146102a7576040517f08c379a000000000000000000000000000000000000000000000000000000000815260040161029e90610a1e565b60405180910390fd5b816102b0610347565b10156102f1576040517f08c379a00000000000000000000000000000000000000000000000000000000081526004016102e890610a8a565b60405180910390fd5b61033e60008054906101000a900473ffffffffffffffffffffffffffffffffffffffff16600260009054906101000a900473ffffffffffffffffffffffffffffffffffffffff16846104a8565b60009050919050565b60008060009054906101000a900473ffffffffffffffffffffffffffffffffffffffff1673ffffffffffffffffffffffffffffffffffffffff166370a08231306040518263ffffffff1660e01b81526004016103a39190610943565b602060405180830381865afa1580156103c0573d6000803e3d6000fd5b505050506040513d601f19601f820116820180604052508101906103e49190610907565b905090565b600160009054906101000a900473ffffffffffffffffffffffffffffffffffffffff1673ffffffffffffffffffffffffffffffffffffffff163373ffffffffffffffffffffffffffffffffffffffff1614610479576040517f08c379a000000000000000000000000000000000000000000000000000000000815260040161047090610a1e565b60405180910390fd5b6104a460008054906101000a900473ffffffffffffffffffffffffffffffffffffffff1683836104a8565b5050565b6105298363a9059cbb60e01b84846040516024016104c7929190610aaa565b604051602081830303815290604052907bffffffffffffffffffffffffffffffffffffffffffffffffffffffff19166020820180517bffffffffffffffffffffffffffffffffffffffffffffffffffffffff838183161783525050505061052e565b505050565b6000610590826040518060400160405280602081526020017f5361666545524332303a206c6f772d6c6576656c2063616c6c206661696c65648152508573ffffffffffffffffffffffffffffffffffffffff166105f59092919063ffffffff16565b90506000815111156105f057808060200190518101906105b09190610b0b565b6105ef576040517f08c379a00000000000000000000000000000000000000000000000000000000081526004016105e690610baa565b60405180910390fd5b5b505050565b6060610604848460008561060d565b90509392505050565b606082471015610652576040517f08c379a000000000000000000000000000000000000000000000000000000000815260040161064990610c3c565b60405180910390fd5b6000808673ffffffffffffffffffffffffffffffffffffffff16858760405161067b9190610ccd565b60006040518083038185875af1925050503d80600081146106b8576040519150601f19603f3d011682016040523d82523d6000602084013e6106bd565b606091505b50915091506106ce878383876106da565b92505050949350505050565b6060831561073c576000835103610734576106f48561074f565b610733576040517f08c379a000000000000000000000000000000000000000000000000000000000815260040161072a90610d30565b60405180910390fd5b5b829050610747565b6107468383610772565b5b949350505050565b6000808273ffffffffffffffffffffffffffffffffffffffff163b119050919050565b6000825111156107855781518083602001fd5b806040517f08c379a00000000000000000000000000000000000000000000000000000000081526004016107b99190610da5565b60405180910390fd5b6000819050919050565b6107d5816107c2565b82525050565b60006020820190506107f060008301846107cc565b92915050565b600080fd5b610804816107c2565b811461080f57600080fd5b50565b600081359050610821816107fb565b92915050565b60006020828403121561083d5761083c6107f6565b5b600061084b84828501610812565b91505092915050565b600073ffffffffffffffffffffffffffffffffffffffff82169050919050565b600061087f82610854565b9050919050565b61088f81610874565b811461089a57600080fd5b50565b6000813590506108ac81610886565b92915050565b600080604083850312156108c9576108c86107f6565b5b60006108d78582860161089d565b92505060206108e885828601610812565b9150509250929050565b600081519050610901816107fb565b92915050565b60006020828403121561091d5761091c6107f6565b5b600061092b848285016108f2565b91505092915050565b61093d81610874565b82525050565b60006020820190506109586000830184610934565b92915050565b7f4e487b7100000000000000000000000000000000000000000000000000000000600052601160045260246000fd5b6000610998826107c2565b91506109a3836107c2565b92508282019050808211156109bb576109ba61095e565b5b92915050565b600082825260208201905092915050565b7f4d7573742062652074686520736861726520746f6b656e212121000000000000600082015250565b6000610a08601a836109c1565b9150610a13826109d2565b602082019050919050565b60006020820190508181036000830152610a37816109fb565b9050919050565b7f446f6e2774206861766520656e6f756768207573646320696e207661756c7421600082015250565b6000610a746020836109c1565b9150610a7f82610a3e565b602082019050919050565b60006020820190508181036000830152610aa381610a67565b9050919050565b6000604082019050610abf6000830185610934565b610acc60208301846107cc565b9392505050565b60008115159050919050565b610ae881610ad3565b8114610af357600080fd5b50565b600081519050610b0581610adf565b92915050565b600060208284031215610b2157610b206107f6565b5b6000610b2f84828501610af6565b91505092915050565b7f5361666545524332303a204552433230206f7065726174696f6e20646964206e60008201527f6f74207375636365656400000000000000000000000000000000000000000000602082015250565b6000610b94602a836109c1565b9150610b9f82610b38565b604082019050919050565b60006020820190508181036000830152610bc381610b87565b9050919050565b7f416464726573733a20696e73756666696369656e742062616c616e636520666f60008201527f722063616c6c0000000000000000000000000000000000000000000000000000602082015250565b6000610c266026836109c1565b9150610c3182610bca565b604082019050919050565b60006020820190508181036000830152610c5581610c19565b9050919050565b600081519050919050565b600081905092915050565b60005b83811015610c90578082015181840152602081019050610c75565b60008484015250505050565b6000610ca782610c5c565b610cb18185610c67565b9350610cc1818560208601610c72565b80840191505092915050565b6000610cd98284610c9c565b915081905092915050565b7f416464726573733a2063616c6c20746f206e6f6e2d636f6e7472616374000000600082015250565b6000610d1a601d836109c1565b9150610d2582610ce4565b602082019050919050565b60006020820190508181036000830152610d4981610d0d565b9050919050565b600081519050919050565b6000601f19601f8301169050919050565b6000610d7782610d50565b610d8181856109c1565b9350610d91818560208601610c72565b610d9a81610d5b565b840191505092915050565b60006020820190508181036000830152610dbf8184610d6c565b90509291505056fea2646970667358221220c4c8a4dc77a1dede0980cabdcd5c296b1c038eb0739a4f913e01c4dd27bf356064736f6c63430008110033",
  "linkReferences": {},
  "deployedLinkReferences": {}
}