{
  "_format": "hh-sol-artifact-1",
  "contractName": "Vault",
  "sourceName": "contracts/Vault.sol",
  "abi": [
    {
      "inputs": [
        {
          "internalType": "address",
          "name": "share_",
          "type": "address"
        },
        {
          "internalType": "address",
          "name": "loaner_",
          "type": "address"
        }
      ],
      "stateMutability": "nonpayable",
      "type": "constructor"
    },
    {
      "anonymous": false,
      "inputs": [
        {
          "indexed": false,
          "internalType": "address",
          "name": "caller",
          "type": "address"
        },
        {
          "indexed": false,
          "internalType": "address",
          "name": "receiver",
          "type": "address"
        },
        {
          "indexed": false,
          "internalType": "uint256",
          "name": "assets",
          "type": "uint256"
        },
        {
          "indexed": false,
          "internalType": "uint256",
          "name": "shares",
          "type": "uint256"
        }
      ],
      "name": "Deposit",
      "type": "event"
    },
    {
      "anonymous": false,
      "inputs": [
        {
          "indexed": false,
          "internalType": "address",
          "name": "caller",
          "type": "address"
        },
        {
          "indexed": false,
          "internalType": "address",
          "name": "receiver",
          "type": "address"
        },
        {
          "indexed": false,
          "internalType": "uint256",
          "name": "shares",
          "type": "uint256"
        },
        {
          "indexed": false,
          "internalType": "uint256",
          "name": "assets",
          "type": "uint256"
        }
      ],
      "name": "Widthdraw",
      "type": "event"
    },
    {
      "inputs": [
        {
          "internalType": "uint256",
          "name": "amount_",
          "type": "uint256"
        }
      ],
      "name": "sendDaiToLoaner",
      "outputs": [
        {
          "internalType": "uint256",
          "name": "amount",
          "type": "uint256"
        }
      ],
      "stateMutability": "nonpayable",
      "type": "function"
    },
    {
      "inputs": [],
      "name": "totalDai",
      "outputs": [
        {
          "internalType": "uint256",
          "name": "amount",
          "type": "uint256"
        }
      ],
      "stateMutability": "view",
      "type": "function"
    },
    {
      "inputs": [],
      "name": "totalDaiInVault",
      "outputs": [
        {
          "internalType": "uint256",
          "name": "assets",
          "type": "uint256"
        }
      ],
      "stateMutability": "view",
      "type": "function"
    },
    {
      "inputs": [
        {
          "internalType": "address",
          "name": "receiver",
          "type": "address"
        },
        {
          "internalType": "uint256",
          "name": "assets",
          "type": "uint256"
        }
      ],
      "name": "widthdraw",
      "outputs": [],
      "stateMutability": "nonpayable",
      "type": "function"
    }
  ],
  "bytecode": "0x60806040523480156200001157600080fd5b506040516200107f3803806200107f8339818101604052810190620000379190620001c0565b738f3cf7ad23cd3cadbd9735aff958023239c6a0636000806101000a81548173ffffffffffffffffffffffffffffffffffffffff021916908373ffffffffffffffffffffffffffffffffffffffff16021790555081600160006101000a81548173ffffffffffffffffffffffffffffffffffffffff021916908373ffffffffffffffffffffffffffffffffffffffff16021790555080600260006101000a81548173ffffffffffffffffffffffffffffffffffffffff021916908373ffffffffffffffffffffffffffffffffffffffff16021790555033600360006101000a81548173ffffffffffffffffffffffffffffffffffffffff021916908373ffffffffffffffffffffffffffffffffffffffff160217905550505062000207565b600080fd5b600073ffffffffffffffffffffffffffffffffffffffff82169050919050565b600062000188826200015b565b9050919050565b6200019a816200017b565b8114620001a657600080fd5b50565b600081519050620001ba816200018f565b92915050565b60008060408385031215620001da57620001d962000156565b5b6000620001ea85828601620001a9565b9250506020620001fd85828601620001a9565b9150509250929050565b610e6880620002176000396000f3fe608060405234801561001057600080fd5b506004361061004c5760003560e01c80630a0d0c3f14610051578063869dcaed1461006f578063ba8fba481461009f578063c74b197c146100bd575b600080fd5b6100596100d9565b60405161006691906107da565b60405180910390f35b61008960048036038101906100849190610826565b610215565b60405161009691906107da565b60405180910390f35b6100a7610346565b6040516100b491906107da565b60405180910390f35b6100d760048036038101906100d291906108b1565b6103e8565b005b6000600260009054906101000a900473ffffffffffffffffffffffffffffffffffffffff1673ffffffffffffffffffffffffffffffffffffffff16630a0d0c3f6040518163ffffffff1660e01b8152600401602060405180830381865afa158015610148573d6000803e3d6000fd5b505050506040513d601f19601f8201168201806040525081019061016c9190610906565b60008054906101000a900473ffffffffffffffffffffffffffffffffffffffff1673ffffffffffffffffffffffffffffffffffffffff166370a08231306040518263ffffffff1660e01b81526004016101c59190610942565b602060405180830381865afa1580156101e2573d6000803e3d6000fd5b505050506040513d601f19601f820116820180604052508101906102069190610906565b610210919061098c565b905090565b6000600360009054906101000a900473ffffffffffffffffffffffffffffffffffffffff1673ffffffffffffffffffffffffffffffffffffffff163373ffffffffffffffffffffffffffffffffffffffff16146102a7576040517f08c379a000000000000000000000000000000000000000000000000000000000815260040161029e90610a1d565b60405180910390fd5b816102b0610346565b116102f0576040517f08c379a00000000000000000000000000000000000000000000000000000000081526004016102e790610a89565b60405180910390fd5b61033d60008054906101000a900473ffffffffffffffffffffffffffffffffffffffff16600260009054906101000a900473ffffffffffffffffffffffffffffffffffffffff16846104a7565b60009050919050565b60008060009054906101000a900473ffffffffffffffffffffffffffffffffffffffff1673ffffffffffffffffffffffffffffffffffffffff166370a08231306040518263ffffffff1660e01b81526004016103a29190610942565b602060405180830381865afa1580156103bf573d6000803e3d6000fd5b505050506040513d601f19601f820116820180604052508101906103e39190610906565b905090565b600160009054906101000a900473ffffffffffffffffffffffffffffffffffffffff1673ffffffffffffffffffffffffffffffffffffffff163373ffffffffffffffffffffffffffffffffffffffff1614610478576040517f08c379a000000000000000000000000000000000000000000000000000000000815260040161046f90610af5565b60405180910390fd5b6104a360008054906101000a900473ffffffffffffffffffffffffffffffffffffffff1683836104a7565b5050565b6105288363a9059cbb60e01b84846040516024016104c6929190610b15565b604051602081830303815290604052907bffffffffffffffffffffffffffffffffffffffffffffffffffffffff19166020820180517bffffffffffffffffffffffffffffffffffffffffffffffffffffffff838183161783525050505061052d565b505050565b600061058f826040518060400160405280602081526020017f5361666545524332303a206c6f772d6c6576656c2063616c6c206661696c65648152508573ffffffffffffffffffffffffffffffffffffffff166105f49092919063ffffffff16565b90506000815111156105ef57808060200190518101906105af9190610b76565b6105ee576040517f08c379a00000000000000000000000000000000000000000000000000000000081526004016105e590610c15565b60405180910390fd5b5b505050565b6060610603848460008561060c565b90509392505050565b606082471015610651576040517f08c379a000000000000000000000000000000000000000000000000000000000815260040161064890610ca7565b60405180910390fd5b6000808673ffffffffffffffffffffffffffffffffffffffff16858760405161067a9190610d38565b60006040518083038185875af1925050503d80600081146106b7576040519150601f19603f3d011682016040523d82523d6000602084013e6106bc565b606091505b50915091506106cd878383876106d9565b92505050949350505050565b6060831561073b576000835103610733576106f38561074e565b610732576040517f08c379a000000000000000000000000000000000000000000000000000000000815260040161072990610d9b565b60405180910390fd5b5b829050610746565b6107458383610771565b5b949350505050565b6000808273ffffffffffffffffffffffffffffffffffffffff163b119050919050565b6000825111156107845781518083602001fd5b806040517f08c379a00000000000000000000000000000000000000000000000000000000081526004016107b89190610e10565b60405180910390fd5b6000819050919050565b6107d4816107c1565b82525050565b60006020820190506107ef60008301846107cb565b92915050565b600080fd5b610803816107c1565b811461080e57600080fd5b50565b600081359050610820816107fa565b92915050565b60006020828403121561083c5761083b6107f5565b5b600061084a84828501610811565b91505092915050565b600073ffffffffffffffffffffffffffffffffffffffff82169050919050565b600061087e82610853565b9050919050565b61088e81610873565b811461089957600080fd5b50565b6000813590506108ab81610885565b92915050565b600080604083850312156108c8576108c76107f5565b5b60006108d68582860161089c565b92505060206108e785828601610811565b9150509250929050565b600081519050610900816107fa565b92915050565b60006020828403121561091c5761091b6107f5565b5b600061092a848285016108f1565b91505092915050565b61093c81610873565b82525050565b60006020820190506109576000830184610933565b92915050565b7f4e487b7100000000000000000000000000000000000000000000000000000000600052601160045260246000fd5b6000610997826107c1565b91506109a2836107c1565b92508282019050808211156109ba576109b961095d565b5b92915050565b600082825260208201905092915050565b7f6f6e6c7920676f76212121000000000000000000000000000000000000000000600082015250565b6000610a07600b836109c0565b9150610a12826109d1565b602082019050919050565b60006020820190508181036000830152610a36816109fa565b9050919050565b7f446f6e2774206861766520656e6f756768207573646320696e207661756c7421600082015250565b6000610a736020836109c0565b9150610a7e82610a3d565b602082019050919050565b60006020820190508181036000830152610aa281610a66565b9050919050565b7f4d7573742062652074686520736861726520746f6b656e212121000000000000600082015250565b6000610adf601a836109c0565b9150610aea82610aa9565b602082019050919050565b60006020820190508181036000830152610b0e81610ad2565b9050919050565b6000604082019050610b2a6000830185610933565b610b3760208301846107cb565b9392505050565b60008115159050919050565b610b5381610b3e565b8114610b5e57600080fd5b50565b600081519050610b7081610b4a565b92915050565b600060208284031215610b8c57610b8b6107f5565b5b6000610b9a84828501610b61565b91505092915050565b7f5361666545524332303a204552433230206f7065726174696f6e20646964206e60008201527f6f74207375636365656400000000000000000000000000000000000000000000602082015250565b6000610bff602a836109c0565b9150610c0a82610ba3565b604082019050919050565b60006020820190508181036000830152610c2e81610bf2565b9050919050565b7f416464726573733a20696e73756666696369656e742062616c616e636520666f60008201527f722063616c6c0000000000000000000000000000000000000000000000000000602082015250565b6000610c916026836109c0565b9150610c9c82610c35565b604082019050919050565b60006020820190508181036000830152610cc081610c84565b9050919050565b600081519050919050565b600081905092915050565b60005b83811015610cfb578082015181840152602081019050610ce0565b60008484015250505050565b6000610d1282610cc7565b610d1c8185610cd2565b9350610d2c818560208601610cdd565b80840191505092915050565b6000610d448284610d07565b915081905092915050565b7f416464726573733a2063616c6c20746f206e6f6e2d636f6e7472616374000000600082015250565b6000610d85601d836109c0565b9150610d9082610d4f565b602082019050919050565b60006020820190508181036000830152610db481610d78565b9050919050565b600081519050919050565b6000601f19601f8301169050919050565b6000610de282610dbb565b610dec81856109c0565b9350610dfc818560208601610cdd565b610e0581610dc6565b840191505092915050565b60006020820190508181036000830152610e2a8184610dd7565b90509291505056fea26469706673582212209b921b32b7f2e3aeaa1803718006204163af2fc8e8f28be65a6b6da2b603197464736f6c63430008110033",
  "linkReferences": {},
  "deployedLinkReferences": {}
}