{
  "_format": "hh-sol-artifact-1",
  "contractName": "Loaner",
  "sourceName": "contracts/Loaner.sol",
  "abi": [
    {
      "inputs": [
        {
          "internalType": "address",
          "name": "fetti_",
          "type": "address"
        }
      ],
      "stateMutability": "nonpayable",
      "type": "constructor"
    },
    {
      "anonymous": false,
      "inputs": [
        {
          "indexed": false,
          "internalType": "uint256",
          "name": "newMax_",
          "type": "uint256"
        }
      ],
      "name": "ChangedMax",
      "type": "event"
    },
    {
      "anonymous": false,
      "inputs": [
        {
          "indexed": false,
          "internalType": "address",
          "name": "borrower",
          "type": "address"
        },
        {
          "indexed": false,
          "internalType": "uint256",
          "name": "amount",
          "type": "uint256"
        }
      ],
      "name": "SentLoan",
      "type": "event"
    },
    {
      "inputs": [
        {
          "internalType": "address",
          "name": "newPool_",
          "type": "address"
        },
        {
          "internalType": "uint256",
          "name": "maxBorrow_",
          "type": "uint256"
        }
      ],
      "name": "addPool",
      "outputs": [],
      "stateMutability": "nonpayable",
      "type": "function"
    },
    {
      "inputs": [],
      "name": "getPoolLoanAmount",
      "outputs": [
        {
          "internalType": "uint256",
          "name": "",
          "type": "uint256"
        }
      ],
      "stateMutability": "view",
      "type": "function"
    },
    {
      "inputs": [],
      "name": "getPoolMax",
      "outputs": [
        {
          "internalType": "uint256",
          "name": "max",
          "type": "uint256"
        }
      ],
      "stateMutability": "view",
      "type": "function"
    },
    {
      "inputs": [],
      "name": "pendingDai",
      "outputs": [
        {
          "internalType": "uint256",
          "name": "amount",
          "type": "uint256"
        }
      ],
      "stateMutability": "view",
      "type": "function"
    },
    {
      "inputs": [],
      "name": "poolFreeDai",
      "outputs": [
        {
          "internalType": "uint256",
          "name": "",
          "type": "uint256"
        }
      ],
      "stateMutability": "view",
      "type": "function"
    },
    {
      "inputs": [
        {
          "internalType": "address payable",
          "name": "borrower_",
          "type": "address"
        },
        {
          "internalType": "uint256",
          "name": "amount_",
          "type": "uint256"
        }
      ],
      "name": "sendLoan",
      "outputs": [
        {
          "internalType": "uint256",
          "name": "",
          "type": "uint256"
        }
      ],
      "stateMutability": "nonpayable",
      "type": "function"
    },
    {
      "inputs": [
        {
          "internalType": "uint256",
          "name": "amount_",
          "type": "uint256"
        }
      ],
      "name": "sendToVault",
      "outputs": [
        {
          "internalType": "uint256",
          "name": "",
          "type": "uint256"
        }
      ],
      "stateMutability": "nonpayable",
      "type": "function"
    },
    {
      "inputs": [
        {
          "internalType": "uint256",
          "name": "newMax_",
          "type": "uint256"
        }
      ],
      "name": "setPoolMax",
      "outputs": [],
      "stateMutability": "nonpayable",
      "type": "function"
    },
    {
      "inputs": [
        {
          "internalType": "address",
          "name": "vault_",
          "type": "address"
        }
      ],
      "name": "setVault",
      "outputs": [
        {
          "internalType": "address",
          "name": "vault",
          "type": "address"
        }
      ],
      "stateMutability": "nonpayable",
      "type": "function"
    },
    {
      "inputs": [],
      "name": "totalDai",
      "outputs": [
        {
          "internalType": "uint256",
          "name": "amount",
          "type": "uint256"
        }
      ],
      "stateMutability": "view",
      "type": "function"
    },
    {
      "inputs": [],
      "name": "totalDaiInLoaner",
      "outputs": [
        {
          "internalType": "uint256",
          "name": "assets",
          "type": "uint256"
        }
      ],
      "stateMutability": "view",
      "type": "function"
    },
    {
      "inputs": [],
      "name": "totalLoanedOut",
      "outputs": [
        {
          "internalType": "uint256",
          "name": "amount",
          "type": "uint256"
        }
      ],
      "stateMutability": "view",
      "type": "function"
    }
  ],
  "bytecode": "0x6080604052738f3cf7ad23cd3cadbd9735aff958023239c6a063600560006101000a81548173ffffffffffffffffffffffffffffffffffffffff021916908373ffffffffffffffffffffffffffffffffffffffff1602179055503480156200006657600080fd5b5060405162001b2038038062001b2083398181016040528101906200008c91906200017e565b336000806101000a81548173ffffffffffffffffffffffffffffffffffffffff021916908373ffffffffffffffffffffffffffffffffffffffff16021790555080600160006101000a81548173ffffffffffffffffffffffffffffffffffffffff021916908373ffffffffffffffffffffffffffffffffffffffff16021790555050620001b0565b600080fd5b600073ffffffffffffffffffffffffffffffffffffffff82169050919050565b6000620001468262000119565b9050919050565b620001588162000139565b81146200016457600080fd5b50565b60008151905062000178816200014d565b92915050565b60006020828403121562000197576200019662000114565b5b6000620001a78482850162000167565b91505092915050565b61196080620001c06000396000f3fe608060405234801561001057600080fd5b50600436106100b45760003560e01c8063606708ce11610071578063606708ce1461018f5780636817031b146101ad57806371583fae146101dd578063779da967146101fb578063d86dbf3014610217578063e7fb079014610235576100b4565b8063087b8e98146100b95780630a0d0c3f146100d75780630f309b07146100f55780631343a35f1461012557806332a9caba146101555780634a72e9b614610171575b600080fd5b6100c1610253565b6040516100ce9190610f53565b60405180910390f35b6100df6102eb565b6040516100ec9190610f53565b60405180910390f35b61010f600480360381019061010a9190610f9f565b61031e565b60405161011c9190610f53565b60405180910390f35b61013f600480360381019061013a919061102a565b610451565b60405161014c9190610f53565b60405180910390f35b61016f600480360381019061016a91906110a8565b6105e6565b005b6101796106c0565b6040516101869190610f53565b60405180910390f35b610197610763565b6040516101a49190610f53565b60405180910390f35b6101c760048036038101906101c291906110e8565b610896565b6040516101d49190611124565b60405180910390f35b6101e5610991565b6040516101f29190610f53565b60405180910390f35b61021560048036038101906102109190610f9f565b61099b565b005b61021f610ac2565b60405161022c9190610f53565b60405180910390f35b61023d610b88565b60405161024a9190610f53565b60405180910390f35b6000600360009054906101000a900473ffffffffffffffffffffffffffffffffffffffff1673ffffffffffffffffffffffffffffffffffffffff1663e7fb07906040518163ffffffff1660e01b8152600401602060405180830381865afa1580156102c2573d6000803e3d6000fd5b505050506040513d601f19601f820116820180604052508101906102e69190611154565b905090565b60006102f5610763565b6102fd610b88565b6103056106c0565b61030f91906111b0565b61031991906111b0565b905090565b6000600160009054906101000a900473ffffffffffffffffffffffffffffffffffffffff1673ffffffffffffffffffffffffffffffffffffffff163373ffffffffffffffffffffffffffffffffffffffff16146103b0576040517f08c379a00000000000000000000000000000000000000000000000000000000081526004016103a790611241565b60405180910390fd5b816103b96106c0565b10156103fa576040517f08c379a00000000000000000000000000000000000000000000000000000000081526004016103f1906112d3565b60405180910390fd5b610449600560009054906101000a900473ffffffffffffffffffffffffffffffffffffffff16600260009054906101000a900473ffffffffffffffffffffffffffffffffffffffff1684610c20565b819050919050565b6000600360009054906101000a900473ffffffffffffffffffffffffffffffffffffffff1673ffffffffffffffffffffffffffffffffffffffff163373ffffffffffffffffffffffffffffffffffffffff16146104e3576040517f08c379a00000000000000000000000000000000000000000000000000000000081526004016104da9061133f565b60405180910390fd5b816104ec610ac2565b101561052d576040517f08c379a0000000000000000000000000000000000000000000000000000000008152600401610524906113ab565b60405180910390fd5b816105366106c0565b1015610577576040517f08c379a000000000000000000000000000000000000000000000000000000000815260040161056e906112d3565b60405180910390fd5b6105a4600560009054906101000a900473ffffffffffffffffffffffffffffffffffffffff168484610c20565b7f6512ed3affeca45c30c02b1888a21a4180970de9dc2e4a538670fb819fad474d83836040516105d592919061142a565b60405180910390a181905092915050565b60008054906101000a900473ffffffffffffffffffffffffffffffffffffffff1673ffffffffffffffffffffffffffffffffffffffff163373ffffffffffffffffffffffffffffffffffffffff1614610674576040517f08c379a000000000000000000000000000000000000000000000000000000000815260040161066b9061149f565b60405180910390fd5b81600360006101000a81548173ffffffffffffffffffffffffffffffffffffffff021916908373ffffffffffffffffffffffffffffffffffffffff160217905550806004819055505050565b6000600560009054906101000a900473ffffffffffffffffffffffffffffffffffffffff1673ffffffffffffffffffffffffffffffffffffffff166370a08231306040518263ffffffff1660e01b815260040161071d9190611124565b602060405180830381865afa15801561073a573d6000803e3d6000fd5b505050506040513d601f19601f8201168201806040525081019061075e9190611154565b905090565b6000600360009054906101000a900473ffffffffffffffffffffffffffffffffffffffff1673ffffffffffffffffffffffffffffffffffffffff16637b943d356040518163ffffffff1660e01b8152600401602060405180830381865afa1580156107d2573d6000803e3d6000fd5b505050506040513d601f19601f820116820180604052508101906107f69190611154565b600360009054906101000a900473ffffffffffffffffffffffffffffffffffffffff1673ffffffffffffffffffffffffffffffffffffffff1663606708ce6040518163ffffffff1660e01b8152600401602060405180830381865afa158015610863573d6000803e3d6000fd5b505050506040513d601f19601f820116820180604052508101906108879190611154565b61089191906114bf565b905090565b60003373ffffffffffffffffffffffffffffffffffffffff1660008054906101000a900473ffffffffffffffffffffffffffffffffffffffff1673ffffffffffffffffffffffffffffffffffffffff1614610926576040517f08c379a000000000000000000000000000000000000000000000000000000000815260040161091d9061154d565b60405180910390fd5b81600260006101000a81548173ffffffffffffffffffffffffffffffffffffffff021916908373ffffffffffffffffffffffffffffffffffffffff160217905550600260009054906101000a900473ffffffffffffffffffffffffffffffffffffffff169050919050565b6000600454905090565b60008054906101000a900473ffffffffffffffffffffffffffffffffffffffff1673ffffffffffffffffffffffffffffffffffffffff163373ffffffffffffffffffffffffffffffffffffffff161480610a425750600160009054906101000a900473ffffffffffffffffffffffffffffffffffffffff1673ffffffffffffffffffffffffffffffffffffffff163373ffffffffffffffffffffffffffffffffffffffff16145b610a81576040517f08c379a0000000000000000000000000000000000000000000000000000000008152600401610a78906115b9565b60405180910390fd5b806004819055507f4bfee341ab8c0b1ab06c22a43c3fb95aff4e5a59043a4d6516901bdc009c17db81604051610ab79190610f53565b60405180910390a150565b6000610acc6106c0565b6004541115610ae457610add6106c0565b9050610b85565b600360009054906101000a900473ffffffffffffffffffffffffffffffffffffffff1673ffffffffffffffffffffffffffffffffffffffff1663e7fb07906040518163ffffffff1660e01b8152600401602060405180830381865afa158015610b51573d6000803e3d6000fd5b505050506040513d601f19601f82011682018060405250810190610b759190611154565b600454610b8291906115d9565b90505b90565b6000600360009054906101000a900473ffffffffffffffffffffffffffffffffffffffff1673ffffffffffffffffffffffffffffffffffffffff1663e7fb07906040518163ffffffff1660e01b8152600401602060405180830381865afa158015610bf7573d6000803e3d6000fd5b505050506040513d601f19601f82011682018060405250810190610c1b9190611154565b905090565b610ca18363a9059cbb60e01b8484604051602401610c3f92919061160d565b604051602081830303815290604052907bffffffffffffffffffffffffffffffffffffffffffffffffffffffff19166020820180517bffffffffffffffffffffffffffffffffffffffffffffffffffffffff8381831617835250505050610ca6565b505050565b6000610d08826040518060400160405280602081526020017f5361666545524332303a206c6f772d6c6576656c2063616c6c206661696c65648152508573ffffffffffffffffffffffffffffffffffffffff16610d6d9092919063ffffffff16565b9050600081511115610d685780806020019051810190610d28919061166e565b610d67576040517f08c379a0000000000000000000000000000000000000000000000000000000008152600401610d5e9061170d565b60405180910390fd5b5b505050565b6060610d7c8484600085610d85565b90509392505050565b606082471015610dca576040517f08c379a0000000000000000000000000000000000000000000000000000000008152600401610dc19061179f565b60405180910390fd5b6000808673ffffffffffffffffffffffffffffffffffffffff168587604051610df39190611830565b60006040518083038185875af1925050503d8060008114610e30576040519150601f19603f3d011682016040523d82523d6000602084013e610e35565b606091505b5091509150610e4687838387610e52565b92505050949350505050565b60608315610eb4576000835103610eac57610e6c85610ec7565b610eab576040517f08c379a0000000000000000000000000000000000000000000000000000000008152600401610ea290611893565b60405180910390fd5b5b829050610ebf565b610ebe8383610eea565b5b949350505050565b6000808273ffffffffffffffffffffffffffffffffffffffff163b119050919050565b600082511115610efd5781518083602001fd5b806040517f08c379a0000000000000000000000000000000000000000000000000000000008152600401610f319190611908565b60405180910390fd5b6000819050919050565b610f4d81610f3a565b82525050565b6000602082019050610f686000830184610f44565b92915050565b600080fd5b610f7c81610f3a565b8114610f8757600080fd5b50565b600081359050610f9981610f73565b92915050565b600060208284031215610fb557610fb4610f6e565b5b6000610fc384828501610f8a565b91505092915050565b600073ffffffffffffffffffffffffffffffffffffffff82169050919050565b6000610ff782610fcc565b9050919050565b61100781610fec565b811461101257600080fd5b50565b60008135905061102481610ffe565b92915050565b6000806040838503121561104157611040610f6e565b5b600061104f85828601611015565b925050602061106085828601610f8a565b9150509250929050565b600061107582610fcc565b9050919050565b6110858161106a565b811461109057600080fd5b50565b6000813590506110a28161107c565b92915050565b600080604083850312156110bf576110be610f6e565b5b60006110cd85828601611093565b92505060206110de85828601610f8a565b9150509250929050565b6000602082840312156110fe576110fd610f6e565b5b600061110c84828501611093565b91505092915050565b61111e8161106a565b82525050565b60006020820190506111396000830184611115565b92915050565b60008151905061114e81610f73565b92915050565b60006020828403121561116a57611169610f6e565b5b60006111788482850161113f565b91505092915050565b7f4e487b7100000000000000000000000000000000000000000000000000000000600052601160045260246000fd5b60006111bb82610f3a565b91506111c683610f3a565b92508282019050808211156111de576111dd611181565b5b92915050565b600082825260208201905092915050565b7f6d75737420626520666574746900000000000000000000000000000000000000600082015250565b600061122b600d836111e4565b9150611236826111f5565b602082019050919050565b6000602082019050818103600083015261125a8161121e565b9050919050565b7f446f6e2774206861766520656e6f756768207573646320696e206c6f616e657260008201527f2100000000000000000000000000000000000000000000000000000000000000602082015250565b60006112bd6021836111e4565b91506112c882611261565b604082019050919050565b600060208201905081810360008301526112ec816112b0565b9050919050565b7f6d7573742062652074686520706f6f6c21210000000000000000000000000000600082015250565b60006113296012836111e4565b9150611334826112f3565b602082019050919050565b600060208201905081810360008301526113588161131c565b9050919050565b7f776f756c6420676f206f76657220706f6f6c206c6f616e206c696d6974000000600082015250565b6000611395601d836111e4565b91506113a08261135f565b602082019050919050565b600060208201905081810360008301526113c481611388565b9050919050565b6000819050919050565b60006113f06113eb6113e684610fcc565b6113cb565b610fcc565b9050919050565b6000611402826113d5565b9050919050565b6000611414826113f7565b9050919050565b61142481611409565b82525050565b600060408201905061143f600083018561141b565b61144c6020830184610f44565b9392505050565b7f4f6e6c7920676f76212121000000000000000000000000000000000000000000600082015250565b6000611489600b836111e4565b915061149482611453565b602082019050919050565b600060208201905081810360008301526114b88161147c565b9050919050565b60006114ca82610f3a565b91506114d583610f3a565b92508282026114e381610f3a565b915082820484148315176114fa576114f9611181565b5b5092915050565b7f4d7573742062652074686520676f762121000000000000000000000000000000600082015250565b60006115376011836111e4565b915061154282611501565b602082019050919050565b600060208201905081810360008301526115668161152a565b9050919050565b7f4f6e6c7920676f76206f72206665742121210000000000000000000000000000600082015250565b60006115a36012836111e4565b91506115ae8261156d565b602082019050919050565b600060208201905081810360008301526115d281611596565b9050919050565b60006115e482610f3a565b91506115ef83610f3a565b925082820390508181111561160757611606611181565b5b92915050565b60006040820190506116226000830185611115565b61162f6020830184610f44565b9392505050565b60008115159050919050565b61164b81611636565b811461165657600080fd5b50565b60008151905061166881611642565b92915050565b60006020828403121561168457611683610f6e565b5b600061169284828501611659565b91505092915050565b7f5361666545524332303a204552433230206f7065726174696f6e20646964206e60008201527f6f74207375636365656400000000000000000000000000000000000000000000602082015250565b60006116f7602a836111e4565b91506117028261169b565b604082019050919050565b60006020820190508181036000830152611726816116ea565b9050919050565b7f416464726573733a20696e73756666696369656e742062616c616e636520666f60008201527f722063616c6c0000000000000000000000000000000000000000000000000000602082015250565b60006117896026836111e4565b91506117948261172d565b604082019050919050565b600060208201905081810360008301526117b88161177c565b9050919050565b600081519050919050565b600081905092915050565b60005b838110156117f35780820151818401526020810190506117d8565b60008484015250505050565b600061180a826117bf565b61181481856117ca565b93506118248185602086016117d5565b80840191505092915050565b600061183c82846117ff565b915081905092915050565b7f416464726573733a2063616c6c20746f206e6f6e2d636f6e7472616374000000600082015250565b600061187d601d836111e4565b915061188882611847565b602082019050919050565b600060208201905081810360008301526118ac81611870565b9050919050565b600081519050919050565b6000601f19601f8301169050919050565b60006118da826118b3565b6118e481856111e4565b93506118f48185602086016117d5565b6118fd816118be565b840191505092915050565b6000602082019050818103600083015261192281846118cf565b90509291505056fea2646970667358221220e8da101633f1eda7d760cc39cde61bebe4dffed1319e6088e496367d74a9a56a64736f6c63430008110033",
  "linkReferences": {},
  "deployedLinkReferences": {}
}