{
  "_format": "hh-sol-artifact-1",
  "contractName": "Loaner",
  "sourceName": "contracts/Loaner.sol",
  "abi": [
    {
      "inputs": [
        {
          "internalType": "address",
          "name": "fetti_",
          "type": "address"
        }
      ],
      "stateMutability": "nonpayable",
      "type": "constructor"
    },
    {
      "anonymous": false,
      "inputs": [
        {
          "indexed": false,
          "internalType": "uint256",
          "name": "newMax_",
          "type": "uint256"
        }
      ],
      "name": "ChangedMax",
      "type": "event"
    },
    {
      "anonymous": false,
      "inputs": [
        {
          "indexed": false,
          "internalType": "address",
          "name": "borrower",
          "type": "address"
        },
        {
          "indexed": false,
          "internalType": "uint256",
          "name": "amount",
          "type": "uint256"
        }
      ],
      "name": "SentLoan",
      "type": "event"
    },
    {
      "inputs": [
        {
          "internalType": "address",
          "name": "newPool_",
          "type": "address"
        },
        {
          "internalType": "uint256",
          "name": "maxBorrow_",
          "type": "uint256"
        }
      ],
      "name": "addPool",
      "outputs": [],
      "stateMutability": "nonpayable",
      "type": "function"
    },
    {
      "inputs": [],
      "name": "getPoolLoanAmount",
      "outputs": [
        {
          "internalType": "uint256",
          "name": "",
          "type": "uint256"
        }
      ],
      "stateMutability": "view",
      "type": "function"
    },
    {
      "inputs": [],
      "name": "getPoolMax",
      "outputs": [
        {
          "internalType": "uint256",
          "name": "max",
          "type": "uint256"
        }
      ],
      "stateMutability": "view",
      "type": "function"
    },
    {
      "inputs": [],
      "name": "pendingDai",
      "outputs": [
        {
          "internalType": "uint256",
          "name": "amount",
          "type": "uint256"
        }
      ],
      "stateMutability": "view",
      "type": "function"
    },
    {
      "inputs": [],
      "name": "poolFreeDai",
      "outputs": [
        {
          "internalType": "uint256",
          "name": "",
          "type": "uint256"
        }
      ],
      "stateMutability": "view",
      "type": "function"
    },
    {
      "inputs": [
        {
          "internalType": "address payable",
          "name": "borrower_",
          "type": "address"
        },
        {
          "internalType": "uint256",
          "name": "amount_",
          "type": "uint256"
        }
      ],
      "name": "sendLoan",
      "outputs": [
        {
          "internalType": "uint256",
          "name": "",
          "type": "uint256"
        }
      ],
      "stateMutability": "nonpayable",
      "type": "function"
    },
    {
      "inputs": [
        {
          "internalType": "uint256",
          "name": "amount_",
          "type": "uint256"
        }
      ],
      "name": "sendToVault",
      "outputs": [
        {
          "internalType": "uint256",
          "name": "",
          "type": "uint256"
        }
      ],
      "stateMutability": "nonpayable",
      "type": "function"
    },
    {
      "inputs": [
        {
          "internalType": "uint256",
          "name": "newMax_",
          "type": "uint256"
        }
      ],
      "name": "setPoolMax",
      "outputs": [],
      "stateMutability": "nonpayable",
      "type": "function"
    },
    {
      "inputs": [],
      "name": "totalDai",
      "outputs": [
        {
          "internalType": "uint256",
          "name": "amount",
          "type": "uint256"
        }
      ],
      "stateMutability": "view",
      "type": "function"
    },
    {
      "inputs": [],
      "name": "totalDaiInLoaner",
      "outputs": [
        {
          "internalType": "uint256",
          "name": "assets",
          "type": "uint256"
        }
      ],
      "stateMutability": "view",
      "type": "function"
    },
    {
      "inputs": [],
      "name": "totalLoanedOut",
      "outputs": [
        {
          "internalType": "uint256",
          "name": "amount",
          "type": "uint256"
        }
      ],
      "stateMutability": "view",
      "type": "function"
    }
  ],
  "bytecode": "0x6080604052738f3cf7ad23cd3cadbd9735aff958023239c6a063600460006101000a81548173ffffffffffffffffffffffffffffffffffffffff021916908373ffffffffffffffffffffffffffffffffffffffff1602179055503480156200006657600080fd5b50604051620019513803806200195183398181016040528101906200008c91906200017e565b336000806101000a81548173ffffffffffffffffffffffffffffffffffffffff021916908373ffffffffffffffffffffffffffffffffffffffff16021790555080600160006101000a81548173ffffffffffffffffffffffffffffffffffffffff021916908373ffffffffffffffffffffffffffffffffffffffff16021790555050620001b0565b600080fd5b600073ffffffffffffffffffffffffffffffffffffffff82169050919050565b6000620001468262000119565b9050919050565b620001588162000139565b81146200016457600080fd5b50565b60008151905062000178816200014d565b92915050565b60006020828403121562000197576200019662000114565b5b6000620001a78482850162000167565b91505092915050565b61179180620001c06000396000f3fe608060405234801561001057600080fd5b50600436106100a95760003560e01c80634a72e9b6116100715780634a72e9b614610166578063606708ce1461018457806371583fae146101a2578063779da967146101c0578063d86dbf30146101dc578063e7fb0790146101fa576100a9565b8063087b8e98146100ae5780630a0d0c3f146100cc5780630f309b07146100ea5780631343a35f1461011a57806332a9caba1461014a575b600080fd5b6100b6610218565b6040516100c39190610e1d565b60405180910390f35b6100d46102b0565b6040516100e19190610e1d565b60405180910390f35b61010460048036038101906100ff9190610e69565b6102e3565b6040516101119190610e1d565b60405180910390f35b610134600480360381019061012f9190610ef4565b610416565b6040516101419190610e1d565b60405180910390f35b610164600480360381019061015f9190610f72565b6105ab565b005b61016e610685565b60405161017b9190610e1d565b60405180910390f35b61018c610728565b6040516101999190610e1d565b60405180910390f35b6101aa61085b565b6040516101b79190610e1d565b60405180910390f35b6101da60048036038101906101d59190610e69565b610865565b005b6101e461098c565b6040516101f19190610e1d565b60405180910390f35b610202610a52565b60405161020f9190610e1d565b60405180910390f35b6000600260009054906101000a900473ffffffffffffffffffffffffffffffffffffffff1673ffffffffffffffffffffffffffffffffffffffff1663e7fb07906040518163ffffffff1660e01b8152600401602060405180830381865afa158015610287573d6000803e3d6000fd5b505050506040513d601f19601f820116820180604052508101906102ab9190610fc7565b905090565b60006102ba610728565b6102c2610a52565b6102ca610685565b6102d49190611023565b6102de9190611023565b905090565b6000600160009054906101000a900473ffffffffffffffffffffffffffffffffffffffff1673ffffffffffffffffffffffffffffffffffffffff163373ffffffffffffffffffffffffffffffffffffffff1614610375576040517f08c379a000000000000000000000000000000000000000000000000000000000815260040161036c906110b4565b60405180910390fd5b8161037e610685565b10156103bf576040517f08c379a00000000000000000000000000000000000000000000000000000000081526004016103b690611146565b60405180910390fd5b61040e600460009054906101000a900473ffffffffffffffffffffffffffffffffffffffff16600160009054906101000a900473ffffffffffffffffffffffffffffffffffffffff1684610aea565b819050919050565b6000600260009054906101000a900473ffffffffffffffffffffffffffffffffffffffff1673ffffffffffffffffffffffffffffffffffffffff163373ffffffffffffffffffffffffffffffffffffffff16146104a8576040517f08c379a000000000000000000000000000000000000000000000000000000000815260040161049f906111b2565b60405180910390fd5b816104b161098c565b10156104f2576040517f08c379a00000000000000000000000000000000000000000000000000000000081526004016104e99061121e565b60405180910390fd5b816104fb610685565b101561053c576040517f08c379a000000000000000000000000000000000000000000000000000000000815260040161053390611146565b60405180910390fd5b610569600460009054906101000a900473ffffffffffffffffffffffffffffffffffffffff168484610aea565b7f6512ed3affeca45c30c02b1888a21a4180970de9dc2e4a538670fb819fad474d838360405161059a92919061129d565b60405180910390a181905092915050565b60008054906101000a900473ffffffffffffffffffffffffffffffffffffffff1673ffffffffffffffffffffffffffffffffffffffff163373ffffffffffffffffffffffffffffffffffffffff1614610639576040517f08c379a000000000000000000000000000000000000000000000000000000000815260040161063090611312565b60405180910390fd5b81600260006101000a81548173ffffffffffffffffffffffffffffffffffffffff021916908373ffffffffffffffffffffffffffffffffffffffff160217905550806003819055505050565b6000600460009054906101000a900473ffffffffffffffffffffffffffffffffffffffff1673ffffffffffffffffffffffffffffffffffffffff166370a08231306040518263ffffffff1660e01b81526004016106e29190611341565b602060405180830381865afa1580156106ff573d6000803e3d6000fd5b505050506040513d601f19601f820116820180604052508101906107239190610fc7565b905090565b6000600260009054906101000a900473ffffffffffffffffffffffffffffffffffffffff1673ffffffffffffffffffffffffffffffffffffffff16637b943d356040518163ffffffff1660e01b8152600401602060405180830381865afa158015610797573d6000803e3d6000fd5b505050506040513d601f19601f820116820180604052508101906107bb9190610fc7565b600260009054906101000a900473ffffffffffffffffffffffffffffffffffffffff1673ffffffffffffffffffffffffffffffffffffffff1663606708ce6040518163ffffffff1660e01b8152600401602060405180830381865afa158015610828573d6000803e3d6000fd5b505050506040513d601f19601f8201168201806040525081019061084c9190610fc7565b610856919061135c565b905090565b6000600354905090565b60008054906101000a900473ffffffffffffffffffffffffffffffffffffffff1673ffffffffffffffffffffffffffffffffffffffff163373ffffffffffffffffffffffffffffffffffffffff16148061090c5750600160009054906101000a900473ffffffffffffffffffffffffffffffffffffffff1673ffffffffffffffffffffffffffffffffffffffff163373ffffffffffffffffffffffffffffffffffffffff16145b61094b576040517f08c379a0000000000000000000000000000000000000000000000000000000008152600401610942906113ea565b60405180910390fd5b806003819055507f4bfee341ab8c0b1ab06c22a43c3fb95aff4e5a59043a4d6516901bdc009c17db816040516109819190610e1d565b60405180910390a150565b6000610996610685565b60035411156109ae576109a7610685565b9050610a4f565b600260009054906101000a900473ffffffffffffffffffffffffffffffffffffffff1673ffffffffffffffffffffffffffffffffffffffff1663e7fb07906040518163ffffffff1660e01b8152600401602060405180830381865afa158015610a1b573d6000803e3d6000fd5b505050506040513d601f19601f82011682018060405250810190610a3f9190610fc7565b600354610a4c919061140a565b90505b90565b6000600260009054906101000a900473ffffffffffffffffffffffffffffffffffffffff1673ffffffffffffffffffffffffffffffffffffffff1663e7fb07906040518163ffffffff1660e01b8152600401602060405180830381865afa158015610ac1573d6000803e3d6000fd5b505050506040513d601f19601f82011682018060405250810190610ae59190610fc7565b905090565b610b6b8363a9059cbb60e01b8484604051602401610b0992919061143e565b604051602081830303815290604052907bffffffffffffffffffffffffffffffffffffffffffffffffffffffff19166020820180517bffffffffffffffffffffffffffffffffffffffffffffffffffffffff8381831617835250505050610b70565b505050565b6000610bd2826040518060400160405280602081526020017f5361666545524332303a206c6f772d6c6576656c2063616c6c206661696c65648152508573ffffffffffffffffffffffffffffffffffffffff16610c379092919063ffffffff16565b9050600081511115610c325780806020019051810190610bf2919061149f565b610c31576040517f08c379a0000000000000000000000000000000000000000000000000000000008152600401610c289061153e565b60405180910390fd5b5b505050565b6060610c468484600085610c4f565b90509392505050565b606082471015610c94576040517f08c379a0000000000000000000000000000000000000000000000000000000008152600401610c8b906115d0565b60405180910390fd5b6000808673ffffffffffffffffffffffffffffffffffffffff168587604051610cbd9190611661565b60006040518083038185875af1925050503d8060008114610cfa576040519150601f19603f3d011682016040523d82523d6000602084013e610cff565b606091505b5091509150610d1087838387610d1c565b92505050949350505050565b60608315610d7e576000835103610d7657610d3685610d91565b610d75576040517f08c379a0000000000000000000000000000000000000000000000000000000008152600401610d6c906116c4565b60405180910390fd5b5b829050610d89565b610d888383610db4565b5b949350505050565b6000808273ffffffffffffffffffffffffffffffffffffffff163b119050919050565b600082511115610dc75781518083602001fd5b806040517f08c379a0000000000000000000000000000000000000000000000000000000008152600401610dfb9190611739565b60405180910390fd5b6000819050919050565b610e1781610e04565b82525050565b6000602082019050610e326000830184610e0e565b92915050565b600080fd5b610e4681610e04565b8114610e5157600080fd5b50565b600081359050610e6381610e3d565b92915050565b600060208284031215610e7f57610e7e610e38565b5b6000610e8d84828501610e54565b91505092915050565b600073ffffffffffffffffffffffffffffffffffffffff82169050919050565b6000610ec182610e96565b9050919050565b610ed181610eb6565b8114610edc57600080fd5b50565b600081359050610eee81610ec8565b92915050565b60008060408385031215610f0b57610f0a610e38565b5b6000610f1985828601610edf565b9250506020610f2a85828601610e54565b9150509250929050565b6000610f3f82610e96565b9050919050565b610f4f81610f34565b8114610f5a57600080fd5b50565b600081359050610f6c81610f46565b92915050565b60008060408385031215610f8957610f88610e38565b5b6000610f9785828601610f5d565b9250506020610fa885828601610e54565b9150509250929050565b600081519050610fc181610e3d565b92915050565b600060208284031215610fdd57610fdc610e38565b5b6000610feb84828501610fb2565b91505092915050565b7f4e487b7100000000000000000000000000000000000000000000000000000000600052601160045260246000fd5b600061102e82610e04565b915061103983610e04565b925082820190508082111561105157611050610ff4565b5b92915050565b600082825260208201905092915050565b7f6d75737420626520666574746900000000000000000000000000000000000000600082015250565b600061109e600d83611057565b91506110a982611068565b602082019050919050565b600060208201905081810360008301526110cd81611091565b9050919050565b7f446f6e2774206861766520656e6f756768207573646320696e206c6f616e657260008201527f2100000000000000000000000000000000000000000000000000000000000000602082015250565b6000611130602183611057565b915061113b826110d4565b604082019050919050565b6000602082019050818103600083015261115f81611123565b9050919050565b7f6d7573742062652074686520706f6f6c21210000000000000000000000000000600082015250565b600061119c601283611057565b91506111a782611166565b602082019050919050565b600060208201905081810360008301526111cb8161118f565b9050919050565b7f776f756c6420676f206f76657220706f6f6c206c6f616e206c696d6974000000600082015250565b6000611208601d83611057565b9150611213826111d2565b602082019050919050565b60006020820190508181036000830152611237816111fb565b9050919050565b6000819050919050565b600061126361125e61125984610e96565b61123e565b610e96565b9050919050565b600061127582611248565b9050919050565b60006112878261126a565b9050919050565b6112978161127c565b82525050565b60006040820190506112b2600083018561128e565b6112bf6020830184610e0e565b9392505050565b7f4f6e6c7920676f76212121000000000000000000000000000000000000000000600082015250565b60006112fc600b83611057565b9150611307826112c6565b602082019050919050565b6000602082019050818103600083015261132b816112ef565b9050919050565b61133b81610f34565b82525050565b60006020820190506113566000830184611332565b92915050565b600061136782610e04565b915061137283610e04565b925082820261138081610e04565b9150828204841483151761139757611396610ff4565b5b5092915050565b7f4f6e6c7920676f76206f72206665742121210000000000000000000000000000600082015250565b60006113d4601283611057565b91506113df8261139e565b602082019050919050565b60006020820190508181036000830152611403816113c7565b9050919050565b600061141582610e04565b915061142083610e04565b925082820390508181111561143857611437610ff4565b5b92915050565b60006040820190506114536000830185611332565b6114606020830184610e0e565b9392505050565b60008115159050919050565b61147c81611467565b811461148757600080fd5b50565b60008151905061149981611473565b92915050565b6000602082840312156114b5576114b4610e38565b5b60006114c38482850161148a565b91505092915050565b7f5361666545524332303a204552433230206f7065726174696f6e20646964206e60008201527f6f74207375636365656400000000000000000000000000000000000000000000602082015250565b6000611528602a83611057565b9150611533826114cc565b604082019050919050565b600060208201905081810360008301526115578161151b565b9050919050565b7f416464726573733a20696e73756666696369656e742062616c616e636520666f60008201527f722063616c6c0000000000000000000000000000000000000000000000000000602082015250565b60006115ba602683611057565b91506115c58261155e565b604082019050919050565b600060208201905081810360008301526115e9816115ad565b9050919050565b600081519050919050565b600081905092915050565b60005b83811015611624578082015181840152602081019050611609565b60008484015250505050565b600061163b826115f0565b61164581856115fb565b9350611655818560208601611606565b80840191505092915050565b600061166d8284611630565b915081905092915050565b7f416464726573733a2063616c6c20746f206e6f6e2d636f6e7472616374000000600082015250565b60006116ae601d83611057565b91506116b982611678565b602082019050919050565b600060208201905081810360008301526116dd816116a1565b9050919050565b600081519050919050565b6000601f19601f8301169050919050565b600061170b826116e4565b6117158185611057565b9350611725818560208601611606565b61172e816116ef565b840191505092915050565b600060208201905081810360008301526117538184611700565b90509291505056fea2646970667358221220dbfbdb924143cc29ec4f31c8ab55505b1c8ae648a5952d983c83ec6db62883b664736f6c63430008110033",
  "linkReferences": {},
  "deployedLinkReferences": {}
}