{
  "_format": "hh-sol-artifact-1",
  "contractName": "Loaner",
  "sourceName": "contracts/Loaner.sol",
  "abi": [
    {
      "inputs": [],
      "stateMutability": "nonpayable",
      "type": "constructor"
    },
    {
      "anonymous": false,
      "inputs": [
        {
          "indexed": false,
          "internalType": "uint256",
          "name": "newMax_",
          "type": "uint256"
        }
      ],
      "name": "ChangedMax",
      "type": "event"
    },
    {
      "anonymous": false,
      "inputs": [
        {
          "indexed": false,
          "internalType": "address",
          "name": "borrower",
          "type": "address"
        },
        {
          "indexed": false,
          "internalType": "uint256",
          "name": "amount",
          "type": "uint256"
        }
      ],
      "name": "SentLoan",
      "type": "event"
    },
    {
      "inputs": [
        {
          "internalType": "address",
          "name": "newPool_",
          "type": "address"
        },
        {
          "internalType": "uint256",
          "name": "maxBorrow_",
          "type": "uint256"
        }
      ],
      "name": "addPool",
      "outputs": [],
      "stateMutability": "nonpayable",
      "type": "function"
    },
    {
      "inputs": [],
      "name": "getPoolLoanAmount",
      "outputs": [
        {
          "internalType": "uint256",
          "name": "",
          "type": "uint256"
        }
      ],
      "stateMutability": "view",
      "type": "function"
    },
    {
      "inputs": [
        {
          "internalType": "uint256",
          "name": "poolId_",
          "type": "uint256"
        }
      ],
      "name": "getPoolMax",
      "outputs": [
        {
          "internalType": "uint256",
          "name": "max",
          "type": "uint256"
        }
      ],
      "stateMutability": "view",
      "type": "function"
    },
    {
      "inputs": [],
      "name": "poolFreeDai",
      "outputs": [
        {
          "internalType": "uint256",
          "name": "",
          "type": "uint256"
        }
      ],
      "stateMutability": "view",
      "type": "function"
    },
    {
      "inputs": [
        {
          "internalType": "address payable",
          "name": "borrower_",
          "type": "address"
        },
        {
          "internalType": "uint256",
          "name": "amount_",
          "type": "uint256"
        }
      ],
      "name": "sendLoan",
      "outputs": [
        {
          "internalType": "uint256",
          "name": "",
          "type": "uint256"
        }
      ],
      "stateMutability": "nonpayable",
      "type": "function"
    },
    {
      "inputs": [
        {
          "internalType": "uint256",
          "name": "newMax_",
          "type": "uint256"
        }
      ],
      "name": "setPoolMax",
      "outputs": [],
      "stateMutability": "nonpayable",
      "type": "function"
    },
    {
      "inputs": [],
      "name": "totalDai",
      "outputs": [
        {
          "internalType": "uint256",
          "name": "amount",
          "type": "uint256"
        }
      ],
      "stateMutability": "view",
      "type": "function"
    },
    {
      "inputs": [],
      "name": "totalDaiInLoaner",
      "outputs": [
        {
          "internalType": "uint256",
          "name": "assets",
          "type": "uint256"
        }
      ],
      "stateMutability": "view",
      "type": "function"
    },
    {
      "inputs": [],
      "name": "totalLoanedOut",
      "outputs": [
        {
          "internalType": "uint256",
          "name": "amount",
          "type": "uint256"
        }
      ],
      "stateMutability": "view",
      "type": "function"
    }
  ],
  "bytecode": "0x608060405234801561001057600080fd5b50336000806101000a81548173ffffffffffffffffffffffffffffffffffffffff021916908373ffffffffffffffffffffffffffffffffffffffff160217905550738f3cf7ad23cd3cadbd9735aff958023239c6a063600360006101000a81548173ffffffffffffffffffffffffffffffffffffffff021916908373ffffffffffffffffffffffffffffffffffffffff160217905550611357806100b56000396000f3fe608060405234801561001057600080fd5b50600436106100935760003560e01c80634a72e9b6116100665780634a72e9b614610120578063779da9671461013e578063a06914631461015a578063d86dbf301461018a578063e7fb0790146101a857610093565b8063087b8e98146100985780630a0d0c3f146100b65780631343a35f146100d457806332a9caba14610104575b600080fd5b6100a06101c6565b6040516100ad9190610afd565b60405180910390f35b6100be61025e565b6040516100cb9190610afd565b60405180910390f35b6100ee60048036038101906100e99190610ba7565b61027f565b6040516100fb9190610afd565b60405180910390f35b61011e60048036038101906101199190610c25565b610414565b005b6101286104ee565b6040516101359190610afd565b60405180910390f35b61015860048036038101906101539190610c65565b610591565b005b610174600480360381019061016f9190610c65565b610660565b6040516101819190610afd565b60405180910390f35b61019261066c565b60405161019f9190610afd565b60405180910390f35b6101b0610732565b6040516101bd9190610afd565b60405180910390f35b6000600160009054906101000a900473ffffffffffffffffffffffffffffffffffffffff1673ffffffffffffffffffffffffffffffffffffffff1663e7fb07906040518163ffffffff1660e01b8152600401602060405180830381865afa158015610235573d6000803e3d6000fd5b505050506040513d601f19601f820116820180604052508101906102599190610ca7565b905090565b6000610268610732565b6102706104ee565b61027a9190610d03565b905090565b6000600160009054906101000a900473ffffffffffffffffffffffffffffffffffffffff1673ffffffffffffffffffffffffffffffffffffffff163373ffffffffffffffffffffffffffffffffffffffff1614610311576040517f08c379a000000000000000000000000000000000000000000000000000000000815260040161030890610d94565b60405180910390fd5b8161031a61066c565b101561035b576040517f08c379a000000000000000000000000000000000000000000000000000000000815260040161035290610e00565b60405180910390fd5b816103646104ee565b10156103a5576040517f08c379a000000000000000000000000000000000000000000000000000000000815260040161039c90610e92565b60405180910390fd5b6103d2600360009054906101000a900473ffffffffffffffffffffffffffffffffffffffff1684846107ca565b7f6512ed3affeca45c30c02b1888a21a4180970de9dc2e4a538670fb819fad474d8383604051610403929190610f11565b60405180910390a181905092915050565b60008054906101000a900473ffffffffffffffffffffffffffffffffffffffff1673ffffffffffffffffffffffffffffffffffffffff163373ffffffffffffffffffffffffffffffffffffffff16146104a2576040517f08c379a000000000000000000000000000000000000000000000000000000000815260040161049990610f86565b60405180910390fd5b81600160006101000a81548173ffffffffffffffffffffffffffffffffffffffff021916908373ffffffffffffffffffffffffffffffffffffffff160217905550806002819055505050565b6000600360009054906101000a900473ffffffffffffffffffffffffffffffffffffffff1673ffffffffffffffffffffffffffffffffffffffff166370a08231306040518263ffffffff1660e01b815260040161054b9190610fb5565b602060405180830381865afa158015610568573d6000803e3d6000fd5b505050506040513d601f19601f8201168201806040525081019061058c9190610ca7565b905090565b60008054906101000a900473ffffffffffffffffffffffffffffffffffffffff1673ffffffffffffffffffffffffffffffffffffffff163373ffffffffffffffffffffffffffffffffffffffff161461061f576040517f08c379a000000000000000000000000000000000000000000000000000000000815260040161061690610f86565b60405180910390fd5b806002819055507f4bfee341ab8c0b1ab06c22a43c3fb95aff4e5a59043a4d6516901bdc009c17db816040516106559190610afd565b60405180910390a150565b60006002549050919050565b60006106766104ee565b600254111561068e576106876104ee565b905061072f565b600160009054906101000a900473ffffffffffffffffffffffffffffffffffffffff1673ffffffffffffffffffffffffffffffffffffffff1663e7fb07906040518163ffffffff1660e01b8152600401602060405180830381865afa1580156106fb573d6000803e3d6000fd5b505050506040513d601f19601f8201168201806040525081019061071f9190610ca7565b60025461072c9190610fd0565b90505b90565b6000600160009054906101000a900473ffffffffffffffffffffffffffffffffffffffff1673ffffffffffffffffffffffffffffffffffffffff1663e7fb07906040518163ffffffff1660e01b8152600401602060405180830381865afa1580156107a1573d6000803e3d6000fd5b505050506040513d601f19601f820116820180604052508101906107c59190610ca7565b905090565b61084b8363a9059cbb60e01b84846040516024016107e9929190611004565b604051602081830303815290604052907bffffffffffffffffffffffffffffffffffffffffffffffffffffffff19166020820180517bffffffffffffffffffffffffffffffffffffffffffffffffffffffff8381831617835250505050610850565b505050565b60006108b2826040518060400160405280602081526020017f5361666545524332303a206c6f772d6c6576656c2063616c6c206661696c65648152508573ffffffffffffffffffffffffffffffffffffffff166109179092919063ffffffff16565b905060008151111561091257808060200190518101906108d29190611065565b610911576040517f08c379a000000000000000000000000000000000000000000000000000000000815260040161090890611104565b60405180910390fd5b5b505050565b6060610926848460008561092f565b90509392505050565b606082471015610974576040517f08c379a000000000000000000000000000000000000000000000000000000000815260040161096b90611196565b60405180910390fd5b6000808673ffffffffffffffffffffffffffffffffffffffff16858760405161099d9190611227565b60006040518083038185875af1925050503d80600081146109da576040519150601f19603f3d011682016040523d82523d6000602084013e6109df565b606091505b50915091506109f0878383876109fc565b92505050949350505050565b60608315610a5e576000835103610a5657610a1685610a71565b610a55576040517f08c379a0000000000000000000000000000000000000000000000000000000008152600401610a4c9061128a565b60405180910390fd5b5b829050610a69565b610a688383610a94565b5b949350505050565b6000808273ffffffffffffffffffffffffffffffffffffffff163b119050919050565b600082511115610aa75781518083602001fd5b806040517f08c379a0000000000000000000000000000000000000000000000000000000008152600401610adb91906112ff565b60405180910390fd5b6000819050919050565b610af781610ae4565b82525050565b6000602082019050610b126000830184610aee565b92915050565b600080fd5b600073ffffffffffffffffffffffffffffffffffffffff82169050919050565b6000610b4882610b1d565b9050919050565b610b5881610b3d565b8114610b6357600080fd5b50565b600081359050610b7581610b4f565b92915050565b610b8481610ae4565b8114610b8f57600080fd5b50565b600081359050610ba181610b7b565b92915050565b60008060408385031215610bbe57610bbd610b18565b5b6000610bcc85828601610b66565b9250506020610bdd85828601610b92565b9150509250929050565b6000610bf282610b1d565b9050919050565b610c0281610be7565b8114610c0d57600080fd5b50565b600081359050610c1f81610bf9565b92915050565b60008060408385031215610c3c57610c3b610b18565b5b6000610c4a85828601610c10565b9250506020610c5b85828601610b92565b9150509250929050565b600060208284031215610c7b57610c7a610b18565b5b6000610c8984828501610b92565b91505092915050565b600081519050610ca181610b7b565b92915050565b600060208284031215610cbd57610cbc610b18565b5b6000610ccb84828501610c92565b91505092915050565b7f4e487b7100000000000000000000000000000000000000000000000000000000600052601160045260246000fd5b6000610d0e82610ae4565b9150610d1983610ae4565b9250828201905080821115610d3157610d30610cd4565b5b92915050565b600082825260208201905092915050565b7f6d7573742062652074686520706f6f6c21210000000000000000000000000000600082015250565b6000610d7e601283610d37565b9150610d8982610d48565b602082019050919050565b60006020820190508181036000830152610dad81610d71565b9050919050565b7f776f756c6420676f206f76657220706f6f6c206c6f616e206c696d6974000000600082015250565b6000610dea601d83610d37565b9150610df582610db4565b602082019050919050565b60006020820190508181036000830152610e1981610ddd565b9050919050565b7f446f6e2774206861766520656e6f756768207573646320696e206c6f616e657260008201527f2100000000000000000000000000000000000000000000000000000000000000602082015250565b6000610e7c602183610d37565b9150610e8782610e20565b604082019050919050565b60006020820190508181036000830152610eab81610e6f565b9050919050565b6000819050919050565b6000610ed7610ed2610ecd84610b1d565b610eb2565b610b1d565b9050919050565b6000610ee982610ebc565b9050919050565b6000610efb82610ede565b9050919050565b610f0b81610ef0565b82525050565b6000604082019050610f266000830185610f02565b610f336020830184610aee565b9392505050565b7f4f6e6c7920676f76212121000000000000000000000000000000000000000000600082015250565b6000610f70600b83610d37565b9150610f7b82610f3a565b602082019050919050565b60006020820190508181036000830152610f9f81610f63565b9050919050565b610faf81610be7565b82525050565b6000602082019050610fca6000830184610fa6565b92915050565b6000610fdb82610ae4565b9150610fe683610ae4565b9250828203905081811115610ffe57610ffd610cd4565b5b92915050565b60006040820190506110196000830185610fa6565b6110266020830184610aee565b9392505050565b60008115159050919050565b6110428161102d565b811461104d57600080fd5b50565b60008151905061105f81611039565b92915050565b60006020828403121561107b5761107a610b18565b5b600061108984828501611050565b91505092915050565b7f5361666545524332303a204552433230206f7065726174696f6e20646964206e60008201527f6f74207375636365656400000000000000000000000000000000000000000000602082015250565b60006110ee602a83610d37565b91506110f982611092565b604082019050919050565b6000602082019050818103600083015261111d816110e1565b9050919050565b7f416464726573733a20696e73756666696369656e742062616c616e636520666f60008201527f722063616c6c0000000000000000000000000000000000000000000000000000602082015250565b6000611180602683610d37565b915061118b82611124565b604082019050919050565b600060208201905081810360008301526111af81611173565b9050919050565b600081519050919050565b600081905092915050565b60005b838110156111ea5780820151818401526020810190506111cf565b60008484015250505050565b6000611201826111b6565b61120b81856111c1565b935061121b8185602086016111cc565b80840191505092915050565b600061123382846111f6565b915081905092915050565b7f416464726573733a2063616c6c20746f206e6f6e2d636f6e7472616374000000600082015250565b6000611274601d83610d37565b915061127f8261123e565b602082019050919050565b600060208201905081810360008301526112a381611267565b9050919050565b600081519050919050565b6000601f19601f8301169050919050565b60006112d1826112aa565b6112db8185610d37565b93506112eb8185602086016111cc565b6112f4816112b5565b840191505092915050565b6000602082019050818103600083015261131981846112c6565b90509291505056fea2646970667358221220d000c9d8e44b1504efd20087d0cad50c60f851e0a7405e9bc7b7ae923414898f64736f6c63430008110033",
  "linkReferences": {},
  "deployedLinkReferences": {}
}