{
  "_format": "hh-sol-artifact-1",
  "contractName": "FettiERC20",
  "sourceName": "contracts/FettiERC20.sol",
  "abi": [
    {
      "inputs": [],
      "stateMutability": "nonpayable",
      "type": "constructor"
    },
    {
      "anonymous": false,
      "inputs": [
        {
          "indexed": true,
          "internalType": "address",
          "name": "owner",
          "type": "address"
        },
        {
          "indexed": true,
          "internalType": "address",
          "name": "spender",
          "type": "address"
        },
        {
          "indexed": false,
          "internalType": "uint256",
          "name": "value",
          "type": "uint256"
        }
      ],
      "name": "Approval",
      "type": "event"
    },
    {
      "anonymous": false,
      "inputs": [
        {
          "indexed": true,
          "internalType": "address",
          "name": "sender",
          "type": "address"
        },
        {
          "indexed": true,
          "internalType": "address",
          "name": "owner",
          "type": "address"
        },
        {
          "indexed": false,
          "internalType": "uint256",
          "name": "assets",
          "type": "uint256"
        },
        {
          "indexed": false,
          "internalType": "uint256",
          "name": "shares",
          "type": "uint256"
        }
      ],
      "name": "Deposit",
      "type": "event"
    },
    {
      "anonymous": false,
      "inputs": [
        {
          "indexed": false,
          "internalType": "uint256",
          "name": "x",
          "type": "uint256"
        },
        {
          "indexed": false,
          "internalType": "uint256",
          "name": "y",
          "type": "uint256"
        }
      ],
      "name": "Test",
      "type": "event"
    },
    {
      "anonymous": false,
      "inputs": [
        {
          "indexed": true,
          "internalType": "address",
          "name": "from",
          "type": "address"
        },
        {
          "indexed": true,
          "internalType": "address",
          "name": "to",
          "type": "address"
        },
        {
          "indexed": false,
          "internalType": "uint256",
          "name": "value",
          "type": "uint256"
        }
      ],
      "name": "Transfer",
      "type": "event"
    },
    {
      "anonymous": false,
      "inputs": [
        {
          "indexed": true,
          "internalType": "address",
          "name": "sender",
          "type": "address"
        },
        {
          "indexed": true,
          "internalType": "address",
          "name": "receiver",
          "type": "address"
        },
        {
          "indexed": true,
          "internalType": "address",
          "name": "owner",
          "type": "address"
        },
        {
          "indexed": false,
          "internalType": "uint256",
          "name": "assets",
          "type": "uint256"
        },
        {
          "indexed": false,
          "internalType": "uint256",
          "name": "shares",
          "type": "uint256"
        }
      ],
      "name": "Withdraw",
      "type": "event"
    },
    {
      "inputs": [],
      "name": "_currEpoc",
      "outputs": [
        {
          "internalType": "uint256",
          "name": "",
          "type": "uint256"
        }
      ],
      "stateMutability": "view",
      "type": "function"
    },
    {
      "inputs": [],
      "name": "_doSync",
      "outputs": [
        {
          "internalType": "uint256",
          "name": "",
          "type": "uint256"
        }
      ],
      "stateMutability": "nonpayable",
      "type": "function"
    },
    {
      "inputs": [],
      "name": "_epocBurnRate",
      "outputs": [
        {
          "internalType": "uint256",
          "name": "",
          "type": "uint256"
        }
      ],
      "stateMutability": "view",
      "type": "function"
    },
    {
      "inputs": [],
      "name": "_epocLength",
      "outputs": [
        {
          "internalType": "uint256",
          "name": "",
          "type": "uint256"
        }
      ],
      "stateMutability": "view",
      "type": "function"
    },
    {
      "inputs": [],
      "name": "_epocStartTime",
      "outputs": [
        {
          "internalType": "uint256",
          "name": "",
          "type": "uint256"
        }
      ],
      "stateMutability": "view",
      "type": "function"
    },
    {
      "inputs": [],
      "name": "_epocWidthdrawWait",
      "outputs": [
        {
          "internalType": "uint256",
          "name": "",
          "type": "uint256"
        }
      ],
      "stateMutability": "view",
      "type": "function"
    },
    {
      "inputs": [
        {
          "internalType": "address",
          "name": "",
          "type": "address"
        }
      ],
      "name": "_requestedWidthdraws",
      "outputs": [
        {
          "internalType": "uint256",
          "name": "epocPlaced",
          "type": "uint256"
        },
        {
          "internalType": "uint256",
          "name": "daiToSend",
          "type": "uint256"
        },
        {
          "internalType": "uint256",
          "name": "liqToBurn",
          "type": "uint256"
        },
        {
          "internalType": "address",
          "name": "sendTo",
          "type": "address"
        }
      ],
      "stateMutability": "view",
      "type": "function"
    },
    {
      "inputs": [],
      "name": "_totalRequested",
      "outputs": [
        {
          "internalType": "uint256",
          "name": "",
          "type": "uint256"
        }
      ],
      "stateMutability": "view",
      "type": "function"
    },
    {
      "inputs": [
        {
          "internalType": "address",
          "name": "owner",
          "type": "address"
        },
        {
          "internalType": "address",
          "name": "spender",
          "type": "address"
        }
      ],
      "name": "allowance",
      "outputs": [
        {
          "internalType": "uint256",
          "name": "",
          "type": "uint256"
        }
      ],
      "stateMutability": "view",
      "type": "function"
    },
    {
      "inputs": [
        {
          "internalType": "address",
          "name": "spender",
          "type": "address"
        },
        {
          "internalType": "uint256",
          "name": "amount",
          "type": "uint256"
        }
      ],
      "name": "approve",
      "outputs": [
        {
          "internalType": "bool",
          "name": "",
          "type": "bool"
        }
      ],
      "stateMutability": "nonpayable",
      "type": "function"
    },
    {
      "inputs": [],
      "name": "asset",
      "outputs": [
        {
          "internalType": "address",
          "name": "assetTokenAddress",
          "type": "address"
        }
      ],
      "stateMutability": "view",
      "type": "function"
    },
    {
      "inputs": [
        {
          "internalType": "address",
          "name": "account",
          "type": "address"
        }
      ],
      "name": "balanceOf",
      "outputs": [
        {
          "internalType": "uint256",
          "name": "",
          "type": "uint256"
        }
      ],
      "stateMutability": "view",
      "type": "function"
    },
    {
      "inputs": [
        {
          "internalType": "uint256",
          "name": "shares",
          "type": "uint256"
        }
      ],
      "name": "convertToAssets",
      "outputs": [
        {
          "internalType": "uint256",
          "name": "assets",
          "type": "uint256"
        }
      ],
      "stateMutability": "view",
      "type": "function"
    },
    {
      "inputs": [
        {
          "internalType": "uint256",
          "name": "assets",
          "type": "uint256"
        }
      ],
      "name": "convertToShares",
      "outputs": [
        {
          "internalType": "uint256",
          "name": "shares",
          "type": "uint256"
        }
      ],
      "stateMutability": "view",
      "type": "function"
    },
    {
      "inputs": [],
      "name": "decimals",
      "outputs": [
        {
          "internalType": "uint8",
          "name": "",
          "type": "uint8"
        }
      ],
      "stateMutability": "pure",
      "type": "function"
    },
    {
      "inputs": [
        {
          "internalType": "address",
          "name": "spender",
          "type": "address"
        },
        {
          "internalType": "uint256",
          "name": "subtractedValue",
          "type": "uint256"
        }
      ],
      "name": "decreaseAllowance",
      "outputs": [
        {
          "internalType": "bool",
          "name": "",
          "type": "bool"
        }
      ],
      "stateMutability": "nonpayable",
      "type": "function"
    },
    {
      "inputs": [
        {
          "internalType": "uint256",
          "name": "assets",
          "type": "uint256"
        },
        {
          "internalType": "address",
          "name": "receiver",
          "type": "address"
        }
      ],
      "name": "deposit",
      "outputs": [
        {
          "internalType": "uint256",
          "name": "shares",
          "type": "uint256"
        }
      ],
      "stateMutability": "nonpayable",
      "type": "function"
    },
    {
      "inputs": [
        {
          "internalType": "address",
          "name": "spender",
          "type": "address"
        },
        {
          "internalType": "uint256",
          "name": "addedValue",
          "type": "uint256"
        }
      ],
      "name": "increaseAllowance",
      "outputs": [
        {
          "internalType": "bool",
          "name": "",
          "type": "bool"
        }
      ],
      "stateMutability": "nonpayable",
      "type": "function"
    },
    {
      "inputs": [
        {
          "internalType": "address",
          "name": "",
          "type": "address"
        }
      ],
      "name": "maxDeposit",
      "outputs": [
        {
          "internalType": "uint256",
          "name": "maxAssets",
          "type": "uint256"
        }
      ],
      "stateMutability": "view",
      "type": "function"
    },
    {
      "inputs": [
        {
          "internalType": "address",
          "name": "",
          "type": "address"
        }
      ],
      "name": "maxMint",
      "outputs": [
        {
          "internalType": "uint256",
          "name": "maxShares",
          "type": "uint256"
        }
      ],
      "stateMutability": "pure",
      "type": "function"
    },
    {
      "inputs": [
        {
          "internalType": "address",
          "name": "owner",
          "type": "address"
        }
      ],
      "name": "maxRedeem",
      "outputs": [
        {
          "internalType": "uint256",
          "name": "maxShares",
          "type": "uint256"
        }
      ],
      "stateMutability": "view",
      "type": "function"
    },
    {
      "inputs": [
        {
          "internalType": "address",
          "name": "owner",
          "type": "address"
        }
      ],
      "name": "maxWithdraw",
      "outputs": [
        {
          "internalType": "uint256",
          "name": "maxAssets",
          "type": "uint256"
        }
      ],
      "stateMutability": "view",
      "type": "function"
    },
    {
      "inputs": [
        {
          "internalType": "uint256",
          "name": "shares",
          "type": "uint256"
        },
        {
          "internalType": "address",
          "name": "receiver",
          "type": "address"
        }
      ],
      "name": "mint",
      "outputs": [
        {
          "internalType": "uint256",
          "name": "assets",
          "type": "uint256"
        }
      ],
      "stateMutability": "nonpayable",
      "type": "function"
    },
    {
      "inputs": [],
      "name": "name",
      "outputs": [
        {
          "internalType": "string",
          "name": "",
          "type": "string"
        }
      ],
      "stateMutability": "view",
      "type": "function"
    },
    {
      "inputs": [
        {
          "internalType": "uint256",
          "name": "assets",
          "type": "uint256"
        }
      ],
      "name": "previewDeposit",
      "outputs": [
        {
          "internalType": "uint256",
          "name": "shares",
          "type": "uint256"
        }
      ],
      "stateMutability": "view",
      "type": "function"
    },
    {
      "inputs": [
        {
          "internalType": "uint256",
          "name": "shares",
          "type": "uint256"
        }
      ],
      "name": "previewMint",
      "outputs": [
        {
          "internalType": "uint256",
          "name": "assets",
          "type": "uint256"
        }
      ],
      "stateMutability": "view",
      "type": "function"
    },
    {
      "inputs": [
        {
          "internalType": "uint256",
          "name": "shares",
          "type": "uint256"
        }
      ],
      "name": "previewRedeem",
      "outputs": [
        {
          "internalType": "uint256",
          "name": "assets",
          "type": "uint256"
        }
      ],
      "stateMutability": "view",
      "type": "function"
    },
    {
      "inputs": [
        {
          "internalType": "uint256",
          "name": "assets",
          "type": "uint256"
        }
      ],
      "name": "previewWithdraw",
      "outputs": [
        {
          "internalType": "uint256",
          "name": "shares",
          "type": "uint256"
        }
      ],
      "stateMutability": "view",
      "type": "function"
    },
    {
      "inputs": [
        {
          "internalType": "uint256",
          "name": "shares",
          "type": "uint256"
        },
        {
          "internalType": "address",
          "name": "receiver",
          "type": "address"
        },
        {
          "internalType": "address",
          "name": "owner",
          "type": "address"
        }
      ],
      "name": "redeem",
      "outputs": [
        {
          "internalType": "uint256",
          "name": "assets",
          "type": "uint256"
        }
      ],
      "stateMutability": "nonpayable",
      "type": "function"
    },
    {
      "inputs": [
        {
          "internalType": "uint256",
          "name": "amount_",
          "type": "uint256"
        },
        {
          "internalType": "address",
          "name": "sendTo_",
          "type": "address"
        }
      ],
      "name": "requestWidthdraw",
      "outputs": [],
      "stateMutability": "nonpayable",
      "type": "function"
    },
    {
      "inputs": [
        {
          "internalType": "address",
          "name": "loaner_",
          "type": "address"
        }
      ],
      "name": "setLoaner",
      "outputs": [
        {
          "internalType": "contract ILoaner",
          "name": "loaner",
          "type": "address"
        }
      ],
      "stateMutability": "nonpayable",
      "type": "function"
    },
    {
      "inputs": [
        {
          "internalType": "address",
          "name": "vault_",
          "type": "address"
        }
      ],
      "name": "setVault",
      "outputs": [
        {
          "internalType": "contract IVault",
          "name": "vault",
          "type": "address"
        }
      ],
      "stateMutability": "nonpayable",
      "type": "function"
    },
    {
      "inputs": [],
      "name": "symbol",
      "outputs": [
        {
          "internalType": "string",
          "name": "",
          "type": "string"
        }
      ],
      "stateMutability": "view",
      "type": "function"
    },
    {
      "inputs": [],
      "name": "totalAssets",
      "outputs": [
        {
          "internalType": "uint256",
          "name": "totalManagedAssets",
          "type": "uint256"
        }
      ],
      "stateMutability": "view",
      "type": "function"
    },
    {
      "inputs": [],
      "name": "totalDaiInVault",
      "outputs": [
        {
          "internalType": "uint256",
          "name": "totalManagedAssets",
          "type": "uint256"
        }
      ],
      "stateMutability": "view",
      "type": "function"
    },
    {
      "inputs": [],
      "name": "totalSupply",
      "outputs": [
        {
          "internalType": "uint256",
          "name": "",
          "type": "uint256"
        }
      ],
      "stateMutability": "view",
      "type": "function"
    },
    {
      "inputs": [
        {
          "internalType": "address",
          "name": "to",
          "type": "address"
        },
        {
          "internalType": "uint256",
          "name": "amount",
          "type": "uint256"
        }
      ],
      "name": "transfer",
      "outputs": [
        {
          "internalType": "bool",
          "name": "",
          "type": "bool"
        }
      ],
      "stateMutability": "nonpayable",
      "type": "function"
    },
    {
      "inputs": [
        {
          "internalType": "address",
          "name": "from",
          "type": "address"
        },
        {
          "internalType": "address",
          "name": "to",
          "type": "address"
        },
        {
          "internalType": "uint256",
          "name": "amount",
          "type": "uint256"
        }
      ],
      "name": "transferFrom",
      "outputs": [
        {
          "internalType": "bool",
          "name": "",
          "type": "bool"
        }
      ],
      "stateMutability": "nonpayable",
      "type": "function"
    },
    {
      "inputs": [
        {
          "internalType": "uint256",
          "name": "assets",
          "type": "uint256"
        },
        {
          "internalType": "address",
          "name": "receiver",
          "type": "address"
        },
        {
          "internalType": "address",
          "name": "owner",
          "type": "address"
        }
      ],
      "name": "withdraw",
      "outputs": [
        {
          "internalType": "uint256",
          "name": "shares",
          "type": "uint256"
        }
      ],
      "stateMutability": "nonpayable",
      "type": "function"
    }
  ],
  "bytecode": "0x60a06040523480156200001157600080fd5b506040518060400160405280600581526020017f66657474690000000000000000000000000000000000000000000000000000008152506040518060400160405280600381526020017f464554000000000000000000000000000000000000000000000000000000000081525081600390816200008f9190620003dc565b508060049081620000a19190620003dc565b50505033600c60006101000a81548173ffffffffffffffffffffffffffffffffffffffff021916908373ffffffffffffffffffffffffffffffffffffffff160217905550738f3cf7ad23cd3cadbd9735aff958023239c6a06373ffffffffffffffffffffffffffffffffffffffff1660808173ffffffffffffffffffffffffffffffffffffffff168152505060016006819055506000600781905550426008819055506000600981905550603c600a819055506002600b81905550620004c3565b600081519050919050565b7f4e487b7100000000000000000000000000000000000000000000000000000000600052604160045260246000fd5b7f4e487b7100000000000000000000000000000000000000000000000000000000600052602260045260246000fd5b60006002820490506001821680620001e457607f821691505b602082108103620001fa57620001f96200019c565b5b50919050565b60008190508160005260206000209050919050565b60006020601f8301049050919050565b600082821b905092915050565b600060088302620002647fffffffffffffffffffffffffffffffffffffffffffffffffffffffffffffffff8262000225565b62000270868362000225565b95508019841693508086168417925050509392505050565b6000819050919050565b6000819050919050565b6000620002bd620002b7620002b18462000288565b62000292565b62000288565b9050919050565b6000819050919050565b620002d9836200029c565b620002f1620002e882620002c4565b84845462000232565b825550505050565b600090565b62000308620002f9565b62000315818484620002ce565b505050565b5b818110156200033d5762000331600082620002fe565b6001810190506200031b565b5050565b601f8211156200038c57620003568162000200565b620003618462000215565b8101602085101562000371578190505b62000389620003808562000215565b8301826200031a565b50505b505050565b600082821c905092915050565b6000620003b16000198460080262000391565b1980831691505092915050565b6000620003cc83836200039e565b9150826002028217905092915050565b620003e78262000162565b67ffffffffffffffff8111156200040357620004026200016d565b5b6200040f8254620001cb565b6200041c82828562000341565b600060209050601f8311600181146200045457600084156200043f578287015190505b6200044b8582620003be565b865550620004bb565b601f198416620004648662000200565b60005b828110156200048e5784890151825560018201915060208501945060208101905062000467565b86831015620004ae5784890151620004aa601f8916826200039e565b8355505b6001600288020188555050505b505050505050565b6080516146546200051760003960008181610a8501528181610b4501528181610e5d0152818161106b015281816111d8015281816115e801528181611a1801528181611cb7015261288001526146546000f3fe608060405234801561001057600080fd5b506004361061023d5760003560e01c806394bf804d1161013b578063ba087652116100b8578063ce96cb771161007c578063ce96cb7714610795578063d905777e146107c5578063dd62ed3e146107f5578063ef8b30f714610825578063f4027274146108555761023d565b8063ba087652146106c9578063ba8fba48146106f9578063c47ea8f614610717578063c63d75b614610735578063c6e6f592146107655761023d565b8063a93838bb116100ff578063a93838bb1461060f578063ae18a2ab1461062d578063b3d7f6b91461064b578063b460af941461067b578063b4f88ffc146106ab5761023d565b806394bf804d1461054357806395d89b41146105735780639d41f47114610591578063a457c2d7146105af578063a9059cbb146105df5761023d565b806338d52e0f116101c9578063672b5ad21161018d578063672b5ad2146104625780636817031b146104955780636e553f65146104c557806370a08231146104f55780638b1ce19e146105255761023d565b806338d52e0f1461039857806339509351146103b6578063402d267d146103e65780634cdad506146104165780635af06ba7146104465761023d565b80630a28a477116102105780630a28a477146102de578063169921b01461030e57806318160ddd1461032c57806323b872dd1461034a578063313ce5671461037a5761023d565b806301e1d1141461024257806306fdde031461026057806307a2d13a1461027e578063095ea7b3146102ae575b600080fd5b61024a610885565b6040516102579190613278565b60405180910390f35b61026861091d565b6040516102759190613323565b60405180910390f35b61029860048036038101906102939190613376565b6109af565b6040516102a59190613278565b60405180910390f35b6102c860048036038101906102c39190613401565b6109c3565b6040516102d5919061345c565b60405180910390f35b6102f860048036038101906102f39190613376565b6109e6565b6040516103059190613278565b60405180910390f35b6103166109fa565b6040516103239190613278565b60405180910390f35b610334611192565b6040516103419190613278565b60405180910390f35b610364600480360381019061035f9190613477565b61119c565b604051610371919061345c565b60405180910390f35b6103826111cb565b60405161038f91906134e6565b60405180910390f35b6103a06111d4565b6040516103ad9190613510565b60405180910390f35b6103d060048036038101906103cb9190613401565b6111fc565b6040516103dd919061345c565b60405180910390f35b61040060048036038101906103fb919061352b565b611233565b60405161040d9190613278565b60405180910390f35b610430600480360381019061042b9190613376565b611271565b60405161043d9190613278565b60405180910390f35b610460600480360381019061045b9190613558565b611285565b005b61047c6004803603810190610477919061352b565b61144b565b60405161048c9493929190613598565b60405180910390f35b6104af60048036038101906104aa919061352b565b61149b565b6040516104bc919061363c565b60405180910390f35b6104df60048036038101906104da9190613558565b611598565b6040516104ec9190613278565b60405180910390f35b61050f600480360381019061050a919061352b565b6116e8565b60405161051c9190613278565b60405180910390f35b61052d611730565b60405161053a9190613278565b60405180910390f35b61055d60048036038101906105589190613558565b611736565b60405161056a9190613278565b60405180910390f35b61057b6117aa565b6040516105889190613323565b60405180910390f35b61059961183c565b6040516105a69190613278565b60405180910390f35b6105c960048036038101906105c49190613401565b611842565b6040516105d6919061345c565b60405180910390f35b6105f960048036038101906105f49190613401565b6118b9565b604051610606919061345c565b60405180910390f35b6106176118dc565b6040516106249190613278565b60405180910390f35b6106356118e2565b6040516106429190613278565b60405180910390f35b61066560048036038101906106609190613376565b6118e8565b6040516106729190613278565b60405180910390f35b61069560048036038101906106909190613657565b6118fc565b6040516106a29190613278565b60405180910390f35b6106b3611b95565b6040516106c09190613278565b60405180910390f35b6106e360048036038101906106de9190613657565b611b9b565b6040516106f09190613278565b60405180910390f35b610701611e37565b60405161070e9190613278565b60405180910390f35b61071f611ecf565b60405161072c9190613278565b60405180910390f35b61074f600480360381019061074a919061352b565b611ed5565b60405161075c9190613278565b60405180910390f35b61077f600480360381019061077a9190613376565b611eff565b60405161078c9190613278565b60405180910390f35b6107af60048036038101906107aa919061352b565b611f13565b6040516107bc9190613278565b60405180910390f35b6107df60048036038101906107da919061352b565b611fdd565b6040516107ec9190613278565b60405180910390f35b61080f600480360381019061080a91906136aa565b6120bb565b60405161081c9190613278565b60405180910390f35b61083f600480360381019061083a9190613376565b612142565b60405161084c9190613278565b60405180910390f35b61086f600480360381019061086a919061352b565b612156565b60405161087c919061370b565b60405180910390f35b6000600d60009054906101000a900473ffffffffffffffffffffffffffffffffffffffff1673ffffffffffffffffffffffffffffffffffffffff16630a0d0c3f6040518163ffffffff1660e01b8152600401602060405180830381865afa1580156108f4573d6000803e3d6000fd5b505050506040513d601f19601f82011682018060405250810190610918919061373b565b905090565b60606003805461092c90613797565b80601f016020809104026020016040519081016040528092919081815260200182805461095890613797565b80156109a55780601f1061097a576101008083540402835291602001916109a5565b820191906000526020600020905b81548152906001019060200180831161098857829003601f168201915b5050505050905090565b60006109bc826000612253565b9050919050565b6000806109ce61229f565b90506109db8185856122a7565b600191505092915050565b60006109f3826001612470565b9050919050565b6000600a54600854610a0c91906137f7565b4210611189576000610a1c611192565b03610a2e576000600781905550610a62565b610a36611192565b670de0b6b3a7640000610a47610885565b610a51919061382b565b610a5b919061389c565b6007819055505b4260088190555060066000815480929190610a7c906138cd565b919050555060007f000000000000000000000000000000000000000000000000000000000000000073ffffffffffffffffffffffffffffffffffffffff166370a08231600d60009054906101000a900473ffffffffffffffffffffffffffffffffffffffff166040518263ffffffff1660e01b8152600401610afe9190613510565b602060405180830381865afa158015610b1b573d6000803e3d6000fd5b505050506040513d601f19601f82011682018060405250810190610b3f919061373b565b905060007f000000000000000000000000000000000000000000000000000000000000000073ffffffffffffffffffffffffffffffffffffffff166370a08231600e60009054906101000a900473ffffffffffffffffffffffffffffffffffffffff166040518263ffffffff1660e01b8152600401610bbe9190613510565b602060405180830381865afa158015610bdb573d6000803e3d6000fd5b505050506040513d601f19601f82011682018060405250810190610bff919061373b565b9050816009541115610f71578082610c1791906137f7565b6009541115610d7157600b6000815480929190610c33906138cd565b9190505550600e60009054906101000a900473ffffffffffffffffffffffffffffffffffffffff1673ffffffffffffffffffffffffffffffffffffffff16630f309b07826040518263ffffffff1660e01b8152600401610c939190613278565b6020604051808303816000875af1158015610cb2573d6000803e3d6000fd5b505050506040513d601f19601f82011682018060405250810190610cd6919061373b565b50600e60009054906101000a900473ffffffffffffffffffffffffffffffffffffffff1673ffffffffffffffffffffffffffffffffffffffff1663779da96760006040518263ffffffff1660e01b8152600401610d339190613950565b600060405180830381600087803b158015610d4d57600080fd5b505af1158015610d61573d6000803e3d6000fd5b505050506006549250505061118f565b600e60009054906101000a900473ffffffffffffffffffffffffffffffffffffffff1673ffffffffffffffffffffffffffffffffffffffff16630f309b0783600954610dbd919061396b565b6040518263ffffffff1660e01b8152600401610dd99190613278565b6020604051808303816000875af1158015610df8573d6000803e3d6000fd5b505050506040513d601f19601f82011682018060405250810190610e1c919061373b565b50600e60009054906101000a900473ffffffffffffffffffffffffffffffffffffffff1673ffffffffffffffffffffffffffffffffffffffff1663779da9677f000000000000000000000000000000000000000000000000000000000000000073ffffffffffffffffffffffffffffffffffffffff166370a08231600e60009054906101000a900473ffffffffffffffffffffffffffffffffffffffff166040518263ffffffff1660e01b8152600401610ed69190613510565b602060405180830381865afa158015610ef3573d6000803e3d6000fd5b505050506040513d601f19601f82011682018060405250810190610f17919061373b565b6040518263ffffffff1660e01b8152600401610f339190613278565b600060405180830381600087803b158015610f4d57600080fd5b505af1158015610f61573d6000803e3d6000fd5b505050506006549250505061118f565b600060095483610f81919061396b565b9050600081111561117457600d60009054906101000a900473ffffffffffffffffffffffffffffffffffffffff1673ffffffffffffffffffffffffffffffffffffffff1663869dcaed826040518263ffffffff1660e01b8152600401610fe79190613278565b6020604051808303816000875af1158015611006573d6000803e3d6000fd5b505050506040513d601f19601f8201168201806040525081019061102a919061373b565b50600e60009054906101000a900473ffffffffffffffffffffffffffffffffffffffff1673ffffffffffffffffffffffffffffffffffffffff1663779da9677f000000000000000000000000000000000000000000000000000000000000000073ffffffffffffffffffffffffffffffffffffffff166370a08231600e60009054906101000a900473ffffffffffffffffffffffffffffffffffffffff166040518263ffffffff1660e01b81526004016110e49190613510565b602060405180830381865afa158015611101573d6000803e3d6000fd5b505050506040513d601f19601f82011682018060405250810190611125919061373b565b6040518263ffffffff1660e01b81526004016111419190613278565b600060405180830381600087803b15801561115b57600080fd5b505af115801561116f573d6000803e3d6000fd5b505050505b6001600b81905550600654935050505061118f565b60065490505b90565b6000600254905090565b6000806111a761229f565b90506111b48582856124cd565b6111bf858585612559565b60019150509392505050565b60006012905090565b60007f0000000000000000000000000000000000000000000000000000000000000000905090565b60008061120761229f565b905061122881858561121985896120bb565b61122391906137f7565b6122a7565b600191505092915050565b600061123d6127cf565b61124857600061126a565b7fffffffffffffffffffffffffffffffffffffffffffffffffffffffffffffffff5b9050919050565b600061127e826000612253565b9050919050565b8161128f336116e8565b10156112d0576040517f08c379a00000000000000000000000000000000000000000000000000000000081526004016112c7906139eb565b60405180910390fd5b816112db33306120bb565b101561131c576040517f08c379a000000000000000000000000000000000000000000000000000000000815260040161131390613a7d565b60405180910390fd5b611328303330856127f2565b6000670de0b6b3a764000060075484611341919061382b565b61134b919061389c565b9050806009600082825461135f91906137f7565b92505081905550604051806080016040528060065481526020018281526020018481526020018373ffffffffffffffffffffffffffffffffffffffff16815250600560003373ffffffffffffffffffffffffffffffffffffffff1673ffffffffffffffffffffffffffffffffffffffff16815260200190815260200160002060008201518160000155602082015181600101556040820151816002015560608201518160030160006101000a81548173ffffffffffffffffffffffffffffffffffffffff021916908373ffffffffffffffffffffffffffffffffffffffff160217905550905050505050565b60056020528060005260406000206000915090508060000154908060010154908060020154908060030160009054906101000a900473ffffffffffffffffffffffffffffffffffffffff16905084565b60003373ffffffffffffffffffffffffffffffffffffffff16600c60009054906101000a900473ffffffffffffffffffffffffffffffffffffffff1673ffffffffffffffffffffffffffffffffffffffff161461152d576040517f08c379a000000000000000000000000000000000000000000000000000000000815260040161152490613ae9565b60405180910390fd5b81600d60006101000a81548173ffffffffffffffffffffffffffffffffffffffff021916908373ffffffffffffffffffffffffffffffffffffffff160217905550600d60009054906101000a900473ffffffffffffffffffffffffffffffffffffffff169050919050565b60006115a382611233565b8311156115e5576040517f08c379a00000000000000000000000000000000000000000000000000000000081526004016115dc90613b55565b60405180910390fd5b827f000000000000000000000000000000000000000000000000000000000000000073ffffffffffffffffffffffffffffffffffffffff166370a08231336040518263ffffffff1660e01b815260040161163f9190613510565b602060405180830381865afa15801561165c573d6000803e3d6000fd5b505050506040513d601f19601f82011682018060405250810190611680919061373b565b10156116c1576040517f08c379a00000000000000000000000000000000000000000000000000000000081526004016116b890613bc1565b60405180910390fd5b60006116cc84612142565b90506116e16116d961229f565b84868461287b565b5092915050565b60008060008373ffffffffffffffffffffffffffffffffffffffff1673ffffffffffffffffffffffffffffffffffffffff168152602001908152602001600020549050919050565b600b5481565b600061174182611ed5565b831115611783576040517f08c379a000000000000000000000000000000000000000000000000000000000815260040161177a90613c2d565b60405180910390fd5b600061178e846118e8565b90506117a361179b61229f565b84838761287b565b5092915050565b6060600480546117b990613797565b80601f01602080910402602001604051908101604052809291908181526020018280546117e590613797565b80156118325780601f1061180757610100808354040283529160200191611832565b820191906000526020600020905b81548152906001019060200180831161181557829003601f168201915b5050505050905090565b60085481565b60008061184d61229f565b9050600061185b82866120bb565b9050838110156118a0576040517f08c379a000000000000000000000000000000000000000000000000000000000815260040161189790613cbf565b60405180910390fd5b6118ad82868684036122a7565b60019250505092915050565b6000806118c461229f565b90506118d1818585612559565b600191505092915050565b60065481565b60095481565b60006118f5826001612253565b9050919050565b600080600560003373ffffffffffffffffffffffffffffffffffffffff1673ffffffffffffffffffffffffffffffffffffffff1681526020019081526020016000206040518060800160405290816000820154815260200160018201548152602001600282015481526020016003820160009054906101000a900473ffffffffffffffffffffffffffffffffffffffff1673ffffffffffffffffffffffffffffffffffffffff1673ffffffffffffffffffffffffffffffffffffffff16815250509050600654600b5482600001516119d491906137f7565b1015611a15576040517f08c379a0000000000000000000000000000000000000000000000000000000008152600401611a0c90613d51565b60405180910390fd5b847f000000000000000000000000000000000000000000000000000000000000000073ffffffffffffffffffffffffffffffffffffffff166370a08231600d60009054906101000a900473ffffffffffffffffffffffffffffffffffffffff166040518263ffffffff1660e01b8152600401611a919190613510565b602060405180830381865afa158015611aae573d6000803e3d6000fd5b505050506040513d601f19601f82011682018060405250810190611ad2919061373b565b1015611b13576040517f08c379a0000000000000000000000000000000000000000000000000000000008152600401611b0a90613dbd565b60405180910390fd5b8060400151611b21306116e8565b1015611b62576040517f08c379a0000000000000000000000000000000000000000000000000000000008152600401611b5990613e29565b60405180910390fd5b611b71303383602001516122a7565b611b8d611b7c61229f565b853084602001518560400151612940565b509392505050565b60075481565b600080600560003373ffffffffffffffffffffffffffffffffffffffff1673ffffffffffffffffffffffffffffffffffffffff1681526020019081526020016000206040518060800160405290816000820154815260200160018201548152602001600282015481526020016003820160009054906101000a900473ffffffffffffffffffffffffffffffffffffffff1673ffffffffffffffffffffffffffffffffffffffff1673ffffffffffffffffffffffffffffffffffffffff16815250509050600654600b548260000151611c7391906137f7565b1015611cb4576040517f08c379a0000000000000000000000000000000000000000000000000000000008152600401611cab90613d51565b60405180910390fd5b817f000000000000000000000000000000000000000000000000000000000000000073ffffffffffffffffffffffffffffffffffffffff166370a08231600d60009054906101000a900473ffffffffffffffffffffffffffffffffffffffff166040518263ffffffff1660e01b8152600401611d309190613510565b602060405180830381865afa158015611d4d573d6000803e3d6000fd5b505050506040513d601f19601f82011682018060405250810190611d71919061373b565b1015611db2576040517f08c379a0000000000000000000000000000000000000000000000000000000008152600401611da990613dbd565b60405180910390fd5b8060400151611dc0306116e8565b1015611e01576040517f08c379a0000000000000000000000000000000000000000000000000000000008152600401611df890613e29565b60405180910390fd5b611e10303383602001516122a7565b611e2c611e1b61229f565b853084602001518560400151612940565b849150509392505050565b6000600d60009054906101000a900473ffffffffffffffffffffffffffffffffffffffff1673ffffffffffffffffffffffffffffffffffffffff1663ba8fba486040518163ffffffff1660e01b8152600401602060405180830381865afa158015611ea6573d6000803e3d6000fd5b505050506040513d601f19601f82011682018060405250810190611eca919061373b565b905090565b600a5481565b60007fffffffffffffffffffffffffffffffffffffffffffffffffffffffffffffffff9050919050565b6000611f0c826000612470565b9050919050565b600080600d60009054906101000a900473ffffffffffffffffffffffffffffffffffffffff1673ffffffffffffffffffffffffffffffffffffffff1663ba8fba486040518163ffffffff1660e01b8152600401602060405180830381865afa158015611f83573d6000803e3d6000fd5b505050506040513d601f19601f82011682018060405250810190611fa7919061373b565b90506000611fbe611fb7856116e8565b6000612253565b905080821115611fd2578092505050611fd8565b81925050505b919050565b60008061207b600d60009054906101000a900473ffffffffffffffffffffffffffffffffffffffff1673ffffffffffffffffffffffffffffffffffffffff1663ba8fba486040518163ffffffff1660e01b8152600401602060405180830381865afa158015612050573d6000803e3d6000fd5b505050506040513d601f19601f82011682018060405250810190612074919061373b565b6001612470565b90506000612088846116e8565b9050808211156120a65761209d816000612470565b925050506120b6565b6120b1826000612470565b925050505b919050565b6000600160008473ffffffffffffffffffffffffffffffffffffffff1673ffffffffffffffffffffffffffffffffffffffff16815260200190815260200160002060008373ffffffffffffffffffffffffffffffffffffffff1673ffffffffffffffffffffffffffffffffffffffff16815260200190815260200160002054905092915050565b600061214f826000612470565b9050919050565b60003373ffffffffffffffffffffffffffffffffffffffff16600c60009054906101000a900473ffffffffffffffffffffffffffffffffffffffff1673ffffffffffffffffffffffffffffffffffffffff16146121e8576040517f08c379a00000000000000000000000000000000000000000000000000000000081526004016121df90613ae9565b60405180910390fd5b81600e60006101000a81548173ffffffffffffffffffffffffffffffffffffffff021916908373ffffffffffffffffffffffffffffffffffffffff160217905550600e60009054906101000a900473ffffffffffffffffffffffffffffffffffffffff169050919050565b60008061225e611192565b90506000811461228b57612286612273610885565b828587612b37909392919063ffffffff16565b612296565b6122958484612bad565b5b91505092915050565b600033905090565b600073ffffffffffffffffffffffffffffffffffffffff168373ffffffffffffffffffffffffffffffffffffffff1603612316576040517f08c379a000000000000000000000000000000000000000000000000000000000815260040161230d90613ebb565b60405180910390fd5b600073ffffffffffffffffffffffffffffffffffffffff168273ffffffffffffffffffffffffffffffffffffffff1603612385576040517f08c379a000000000000000000000000000000000000000000000000000000000815260040161237c90613f4d565b60405180910390fd5b80600160008573ffffffffffffffffffffffffffffffffffffffff1673ffffffffffffffffffffffffffffffffffffffff16815260200190815260200160002060008473ffffffffffffffffffffffffffffffffffffffff1673ffffffffffffffffffffffffffffffffffffffff168152602001908152602001600020819055508173ffffffffffffffffffffffffffffffffffffffff168373ffffffffffffffffffffffffffffffffffffffff167f8c5be1e5ebec7d5bd14f71427d1e84f3dd0314c0f7b2291e5b200ac8c7c3b925836040516124639190613278565b60405180910390a3505050565b60008061247b611192565b90506000612487610885565b905060008514806124985750600082145b6124b8576124b382828688612b37909392919063ffffffff16565b6124c3565b6124c28585612bb8565b5b9250505092915050565b60006124d984846120bb565b90507fffffffffffffffffffffffffffffffffffffffffffffffffffffffffffffffff81146125535781811015612545576040517f08c379a000000000000000000000000000000000000000000000000000000000815260040161253c90613fb9565b60405180910390fd5b61255284848484036122a7565b5b50505050565b600073ffffffffffffffffffffffffffffffffffffffff168373ffffffffffffffffffffffffffffffffffffffff16036125c8576040517f08c379a00000000000000000000000000000000000000000000000000000000081526004016125bf9061404b565b60405180910390fd5b600073ffffffffffffffffffffffffffffffffffffffff168273ffffffffffffffffffffffffffffffffffffffff1603612637576040517f08c379a000000000000000000000000000000000000000000000000000000000815260040161262e906140dd565b60405180910390fd5b612642838383612bc3565b60008060008573ffffffffffffffffffffffffffffffffffffffff1673ffffffffffffffffffffffffffffffffffffffff168152602001908152602001600020549050818110156126c8576040517f08c379a00000000000000000000000000000000000000000000000000000000081526004016126bf9061416f565b60405180910390fd5b8181036000808673ffffffffffffffffffffffffffffffffffffffff1673ffffffffffffffffffffffffffffffffffffffff16815260200190815260200160002081905550816000808573ffffffffffffffffffffffffffffffffffffffff1673ffffffffffffffffffffffffffffffffffffffff168152602001908152602001600020600082825401925050819055508273ffffffffffffffffffffffffffffffffffffffff168473ffffffffffffffffffffffffffffffffffffffff167fddf252ad1be2c89b69c2b068fc378daa952ba7f163c4a11628f55a4df523b3ef846040516127b69190613278565b60405180910390a36127c9848484612bc8565b50505050565b6000806127da610885565b11806127ed575060006127eb611192565b145b905090565b612875846323b872dd60e01b8585856040516024016128139392919061418f565b604051602081830303815290604052907bffffffffffffffffffffffffffffffffffffffffffffffffffffffff19166020820180517bffffffffffffffffffffffffffffffffffffffffffffffffffffffff8381831617835250505050612bcd565b50505050565b6128c97f000000000000000000000000000000000000000000000000000000000000000085600d60009054906101000a900473ffffffffffffffffffffffffffffffffffffffff16856127f2565b6128d38382612c94565b8273ffffffffffffffffffffffffffffffffffffffff168473ffffffffffffffffffffffffffffffffffffffff167fdcbc1c05240f31ff3ad067ef1ee35ce4997762752e3a095284754544f4c709d784846040516129329291906141c6565b60405180910390a350505050565b8273ffffffffffffffffffffffffffffffffffffffff168573ffffffffffffffffffffffffffffffffffffffff161461297f5761297e8386836124cd565b5b600560003373ffffffffffffffffffffffffffffffffffffffff1673ffffffffffffffffffffffffffffffffffffffff168152602001908152602001600020600080820160009055600182016000905560028201600090556003820160006101000a81549073ffffffffffffffffffffffffffffffffffffffff021916905550508160096000828254612a12919061396b565b92505081905550612a238382612dea565b600d60009054906101000a900473ffffffffffffffffffffffffffffffffffffffff1673ffffffffffffffffffffffffffffffffffffffff1663c74b197c85846040518363ffffffff1660e01b8152600401612a809291906141ef565b600060405180830381600087803b158015612a9a57600080fd5b505af1158015612aae573d6000803e3d6000fd5b505050508273ffffffffffffffffffffffffffffffffffffffff168473ffffffffffffffffffffffffffffffffffffffff168673ffffffffffffffffffffffffffffffffffffffff167ffbde797d201c681b91056529119e0b02407c7bb96a4a2c75c01fc9667232c8db8585604051612b289291906141c6565b60405180910390a45050505050565b600080612b45868686612fb7565b905060016002811115612b5b57612b5a614218565b5b836002811115612b6e57612b6d614218565b5b148015612b8c575060008480612b8757612b8661386d565b5b868809115b15612ba157600181612b9e91906137f7565b90505b80915050949350505050565b600082905092915050565b600082905092915050565b505050565b505050565b6000612c2f826040518060400160405280602081526020017f5361666545524332303a206c6f772d6c6576656c2063616c6c206661696c65648152508573ffffffffffffffffffffffffffffffffffffffff166130929092919063ffffffff16565b9050600081511115612c8f5780806020019051810190612c4f9190614273565b612c8e576040517f08c379a0000000000000000000000000000000000000000000000000000000008152600401612c8590614312565b60405180910390fd5b5b505050565b600073ffffffffffffffffffffffffffffffffffffffff168273ffffffffffffffffffffffffffffffffffffffff1603612d03576040517f08c379a0000000000000000000000000000000000000000000000000000000008152600401612cfa9061437e565b60405180910390fd5b612d0f60008383612bc3565b8060026000828254612d2191906137f7565b92505081905550806000808473ffffffffffffffffffffffffffffffffffffffff1673ffffffffffffffffffffffffffffffffffffffff168152602001908152602001600020600082825401925050819055508173ffffffffffffffffffffffffffffffffffffffff16600073ffffffffffffffffffffffffffffffffffffffff167fddf252ad1be2c89b69c2b068fc378daa952ba7f163c4a11628f55a4df523b3ef83604051612dd29190613278565b60405180910390a3612de660008383612bc8565b5050565b600073ffffffffffffffffffffffffffffffffffffffff168273ffffffffffffffffffffffffffffffffffffffff1603612e59576040517f08c379a0000000000000000000000000000000000000000000000000000000008152600401612e5090614410565b60405180910390fd5b612e6582600083612bc3565b60008060008473ffffffffffffffffffffffffffffffffffffffff1673ffffffffffffffffffffffffffffffffffffffff16815260200190815260200160002054905081811015612eeb576040517f08c379a0000000000000000000000000000000000000000000000000000000008152600401612ee2906144a2565b60405180910390fd5b8181036000808573ffffffffffffffffffffffffffffffffffffffff1673ffffffffffffffffffffffffffffffffffffffff1681526020019081526020016000208190555081600260008282540392505081905550600073ffffffffffffffffffffffffffffffffffffffff168373ffffffffffffffffffffffffffffffffffffffff167fddf252ad1be2c89b69c2b068fc378daa952ba7f163c4a11628f55a4df523b3ef84604051612f9e9190613278565b60405180910390a3612fb283600084612bc8565b505050565b6000806000801985870985870292508281108382030391505060008103612ff257838281612fe857612fe761386d565b5b049250505061308b565b808411612ffe57600080fd5b60008486880990508281118203915080830392506000600186190186169050808604955080840493506001818260000304019050808302841793506000600287600302189050808702600203810290508087026002038102905080870260020381029050808702600203810290508087026002038102905080870260020381029050808502955050505050505b9392505050565b60606130a184846000856130aa565b90509392505050565b6060824710156130ef576040517f08c379a00000000000000000000000000000000000000000000000000000000081526004016130e690614534565b60405180910390fd5b6000808673ffffffffffffffffffffffffffffffffffffffff168587604051613118919061459b565b60006040518083038185875af1925050503d8060008114613155576040519150601f19603f3d011682016040523d82523d6000602084013e61315a565b606091505b509150915061316b87838387613177565b92505050949350505050565b606083156131d95760008351036131d157613191856131ec565b6131d0576040517f08c379a00000000000000000000000000000000000000000000000000000000081526004016131c7906145fe565b60405180910390fd5b5b8290506131e4565b6131e3838361320f565b5b949350505050565b6000808273ffffffffffffffffffffffffffffffffffffffff163b119050919050565b6000825111156132225781518083602001fd5b806040517f08c379a00000000000000000000000000000000000000000000000000000000081526004016132569190613323565b60405180910390fd5b6000819050919050565b6132728161325f565b82525050565b600060208201905061328d6000830184613269565b92915050565b600081519050919050565b600082825260208201905092915050565b60005b838110156132cd5780820151818401526020810190506132b2565b60008484015250505050565b6000601f19601f8301169050919050565b60006132f582613293565b6132ff818561329e565b935061330f8185602086016132af565b613318816132d9565b840191505092915050565b6000602082019050818103600083015261333d81846132ea565b905092915050565b600080fd5b6133538161325f565b811461335e57600080fd5b50565b6000813590506133708161334a565b92915050565b60006020828403121561338c5761338b613345565b5b600061339a84828501613361565b91505092915050565b600073ffffffffffffffffffffffffffffffffffffffff82169050919050565b60006133ce826133a3565b9050919050565b6133de816133c3565b81146133e957600080fd5b50565b6000813590506133fb816133d5565b92915050565b6000806040838503121561341857613417613345565b5b6000613426858286016133ec565b925050602061343785828601613361565b9150509250929050565b60008115159050919050565b61345681613441565b82525050565b6000602082019050613471600083018461344d565b92915050565b6000806000606084860312156134905761348f613345565b5b600061349e868287016133ec565b93505060206134af868287016133ec565b92505060406134c086828701613361565b9150509250925092565b600060ff82169050919050565b6134e0816134ca565b82525050565b60006020820190506134fb60008301846134d7565b92915050565b61350a816133c3565b82525050565b60006020820190506135256000830184613501565b92915050565b60006020828403121561354157613540613345565b5b600061354f848285016133ec565b91505092915050565b6000806040838503121561356f5761356e613345565b5b600061357d85828601613361565b925050602061358e858286016133ec565b9150509250929050565b60006080820190506135ad6000830187613269565b6135ba6020830186613269565b6135c76040830185613269565b6135d46060830184613501565b95945050505050565b6000819050919050565b60006136026135fd6135f8846133a3565b6135dd565b6133a3565b9050919050565b6000613614826135e7565b9050919050565b600061362682613609565b9050919050565b6136368161361b565b82525050565b6000602082019050613651600083018461362d565b92915050565b6000806000606084860312156136705761366f613345565b5b600061367e86828701613361565b935050602061368f868287016133ec565b92505060406136a0868287016133ec565b9150509250925092565b600080604083850312156136c1576136c0613345565b5b60006136cf858286016133ec565b92505060206136e0858286016133ec565b9150509250929050565b60006136f582613609565b9050919050565b613705816136ea565b82525050565b600060208201905061372060008301846136fc565b92915050565b6000815190506137358161334a565b92915050565b60006020828403121561375157613750613345565b5b600061375f84828501613726565b91505092915050565b7f4e487b7100000000000000000000000000000000000000000000000000000000600052602260045260246000fd5b600060028204905060018216806137af57607f821691505b6020821081036137c2576137c1613768565b5b50919050565b7f4e487b7100000000000000000000000000000000000000000000000000000000600052601160045260246000fd5b60006138028261325f565b915061380d8361325f565b9250828201905080821115613825576138246137c8565b5b92915050565b60006138368261325f565b91506138418361325f565b925082820261384f8161325f565b91508282048414831517613866576138656137c8565b5b5092915050565b7f4e487b7100000000000000000000000000000000000000000000000000000000600052601260045260246000fd5b60006138a78261325f565b91506138b28361325f565b9250826138c2576138c161386d565b5b828204905092915050565b60006138d88261325f565b91507fffffffffffffffffffffffffffffffffffffffffffffffffffffffffffffffff820361390a576139096137c8565b5b600182019050919050565b6000819050919050565b600061393a61393561393084613915565b6135dd565b61325f565b9050919050565b61394a8161391f565b82525050565b60006020820190506139656000830184613941565b92915050565b60006139768261325f565b91506139818361325f565b9250828203905081811115613999576139986137c8565b5b92915050565b7f646f6e2774206861766520656e6f75676820746f6b656e730000000000000000600082015250565b60006139d560188361329e565b91506139e08261399f565b602082019050919050565b60006020820190508181036000830152613a04816139c8565b9050919050565b7f646f6e2774206861766520656e6f75676820746f6b656e7320617070726f766560008201527f6400000000000000000000000000000000000000000000000000000000000000602082015250565b6000613a6760218361329e565b9150613a7282613a0b565b604082019050919050565b60006020820190508181036000830152613a9681613a5a565b9050919050565b7f4d7573742062652074686520676f762121000000000000000000000000000000600082015250565b6000613ad360118361329e565b9150613ade82613a9d565b602082019050919050565b60006020820190508181036000830152613b0281613ac6565b9050919050565b7f455243343632363a206465706f736974206d6f7265207468616e206d61780000600082015250565b6000613b3f601e8361329e565b9150613b4a82613b09565b602082019050919050565b60006020820190508181036000830152613b6e81613b32565b9050919050565b7f4e6f7420656e6f7567682061737365747320696e207468652077616c6c657400600082015250565b6000613bab601f8361329e565b9150613bb682613b75565b602082019050919050565b60006020820190508181036000830152613bda81613b9e565b9050919050565b7f455243343632363a206d696e74206d6f7265207468616e206d61780000000000600082015250565b6000613c17601b8361329e565b9150613c2282613be1565b602082019050919050565b60006020820190508181036000830152613c4681613c0a565b9050919050565b7f45524332303a2064656372656173656420616c6c6f77616e63652062656c6f7760008201527f207a65726f000000000000000000000000000000000000000000000000000000602082015250565b6000613ca960258361329e565b9150613cb482613c4d565b604082019050919050565b60006020820190508181036000830152613cd881613c9c565b9050919050565b7f4e6f207265717565737420666f756e64206f722072657571657374206e6f742060008201527f776974686472617761626c652079657400000000000000000000000000000000602082015250565b6000613d3b60308361329e565b9150613d4682613cdf565b604082019050919050565b60006020820190508181036000830152613d6a81613d2e565b9050919050565b7f4e6f7420656e6f7567682064616920696e207661756c74000000000000000000600082015250565b6000613da760178361329e565b9150613db282613d71565b602082019050919050565b60006020820190508181036000830152613dd681613d9a565b9050919050565b7f6e6f7420656e6f756768206c697120696e20746865207661756c740000000000600082015250565b6000613e13601b8361329e565b9150613e1e82613ddd565b602082019050919050565b60006020820190508181036000830152613e4281613e06565b9050919050565b7f45524332303a20617070726f76652066726f6d20746865207a65726f2061646460008201527f7265737300000000000000000000000000000000000000000000000000000000602082015250565b6000613ea560248361329e565b9150613eb082613e49565b604082019050919050565b60006020820190508181036000830152613ed481613e98565b9050919050565b7f45524332303a20617070726f766520746f20746865207a65726f20616464726560008201527f7373000000000000000000000000000000000000000000000000000000000000602082015250565b6000613f3760228361329e565b9150613f4282613edb565b604082019050919050565b60006020820190508181036000830152613f6681613f2a565b9050919050565b7f45524332303a20696e73756666696369656e7420616c6c6f77616e6365000000600082015250565b6000613fa3601d8361329e565b9150613fae82613f6d565b602082019050919050565b60006020820190508181036000830152613fd281613f96565b9050919050565b7f45524332303a207472616e736665722066726f6d20746865207a65726f20616460008201527f6472657373000000000000000000000000000000000000000000000000000000602082015250565b600061403560258361329e565b915061404082613fd9565b604082019050919050565b6000602082019050818103600083015261406481614028565b9050919050565b7f45524332303a207472616e7366657220746f20746865207a65726f206164647260008201527f6573730000000000000000000000000000000000000000000000000000000000602082015250565b60006140c760238361329e565b91506140d28261406b565b604082019050919050565b600060208201905081810360008301526140f6816140ba565b9050919050565b7f45524332303a207472616e7366657220616d6f756e742065786365656473206260008201527f616c616e63650000000000000000000000000000000000000000000000000000602082015250565b600061415960268361329e565b9150614164826140fd565b604082019050919050565b600060208201905081810360008301526141888161414c565b9050919050565b60006060820190506141a46000830186613501565b6141b16020830185613501565b6141be6040830184613269565b949350505050565b60006040820190506141db6000830185613269565b6141e86020830184613269565b9392505050565b60006040820190506142046000830185613501565b6142116020830184613269565b9392505050565b7f4e487b7100000000000000000000000000000000000000000000000000000000600052602160045260246000fd5b61425081613441565b811461425b57600080fd5b50565b60008151905061426d81614247565b92915050565b60006020828403121561428957614288613345565b5b60006142978482850161425e565b91505092915050565b7f5361666545524332303a204552433230206f7065726174696f6e20646964206e60008201527f6f74207375636365656400000000000000000000000000000000000000000000602082015250565b60006142fc602a8361329e565b9150614307826142a0565b604082019050919050565b6000602082019050818103600083015261432b816142ef565b9050919050565b7f45524332303a206d696e7420746f20746865207a65726f206164647265737300600082015250565b6000614368601f8361329e565b915061437382614332565b602082019050919050565b600060208201905081810360008301526143978161435b565b9050919050565b7f45524332303a206275726e2066726f6d20746865207a65726f2061646472657360008201527f7300000000000000000000000000000000000000000000000000000000000000602082015250565b60006143fa60218361329e565b91506144058261439e565b604082019050919050565b60006020820190508181036000830152614429816143ed565b9050919050565b7f45524332303a206275726e20616d6f756e7420657863656564732062616c616e60008201527f6365000000000000000000000000000000000000000000000000000000000000602082015250565b600061448c60228361329e565b915061449782614430565b604082019050919050565b600060208201905081810360008301526144bb8161447f565b9050919050565b7f416464726573733a20696e73756666696369656e742062616c616e636520666f60008201527f722063616c6c0000000000000000000000000000000000000000000000000000602082015250565b600061451e60268361329e565b9150614529826144c2565b604082019050919050565b6000602082019050818103600083015261454d81614511565b9050919050565b600081519050919050565b600081905092915050565b600061457582614554565b61457f818561455f565b935061458f8185602086016132af565b80840191505092915050565b60006145a7828461456a565b915081905092915050565b7f416464726573733a2063616c6c20746f206e6f6e2d636f6e7472616374000000600082015250565b60006145e8601d8361329e565b91506145f3826145b2565b602082019050919050565b60006020820190508181036000830152614617816145db565b905091905056fea2646970667358221220a8d2ce418b074a28a91fa636de52a30052790096c320e0c61f9ef7c11b899e8164736f6c63430008110033",
  "linkReferences": {},
  "deployedLinkReferences": {}
}