{
  "_format": "hh-sol-artifact-1",
  "contractName": "FettiERC20",
  "sourceName": "contracts/FettiERC20.sol",
  "abi": [
    {
      "inputs": [],
      "stateMutability": "nonpayable",
      "type": "constructor"
    },
    {
      "anonymous": false,
      "inputs": [
        {
          "indexed": true,
          "internalType": "address",
          "name": "owner",
          "type": "address"
        },
        {
          "indexed": true,
          "internalType": "address",
          "name": "spender",
          "type": "address"
        },
        {
          "indexed": false,
          "internalType": "uint256",
          "name": "value",
          "type": "uint256"
        }
      ],
      "name": "Approval",
      "type": "event"
    },
    {
      "anonymous": false,
      "inputs": [
        {
          "indexed": true,
          "internalType": "address",
          "name": "sender",
          "type": "address"
        },
        {
          "indexed": true,
          "internalType": "address",
          "name": "owner",
          "type": "address"
        },
        {
          "indexed": false,
          "internalType": "uint256",
          "name": "assets",
          "type": "uint256"
        },
        {
          "indexed": false,
          "internalType": "uint256",
          "name": "shares",
          "type": "uint256"
        }
      ],
      "name": "Deposit",
      "type": "event"
    },
    {
      "anonymous": false,
      "inputs": [
        {
          "indexed": false,
          "internalType": "uint256",
          "name": "x",
          "type": "uint256"
        },
        {
          "indexed": false,
          "internalType": "uint256",
          "name": "y",
          "type": "uint256"
        }
      ],
      "name": "Test",
      "type": "event"
    },
    {
      "anonymous": false,
      "inputs": [
        {
          "indexed": true,
          "internalType": "address",
          "name": "from",
          "type": "address"
        },
        {
          "indexed": true,
          "internalType": "address",
          "name": "to",
          "type": "address"
        },
        {
          "indexed": false,
          "internalType": "uint256",
          "name": "value",
          "type": "uint256"
        }
      ],
      "name": "Transfer",
      "type": "event"
    },
    {
      "anonymous": false,
      "inputs": [
        {
          "indexed": true,
          "internalType": "address",
          "name": "sender",
          "type": "address"
        },
        {
          "indexed": true,
          "internalType": "address",
          "name": "receiver",
          "type": "address"
        },
        {
          "indexed": true,
          "internalType": "address",
          "name": "owner",
          "type": "address"
        },
        {
          "indexed": false,
          "internalType": "uint256",
          "name": "assets",
          "type": "uint256"
        },
        {
          "indexed": false,
          "internalType": "uint256",
          "name": "shares",
          "type": "uint256"
        }
      ],
      "name": "Withdraw",
      "type": "event"
    },
    {
      "inputs": [],
      "name": "_currEpoc",
      "outputs": [
        {
          "internalType": "uint256",
          "name": "",
          "type": "uint256"
        }
      ],
      "stateMutability": "view",
      "type": "function"
    },
    {
      "inputs": [],
      "name": "_doSync",
      "outputs": [
        {
          "internalType": "uint256",
          "name": "",
          "type": "uint256"
        }
      ],
      "stateMutability": "nonpayable",
      "type": "function"
    },
    {
      "inputs": [],
      "name": "_epocBurnRate",
      "outputs": [
        {
          "internalType": "uint256",
          "name": "",
          "type": "uint256"
        }
      ],
      "stateMutability": "view",
      "type": "function"
    },
    {
      "inputs": [],
      "name": "_epocLength",
      "outputs": [
        {
          "internalType": "uint256",
          "name": "",
          "type": "uint256"
        }
      ],
      "stateMutability": "view",
      "type": "function"
    },
    {
      "inputs": [],
      "name": "_epocStartTime",
      "outputs": [
        {
          "internalType": "uint256",
          "name": "",
          "type": "uint256"
        }
      ],
      "stateMutability": "view",
      "type": "function"
    },
    {
      "inputs": [],
      "name": "_epocWidthdrawWait",
      "outputs": [
        {
          "internalType": "uint256",
          "name": "",
          "type": "uint256"
        }
      ],
      "stateMutability": "view",
      "type": "function"
    },
    {
      "inputs": [
        {
          "internalType": "address",
          "name": "",
          "type": "address"
        }
      ],
      "name": "_requestedWidthdraws",
      "outputs": [
        {
          "internalType": "uint256",
          "name": "epocPlaced",
          "type": "uint256"
        },
        {
          "internalType": "uint256",
          "name": "daiToSend",
          "type": "uint256"
        },
        {
          "internalType": "uint256",
          "name": "liqToBurn",
          "type": "uint256"
        },
        {
          "internalType": "address",
          "name": "sendTo",
          "type": "address"
        }
      ],
      "stateMutability": "view",
      "type": "function"
    },
    {
      "inputs": [],
      "name": "_totalRequested",
      "outputs": [
        {
          "internalType": "uint256",
          "name": "",
          "type": "uint256"
        }
      ],
      "stateMutability": "view",
      "type": "function"
    },
    {
      "inputs": [
        {
          "internalType": "address",
          "name": "owner",
          "type": "address"
        },
        {
          "internalType": "address",
          "name": "spender",
          "type": "address"
        }
      ],
      "name": "allowance",
      "outputs": [
        {
          "internalType": "uint256",
          "name": "",
          "type": "uint256"
        }
      ],
      "stateMutability": "view",
      "type": "function"
    },
    {
      "inputs": [
        {
          "internalType": "address",
          "name": "spender",
          "type": "address"
        },
        {
          "internalType": "uint256",
          "name": "amount",
          "type": "uint256"
        }
      ],
      "name": "approve",
      "outputs": [
        {
          "internalType": "bool",
          "name": "",
          "type": "bool"
        }
      ],
      "stateMutability": "nonpayable",
      "type": "function"
    },
    {
      "inputs": [],
      "name": "asset",
      "outputs": [
        {
          "internalType": "address",
          "name": "assetTokenAddress",
          "type": "address"
        }
      ],
      "stateMutability": "view",
      "type": "function"
    },
    {
      "inputs": [
        {
          "internalType": "address",
          "name": "account",
          "type": "address"
        }
      ],
      "name": "balanceOf",
      "outputs": [
        {
          "internalType": "uint256",
          "name": "",
          "type": "uint256"
        }
      ],
      "stateMutability": "view",
      "type": "function"
    },
    {
      "inputs": [
        {
          "internalType": "uint256",
          "name": "shares",
          "type": "uint256"
        }
      ],
      "name": "convertToAssets",
      "outputs": [
        {
          "internalType": "uint256",
          "name": "assets",
          "type": "uint256"
        }
      ],
      "stateMutability": "view",
      "type": "function"
    },
    {
      "inputs": [
        {
          "internalType": "uint256",
          "name": "assets",
          "type": "uint256"
        }
      ],
      "name": "convertToShares",
      "outputs": [
        {
          "internalType": "uint256",
          "name": "shares",
          "type": "uint256"
        }
      ],
      "stateMutability": "view",
      "type": "function"
    },
    {
      "inputs": [],
      "name": "decimals",
      "outputs": [
        {
          "internalType": "uint8",
          "name": "",
          "type": "uint8"
        }
      ],
      "stateMutability": "pure",
      "type": "function"
    },
    {
      "inputs": [
        {
          "internalType": "address",
          "name": "spender",
          "type": "address"
        },
        {
          "internalType": "uint256",
          "name": "subtractedValue",
          "type": "uint256"
        }
      ],
      "name": "decreaseAllowance",
      "outputs": [
        {
          "internalType": "bool",
          "name": "",
          "type": "bool"
        }
      ],
      "stateMutability": "nonpayable",
      "type": "function"
    },
    {
      "inputs": [
        {
          "internalType": "uint256",
          "name": "assets",
          "type": "uint256"
        },
        {
          "internalType": "address",
          "name": "receiver",
          "type": "address"
        }
      ],
      "name": "deposit",
      "outputs": [
        {
          "internalType": "uint256",
          "name": "shares",
          "type": "uint256"
        }
      ],
      "stateMutability": "nonpayable",
      "type": "function"
    },
    {
      "inputs": [
        {
          "internalType": "address",
          "name": "spender",
          "type": "address"
        },
        {
          "internalType": "uint256",
          "name": "addedValue",
          "type": "uint256"
        }
      ],
      "name": "increaseAllowance",
      "outputs": [
        {
          "internalType": "bool",
          "name": "",
          "type": "bool"
        }
      ],
      "stateMutability": "nonpayable",
      "type": "function"
    },
    {
      "inputs": [
        {
          "internalType": "address",
          "name": "",
          "type": "address"
        }
      ],
      "name": "maxDeposit",
      "outputs": [
        {
          "internalType": "uint256",
          "name": "maxAssets",
          "type": "uint256"
        }
      ],
      "stateMutability": "view",
      "type": "function"
    },
    {
      "inputs": [
        {
          "internalType": "address",
          "name": "",
          "type": "address"
        }
      ],
      "name": "maxMint",
      "outputs": [
        {
          "internalType": "uint256",
          "name": "maxShares",
          "type": "uint256"
        }
      ],
      "stateMutability": "pure",
      "type": "function"
    },
    {
      "inputs": [
        {
          "internalType": "address",
          "name": "owner",
          "type": "address"
        }
      ],
      "name": "maxRedeem",
      "outputs": [
        {
          "internalType": "uint256",
          "name": "maxShares",
          "type": "uint256"
        }
      ],
      "stateMutability": "view",
      "type": "function"
    },
    {
      "inputs": [
        {
          "internalType": "address",
          "name": "owner",
          "type": "address"
        }
      ],
      "name": "maxWithdraw",
      "outputs": [
        {
          "internalType": "uint256",
          "name": "maxAssets",
          "type": "uint256"
        }
      ],
      "stateMutability": "view",
      "type": "function"
    },
    {
      "inputs": [
        {
          "internalType": "uint256",
          "name": "shares",
          "type": "uint256"
        },
        {
          "internalType": "address",
          "name": "receiver",
          "type": "address"
        }
      ],
      "name": "mint",
      "outputs": [
        {
          "internalType": "uint256",
          "name": "assets",
          "type": "uint256"
        }
      ],
      "stateMutability": "nonpayable",
      "type": "function"
    },
    {
      "inputs": [],
      "name": "name",
      "outputs": [
        {
          "internalType": "string",
          "name": "",
          "type": "string"
        }
      ],
      "stateMutability": "view",
      "type": "function"
    },
    {
      "inputs": [
        {
          "internalType": "uint256",
          "name": "assets",
          "type": "uint256"
        }
      ],
      "name": "previewDeposit",
      "outputs": [
        {
          "internalType": "uint256",
          "name": "shares",
          "type": "uint256"
        }
      ],
      "stateMutability": "view",
      "type": "function"
    },
    {
      "inputs": [
        {
          "internalType": "uint256",
          "name": "shares",
          "type": "uint256"
        }
      ],
      "name": "previewMint",
      "outputs": [
        {
          "internalType": "uint256",
          "name": "assets",
          "type": "uint256"
        }
      ],
      "stateMutability": "view",
      "type": "function"
    },
    {
      "inputs": [
        {
          "internalType": "uint256",
          "name": "shares",
          "type": "uint256"
        }
      ],
      "name": "previewRedeem",
      "outputs": [
        {
          "internalType": "uint256",
          "name": "assets",
          "type": "uint256"
        }
      ],
      "stateMutability": "view",
      "type": "function"
    },
    {
      "inputs": [
        {
          "internalType": "uint256",
          "name": "assets",
          "type": "uint256"
        }
      ],
      "name": "previewWithdraw",
      "outputs": [
        {
          "internalType": "uint256",
          "name": "shares",
          "type": "uint256"
        }
      ],
      "stateMutability": "view",
      "type": "function"
    },
    {
      "inputs": [
        {
          "internalType": "uint256",
          "name": "shares",
          "type": "uint256"
        },
        {
          "internalType": "address",
          "name": "receiver",
          "type": "address"
        },
        {
          "internalType": "address",
          "name": "owner",
          "type": "address"
        }
      ],
      "name": "redeem",
      "outputs": [
        {
          "internalType": "uint256",
          "name": "assets",
          "type": "uint256"
        }
      ],
      "stateMutability": "nonpayable",
      "type": "function"
    },
    {
      "inputs": [
        {
          "internalType": "uint256",
          "name": "amount_",
          "type": "uint256"
        },
        {
          "internalType": "address",
          "name": "sendTo_",
          "type": "address"
        }
      ],
      "name": "requestWidthdraw",
      "outputs": [],
      "stateMutability": "nonpayable",
      "type": "function"
    },
    {
      "inputs": [
        {
          "internalType": "address",
          "name": "loaner_",
          "type": "address"
        }
      ],
      "name": "setLoaner",
      "outputs": [
        {
          "internalType": "contract ILoaner",
          "name": "loaner",
          "type": "address"
        }
      ],
      "stateMutability": "nonpayable",
      "type": "function"
    },
    {
      "inputs": [
        {
          "internalType": "address",
          "name": "vault_",
          "type": "address"
        }
      ],
      "name": "setVault",
      "outputs": [
        {
          "internalType": "contract IVault",
          "name": "vault",
          "type": "address"
        }
      ],
      "stateMutability": "nonpayable",
      "type": "function"
    },
    {
      "inputs": [],
      "name": "symbol",
      "outputs": [
        {
          "internalType": "string",
          "name": "",
          "type": "string"
        }
      ],
      "stateMutability": "view",
      "type": "function"
    },
    {
      "inputs": [],
      "name": "totalAssets",
      "outputs": [
        {
          "internalType": "uint256",
          "name": "totalManagedAssets",
          "type": "uint256"
        }
      ],
      "stateMutability": "view",
      "type": "function"
    },
    {
      "inputs": [],
      "name": "totalDaiInVault",
      "outputs": [
        {
          "internalType": "uint256",
          "name": "totalManagedAssets",
          "type": "uint256"
        }
      ],
      "stateMutability": "view",
      "type": "function"
    },
    {
      "inputs": [],
      "name": "totalSupply",
      "outputs": [
        {
          "internalType": "uint256",
          "name": "",
          "type": "uint256"
        }
      ],
      "stateMutability": "view",
      "type": "function"
    },
    {
      "inputs": [
        {
          "internalType": "address",
          "name": "to",
          "type": "address"
        },
        {
          "internalType": "uint256",
          "name": "amount",
          "type": "uint256"
        }
      ],
      "name": "transfer",
      "outputs": [
        {
          "internalType": "bool",
          "name": "",
          "type": "bool"
        }
      ],
      "stateMutability": "nonpayable",
      "type": "function"
    },
    {
      "inputs": [
        {
          "internalType": "address",
          "name": "from",
          "type": "address"
        },
        {
          "internalType": "address",
          "name": "to",
          "type": "address"
        },
        {
          "internalType": "uint256",
          "name": "amount",
          "type": "uint256"
        }
      ],
      "name": "transferFrom",
      "outputs": [
        {
          "internalType": "bool",
          "name": "",
          "type": "bool"
        }
      ],
      "stateMutability": "nonpayable",
      "type": "function"
    },
    {
      "inputs": [
        {
          "internalType": "uint256",
          "name": "assets",
          "type": "uint256"
        },
        {
          "internalType": "address",
          "name": "receiver",
          "type": "address"
        },
        {
          "internalType": "address",
          "name": "owner",
          "type": "address"
        }
      ],
      "name": "withdraw",
      "outputs": [
        {
          "internalType": "uint256",
          "name": "shares",
          "type": "uint256"
        }
      ],
      "stateMutability": "nonpayable",
      "type": "function"
    }
  ],
  "bytecode": "0x60a06040523480156200001157600080fd5b506040518060400160405280600581526020017f66657474690000000000000000000000000000000000000000000000000000008152506040518060400160405280600381526020017f464554000000000000000000000000000000000000000000000000000000000081525081600390816200008f9190620003dc565b508060049081620000a19190620003dc565b50505033600c60006101000a81548173ffffffffffffffffffffffffffffffffffffffff021916908373ffffffffffffffffffffffffffffffffffffffff160217905550738f3cf7ad23cd3cadbd9735aff958023239c6a06373ffffffffffffffffffffffffffffffffffffffff1660808173ffffffffffffffffffffffffffffffffffffffff168152505060016006819055506000600781905550426008819055506000600981905550603c600a819055506002600b81905550620004c3565b600081519050919050565b7f4e487b7100000000000000000000000000000000000000000000000000000000600052604160045260246000fd5b7f4e487b7100000000000000000000000000000000000000000000000000000000600052602260045260246000fd5b60006002820490506001821680620001e457607f821691505b602082108103620001fa57620001f96200019c565b5b50919050565b60008190508160005260206000209050919050565b60006020601f8301049050919050565b600082821b905092915050565b600060088302620002647fffffffffffffffffffffffffffffffffffffffffffffffffffffffffffffffff8262000225565b62000270868362000225565b95508019841693508086168417925050509392505050565b6000819050919050565b6000819050919050565b6000620002bd620002b7620002b18462000288565b62000292565b62000288565b9050919050565b6000819050919050565b620002d9836200029c565b620002f1620002e882620002c4565b84845462000232565b825550505050565b600090565b62000308620002f9565b62000315818484620002ce565b505050565b5b818110156200033d5762000331600082620002fe565b6001810190506200031b565b5050565b601f8211156200038c57620003568162000200565b620003618462000215565b8101602085101562000371578190505b62000389620003808562000215565b8301826200031a565b50505b505050565b600082821c905092915050565b6000620003b16000198460080262000391565b1980831691505092915050565b6000620003cc83836200039e565b9150826002028217905092915050565b620003e78262000162565b67ffffffffffffffff8111156200040357620004026200016d565b5b6200040f8254620001cb565b6200041c82828562000341565b600060209050601f8311600181146200045457600084156200043f578287015190505b6200044b8582620003be565b865550620004bb565b601f198416620004648662000200565b60005b828110156200048e5784890151825560018201915060208501945060208101905062000467565b86831015620004ae5784890151620004aa601f8916826200039e565b8355505b6001600288020188555050505b505050505050565b60805161460e6200051760003960008181610a8501528181610b4501528181610e5d0152818161106b015281816111d8015281816115e801528181611a1801528181611c94015261283a015261460e6000f3fe608060405234801561001057600080fd5b506004361061023d5760003560e01c806394bf804d1161013b578063ba087652116100b8578063ce96cb771161007c578063ce96cb7714610795578063d905777e146107c5578063dd62ed3e146107f5578063ef8b30f714610825578063f4027274146108555761023d565b8063ba087652146106c9578063ba8fba48146106f9578063c47ea8f614610717578063c63d75b614610735578063c6e6f592146107655761023d565b8063a93838bb116100ff578063a93838bb1461060f578063ae18a2ab1461062d578063b3d7f6b91461064b578063b460af941461067b578063b4f88ffc146106ab5761023d565b806394bf804d1461054357806395d89b41146105735780639d41f47114610591578063a457c2d7146105af578063a9059cbb146105df5761023d565b806338d52e0f116101c9578063672b5ad21161018d578063672b5ad2146104625780636817031b146104955780636e553f65146104c557806370a08231146104f55780638b1ce19e146105255761023d565b806338d52e0f1461039857806339509351146103b6578063402d267d146103e65780634cdad506146104165780635af06ba7146104465761023d565b80630a28a477116102105780630a28a477146102de578063169921b01461030e57806318160ddd1461032c57806323b872dd1461034a578063313ce5671461037a5761023d565b806301e1d1141461024257806306fdde031461026057806307a2d13a1461027e578063095ea7b3146102ae575b600080fd5b61024a610885565b6040516102579190613232565b60405180910390f35b61026861091d565b60405161027591906132dd565b60405180910390f35b61029860048036038101906102939190613330565b6109af565b6040516102a59190613232565b60405180910390f35b6102c860048036038101906102c391906133bb565b6109c3565b6040516102d59190613416565b60405180910390f35b6102f860048036038101906102f39190613330565b6109e6565b6040516103059190613232565b60405180910390f35b6103166109fa565b6040516103239190613232565b60405180910390f35b610334611192565b6040516103419190613232565b60405180910390f35b610364600480360381019061035f9190613431565b61119c565b6040516103719190613416565b60405180910390f35b6103826111cb565b60405161038f91906134a0565b60405180910390f35b6103a06111d4565b6040516103ad91906134ca565b60405180910390f35b6103d060048036038101906103cb91906133bb565b6111fc565b6040516103dd9190613416565b60405180910390f35b61040060048036038101906103fb91906134e5565b611233565b60405161040d9190613232565b60405180910390f35b610430600480360381019061042b9190613330565b611271565b60405161043d9190613232565b60405180910390f35b610460600480360381019061045b9190613512565b611285565b005b61047c600480360381019061047791906134e5565b61144b565b60405161048c9493929190613552565b60405180910390f35b6104af60048036038101906104aa91906134e5565b61149b565b6040516104bc91906135f6565b60405180910390f35b6104df60048036038101906104da9190613512565b611598565b6040516104ec9190613232565b60405180910390f35b61050f600480360381019061050a91906134e5565b6116e8565b60405161051c9190613232565b60405180910390f35b61052d611730565b60405161053a9190613232565b60405180910390f35b61055d60048036038101906105589190613512565b611736565b60405161056a9190613232565b60405180910390f35b61057b6117aa565b60405161058891906132dd565b60405180910390f35b61059961183c565b6040516105a69190613232565b60405180910390f35b6105c960048036038101906105c491906133bb565b611842565b6040516105d69190613416565b60405180910390f35b6105f960048036038101906105f491906133bb565b6118b9565b6040516106069190613416565b60405180910390f35b6106176118dc565b6040516106249190613232565b60405180910390f35b6106356118e2565b6040516106429190613232565b60405180910390f35b61066560048036038101906106609190613330565b6118e8565b6040516106729190613232565b60405180910390f35b61069560048036038101906106909190613611565b6118fc565b6040516106a29190613232565b60405180910390f35b6106b3611b72565b6040516106c09190613232565b60405180910390f35b6106e360048036038101906106de9190613611565b611b78565b6040516106f09190613232565b60405180910390f35b610701611df1565b60405161070e9190613232565b60405180910390f35b61071f611e89565b60405161072c9190613232565b60405180910390f35b61074f600480360381019061074a91906134e5565b611e8f565b60405161075c9190613232565b60405180910390f35b61077f600480360381019061077a9190613330565b611eb9565b60405161078c9190613232565b60405180910390f35b6107af60048036038101906107aa91906134e5565b611ecd565b6040516107bc9190613232565b60405180910390f35b6107df60048036038101906107da91906134e5565b611f97565b6040516107ec9190613232565b60405180910390f35b61080f600480360381019061080a9190613664565b612075565b60405161081c9190613232565b60405180910390f35b61083f600480360381019061083a9190613330565b6120fc565b60405161084c9190613232565b60405180910390f35b61086f600480360381019061086a91906134e5565b612110565b60405161087c91906136c5565b60405180910390f35b6000600d60009054906101000a900473ffffffffffffffffffffffffffffffffffffffff1673ffffffffffffffffffffffffffffffffffffffff16630a0d0c3f6040518163ffffffff1660e01b8152600401602060405180830381865afa1580156108f4573d6000803e3d6000fd5b505050506040513d601f19601f8201168201806040525081019061091891906136f5565b905090565b60606003805461092c90613751565b80601f016020809104026020016040519081016040528092919081815260200182805461095890613751565b80156109a55780601f1061097a576101008083540402835291602001916109a5565b820191906000526020600020905b81548152906001019060200180831161098857829003601f168201915b5050505050905090565b60006109bc82600061220d565b9050919050565b6000806109ce612259565b90506109db818585612261565b600191505092915050565b60006109f382600161242a565b9050919050565b6000600a54600854610a0c91906137b1565b4210611189576000610a1c611192565b03610a2e576000600781905550610a62565b610a36611192565b670de0b6b3a7640000610a47610885565b610a5191906137e5565b610a5b9190613856565b6007819055505b4260088190555060066000815480929190610a7c90613887565b919050555060007f000000000000000000000000000000000000000000000000000000000000000073ffffffffffffffffffffffffffffffffffffffff166370a08231600d60009054906101000a900473ffffffffffffffffffffffffffffffffffffffff166040518263ffffffff1660e01b8152600401610afe91906134ca565b602060405180830381865afa158015610b1b573d6000803e3d6000fd5b505050506040513d601f19601f82011682018060405250810190610b3f91906136f5565b905060007f000000000000000000000000000000000000000000000000000000000000000073ffffffffffffffffffffffffffffffffffffffff166370a08231600e60009054906101000a900473ffffffffffffffffffffffffffffffffffffffff166040518263ffffffff1660e01b8152600401610bbe91906134ca565b602060405180830381865afa158015610bdb573d6000803e3d6000fd5b505050506040513d601f19601f82011682018060405250810190610bff91906136f5565b9050816009541115610f71578082610c1791906137b1565b6009541115610d7157600b6000815480929190610c3390613887565b9190505550600e60009054906101000a900473ffffffffffffffffffffffffffffffffffffffff1673ffffffffffffffffffffffffffffffffffffffff16630f309b07826040518263ffffffff1660e01b8152600401610c939190613232565b6020604051808303816000875af1158015610cb2573d6000803e3d6000fd5b505050506040513d601f19601f82011682018060405250810190610cd691906136f5565b50600e60009054906101000a900473ffffffffffffffffffffffffffffffffffffffff1673ffffffffffffffffffffffffffffffffffffffff1663779da96760006040518263ffffffff1660e01b8152600401610d33919061390a565b600060405180830381600087803b158015610d4d57600080fd5b505af1158015610d61573d6000803e3d6000fd5b505050506006549250505061118f565b600e60009054906101000a900473ffffffffffffffffffffffffffffffffffffffff1673ffffffffffffffffffffffffffffffffffffffff16630f309b0783600954610dbd9190613925565b6040518263ffffffff1660e01b8152600401610dd99190613232565b6020604051808303816000875af1158015610df8573d6000803e3d6000fd5b505050506040513d601f19601f82011682018060405250810190610e1c91906136f5565b50600e60009054906101000a900473ffffffffffffffffffffffffffffffffffffffff1673ffffffffffffffffffffffffffffffffffffffff1663779da9677f000000000000000000000000000000000000000000000000000000000000000073ffffffffffffffffffffffffffffffffffffffff166370a08231600e60009054906101000a900473ffffffffffffffffffffffffffffffffffffffff166040518263ffffffff1660e01b8152600401610ed691906134ca565b602060405180830381865afa158015610ef3573d6000803e3d6000fd5b505050506040513d601f19601f82011682018060405250810190610f1791906136f5565b6040518263ffffffff1660e01b8152600401610f339190613232565b600060405180830381600087803b158015610f4d57600080fd5b505af1158015610f61573d6000803e3d6000fd5b505050506006549250505061118f565b600060095483610f819190613925565b9050600081111561117457600d60009054906101000a900473ffffffffffffffffffffffffffffffffffffffff1673ffffffffffffffffffffffffffffffffffffffff1663869dcaed826040518263ffffffff1660e01b8152600401610fe79190613232565b6020604051808303816000875af1158015611006573d6000803e3d6000fd5b505050506040513d601f19601f8201168201806040525081019061102a91906136f5565b50600e60009054906101000a900473ffffffffffffffffffffffffffffffffffffffff1673ffffffffffffffffffffffffffffffffffffffff1663779da9677f000000000000000000000000000000000000000000000000000000000000000073ffffffffffffffffffffffffffffffffffffffff166370a08231600e60009054906101000a900473ffffffffffffffffffffffffffffffffffffffff166040518263ffffffff1660e01b81526004016110e491906134ca565b602060405180830381865afa158015611101573d6000803e3d6000fd5b505050506040513d601f19601f8201168201806040525081019061112591906136f5565b6040518263ffffffff1660e01b81526004016111419190613232565b600060405180830381600087803b15801561115b57600080fd5b505af115801561116f573d6000803e3d6000fd5b505050505b6001600b81905550600654935050505061118f565b60065490505b90565b6000600254905090565b6000806111a7612259565b90506111b4858285612487565b6111bf858585612513565b60019150509392505050565b60006012905090565b60007f0000000000000000000000000000000000000000000000000000000000000000905090565b600080611207612259565b90506112288185856112198589612075565b61122391906137b1565b612261565b600191505092915050565b600061123d612789565b61124857600061126a565b7fffffffffffffffffffffffffffffffffffffffffffffffffffffffffffffffff5b9050919050565b600061127e82600061220d565b9050919050565b8161128f336116e8565b10156112d0576040517f08c379a00000000000000000000000000000000000000000000000000000000081526004016112c7906139a5565b60405180910390fd5b816112db3330612075565b101561131c576040517f08c379a000000000000000000000000000000000000000000000000000000000815260040161131390613a37565b60405180910390fd5b611328303330856127ac565b6000670de0b6b3a76400006007548461134191906137e5565b61134b9190613856565b9050806009600082825461135f91906137b1565b92505081905550604051806080016040528060065481526020018281526020018481526020018373ffffffffffffffffffffffffffffffffffffffff16815250600560003373ffffffffffffffffffffffffffffffffffffffff1673ffffffffffffffffffffffffffffffffffffffff16815260200190815260200160002060008201518160000155602082015181600101556040820151816002015560608201518160030160006101000a81548173ffffffffffffffffffffffffffffffffffffffff021916908373ffffffffffffffffffffffffffffffffffffffff160217905550905050505050565b60056020528060005260406000206000915090508060000154908060010154908060020154908060030160009054906101000a900473ffffffffffffffffffffffffffffffffffffffff16905084565b60003373ffffffffffffffffffffffffffffffffffffffff16600c60009054906101000a900473ffffffffffffffffffffffffffffffffffffffff1673ffffffffffffffffffffffffffffffffffffffff161461152d576040517f08c379a000000000000000000000000000000000000000000000000000000000815260040161152490613aa3565b60405180910390fd5b81600d60006101000a81548173ffffffffffffffffffffffffffffffffffffffff021916908373ffffffffffffffffffffffffffffffffffffffff160217905550600d60009054906101000a900473ffffffffffffffffffffffffffffffffffffffff169050919050565b60006115a382611233565b8311156115e5576040517f08c379a00000000000000000000000000000000000000000000000000000000081526004016115dc90613b0f565b60405180910390fd5b827f000000000000000000000000000000000000000000000000000000000000000073ffffffffffffffffffffffffffffffffffffffff166370a08231336040518263ffffffff1660e01b815260040161163f91906134ca565b602060405180830381865afa15801561165c573d6000803e3d6000fd5b505050506040513d601f19601f8201168201806040525081019061168091906136f5565b10156116c1576040517f08c379a00000000000000000000000000000000000000000000000000000000081526004016116b890613b7b565b60405180910390fd5b60006116cc846120fc565b90506116e16116d9612259565b848684612835565b5092915050565b60008060008373ffffffffffffffffffffffffffffffffffffffff1673ffffffffffffffffffffffffffffffffffffffff168152602001908152602001600020549050919050565b600b5481565b600061174182611e8f565b831115611783576040517f08c379a000000000000000000000000000000000000000000000000000000000815260040161177a90613be7565b60405180910390fd5b600061178e846118e8565b90506117a361179b612259565b848387612835565b5092915050565b6060600480546117b990613751565b80601f01602080910402602001604051908101604052809291908181526020018280546117e590613751565b80156118325780601f1061180757610100808354040283529160200191611832565b820191906000526020600020905b81548152906001019060200180831161181557829003601f168201915b5050505050905090565b60085481565b60008061184d612259565b9050600061185b8286612075565b9050838110156118a0576040517f08c379a000000000000000000000000000000000000000000000000000000000815260040161189790613c79565b60405180910390fd5b6118ad8286868403612261565b60019250505092915050565b6000806118c4612259565b90506118d1818585612513565b600191505092915050565b60065481565b60095481565b60006118f582600161220d565b9050919050565b600080600560003373ffffffffffffffffffffffffffffffffffffffff1673ffffffffffffffffffffffffffffffffffffffff1681526020019081526020016000206040518060800160405290816000820154815260200160018201548152602001600282015481526020016003820160009054906101000a900473ffffffffffffffffffffffffffffffffffffffff1673ffffffffffffffffffffffffffffffffffffffff1673ffffffffffffffffffffffffffffffffffffffff16815250509050600654600b5482600001516119d491906137b1565b1015611a15576040517f08c379a0000000000000000000000000000000000000000000000000000000008152600401611a0c90613d0b565b60405180910390fd5b847f000000000000000000000000000000000000000000000000000000000000000073ffffffffffffffffffffffffffffffffffffffff166370a08231306040518263ffffffff1660e01b8152600401611a6f91906134ca565b602060405180830381865afa158015611a8c573d6000803e3d6000fd5b505050506040513d601f19601f82011682018060405250810190611ab091906136f5565b11611af0576040517f08c379a0000000000000000000000000000000000000000000000000000000008152600401611ae790613d77565b60405180910390fd5b8060400151611afe306116e8565b1015611b3f576040517f08c379a0000000000000000000000000000000000000000000000000000000008152600401611b3690613de3565b60405180910390fd5b611b4d3382602001516109c3565b50611b6a611b59612259565b8530846020015185604001516128fa565b509392505050565b60075481565b600080600560003373ffffffffffffffffffffffffffffffffffffffff1673ffffffffffffffffffffffffffffffffffffffff1681526020019081526020016000206040518060800160405290816000820154815260200160018201548152602001600282015481526020016003820160009054906101000a900473ffffffffffffffffffffffffffffffffffffffff1673ffffffffffffffffffffffffffffffffffffffff1673ffffffffffffffffffffffffffffffffffffffff16815250509050600654600b548260000151611c5091906137b1565b1015611c91576040517f08c379a0000000000000000000000000000000000000000000000000000000008152600401611c8890613d0b565b60405180910390fd5b817f000000000000000000000000000000000000000000000000000000000000000073ffffffffffffffffffffffffffffffffffffffff166370a08231306040518263ffffffff1660e01b8152600401611ceb91906134ca565b602060405180830381865afa158015611d08573d6000803e3d6000fd5b505050506040513d601f19601f82011682018060405250810190611d2c91906136f5565b11611d6c576040517f08c379a0000000000000000000000000000000000000000000000000000000008152600401611d6390613d77565b60405180910390fd5b8060400151611d7a306116e8565b1015611dbb576040517f08c379a0000000000000000000000000000000000000000000000000000000008152600401611db290613de3565b60405180910390fd5b611dc93382602001516109c3565b50611de6611dd5612259565b8530846020015185604001516128fa565b849150509392505050565b6000600d60009054906101000a900473ffffffffffffffffffffffffffffffffffffffff1673ffffffffffffffffffffffffffffffffffffffff1663ba8fba486040518163ffffffff1660e01b8152600401602060405180830381865afa158015611e60573d6000803e3d6000fd5b505050506040513d601f19601f82011682018060405250810190611e8491906136f5565b905090565b600a5481565b60007fffffffffffffffffffffffffffffffffffffffffffffffffffffffffffffffff9050919050565b6000611ec682600061242a565b9050919050565b600080600d60009054906101000a900473ffffffffffffffffffffffffffffffffffffffff1673ffffffffffffffffffffffffffffffffffffffff1663ba8fba486040518163ffffffff1660e01b8152600401602060405180830381865afa158015611f3d573d6000803e3d6000fd5b505050506040513d601f19601f82011682018060405250810190611f6191906136f5565b90506000611f78611f71856116e8565b600061220d565b905080821115611f8c578092505050611f92565b81925050505b919050565b600080612035600d60009054906101000a900473ffffffffffffffffffffffffffffffffffffffff1673ffffffffffffffffffffffffffffffffffffffff1663ba8fba486040518163ffffffff1660e01b8152600401602060405180830381865afa15801561200a573d6000803e3d6000fd5b505050506040513d601f19601f8201168201806040525081019061202e91906136f5565b600161242a565b90506000612042846116e8565b9050808211156120605761205781600061242a565b92505050612070565b61206b82600061242a565b925050505b919050565b6000600160008473ffffffffffffffffffffffffffffffffffffffff1673ffffffffffffffffffffffffffffffffffffffff16815260200190815260200160002060008373ffffffffffffffffffffffffffffffffffffffff1673ffffffffffffffffffffffffffffffffffffffff16815260200190815260200160002054905092915050565b600061210982600061242a565b9050919050565b60003373ffffffffffffffffffffffffffffffffffffffff16600c60009054906101000a900473ffffffffffffffffffffffffffffffffffffffff1673ffffffffffffffffffffffffffffffffffffffff16146121a2576040517f08c379a000000000000000000000000000000000000000000000000000000000815260040161219990613aa3565b60405180910390fd5b81600e60006101000a81548173ffffffffffffffffffffffffffffffffffffffff021916908373ffffffffffffffffffffffffffffffffffffffff160217905550600e60009054906101000a900473ffffffffffffffffffffffffffffffffffffffff169050919050565b600080612218611192565b9050600081146122455761224061222d610885565b828587612af1909392919063ffffffff16565b612250565b61224f8484612b67565b5b91505092915050565b600033905090565b600073ffffffffffffffffffffffffffffffffffffffff168373ffffffffffffffffffffffffffffffffffffffff16036122d0576040517f08c379a00000000000000000000000000000000000000000000000000000000081526004016122c790613e75565b60405180910390fd5b600073ffffffffffffffffffffffffffffffffffffffff168273ffffffffffffffffffffffffffffffffffffffff160361233f576040517f08c379a000000000000000000000000000000000000000000000000000000000815260040161233690613f07565b60405180910390fd5b80600160008573ffffffffffffffffffffffffffffffffffffffff1673ffffffffffffffffffffffffffffffffffffffff16815260200190815260200160002060008473ffffffffffffffffffffffffffffffffffffffff1673ffffffffffffffffffffffffffffffffffffffff168152602001908152602001600020819055508173ffffffffffffffffffffffffffffffffffffffff168373ffffffffffffffffffffffffffffffffffffffff167f8c5be1e5ebec7d5bd14f71427d1e84f3dd0314c0f7b2291e5b200ac8c7c3b9258360405161241d9190613232565b60405180910390a3505050565b600080612435611192565b90506000612441610885565b905060008514806124525750600082145b6124725761246d82828688612af1909392919063ffffffff16565b61247d565b61247c8585612b72565b5b9250505092915050565b60006124938484612075565b90507fffffffffffffffffffffffffffffffffffffffffffffffffffffffffffffffff811461250d57818110156124ff576040517f08c379a00000000000000000000000000000000000000000000000000000000081526004016124f690613f73565b60405180910390fd5b61250c8484848403612261565b5b50505050565b600073ffffffffffffffffffffffffffffffffffffffff168373ffffffffffffffffffffffffffffffffffffffff1603612582576040517f08c379a000000000000000000000000000000000000000000000000000000000815260040161257990614005565b60405180910390fd5b600073ffffffffffffffffffffffffffffffffffffffff168273ffffffffffffffffffffffffffffffffffffffff16036125f1576040517f08c379a00000000000000000000000000000000000000000000000000000000081526004016125e890614097565b60405180910390fd5b6125fc838383612b7d565b60008060008573ffffffffffffffffffffffffffffffffffffffff1673ffffffffffffffffffffffffffffffffffffffff16815260200190815260200160002054905081811015612682576040517f08c379a000000000000000000000000000000000000000000000000000000000815260040161267990614129565b60405180910390fd5b8181036000808673ffffffffffffffffffffffffffffffffffffffff1673ffffffffffffffffffffffffffffffffffffffff16815260200190815260200160002081905550816000808573ffffffffffffffffffffffffffffffffffffffff1673ffffffffffffffffffffffffffffffffffffffff168152602001908152602001600020600082825401925050819055508273ffffffffffffffffffffffffffffffffffffffff168473ffffffffffffffffffffffffffffffffffffffff167fddf252ad1be2c89b69c2b068fc378daa952ba7f163c4a11628f55a4df523b3ef846040516127709190613232565b60405180910390a3612783848484612b82565b50505050565b600080612794610885565b11806127a7575060006127a5611192565b145b905090565b61282f846323b872dd60e01b8585856040516024016127cd93929190614149565b604051602081830303815290604052907bffffffffffffffffffffffffffffffffffffffffffffffffffffffff19166020820180517bffffffffffffffffffffffffffffffffffffffffffffffffffffffff8381831617835250505050612b87565b50505050565b6128837f000000000000000000000000000000000000000000000000000000000000000085600d60009054906101000a900473ffffffffffffffffffffffffffffffffffffffff16856127ac565b61288d8382612c4e565b8273ffffffffffffffffffffffffffffffffffffffff168473ffffffffffffffffffffffffffffffffffffffff167fdcbc1c05240f31ff3ad067ef1ee35ce4997762752e3a095284754544f4c709d784846040516128ec929190614180565b60405180910390a350505050565b8273ffffffffffffffffffffffffffffffffffffffff168573ffffffffffffffffffffffffffffffffffffffff161461293957612938838683612487565b5b600560003373ffffffffffffffffffffffffffffffffffffffff1673ffffffffffffffffffffffffffffffffffffffff168152602001908152602001600020600080820160009055600182016000905560028201600090556003820160006101000a81549073ffffffffffffffffffffffffffffffffffffffff0219169055505081600960008282546129cc9190613925565b925050819055506129dd8382612da4565b600d60009054906101000a900473ffffffffffffffffffffffffffffffffffffffff1673ffffffffffffffffffffffffffffffffffffffff1663c74b197c85846040518363ffffffff1660e01b8152600401612a3a9291906141a9565b600060405180830381600087803b158015612a5457600080fd5b505af1158015612a68573d6000803e3d6000fd5b505050508273ffffffffffffffffffffffffffffffffffffffff168473ffffffffffffffffffffffffffffffffffffffff168673ffffffffffffffffffffffffffffffffffffffff167ffbde797d201c681b91056529119e0b02407c7bb96a4a2c75c01fc9667232c8db8585604051612ae2929190614180565b60405180910390a45050505050565b600080612aff868686612f71565b905060016002811115612b1557612b146141d2565b5b836002811115612b2857612b276141d2565b5b148015612b46575060008480612b4157612b40613827565b5b868809115b15612b5b57600181612b5891906137b1565b90505b80915050949350505050565b600082905092915050565b600082905092915050565b505050565b505050565b6000612be9826040518060400160405280602081526020017f5361666545524332303a206c6f772d6c6576656c2063616c6c206661696c65648152508573ffffffffffffffffffffffffffffffffffffffff1661304c9092919063ffffffff16565b9050600081511115612c495780806020019051810190612c09919061422d565b612c48576040517f08c379a0000000000000000000000000000000000000000000000000000000008152600401612c3f906142cc565b60405180910390fd5b5b505050565b600073ffffffffffffffffffffffffffffffffffffffff168273ffffffffffffffffffffffffffffffffffffffff1603612cbd576040517f08c379a0000000000000000000000000000000000000000000000000000000008152600401612cb490614338565b60405180910390fd5b612cc960008383612b7d565b8060026000828254612cdb91906137b1565b92505081905550806000808473ffffffffffffffffffffffffffffffffffffffff1673ffffffffffffffffffffffffffffffffffffffff168152602001908152602001600020600082825401925050819055508173ffffffffffffffffffffffffffffffffffffffff16600073ffffffffffffffffffffffffffffffffffffffff167fddf252ad1be2c89b69c2b068fc378daa952ba7f163c4a11628f55a4df523b3ef83604051612d8c9190613232565b60405180910390a3612da060008383612b82565b5050565b600073ffffffffffffffffffffffffffffffffffffffff168273ffffffffffffffffffffffffffffffffffffffff1603612e13576040517f08c379a0000000000000000000000000000000000000000000000000000000008152600401612e0a906143ca565b60405180910390fd5b612e1f82600083612b7d565b60008060008473ffffffffffffffffffffffffffffffffffffffff1673ffffffffffffffffffffffffffffffffffffffff16815260200190815260200160002054905081811015612ea5576040517f08c379a0000000000000000000000000000000000000000000000000000000008152600401612e9c9061445c565b60405180910390fd5b8181036000808573ffffffffffffffffffffffffffffffffffffffff1673ffffffffffffffffffffffffffffffffffffffff1681526020019081526020016000208190555081600260008282540392505081905550600073ffffffffffffffffffffffffffffffffffffffff168373ffffffffffffffffffffffffffffffffffffffff167fddf252ad1be2c89b69c2b068fc378daa952ba7f163c4a11628f55a4df523b3ef84604051612f589190613232565b60405180910390a3612f6c83600084612b82565b505050565b6000806000801985870985870292508281108382030391505060008103612fac57838281612fa257612fa1613827565b5b0492505050613045565b808411612fb857600080fd5b60008486880990508281118203915080830392506000600186190186169050808604955080840493506001818260000304019050808302841793506000600287600302189050808702600203810290508087026002038102905080870260020381029050808702600203810290508087026002038102905080870260020381029050808502955050505050505b9392505050565b606061305b8484600085613064565b90509392505050565b6060824710156130a9576040517f08c379a00000000000000000000000000000000000000000000000000000000081526004016130a0906144ee565b60405180910390fd5b6000808673ffffffffffffffffffffffffffffffffffffffff1685876040516130d29190614555565b60006040518083038185875af1925050503d806000811461310f576040519150601f19603f3d011682016040523d82523d6000602084013e613114565b606091505b509150915061312587838387613131565b92505050949350505050565b6060831561319357600083510361318b5761314b856131a6565b61318a576040517f08c379a0000000000000000000000000000000000000000000000000000000008152600401613181906145b8565b60405180910390fd5b5b82905061319e565b61319d83836131c9565b5b949350505050565b6000808273ffffffffffffffffffffffffffffffffffffffff163b119050919050565b6000825111156131dc5781518083602001fd5b806040517f08c379a000000000000000000000000000000000000000000000000000000000815260040161321091906132dd565b60405180910390fd5b6000819050919050565b61322c81613219565b82525050565b60006020820190506132476000830184613223565b92915050565b600081519050919050565b600082825260208201905092915050565b60005b8381101561328757808201518184015260208101905061326c565b60008484015250505050565b6000601f19601f8301169050919050565b60006132af8261324d565b6132b98185613258565b93506132c9818560208601613269565b6132d281613293565b840191505092915050565b600060208201905081810360008301526132f781846132a4565b905092915050565b600080fd5b61330d81613219565b811461331857600080fd5b50565b60008135905061332a81613304565b92915050565b600060208284031215613346576133456132ff565b5b60006133548482850161331b565b91505092915050565b600073ffffffffffffffffffffffffffffffffffffffff82169050919050565b60006133888261335d565b9050919050565b6133988161337d565b81146133a357600080fd5b50565b6000813590506133b58161338f565b92915050565b600080604083850312156133d2576133d16132ff565b5b60006133e0858286016133a6565b92505060206133f18582860161331b565b9150509250929050565b60008115159050919050565b613410816133fb565b82525050565b600060208201905061342b6000830184613407565b92915050565b60008060006060848603121561344a576134496132ff565b5b6000613458868287016133a6565b9350506020613469868287016133a6565b925050604061347a8682870161331b565b9150509250925092565b600060ff82169050919050565b61349a81613484565b82525050565b60006020820190506134b56000830184613491565b92915050565b6134c48161337d565b82525050565b60006020820190506134df60008301846134bb565b92915050565b6000602082840312156134fb576134fa6132ff565b5b6000613509848285016133a6565b91505092915050565b60008060408385031215613529576135286132ff565b5b60006135378582860161331b565b9250506020613548858286016133a6565b9150509250929050565b60006080820190506135676000830187613223565b6135746020830186613223565b6135816040830185613223565b61358e60608301846134bb565b95945050505050565b6000819050919050565b60006135bc6135b76135b28461335d565b613597565b61335d565b9050919050565b60006135ce826135a1565b9050919050565b60006135e0826135c3565b9050919050565b6135f0816135d5565b82525050565b600060208201905061360b60008301846135e7565b92915050565b60008060006060848603121561362a576136296132ff565b5b60006136388682870161331b565b9350506020613649868287016133a6565b925050604061365a868287016133a6565b9150509250925092565b6000806040838503121561367b5761367a6132ff565b5b6000613689858286016133a6565b925050602061369a858286016133a6565b9150509250929050565b60006136af826135c3565b9050919050565b6136bf816136a4565b82525050565b60006020820190506136da60008301846136b6565b92915050565b6000815190506136ef81613304565b92915050565b60006020828403121561370b5761370a6132ff565b5b6000613719848285016136e0565b91505092915050565b7f4e487b7100000000000000000000000000000000000000000000000000000000600052602260045260246000fd5b6000600282049050600182168061376957607f821691505b60208210810361377c5761377b613722565b5b50919050565b7f4e487b7100000000000000000000000000000000000000000000000000000000600052601160045260246000fd5b60006137bc82613219565b91506137c783613219565b92508282019050808211156137df576137de613782565b5b92915050565b60006137f082613219565b91506137fb83613219565b925082820261380981613219565b915082820484148315176138205761381f613782565b5b5092915050565b7f4e487b7100000000000000000000000000000000000000000000000000000000600052601260045260246000fd5b600061386182613219565b915061386c83613219565b92508261387c5761387b613827565b5b828204905092915050565b600061389282613219565b91507fffffffffffffffffffffffffffffffffffffffffffffffffffffffffffffffff82036138c4576138c3613782565b5b600182019050919050565b6000819050919050565b60006138f46138ef6138ea846138cf565b613597565b613219565b9050919050565b613904816138d9565b82525050565b600060208201905061391f60008301846138fb565b92915050565b600061393082613219565b915061393b83613219565b925082820390508181111561395357613952613782565b5b92915050565b7f646f6e2774206861766520656e6f75676820746f6b656e730000000000000000600082015250565b600061398f601883613258565b915061399a82613959565b602082019050919050565b600060208201905081810360008301526139be81613982565b9050919050565b7f646f6e2774206861766520656e6f75676820746f6b656e7320617070726f766560008201527f6400000000000000000000000000000000000000000000000000000000000000602082015250565b6000613a21602183613258565b9150613a2c826139c5565b604082019050919050565b60006020820190508181036000830152613a5081613a14565b9050919050565b7f4d7573742062652074686520676f762121000000000000000000000000000000600082015250565b6000613a8d601183613258565b9150613a9882613a57565b602082019050919050565b60006020820190508181036000830152613abc81613a80565b9050919050565b7f455243343632363a206465706f736974206d6f7265207468616e206d61780000600082015250565b6000613af9601e83613258565b9150613b0482613ac3565b602082019050919050565b60006020820190508181036000830152613b2881613aec565b9050919050565b7f4e6f7420656e6f7567682061737365747320696e207468652077616c6c657400600082015250565b6000613b65601f83613258565b9150613b7082613b2f565b602082019050919050565b60006020820190508181036000830152613b9481613b58565b9050919050565b7f455243343632363a206d696e74206d6f7265207468616e206d61780000000000600082015250565b6000613bd1601b83613258565b9150613bdc82613b9b565b602082019050919050565b60006020820190508181036000830152613c0081613bc4565b9050919050565b7f45524332303a2064656372656173656420616c6c6f77616e63652062656c6f7760008201527f207a65726f000000000000000000000000000000000000000000000000000000602082015250565b6000613c63602583613258565b9150613c6e82613c07565b604082019050919050565b60006020820190508181036000830152613c9281613c56565b9050919050565b7f4e6f207265717565737420666f756e64206f722072657571657374206e6f742060008201527f776974686472617761626c652079657400000000000000000000000000000000602082015250565b6000613cf5603083613258565b9150613d0082613c99565b604082019050919050565b60006020820190508181036000830152613d2481613ce8565b9050919050565b7f4e6f7420656e6f7567682064616920696e207661756c74000000000000000000600082015250565b6000613d61601783613258565b9150613d6c82613d2b565b602082019050919050565b60006020820190508181036000830152613d9081613d54565b9050919050565b7f6e6f7420656e6f756768206c697120696e20746865207661756c740000000000600082015250565b6000613dcd601b83613258565b9150613dd882613d97565b602082019050919050565b60006020820190508181036000830152613dfc81613dc0565b9050919050565b7f45524332303a20617070726f76652066726f6d20746865207a65726f2061646460008201527f7265737300000000000000000000000000000000000000000000000000000000602082015250565b6000613e5f602483613258565b9150613e6a82613e03565b604082019050919050565b60006020820190508181036000830152613e8e81613e52565b9050919050565b7f45524332303a20617070726f766520746f20746865207a65726f20616464726560008201527f7373000000000000000000000000000000000000000000000000000000000000602082015250565b6000613ef1602283613258565b9150613efc82613e95565b604082019050919050565b60006020820190508181036000830152613f2081613ee4565b9050919050565b7f45524332303a20696e73756666696369656e7420616c6c6f77616e6365000000600082015250565b6000613f5d601d83613258565b9150613f6882613f27565b602082019050919050565b60006020820190508181036000830152613f8c81613f50565b9050919050565b7f45524332303a207472616e736665722066726f6d20746865207a65726f20616460008201527f6472657373000000000000000000000000000000000000000000000000000000602082015250565b6000613fef602583613258565b9150613ffa82613f93565b604082019050919050565b6000602082019050818103600083015261401e81613fe2565b9050919050565b7f45524332303a207472616e7366657220746f20746865207a65726f206164647260008201527f6573730000000000000000000000000000000000000000000000000000000000602082015250565b6000614081602383613258565b915061408c82614025565b604082019050919050565b600060208201905081810360008301526140b081614074565b9050919050565b7f45524332303a207472616e7366657220616d6f756e742065786365656473206260008201527f616c616e63650000000000000000000000000000000000000000000000000000602082015250565b6000614113602683613258565b915061411e826140b7565b604082019050919050565b6000602082019050818103600083015261414281614106565b9050919050565b600060608201905061415e60008301866134bb565b61416b60208301856134bb565b6141786040830184613223565b949350505050565b60006040820190506141956000830185613223565b6141a26020830184613223565b9392505050565b60006040820190506141be60008301856134bb565b6141cb6020830184613223565b9392505050565b7f4e487b7100000000000000000000000000000000000000000000000000000000600052602160045260246000fd5b61420a816133fb565b811461421557600080fd5b50565b60008151905061422781614201565b92915050565b600060208284031215614243576142426132ff565b5b600061425184828501614218565b91505092915050565b7f5361666545524332303a204552433230206f7065726174696f6e20646964206e60008201527f6f74207375636365656400000000000000000000000000000000000000000000602082015250565b60006142b6602a83613258565b91506142c18261425a565b604082019050919050565b600060208201905081810360008301526142e5816142a9565b9050919050565b7f45524332303a206d696e7420746f20746865207a65726f206164647265737300600082015250565b6000614322601f83613258565b915061432d826142ec565b602082019050919050565b6000602082019050818103600083015261435181614315565b9050919050565b7f45524332303a206275726e2066726f6d20746865207a65726f2061646472657360008201527f7300000000000000000000000000000000000000000000000000000000000000602082015250565b60006143b4602183613258565b91506143bf82614358565b604082019050919050565b600060208201905081810360008301526143e3816143a7565b9050919050565b7f45524332303a206275726e20616d6f756e7420657863656564732062616c616e60008201527f6365000000000000000000000000000000000000000000000000000000000000602082015250565b6000614446602283613258565b9150614451826143ea565b604082019050919050565b6000602082019050818103600083015261447581614439565b9050919050565b7f416464726573733a20696e73756666696369656e742062616c616e636520666f60008201527f722063616c6c0000000000000000000000000000000000000000000000000000602082015250565b60006144d8602683613258565b91506144e38261447c565b604082019050919050565b60006020820190508181036000830152614507816144cb565b9050919050565b600081519050919050565b600081905092915050565b600061452f8261450e565b6145398185614519565b9350614549818560208601613269565b80840191505092915050565b60006145618284614524565b915081905092915050565b7f416464726573733a2063616c6c20746f206e6f6e2d636f6e7472616374000000600082015250565b60006145a2601d83613258565b91506145ad8261456c565b602082019050919050565b600060208201905081810360008301526145d181614595565b905091905056fea264697066735822122001716f0ff27d9ba9fc39e638d6d53739523592ecf27c9d26708676f1515552e764736f6c63430008110033",
  "linkReferences": {},
  "deployedLinkReferences": {}
}