{
  "_format": "hh-sol-artifact-1",
  "contractName": "FettiERC20",
  "sourceName": "contracts/FettiERC20.sol",
  "abi": [
    {
      "inputs": [],
      "stateMutability": "nonpayable",
      "type": "constructor"
    },
    {
      "anonymous": false,
      "inputs": [
        {
          "indexed": true,
          "internalType": "address",
          "name": "owner",
          "type": "address"
        },
        {
          "indexed": true,
          "internalType": "address",
          "name": "spender",
          "type": "address"
        },
        {
          "indexed": false,
          "internalType": "uint256",
          "name": "value",
          "type": "uint256"
        }
      ],
      "name": "Approval",
      "type": "event"
    },
    {
      "anonymous": false,
      "inputs": [
        {
          "indexed": true,
          "internalType": "address",
          "name": "sender",
          "type": "address"
        },
        {
          "indexed": true,
          "internalType": "address",
          "name": "owner",
          "type": "address"
        },
        {
          "indexed": false,
          "internalType": "uint256",
          "name": "assets",
          "type": "uint256"
        },
        {
          "indexed": false,
          "internalType": "uint256",
          "name": "shares",
          "type": "uint256"
        }
      ],
      "name": "Deposit",
      "type": "event"
    },
    {
      "anonymous": false,
      "inputs": [
        {
          "indexed": true,
          "internalType": "address",
          "name": "from",
          "type": "address"
        },
        {
          "indexed": true,
          "internalType": "address",
          "name": "to",
          "type": "address"
        },
        {
          "indexed": false,
          "internalType": "uint256",
          "name": "value",
          "type": "uint256"
        }
      ],
      "name": "Transfer",
      "type": "event"
    },
    {
      "anonymous": false,
      "inputs": [
        {
          "indexed": true,
          "internalType": "address",
          "name": "sender",
          "type": "address"
        },
        {
          "indexed": true,
          "internalType": "address",
          "name": "receiver",
          "type": "address"
        },
        {
          "indexed": true,
          "internalType": "address",
          "name": "owner",
          "type": "address"
        },
        {
          "indexed": false,
          "internalType": "uint256",
          "name": "assets",
          "type": "uint256"
        },
        {
          "indexed": false,
          "internalType": "uint256",
          "name": "shares",
          "type": "uint256"
        }
      ],
      "name": "Withdraw",
      "type": "event"
    },
    {
      "inputs": [],
      "name": "_currEpoc",
      "outputs": [
        {
          "internalType": "uint256",
          "name": "",
          "type": "uint256"
        }
      ],
      "stateMutability": "view",
      "type": "function"
    },
    {
      "inputs": [],
      "name": "_epocBurnRate",
      "outputs": [
        {
          "internalType": "uint256",
          "name": "",
          "type": "uint256"
        }
      ],
      "stateMutability": "view",
      "type": "function"
    },
    {
      "inputs": [],
      "name": "_epocLength",
      "outputs": [
        {
          "internalType": "uint256",
          "name": "",
          "type": "uint256"
        }
      ],
      "stateMutability": "view",
      "type": "function"
    },
    {
      "inputs": [],
      "name": "_epocStartTime",
      "outputs": [
        {
          "internalType": "uint256",
          "name": "",
          "type": "uint256"
        }
      ],
      "stateMutability": "view",
      "type": "function"
    },
    {
      "inputs": [],
      "name": "_epocWidthdrawWait",
      "outputs": [
        {
          "internalType": "uint256",
          "name": "",
          "type": "uint256"
        }
      ],
      "stateMutability": "view",
      "type": "function"
    },
    {
      "inputs": [
        {
          "internalType": "address",
          "name": "",
          "type": "address"
        }
      ],
      "name": "_requestedWidthdraws",
      "outputs": [
        {
          "internalType": "uint256",
          "name": "epocPlaced",
          "type": "uint256"
        },
        {
          "internalType": "uint256",
          "name": "daiToSend",
          "type": "uint256"
        },
        {
          "internalType": "uint256",
          "name": "liqToBurn",
          "type": "uint256"
        },
        {
          "internalType": "address",
          "name": "sendTo",
          "type": "address"
        }
      ],
      "stateMutability": "view",
      "type": "function"
    },
    {
      "inputs": [],
      "name": "_totalRequested",
      "outputs": [
        {
          "internalType": "uint256",
          "name": "",
          "type": "uint256"
        }
      ],
      "stateMutability": "view",
      "type": "function"
    },
    {
      "inputs": [
        {
          "internalType": "address",
          "name": "owner",
          "type": "address"
        },
        {
          "internalType": "address",
          "name": "spender",
          "type": "address"
        }
      ],
      "name": "allowance",
      "outputs": [
        {
          "internalType": "uint256",
          "name": "",
          "type": "uint256"
        }
      ],
      "stateMutability": "view",
      "type": "function"
    },
    {
      "inputs": [
        {
          "internalType": "address",
          "name": "spender",
          "type": "address"
        },
        {
          "internalType": "uint256",
          "name": "amount",
          "type": "uint256"
        }
      ],
      "name": "approve",
      "outputs": [
        {
          "internalType": "bool",
          "name": "",
          "type": "bool"
        }
      ],
      "stateMutability": "nonpayable",
      "type": "function"
    },
    {
      "inputs": [],
      "name": "asset",
      "outputs": [
        {
          "internalType": "address",
          "name": "assetTokenAddress",
          "type": "address"
        }
      ],
      "stateMutability": "view",
      "type": "function"
    },
    {
      "inputs": [
        {
          "internalType": "address",
          "name": "account",
          "type": "address"
        }
      ],
      "name": "balanceOf",
      "outputs": [
        {
          "internalType": "uint256",
          "name": "",
          "type": "uint256"
        }
      ],
      "stateMutability": "view",
      "type": "function"
    },
    {
      "inputs": [
        {
          "internalType": "uint256",
          "name": "shares",
          "type": "uint256"
        }
      ],
      "name": "convertToAssets",
      "outputs": [
        {
          "internalType": "uint256",
          "name": "assets",
          "type": "uint256"
        }
      ],
      "stateMutability": "view",
      "type": "function"
    },
    {
      "inputs": [
        {
          "internalType": "uint256",
          "name": "assets",
          "type": "uint256"
        }
      ],
      "name": "convertToShares",
      "outputs": [
        {
          "internalType": "uint256",
          "name": "shares",
          "type": "uint256"
        }
      ],
      "stateMutability": "view",
      "type": "function"
    },
    {
      "inputs": [],
      "name": "decimals",
      "outputs": [
        {
          "internalType": "uint8",
          "name": "",
          "type": "uint8"
        }
      ],
      "stateMutability": "pure",
      "type": "function"
    },
    {
      "inputs": [
        {
          "internalType": "address",
          "name": "spender",
          "type": "address"
        },
        {
          "internalType": "uint256",
          "name": "subtractedValue",
          "type": "uint256"
        }
      ],
      "name": "decreaseAllowance",
      "outputs": [
        {
          "internalType": "bool",
          "name": "",
          "type": "bool"
        }
      ],
      "stateMutability": "nonpayable",
      "type": "function"
    },
    {
      "inputs": [
        {
          "internalType": "uint256",
          "name": "assets",
          "type": "uint256"
        },
        {
          "internalType": "address",
          "name": "receiver",
          "type": "address"
        }
      ],
      "name": "deposit",
      "outputs": [
        {
          "internalType": "uint256",
          "name": "shares",
          "type": "uint256"
        }
      ],
      "stateMutability": "nonpayable",
      "type": "function"
    },
    {
      "inputs": [
        {
          "internalType": "address",
          "name": "spender",
          "type": "address"
        },
        {
          "internalType": "uint256",
          "name": "addedValue",
          "type": "uint256"
        }
      ],
      "name": "increaseAllowance",
      "outputs": [
        {
          "internalType": "bool",
          "name": "",
          "type": "bool"
        }
      ],
      "stateMutability": "nonpayable",
      "type": "function"
    },
    {
      "inputs": [],
      "name": "justSync",
      "outputs": [],
      "stateMutability": "nonpayable",
      "type": "function"
    },
    {
      "inputs": [
        {
          "internalType": "address",
          "name": "",
          "type": "address"
        }
      ],
      "name": "maxDeposit",
      "outputs": [
        {
          "internalType": "uint256",
          "name": "maxAssets",
          "type": "uint256"
        }
      ],
      "stateMutability": "view",
      "type": "function"
    },
    {
      "inputs": [
        {
          "internalType": "address",
          "name": "",
          "type": "address"
        }
      ],
      "name": "maxMint",
      "outputs": [
        {
          "internalType": "uint256",
          "name": "maxShares",
          "type": "uint256"
        }
      ],
      "stateMutability": "pure",
      "type": "function"
    },
    {
      "inputs": [
        {
          "internalType": "address",
          "name": "owner",
          "type": "address"
        }
      ],
      "name": "maxRedeem",
      "outputs": [
        {
          "internalType": "uint256",
          "name": "maxShares",
          "type": "uint256"
        }
      ],
      "stateMutability": "view",
      "type": "function"
    },
    {
      "inputs": [
        {
          "internalType": "address",
          "name": "owner",
          "type": "address"
        }
      ],
      "name": "maxWithdraw",
      "outputs": [
        {
          "internalType": "uint256",
          "name": "maxAssets",
          "type": "uint256"
        }
      ],
      "stateMutability": "view",
      "type": "function"
    },
    {
      "inputs": [
        {
          "internalType": "uint256",
          "name": "shares",
          "type": "uint256"
        },
        {
          "internalType": "address",
          "name": "receiver",
          "type": "address"
        }
      ],
      "name": "mint",
      "outputs": [
        {
          "internalType": "uint256",
          "name": "assets",
          "type": "uint256"
        }
      ],
      "stateMutability": "nonpayable",
      "type": "function"
    },
    {
      "inputs": [],
      "name": "name",
      "outputs": [
        {
          "internalType": "string",
          "name": "",
          "type": "string"
        }
      ],
      "stateMutability": "view",
      "type": "function"
    },
    {
      "inputs": [
        {
          "internalType": "uint256",
          "name": "assets",
          "type": "uint256"
        }
      ],
      "name": "previewDeposit",
      "outputs": [
        {
          "internalType": "uint256",
          "name": "shares",
          "type": "uint256"
        }
      ],
      "stateMutability": "view",
      "type": "function"
    },
    {
      "inputs": [
        {
          "internalType": "uint256",
          "name": "shares",
          "type": "uint256"
        }
      ],
      "name": "previewMint",
      "outputs": [
        {
          "internalType": "uint256",
          "name": "assets",
          "type": "uint256"
        }
      ],
      "stateMutability": "view",
      "type": "function"
    },
    {
      "inputs": [
        {
          "internalType": "uint256",
          "name": "shares",
          "type": "uint256"
        }
      ],
      "name": "previewRedeem",
      "outputs": [
        {
          "internalType": "uint256",
          "name": "assets",
          "type": "uint256"
        }
      ],
      "stateMutability": "view",
      "type": "function"
    },
    {
      "inputs": [
        {
          "internalType": "uint256",
          "name": "assets",
          "type": "uint256"
        }
      ],
      "name": "previewWithdraw",
      "outputs": [
        {
          "internalType": "uint256",
          "name": "shares",
          "type": "uint256"
        }
      ],
      "stateMutability": "view",
      "type": "function"
    },
    {
      "inputs": [
        {
          "internalType": "uint256",
          "name": "shares",
          "type": "uint256"
        },
        {
          "internalType": "address",
          "name": "receiver",
          "type": "address"
        },
        {
          "internalType": "address",
          "name": "owner",
          "type": "address"
        }
      ],
      "name": "redeem",
      "outputs": [
        {
          "internalType": "uint256",
          "name": "assets",
          "type": "uint256"
        }
      ],
      "stateMutability": "nonpayable",
      "type": "function"
    },
    {
      "inputs": [
        {
          "internalType": "uint256",
          "name": "amount_",
          "type": "uint256"
        },
        {
          "internalType": "address",
          "name": "sendTo_",
          "type": "address"
        }
      ],
      "name": "requestWidthdraw",
      "outputs": [],
      "stateMutability": "nonpayable",
      "type": "function"
    },
    {
      "inputs": [
        {
          "internalType": "address",
          "name": "loaner_",
          "type": "address"
        }
      ],
      "name": "setLoaner",
      "outputs": [
        {
          "internalType": "contract ILoaner",
          "name": "loaner",
          "type": "address"
        }
      ],
      "stateMutability": "nonpayable",
      "type": "function"
    },
    {
      "inputs": [
        {
          "internalType": "address",
          "name": "vault_",
          "type": "address"
        }
      ],
      "name": "setVault",
      "outputs": [
        {
          "internalType": "contract IVault",
          "name": "vault",
          "type": "address"
        }
      ],
      "stateMutability": "nonpayable",
      "type": "function"
    },
    {
      "inputs": [],
      "name": "symbol",
      "outputs": [
        {
          "internalType": "string",
          "name": "",
          "type": "string"
        }
      ],
      "stateMutability": "view",
      "type": "function"
    },
    {
      "inputs": [],
      "name": "totalAssets",
      "outputs": [
        {
          "internalType": "uint256",
          "name": "totalManagedAssets",
          "type": "uint256"
        }
      ],
      "stateMutability": "view",
      "type": "function"
    },
    {
      "inputs": [],
      "name": "totalDaiInVault",
      "outputs": [
        {
          "internalType": "uint256",
          "name": "totalManagedAssets",
          "type": "uint256"
        }
      ],
      "stateMutability": "view",
      "type": "function"
    },
    {
      "inputs": [],
      "name": "totalSupply",
      "outputs": [
        {
          "internalType": "uint256",
          "name": "",
          "type": "uint256"
        }
      ],
      "stateMutability": "view",
      "type": "function"
    },
    {
      "inputs": [
        {
          "internalType": "address",
          "name": "to",
          "type": "address"
        },
        {
          "internalType": "uint256",
          "name": "amount",
          "type": "uint256"
        }
      ],
      "name": "transfer",
      "outputs": [
        {
          "internalType": "bool",
          "name": "",
          "type": "bool"
        }
      ],
      "stateMutability": "nonpayable",
      "type": "function"
    },
    {
      "inputs": [
        {
          "internalType": "address",
          "name": "from",
          "type": "address"
        },
        {
          "internalType": "address",
          "name": "to",
          "type": "address"
        },
        {
          "internalType": "uint256",
          "name": "amount",
          "type": "uint256"
        }
      ],
      "name": "transferFrom",
      "outputs": [
        {
          "internalType": "bool",
          "name": "",
          "type": "bool"
        }
      ],
      "stateMutability": "nonpayable",
      "type": "function"
    },
    {
      "inputs": [
        {
          "internalType": "uint256",
          "name": "assets",
          "type": "uint256"
        },
        {
          "internalType": "address",
          "name": "receiver",
          "type": "address"
        },
        {
          "internalType": "address",
          "name": "owner",
          "type": "address"
        }
      ],
      "name": "withdraw",
      "outputs": [
        {
          "internalType": "uint256",
          "name": "shares",
          "type": "uint256"
        }
      ],
      "stateMutability": "nonpayable",
      "type": "function"
    }
  ],
  "bytecode": "0x60a06040523480156200001157600080fd5b506040518060400160405280600581526020017f66657474690000000000000000000000000000000000000000000000000000008152506040518060400160405280600381526020017f464554000000000000000000000000000000000000000000000000000000000081525081600390816200008f9190620003dc565b508060049081620000a19190620003dc565b50505033600c60006101000a81548173ffffffffffffffffffffffffffffffffffffffff021916908373ffffffffffffffffffffffffffffffffffffffff160217905550738f3cf7ad23cd3cadbd9735aff958023239c6a06373ffffffffffffffffffffffffffffffffffffffff1660808173ffffffffffffffffffffffffffffffffffffffff168152505060016006819055506000600781905550426008819055506000600981905550603c600a819055506002600b81905550620004c3565b600081519050919050565b7f4e487b7100000000000000000000000000000000000000000000000000000000600052604160045260246000fd5b7f4e487b7100000000000000000000000000000000000000000000000000000000600052602260045260246000fd5b60006002820490506001821680620001e457607f821691505b602082108103620001fa57620001f96200019c565b5b50919050565b60008190508160005260206000209050919050565b60006020601f8301049050919050565b600082821b905092915050565b600060088302620002647fffffffffffffffffffffffffffffffffffffffffffffffffffffffffffffffff8262000225565b62000270868362000225565b95508019841693508086168417925050509392505050565b6000819050919050565b6000819050919050565b6000620002bd620002b7620002b18462000288565b62000292565b62000288565b9050919050565b6000819050919050565b620002d9836200029c565b620002f1620002e882620002c4565b84845462000232565b825550505050565b600090565b62000308620002f9565b62000315818484620002ce565b505050565b5b818110156200033d5762000331600082620002fe565b6001810190506200031b565b5050565b601f8211156200038c57620003568162000200565b620003618462000215565b8101602085101562000371578190505b62000389620003808562000215565b8301826200031a565b50505b505050565b600082821c905092915050565b6000620003b16000198460080262000391565b1980831691505092915050565b6000620003cc83836200039e565b9150826002028217905092915050565b620003e78262000162565b67ffffffffffffffff8111156200040357620004026200016d565b5b6200040f8254620001cb565b6200041c82828562000341565b600060209050601f8311600181146200045457600084156200043f578287015190505b6200044b8582620003be565b865550620004bb565b601f198416620004648662000200565b60005b828110156200048e5784890151825560018201915060208501945060208101905062000467565b86831015620004ae5784890151620004aa601f8916826200039e565b8355505b6001600288020188555050505b505050505050565b6080516183e76200060c60003960008181610a9401528181610b5401528181610e5c01528181610f7e0152818161107d01528181611199015281816112b2015281816113720152818161183c01528181611b2001528181611c1f0152818161227801528181612338015281816125aa01528181612788015281816128de015281816129f201528181612af101528181612c4f01528181612d9d01528181612f59015281816130190152818161338d0152818161351b0152818161361a015281816139ce01528181613a8e01528181613dcd01528181614004015281816142270152818161439401528181614493015281816146be0152818161493201528181614b0001528181614bc001528181614eff015281816151390152818161535c015281816154cc015281816155cb015281816157f601528181615a6d015261658a01526183e76000f3fe608060405234801561001057600080fd5b506004361061023d5760003560e01c806394bf804d1161013b578063ba087652116100b8578063ce96cb771161007c578063ce96cb7714610781578063d905777e146107b1578063dd62ed3e146107e1578063ef8b30f714610811578063f4027274146108415761023d565b8063ba087652146106b5578063ba8fba48146106e5578063c47ea8f614610703578063c63d75b614610721578063c6e6f592146107515761023d565b8063a93838bb116100ff578063a93838bb146105fb578063ae18a2ab14610619578063b3d7f6b914610637578063b460af9414610667578063b4f88ffc146106975761023d565b806394bf804d1461052f57806395d89b411461055f5780639d41f4711461057d578063a457c2d71461059b578063a9059cbb146105cb5761023d565b806338d52e0f116101c9578063672b5ad21161018d578063672b5ad21461044e5780636817031b146104815780636e553f65146104b157806370a08231146104e15780638b1ce19e146105115761023d565b806338d52e0f1461038457806339509351146103a2578063402d267d146103d25780634cdad506146104025780635af06ba7146104325761023d565b80630a28a477116102105780630a28a477146102de57806318160ddd1461030e57806323b872dd1461032c578063313ce5671461035c57806337970c8d1461037a5761023d565b806301e1d1141461024257806306fdde031461026057806307a2d13a1461027e578063095ea7b3146102ae575b600080fd5b61024a610871565b604051610257919061700b565b60405180910390f35b610268610909565b60405161027591906170b6565b60405180910390f35b61029860048036038101906102939190617109565b61099b565b6040516102a5919061700b565b60405180910390f35b6102c860048036038101906102c39190617194565b6109af565b6040516102d591906171ef565b60405180910390f35b6102f860048036038101906102f39190617109565b6109d2565b604051610305919061700b565b60405180910390f35b6103166109e6565b604051610323919061700b565b60405180910390f35b6103466004803603810190610341919061720a565b6109f0565b60405161035391906171ef565b60405180910390f35b610364610a1f565b6040516103719190617279565b60405180910390f35b610382610a28565b005b61038c611195565b60405161039991906172a3565b60405180910390f35b6103bc60048036038101906103b79190617194565b6111bd565b6040516103c991906171ef565b60405180910390f35b6103ec60048036038101906103e791906172be565b6111f4565b6040516103f9919061700b565b60405180910390f35b61041c60048036038101906104179190617109565b611232565b604051610429919061700b565b60405180910390f35b61044c600480360381019061044791906172eb565b611246565b005b610468600480360381019061046391906172be565b6120bd565b604051610478949392919061732b565b60405180910390f35b61049b600480360381019061049691906172be565b61210d565b6040516104a891906173cf565b60405180910390f35b6104cb60048036038101906104c691906172eb565b61220a565b6040516104d8919061700b565b60405180910390f35b6104fb60048036038101906104f691906172be565b612e9d565b604051610508919061700b565b60405180910390f35b610519612ee5565b604051610526919061700b565b60405180910390f35b610549600480360381019061054491906172eb565b612eeb565b604051610556919061700b565b60405180910390f35b61056761380e565b60405161057491906170b6565b60405180910390f35b6105856138a0565b604051610592919061700b565b60405180910390f35b6105b560048036038101906105b09190617194565b6138a6565b6040516105c291906171ef565b60405180910390f35b6105e560048036038101906105e09190617194565b61391d565b6040516105f291906171ef565b60405180910390f35b610603613940565b604051610610919061700b565b60405180910390f35b610621613946565b60405161062e919061700b565b60405180910390f35b610651600480360381019061064c9190617109565b61394c565b60405161065e919061700b565b60405180910390f35b610681600480360381019061067c91906173ea565b613960565b60405161068e919061700b565b60405180910390f35b61069f614a8c565b6040516106ac919061700b565b60405180910390f35b6106cf60048036038101906106ca91906173ea565b614a92565b6040516106dc919061700b565b60405180910390f35b6106ed615bca565b6040516106fa919061700b565b60405180910390f35b61070b615c62565b604051610718919061700b565b60405180910390f35b61073b600480360381019061073691906172be565b615c68565b604051610748919061700b565b60405180910390f35b61076b60048036038101906107669190617109565b615c92565b604051610778919061700b565b60405180910390f35b61079b600480360381019061079691906172be565b615ca6565b6040516107a8919061700b565b60405180910390f35b6107cb60048036038101906107c691906172be565b615d70565b6040516107d8919061700b565b60405180910390f35b6107fb60048036038101906107f6919061743d565b615e4e565b604051610808919061700b565b60405180910390f35b61082b60048036038101906108269190617109565b615ed5565b604051610838919061700b565b60405180910390f35b61085b600480360381019061085691906172be565b615ee9565b604051610868919061749e565b60405180910390f35b6000600d60009054906101000a900473ffffffffffffffffffffffffffffffffffffffff1673ffffffffffffffffffffffffffffffffffffffff16630a0d0c3f6040518163ffffffff1660e01b8152600401602060405180830381865afa1580156108e0573d6000803e3d6000fd5b505050506040513d601f19601f8201168201806040525081019061090491906174ce565b905090565b6060600380546109189061752a565b80601f01602080910402602001604051908101604052809291908181526020018280546109449061752a565b80156109915780601f1061096657610100808354040283529160200191610991565b820191906000526020600020905b81548152906001019060200180831161097457829003601f168201915b5050505050905090565b60006109a8826000615fe6565b9050919050565b6000806109ba616032565b90506109c781858561603a565b600191505092915050565b60006109df826001616203565b9050919050565b6000600254905090565b6000806109fb616032565b9050610a08858285616260565b610a138585856162ec565b60019150509392505050565b60006012905090565b600a54600854610a38919061758a565b421061119357610a466109e6565b670de0b6b3a7640000610a57610871565b610a6191906175be565b610a6b919061762f565b6007819055504260088190555060066000815480929190610a8b90617660565b919050555060007f000000000000000000000000000000000000000000000000000000000000000073ffffffffffffffffffffffffffffffffffffffff166370a08231600d60009054906101000a900473ffffffffffffffffffffffffffffffffffffffff166040518263ffffffff1660e01b8152600401610b0d91906172a3565b602060405180830381865afa158015610b2a573d6000803e3d6000fd5b505050506040513d601f19601f82011682018060405250810190610b4e91906174ce565b905060007f000000000000000000000000000000000000000000000000000000000000000073ffffffffffffffffffffffffffffffffffffffff166370a08231600e60009054906101000a900473ffffffffffffffffffffffffffffffffffffffff166040518263ffffffff1660e01b8152600401610bcd91906172a3565b602060405180830381865afa158015610bea573d6000803e3d6000fd5b505050506040513d601f19601f82011682018060405250810190610c0e91906174ce565b9050600082600954610c2091906176a8565b90506000811115610f6a5780821015610d7d57600b6000815480929190610c4690617660565b9190505550600e60009054906101000a900473ffffffffffffffffffffffffffffffffffffffff1673ffffffffffffffffffffffffffffffffffffffff1663779da96760006040518263ffffffff1660e01b8152600401610ca79190617717565b600060405180830381600087803b158015610cc157600080fd5b505af1158015610cd5573d6000803e3d6000fd5b50505050600e60009054906101000a900473ffffffffffffffffffffffffffffffffffffffff1673ffffffffffffffffffffffffffffffffffffffff16630f309b07836040518263ffffffff1660e01b8152600401610d34919061700b565b6020604051808303816000875af1158015610d53573d6000803e3d6000fd5b505050506040513d601f19601f82011682018060405250810190610d7791906174ce565b50610f65565b600e60009054906101000a900473ffffffffffffffffffffffffffffffffffffffff1673ffffffffffffffffffffffffffffffffffffffff16630f309b07826040518263ffffffff1660e01b8152600401610dd8919061700b565b6020604051808303816000875af1158015610df7573d6000803e3d6000fd5b505050506040513d601f19601f82011682018060405250810190610e1b91906174ce565b50600e60009054906101000a900473ffffffffffffffffffffffffffffffffffffffff1673ffffffffffffffffffffffffffffffffffffffff1663779da9677f000000000000000000000000000000000000000000000000000000000000000073ffffffffffffffffffffffffffffffffffffffff166370a08231600e60009054906101000a900473ffffffffffffffffffffffffffffffffffffffff166040518263ffffffff1660e01b8152600401610ed591906172a3565b602060405180830381865afa158015610ef2573d6000803e3d6000fd5b505050506040513d601f19601f82011682018060405250810190610f1691906174ce565b6040518263ffffffff1660e01b8152600401610f32919061700b565b600060405180830381600087803b158015610f4c57600080fd5b505af1158015610f60573d6000803e3d6000fd5b505050505b61118f565b600060095484610f7a91906176a8565b90507f000000000000000000000000000000000000000000000000000000000000000073ffffffffffffffffffffffffffffffffffffffff1663a9059cbb600e60009054906101000a900473ffffffffffffffffffffffffffffffffffffffff16836040518363ffffffff1660e01b8152600401610ff9929190617732565b6020604051808303816000875af1158015611018573d6000803e3d6000fd5b505050506040513d601f19601f8201168201806040525081019061103c9190617787565b50600e60009054906101000a900473ffffffffffffffffffffffffffffffffffffffff1673ffffffffffffffffffffffffffffffffffffffff1663779da9677f000000000000000000000000000000000000000000000000000000000000000073ffffffffffffffffffffffffffffffffffffffff166370a08231600e60009054906101000a900473ffffffffffffffffffffffffffffffffffffffff166040518263ffffffff1660e01b81526004016110f691906172a3565b602060405180830381865afa158015611113573d6000803e3d6000fd5b505050506040513d601f19601f8201168201806040525081019061113791906174ce565b6040518263ffffffff1660e01b8152600401611153919061700b565b600060405180830381600087803b15801561116d57600080fd5b505af1158015611181573d6000803e3d6000fd5b505050506001600b81905550505b5050505b565b60007f0000000000000000000000000000000000000000000000000000000000000000905090565b6000806111c8616032565b90506111e98185856111da8589615e4e565b6111e4919061758a565b61603a565b600191505092915050565b60006111fe616562565b61120957600061122b565b7fffffffffffffffffffffffffffffffffffffffffffffffffffffffffffffffff5b9050919050565b600061123f826000615fe6565b9050919050565b600a54600854611256919061758a565b4210611ef7576112646109e6565b670de0b6b3a7640000611275610871565b61127f91906175be565b611289919061762f565b60078190555042600881905550600660008154809291906112a990617660565b919050555060007f000000000000000000000000000000000000000000000000000000000000000073ffffffffffffffffffffffffffffffffffffffff166370a08231600d60009054906101000a900473ffffffffffffffffffffffffffffffffffffffff166040518263ffffffff1660e01b815260040161132b91906172a3565b602060405180830381865afa158015611348573d6000803e3d6000fd5b505050506040513d601f19601f8201168201806040525081019061136c91906174ce565b905060007f000000000000000000000000000000000000000000000000000000000000000073ffffffffffffffffffffffffffffffffffffffff166370a08231600e60009054906101000a900473ffffffffffffffffffffffffffffffffffffffff166040518263ffffffff1660e01b81526004016113eb91906172a3565b602060405180830381865afa158015611408573d6000803e3d6000fd5b505050506040513d601f19601f8201168201806040525081019061142c91906174ce565b905060008260095461143e91906176a8565b90506000811115611b0c578082101561175d57600b600081548092919061146490617660565b9190505550600e60009054906101000a900473ffffffffffffffffffffffffffffffffffffffff1673ffffffffffffffffffffffffffffffffffffffff1663779da96760006040518263ffffffff1660e01b81526004016114c59190617717565b600060405180830381600087803b1580156114df57600080fd5b505af11580156114f3573d6000803e3d6000fd5b50505050600e60009054906101000a900473ffffffffffffffffffffffffffffffffffffffff1673ffffffffffffffffffffffffffffffffffffffff16630f309b07836040518263ffffffff1660e01b8152600401611552919061700b565b6020604051808303816000875af1158015611571573d6000803e3d6000fd5b505050506040513d601f19601f8201168201806040525081019061159591906174ce565b50846115a033612e9d565b10156115e1576040517f08c379a00000000000000000000000000000000000000000000000000000000081526004016115d890617800565b60405180910390fd5b846115ec3330615e4e565b101561162d576040517f08c379a000000000000000000000000000000000000000000000000000000000815260040161162490617892565b60405180910390fd5b6116383330876109f0565b506000670de0b6b3a76400006007548761165291906175be565b61165c919061762f565b90508060096000828254611670919061758a565b92505081905550604051806080016040528060065481526020018281526020018781526020018673ffffffffffffffffffffffffffffffffffffffff16815250600560003373ffffffffffffffffffffffffffffffffffffffff1673ffffffffffffffffffffffffffffffffffffffff16815260200190815260200160002060008201518160000155602082015181600101556040820151816002015560608201518160030160006101000a81548173ffffffffffffffffffffffffffffffffffffffff021916908373ffffffffffffffffffffffffffffffffffffffff16021790555090505050611b07565b600e60009054906101000a900473ffffffffffffffffffffffffffffffffffffffff1673ffffffffffffffffffffffffffffffffffffffff16630f309b07826040518263ffffffff1660e01b81526004016117b8919061700b565b6020604051808303816000875af11580156117d7573d6000803e3d6000fd5b505050506040513d601f19601f820116820180604052508101906117fb91906174ce565b50600e60009054906101000a900473ffffffffffffffffffffffffffffffffffffffff1673ffffffffffffffffffffffffffffffffffffffff1663779da9677f000000000000000000000000000000000000000000000000000000000000000073ffffffffffffffffffffffffffffffffffffffff166370a08231600e60009054906101000a900473ffffffffffffffffffffffffffffffffffffffff166040518263ffffffff1660e01b81526004016118b591906172a3565b602060405180830381865afa1580156118d2573d6000803e3d6000fd5b505050506040513d601f19601f820116820180604052508101906118f691906174ce565b6040518263ffffffff1660e01b8152600401611912919061700b565b600060405180830381600087803b15801561192c57600080fd5b505af1158015611940573d6000803e3d6000fd5b505050508461194e33612e9d565b101561198f576040517f08c379a000000000000000000000000000000000000000000000000000000000815260040161198690617800565b60405180910390fd5b8461199a3330615e4e565b10156119db576040517f08c379a00000000000000000000000000000000000000000000000000000000081526004016119d290617892565b60405180910390fd5b6119e63330876109f0565b506000670de0b6b3a764000060075487611a0091906175be565b611a0a919061762f565b90508060096000828254611a1e919061758a565b92505081905550604051806080016040528060065481526020018281526020018781526020018673ffffffffffffffffffffffffffffffffffffffff16815250600560003373ffffffffffffffffffffffffffffffffffffffff1673ffffffffffffffffffffffffffffffffffffffff16815260200190815260200160002060008201518160000155602082015181600101556040820151816002015560608201518160030160006101000a81548173ffffffffffffffffffffffffffffffffffffffff021916908373ffffffffffffffffffffffffffffffffffffffff160217905550905050505b611ef3565b600060095484611b1c91906176a8565b90507f000000000000000000000000000000000000000000000000000000000000000073ffffffffffffffffffffffffffffffffffffffff1663a9059cbb600e60009054906101000a900473ffffffffffffffffffffffffffffffffffffffff16836040518363ffffffff1660e01b8152600401611b9b929190617732565b6020604051808303816000875af1158015611bba573d6000803e3d6000fd5b505050506040513d601f19601f82011682018060405250810190611bde9190617787565b50600e60009054906101000a900473ffffffffffffffffffffffffffffffffffffffff1673ffffffffffffffffffffffffffffffffffffffff1663779da9677f000000000000000000000000000000000000000000000000000000000000000073ffffffffffffffffffffffffffffffffffffffff166370a08231600e60009054906101000a900473ffffffffffffffffffffffffffffffffffffffff166040518263ffffffff1660e01b8152600401611c9891906172a3565b602060405180830381865afa158015611cb5573d6000803e3d6000fd5b505050506040513d601f19601f82011682018060405250810190611cd991906174ce565b6040518263ffffffff1660e01b8152600401611cf5919061700b565b600060405180830381600087803b158015611d0f57600080fd5b505af1158015611d23573d6000803e3d6000fd5b505050506001600b8190555085611d3933612e9d565b1015611d7a576040517f08c379a0000000000000000000000000000000000000000000000000000000008152600401611d7190617800565b60405180910390fd5b85611d853330615e4e565b1015611dc6576040517f08c379a0000000000000000000000000000000000000000000000000000000008152600401611dbd90617892565b60405180910390fd5b611dd13330886109f0565b506000670de0b6b3a764000060075488611deb91906175be565b611df5919061762f565b90508060096000828254611e09919061758a565b92505081905550604051806080016040528060065481526020018281526020018881526020018773ffffffffffffffffffffffffffffffffffffffff16815250600560003373ffffffffffffffffffffffffffffffffffffffff1673ffffffffffffffffffffffffffffffffffffffff16815260200190815260200160002060008201518160000155602082015181600101556040820151816002015560608201518160030160006101000a81548173ffffffffffffffffffffffffffffffffffffffff021916908373ffffffffffffffffffffffffffffffffffffffff16021790555090505050505b5050505b81611f0133612e9d565b1015611f42576040517f08c379a0000000000000000000000000000000000000000000000000000000008152600401611f3990617800565b60405180910390fd5b81611f4d3330615e4e565b1015611f8e576040517f08c379a0000000000000000000000000000000000000000000000000000000008152600401611f8590617892565b60405180910390fd5b611f993330846109f0565b506000670de0b6b3a764000060075484611fb391906175be565b611fbd919061762f565b90508060096000828254611fd1919061758a565b92505081905550604051806080016040528060065481526020018281526020018481526020018373ffffffffffffffffffffffffffffffffffffffff16815250600560003373ffffffffffffffffffffffffffffffffffffffff1673ffffffffffffffffffffffffffffffffffffffff16815260200190815260200160002060008201518160000155602082015181600101556040820151816002015560608201518160030160006101000a81548173ffffffffffffffffffffffffffffffffffffffff021916908373ffffffffffffffffffffffffffffffffffffffff160217905550905050505050565b60056020528060005260406000206000915090508060000154908060010154908060020154908060030160009054906101000a900473ffffffffffffffffffffffffffffffffffffffff16905084565b60003373ffffffffffffffffffffffffffffffffffffffff16600c60009054906101000a900473ffffffffffffffffffffffffffffffffffffffff1673ffffffffffffffffffffffffffffffffffffffff161461219f576040517f08c379a0000000000000000000000000000000000000000000000000000000008152600401612196906178fe565b60405180910390fd5b81600d60006101000a81548173ffffffffffffffffffffffffffffffffffffffff021916908373ffffffffffffffffffffffffffffffffffffffff160217905550600d60009054906101000a900473ffffffffffffffffffffffffffffffffffffffff169050919050565b6000600a5460085461221c919061758a565b4210612d4f5761222a6109e6565b670de0b6b3a764000061223b610871565b61224591906175be565b61224f919061762f565b600781905550426008819055506006600081548092919061226f90617660565b919050555060007f000000000000000000000000000000000000000000000000000000000000000073ffffffffffffffffffffffffffffffffffffffff166370a08231600d60009054906101000a900473ffffffffffffffffffffffffffffffffffffffff166040518263ffffffff1660e01b81526004016122f191906172a3565b602060405180830381865afa15801561230e573d6000803e3d6000fd5b505050506040513d601f19601f8201168201806040525081019061233291906174ce565b905060007f000000000000000000000000000000000000000000000000000000000000000073ffffffffffffffffffffffffffffffffffffffff166370a08231600e60009054906101000a900473ffffffffffffffffffffffffffffffffffffffff166040518263ffffffff1660e01b81526004016123b191906172a3565b602060405180830381865afa1580156123ce573d6000803e3d6000fd5b505050506040513d601f19601f820116820180604052508101906123f291906174ce565b905060008260095461240491906176a8565b905060008111156129de57808210156126a957600b600081548092919061242a90617660565b9190505550600e60009054906101000a900473ffffffffffffffffffffffffffffffffffffffff1673ffffffffffffffffffffffffffffffffffffffff1663779da96760006040518263ffffffff1660e01b815260040161248b9190617717565b600060405180830381600087803b1580156124a557600080fd5b505af11580156124b9573d6000803e3d6000fd5b50505050600e60009054906101000a900473ffffffffffffffffffffffffffffffffffffffff1673ffffffffffffffffffffffffffffffffffffffff16630f309b07836040518263ffffffff1660e01b8152600401612518919061700b565b6020604051808303816000875af1158015612537573d6000803e3d6000fd5b505050506040513d601f19601f8201168201806040525081019061255b91906174ce565b50612565856111f4565b8611156125a7576040517f08c379a000000000000000000000000000000000000000000000000000000000815260040161259e9061796a565b60405180910390fd5b857f000000000000000000000000000000000000000000000000000000000000000073ffffffffffffffffffffffffffffffffffffffff166370a08231336040518263ffffffff1660e01b815260040161260191906172a3565b602060405180830381865afa15801561261e573d6000803e3d6000fd5b505050506040513d601f19601f8201168201806040525081019061264291906174ce565b1015612683576040517f08c379a000000000000000000000000000000000000000000000000000000000815260040161267a906179d6565b60405180910390fd5b600061268e87615ed5565b90506126a361269b616032565b878984616585565b506129d9565b600e60009054906101000a900473ffffffffffffffffffffffffffffffffffffffff1673ffffffffffffffffffffffffffffffffffffffff16630f309b07826040518263ffffffff1660e01b8152600401612704919061700b565b6020604051808303816000875af1158015612723573d6000803e3d6000fd5b505050506040513d601f19601f8201168201806040525081019061274791906174ce565b50600e60009054906101000a900473ffffffffffffffffffffffffffffffffffffffff1673ffffffffffffffffffffffffffffffffffffffff1663779da9677f000000000000000000000000000000000000000000000000000000000000000073ffffffffffffffffffffffffffffffffffffffff166370a08231600e60009054906101000a900473ffffffffffffffffffffffffffffffffffffffff166040518263ffffffff1660e01b815260040161280191906172a3565b602060405180830381865afa15801561281e573d6000803e3d6000fd5b505050506040513d601f19601f8201168201806040525081019061284291906174ce565b6040518263ffffffff1660e01b815260040161285e919061700b565b600060405180830381600087803b15801561287857600080fd5b505af115801561288c573d6000803e3d6000fd5b50505050612899856111f4565b8611156128db576040517f08c379a00000000000000000000000000000000000000000000000000000000081526004016128d29061796a565b60405180910390fd5b857f000000000000000000000000000000000000000000000000000000000000000073ffffffffffffffffffffffffffffffffffffffff166370a08231336040518263ffffffff1660e01b815260040161293591906172a3565b602060405180830381865afa158015612952573d6000803e3d6000fd5b505050506040513d601f19601f8201168201806040525081019061297691906174ce565b10156129b7576040517f08c379a00000000000000000000000000000000000000000000000000000000081526004016129ae906179d6565b60405180910390fd5b60006129c287615ed5565b90506129d76129cf616032565b878984616585565b505b612d4b565b6000600954846129ee91906176a8565b90507f000000000000000000000000000000000000000000000000000000000000000073ffffffffffffffffffffffffffffffffffffffff1663a9059cbb600e60009054906101000a900473ffffffffffffffffffffffffffffffffffffffff16836040518363ffffffff1660e01b8152600401612a6d929190617732565b6020604051808303816000875af1158015612a8c573d6000803e3d6000fd5b505050506040513d601f19601f82011682018060405250810190612ab09190617787565b50600e60009054906101000a900473ffffffffffffffffffffffffffffffffffffffff1673ffffffffffffffffffffffffffffffffffffffff1663779da9677f000000000000000000000000000000000000000000000000000000000000000073ffffffffffffffffffffffffffffffffffffffff166370a08231600e60009054906101000a900473ffffffffffffffffffffffffffffffffffffffff166040518263ffffffff1660e01b8152600401612b6a91906172a3565b602060405180830381865afa158015612b87573d6000803e3d6000fd5b505050506040513d601f19601f82011682018060405250810190612bab91906174ce565b6040518263ffffffff1660e01b8152600401612bc7919061700b565b600060405180830381600087803b158015612be157600080fd5b505af1158015612bf5573d6000803e3d6000fd5b505050506001600b81905550612c0a866111f4565b871115612c4c576040517f08c379a0000000000000000000000000000000000000000000000000000000008152600401612c439061796a565b60405180910390fd5b867f000000000000000000000000000000000000000000000000000000000000000073ffffffffffffffffffffffffffffffffffffffff166370a08231336040518263ffffffff1660e01b8152600401612ca691906172a3565b602060405180830381865afa158015612cc3573d6000803e3d6000fd5b505050506040513d601f19601f82011682018060405250810190612ce791906174ce565b1015612d28576040517f08c379a0000000000000000000000000000000000000000000000000000000008152600401612d1f906179d6565b60405180910390fd5b6000612d3388615ed5565b9050612d48612d40616032565b888a84616585565b50505b5050505b612d58826111f4565b831115612d9a576040517f08c379a0000000000000000000000000000000000000000000000000000000008152600401612d919061796a565b60405180910390fd5b827f000000000000000000000000000000000000000000000000000000000000000073ffffffffffffffffffffffffffffffffffffffff166370a08231336040518263ffffffff1660e01b8152600401612df491906172a3565b602060405180830381865afa158015612e11573d6000803e3d6000fd5b505050506040513d601f19601f82011682018060405250810190612e3591906174ce565b1015612e76576040517f08c379a0000000000000000000000000000000000000000000000000000000008152600401612e6d906179d6565b60405180910390fd5b6000612e8184615ed5565b9050612e96612e8e616032565b848684616585565b5092915050565b60008060008373ffffffffffffffffffffffffffffffffffffffff1673ffffffffffffffffffffffffffffffffffffffff168152602001908152602001600020549050919050565b600b5481565b6000600a54600854612efd919061758a565b421061379c57612f0b6109e6565b670de0b6b3a7640000612f1c610871565b612f2691906175be565b612f30919061762f565b6007819055504260088190555060066000815480929190612f5090617660565b919050555060007f000000000000000000000000000000000000000000000000000000000000000073ffffffffffffffffffffffffffffffffffffffff166370a08231600d60009054906101000a900473ffffffffffffffffffffffffffffffffffffffff166040518263ffffffff1660e01b8152600401612fd291906172a3565b602060405180830381865afa158015612fef573d6000803e3d6000fd5b505050506040513d601f19601f8201168201806040525081019061301391906174ce565b905060007f000000000000000000000000000000000000000000000000000000000000000073ffffffffffffffffffffffffffffffffffffffff166370a08231600e60009054906101000a900473ffffffffffffffffffffffffffffffffffffffff166040518263ffffffff1660e01b815260040161309291906172a3565b602060405180830381865afa1580156130af573d6000803e3d6000fd5b505050506040513d601f19601f820116820180604052508101906130d391906174ce565b90506000826009546130e591906176a8565b9050600081111561350757808210156132ae57600b600081548092919061310b90617660565b9190505550600e60009054906101000a900473ffffffffffffffffffffffffffffffffffffffff1673ffffffffffffffffffffffffffffffffffffffff1663779da96760006040518263ffffffff1660e01b815260040161316c9190617717565b600060405180830381600087803b15801561318657600080fd5b505af115801561319a573d6000803e3d6000fd5b50505050600e60009054906101000a900473ffffffffffffffffffffffffffffffffffffffff1673ffffffffffffffffffffffffffffffffffffffff16630f309b07836040518263ffffffff1660e01b81526004016131f9919061700b565b6020604051808303816000875af1158015613218573d6000803e3d6000fd5b505050506040513d601f19601f8201168201806040525081019061323c91906174ce565b5061324685615c68565b861115613288576040517f08c379a000000000000000000000000000000000000000000000000000000000815260040161327f90617a42565b60405180910390fd5b60006132938761394c565b90506132a86132a0616032565b87838a616585565b50613502565b600e60009054906101000a900473ffffffffffffffffffffffffffffffffffffffff1673ffffffffffffffffffffffffffffffffffffffff16630f309b07826040518263ffffffff1660e01b8152600401613309919061700b565b6020604051808303816000875af1158015613328573d6000803e3d6000fd5b505050506040513d601f19601f8201168201806040525081019061334c91906174ce565b50600e60009054906101000a900473ffffffffffffffffffffffffffffffffffffffff1673ffffffffffffffffffffffffffffffffffffffff1663779da9677f000000000000000000000000000000000000000000000000000000000000000073ffffffffffffffffffffffffffffffffffffffff166370a08231600e60009054906101000a900473ffffffffffffffffffffffffffffffffffffffff166040518263ffffffff1660e01b815260040161340691906172a3565b602060405180830381865afa158015613423573d6000803e3d6000fd5b505050506040513d601f19601f8201168201806040525081019061344791906174ce565b6040518263ffffffff1660e01b8152600401613463919061700b565b600060405180830381600087803b15801561347d57600080fd5b505af1158015613491573d6000803e3d6000fd5b5050505061349e85615c68565b8611156134e0576040517f08c379a00000000000000000000000000000000000000000000000000000000081526004016134d790617a42565b60405180910390fd5b60006134eb8761394c565b90506135006134f8616032565b87838a616585565b505b613798565b60006009548461351791906176a8565b90507f000000000000000000000000000000000000000000000000000000000000000073ffffffffffffffffffffffffffffffffffffffff1663a9059cbb600e60009054906101000a900473ffffffffffffffffffffffffffffffffffffffff16836040518363ffffffff1660e01b8152600401613596929190617732565b6020604051808303816000875af11580156135b5573d6000803e3d6000fd5b505050506040513d601f19601f820116820180604052508101906135d99190617787565b50600e60009054906101000a900473ffffffffffffffffffffffffffffffffffffffff1673ffffffffffffffffffffffffffffffffffffffff1663779da9677f000000000000000000000000000000000000000000000000000000000000000073ffffffffffffffffffffffffffffffffffffffff166370a08231600e60009054906101000a900473ffffffffffffffffffffffffffffffffffffffff166040518263ffffffff1660e01b815260040161369391906172a3565b602060405180830381865afa1580156136b0573d6000803e3d6000fd5b505050506040513d601f19601f820116820180604052508101906136d491906174ce565b6040518263ffffffff1660e01b81526004016136f0919061700b565b600060405180830381600087803b15801561370a57600080fd5b505af115801561371e573d6000803e3d6000fd5b505050506001600b8190555061373386615c68565b871115613775576040517f08c379a000000000000000000000000000000000000000000000000000000000815260040161376c90617a42565b60405180910390fd5b60006137808861394c565b905061379561378d616032565b88838b616585565b50505b5050505b6137a582615c68565b8311156137e7576040517f08c379a00000000000000000000000000000000000000000000000000000000081526004016137de90617a42565b60405180910390fd5b60006137f28461394c565b90506138076137ff616032565b848387616585565b5092915050565b60606004805461381d9061752a565b80601f01602080910402602001604051908101604052809291908181526020018280546138499061752a565b80156138965780601f1061386b57610100808354040283529160200191613896565b820191906000526020600020905b81548152906001019060200180831161387957829003601f168201915b5050505050905090565b60085481565b6000806138b1616032565b905060006138bf8286615e4e565b905083811015613904576040517f08c379a00000000000000000000000000000000000000000000000000000000081526004016138fb90617ad4565b60405180910390fd5b613911828686840361603a565b60019250505092915050565b600080613928616032565b90506139358185856162ec565b600191505092915050565b60065481565b60095481565b6000613959826001615fe6565b9050919050565b6000600a54600854613972919061758a565b4210614817576139806109e6565b670de0b6b3a7640000613991610871565b61399b91906175be565b6139a5919061762f565b60078190555042600881905550600660008154809291906139c590617660565b919050555060007f000000000000000000000000000000000000000000000000000000000000000073ffffffffffffffffffffffffffffffffffffffff166370a08231600d60009054906101000a900473ffffffffffffffffffffffffffffffffffffffff166040518263ffffffff1660e01b8152600401613a4791906172a3565b602060405180830381865afa158015613a64573d6000803e3d6000fd5b505050506040513d601f19601f82011682018060405250810190613a8891906174ce565b905060007f000000000000000000000000000000000000000000000000000000000000000073ffffffffffffffffffffffffffffffffffffffff166370a08231600e60009054906101000a900473ffffffffffffffffffffffffffffffffffffffff166040518263ffffffff1660e01b8152600401613b0791906172a3565b602060405180830381865afa158015613b24573d6000803e3d6000fd5b505050506040513d601f19601f82011682018060405250810190613b4891906174ce565b9050600082600954613b5a91906176a8565b905060008111156143805780821015613f2557600b6000815480929190613b8090617660565b9190505550600e60009054906101000a900473ffffffffffffffffffffffffffffffffffffffff1673ffffffffffffffffffffffffffffffffffffffff1663779da96760006040518263ffffffff1660e01b8152600401613be19190617717565b600060405180830381600087803b158015613bfb57600080fd5b505af1158015613c0f573d6000803e3d6000fd5b50505050600e60009054906101000a900473ffffffffffffffffffffffffffffffffffffffff1673ffffffffffffffffffffffffffffffffffffffff16630f309b07836040518263ffffffff1660e01b8152600401613c6e919061700b565b6020604051808303816000875af1158015613c8d573d6000803e3d6000fd5b505050506040513d601f19601f82011682018060405250810190613cb191906174ce565b506000600560003373ffffffffffffffffffffffffffffffffffffffff1673ffffffffffffffffffffffffffffffffffffffff1681526020019081526020016000206040518060800160405290816000820154815260200160018201548152602001600282015481526020016003820160009054906101000a900473ffffffffffffffffffffffffffffffffffffffff1673ffffffffffffffffffffffffffffffffffffffff1673ffffffffffffffffffffffffffffffffffffffff16815250509050600654600b548260000151613d89919061758a565b1015613dca576040517f08c379a0000000000000000000000000000000000000000000000000000000008152600401613dc190617b66565b60405180910390fd5b877f000000000000000000000000000000000000000000000000000000000000000073ffffffffffffffffffffffffffffffffffffffff166370a08231306040518263ffffffff1660e01b8152600401613e2491906172a3565b602060405180830381865afa158015613e41573d6000803e3d6000fd5b505050506040513d601f19601f82011682018060405250810190613e6591906174ce565b11613ea5576040517f08c379a0000000000000000000000000000000000000000000000000000000008152600401613e9c90617bd2565b60405180910390fd5b8060400151613eb330612e9d565b1015613ef4576040517f08c379a0000000000000000000000000000000000000000000000000000000008152600401613eeb90617c3e565b60405180910390fd5b613f023382602001516109af565b50613f1f613f0e616032565b88308460200151856040015161664a565b5061437b565b600e60009054906101000a900473ffffffffffffffffffffffffffffffffffffffff1673ffffffffffffffffffffffffffffffffffffffff16630f309b07826040518263ffffffff1660e01b8152600401613f80919061700b565b6020604051808303816000875af1158015613f9f573d6000803e3d6000fd5b505050506040513d601f19601f82011682018060405250810190613fc391906174ce565b50600e60009054906101000a900473ffffffffffffffffffffffffffffffffffffffff1673ffffffffffffffffffffffffffffffffffffffff1663779da9677f000000000000000000000000000000000000000000000000000000000000000073ffffffffffffffffffffffffffffffffffffffff166370a08231600e60009054906101000a900473ffffffffffffffffffffffffffffffffffffffff166040518263ffffffff1660e01b815260040161407d91906172a3565b602060405180830381865afa15801561409a573d6000803e3d6000fd5b505050506040513d601f19601f820116820180604052508101906140be91906174ce565b6040518263ffffffff1660e01b81526004016140da919061700b565b600060405180830381600087803b1580156140f457600080fd5b505af1158015614108573d6000803e3d6000fd5b505050506000600560003373ffffffffffffffffffffffffffffffffffffffff1673ffffffffffffffffffffffffffffffffffffffff1681526020019081526020016000206040518060800160405290816000820154815260200160018201548152602001600282015481526020016003820160009054906101000a900473ffffffffffffffffffffffffffffffffffffffff1673ffffffffffffffffffffffffffffffffffffffff1673ffffffffffffffffffffffffffffffffffffffff16815250509050600654600b5482600001516141e3919061758a565b1015614224576040517f08c379a000000000000000000000000000000000000000000000000000000000815260040161421b90617b66565b60405180910390fd5b877f000000000000000000000000000000000000000000000000000000000000000073ffffffffffffffffffffffffffffffffffffffff166370a08231306040518263ffffffff1660e01b815260040161427e91906172a3565b602060405180830381865afa15801561429b573d6000803e3d6000fd5b505050506040513d601f19601f820116820180604052508101906142bf91906174ce565b116142ff576040517f08c379a00000000000000000000000000000000000000000000000000000000081526004016142f690617bd2565b60405180910390fd5b806040015161430d30612e9d565b101561434e576040517f08c379a000000000000000000000000000000000000000000000000000000000815260040161434590617c3e565b60405180910390fd5b61435c3382602001516109af565b50614379614368616032565b88308460200151856040015161664a565b505b614813565b60006009548461439091906176a8565b90507f000000000000000000000000000000000000000000000000000000000000000073ffffffffffffffffffffffffffffffffffffffff1663a9059cbb600e60009054906101000a900473ffffffffffffffffffffffffffffffffffffffff16836040518363ffffffff1660e01b815260040161440f929190617732565b6020604051808303816000875af115801561442e573d6000803e3d6000fd5b505050506040513d601f19601f820116820180604052508101906144529190617787565b50600e60009054906101000a900473ffffffffffffffffffffffffffffffffffffffff1673ffffffffffffffffffffffffffffffffffffffff1663779da9677f000000000000000000000000000000000000000000000000000000000000000073ffffffffffffffffffffffffffffffffffffffff166370a08231600e60009054906101000a900473ffffffffffffffffffffffffffffffffffffffff166040518263ffffffff1660e01b815260040161450c91906172a3565b602060405180830381865afa158015614529573d6000803e3d6000fd5b505050506040513d601f19601f8201168201806040525081019061454d91906174ce565b6040518263ffffffff1660e01b8152600401614569919061700b565b600060405180830381600087803b15801561458357600080fd5b505af1158015614597573d6000803e3d6000fd5b505050506001600b819055506000600560003373ffffffffffffffffffffffffffffffffffffffff1673ffffffffffffffffffffffffffffffffffffffff1681526020019081526020016000206040518060800160405290816000820154815260200160018201548152602001600282015481526020016003820160009054906101000a900473ffffffffffffffffffffffffffffffffffffffff1673ffffffffffffffffffffffffffffffffffffffff1673ffffffffffffffffffffffffffffffffffffffff16815250509050600654600b54826000015161467a919061758a565b10156146bb576040517f08c379a00000000000000000000000000000000000000000000000000000000081526004016146b290617b66565b60405180910390fd5b887f000000000000000000000000000000000000000000000000000000000000000073ffffffffffffffffffffffffffffffffffffffff166370a08231306040518263ffffffff1660e01b815260040161471591906172a3565b602060405180830381865afa158015614732573d6000803e3d6000fd5b505050506040513d601f19601f8201168201806040525081019061475691906174ce565b11614796576040517f08c379a000000000000000000000000000000000000000000000000000000000815260040161478d90617bd2565b60405180910390fd5b80604001516147a430612e9d565b10156147e5576040517f08c379a00000000000000000000000000000000000000000000000000000000081526004016147dc90617c3e565b60405180910390fd5b6147f33382602001516109af565b506148106147ff616032565b89308460200151856040015161664a565b50505b5050505b6000600560003373ffffffffffffffffffffffffffffffffffffffff1673ffffffffffffffffffffffffffffffffffffffff1681526020019081526020016000206040518060800160405290816000820154815260200160018201548152602001600282015481526020016003820160009054906101000a900473ffffffffffffffffffffffffffffffffffffffff1673ffffffffffffffffffffffffffffffffffffffff1673ffffffffffffffffffffffffffffffffffffffff16815250509050600654600b5482600001516148ee919061758a565b101561492f576040517f08c379a000000000000000000000000000000000000000000000000000000000815260040161492690617b66565b60405180910390fd5b847f000000000000000000000000000000000000000000000000000000000000000073ffffffffffffffffffffffffffffffffffffffff166370a08231306040518263ffffffff1660e01b815260040161498991906172a3565b602060405180830381865afa1580156149a6573d6000803e3d6000fd5b505050506040513d601f19601f820116820180604052508101906149ca91906174ce565b11614a0a576040517f08c379a0000000000000000000000000000000000000000000000000000000008152600401614a0190617bd2565b60405180910390fd5b8060400151614a1830612e9d565b1015614a59576040517f08c379a0000000000000000000000000000000000000000000000000000000008152600401614a5090617c3e565b60405180910390fd5b614a673382602001516109af565b50614a84614a73616032565b85308460200151856040015161664a565b509392505050565b60075481565b6000600a54600854614aa4919061758a565b421061595257614ab26109e6565b670de0b6b3a7640000614ac3610871565b614acd91906175be565b614ad7919061762f565b6007819055504260088190555060066000815480929190614af790617660565b919050555060007f000000000000000000000000000000000000000000000000000000000000000073ffffffffffffffffffffffffffffffffffffffff166370a08231600d60009054906101000a900473ffffffffffffffffffffffffffffffffffffffff166040518263ffffffff1660e01b8152600401614b7991906172a3565b602060405180830381865afa158015614b96573d6000803e3d6000fd5b505050506040513d601f19601f82011682018060405250810190614bba91906174ce565b905060007f000000000000000000000000000000000000000000000000000000000000000073ffffffffffffffffffffffffffffffffffffffff166370a08231600e60009054906101000a900473ffffffffffffffffffffffffffffffffffffffff166040518263ffffffff1660e01b8152600401614c3991906172a3565b602060405180830381865afa158015614c56573d6000803e3d6000fd5b505050506040513d601f19601f82011682018060405250810190614c7a91906174ce565b9050600082600954614c8c91906176a8565b905060008111156154b8578082101561505a57600b6000815480929190614cb290617660565b9190505550600e60009054906101000a900473ffffffffffffffffffffffffffffffffffffffff1673ffffffffffffffffffffffffffffffffffffffff1663779da96760006040518263ffffffff1660e01b8152600401614d139190617717565b600060405180830381600087803b158015614d2d57600080fd5b505af1158015614d41573d6000803e3d6000fd5b50505050600e60009054906101000a900473ffffffffffffffffffffffffffffffffffffffff1673ffffffffffffffffffffffffffffffffffffffff16630f309b07836040518263ffffffff1660e01b8152600401614da0919061700b565b6020604051808303816000875af1158015614dbf573d6000803e3d6000fd5b505050506040513d601f19601f82011682018060405250810190614de391906174ce565b506000600560003373ffffffffffffffffffffffffffffffffffffffff1673ffffffffffffffffffffffffffffffffffffffff1681526020019081526020016000206040518060800160405290816000820154815260200160018201548152602001600282015481526020016003820160009054906101000a900473ffffffffffffffffffffffffffffffffffffffff1673ffffffffffffffffffffffffffffffffffffffff1673ffffffffffffffffffffffffffffffffffffffff16815250509050600654600b548260000151614ebb919061758a565b1015614efc576040517f08c379a0000000000000000000000000000000000000000000000000000000008152600401614ef390617b66565b60405180910390fd5b847f000000000000000000000000000000000000000000000000000000000000000073ffffffffffffffffffffffffffffffffffffffff166370a08231306040518263ffffffff1660e01b8152600401614f5691906172a3565b602060405180830381865afa158015614f73573d6000803e3d6000fd5b505050506040513d601f19601f82011682018060405250810190614f9791906174ce565b11614fd7576040517f08c379a0000000000000000000000000000000000000000000000000000000008152600401614fce90617bd2565b60405180910390fd5b8060400151614fe530612e9d565b1015615026576040517f08c379a000000000000000000000000000000000000000000000000000000000815260040161501d90617c3e565b60405180910390fd5b6150343382602001516109af565b50615051615040616032565b88308460200151856040015161664a565b879450506154b3565b600e60009054906101000a900473ffffffffffffffffffffffffffffffffffffffff1673ffffffffffffffffffffffffffffffffffffffff16630f309b07826040518263ffffffff1660e01b81526004016150b5919061700b565b6020604051808303816000875af11580156150d4573d6000803e3d6000fd5b505050506040513d601f19601f820116820180604052508101906150f891906174ce565b50600e60009054906101000a900473ffffffffffffffffffffffffffffffffffffffff1673ffffffffffffffffffffffffffffffffffffffff1663779da9677f000000000000000000000000000000000000000000000000000000000000000073ffffffffffffffffffffffffffffffffffffffff166370a08231600e60009054906101000a900473ffffffffffffffffffffffffffffffffffffffff166040518263ffffffff1660e01b81526004016151b291906172a3565b602060405180830381865afa1580156151cf573d6000803e3d6000fd5b505050506040513d601f19601f820116820180604052508101906151f391906174ce565b6040518263ffffffff1660e01b815260040161520f919061700b565b600060405180830381600087803b15801561522957600080fd5b505af115801561523d573d6000803e3d6000fd5b505050506000600560003373ffffffffffffffffffffffffffffffffffffffff1673ffffffffffffffffffffffffffffffffffffffff1681526020019081526020016000206040518060800160405290816000820154815260200160018201548152602001600282015481526020016003820160009054906101000a900473ffffffffffffffffffffffffffffffffffffffff1673ffffffffffffffffffffffffffffffffffffffff1673ffffffffffffffffffffffffffffffffffffffff16815250509050600654600b548260000151615318919061758a565b1015615359576040517f08c379a000000000000000000000000000000000000000000000000000000000815260040161535090617b66565b60405180910390fd5b847f000000000000000000000000000000000000000000000000000000000000000073ffffffffffffffffffffffffffffffffffffffff166370a08231306040518263ffffffff1660e01b81526004016153b391906172a3565b602060405180830381865afa1580156153d0573d6000803e3d6000fd5b505050506040513d601f19601f820116820180604052508101906153f491906174ce565b11615434576040517f08c379a000000000000000000000000000000000000000000000000000000000815260040161542b90617bd2565b60405180910390fd5b806040015161544230612e9d565b1015615483576040517f08c379a000000000000000000000000000000000000000000000000000000000815260040161547a90617c3e565b60405180910390fd5b6154913382602001516109af565b506154ae61549d616032565b88308460200151856040015161664a565b879450505b61594e565b6000600954846154c891906176a8565b90507f000000000000000000000000000000000000000000000000000000000000000073ffffffffffffffffffffffffffffffffffffffff1663a9059cbb600e60009054906101000a900473ffffffffffffffffffffffffffffffffffffffff16836040518363ffffffff1660e01b8152600401615547929190617732565b6020604051808303816000875af1158015615566573d6000803e3d6000fd5b505050506040513d601f19601f8201168201806040525081019061558a9190617787565b50600e60009054906101000a900473ffffffffffffffffffffffffffffffffffffffff1673ffffffffffffffffffffffffffffffffffffffff1663779da9677f000000000000000000000000000000000000000000000000000000000000000073ffffffffffffffffffffffffffffffffffffffff166370a08231600e60009054906101000a900473ffffffffffffffffffffffffffffffffffffffff166040518263ffffffff1660e01b815260040161564491906172a3565b602060405180830381865afa158015615661573d6000803e3d6000fd5b505050506040513d601f19601f8201168201806040525081019061568591906174ce565b6040518263ffffffff1660e01b81526004016156a1919061700b565b600060405180830381600087803b1580156156bb57600080fd5b505af11580156156cf573d6000803e3d6000fd5b505050506001600b819055506000600560003373ffffffffffffffffffffffffffffffffffffffff1673ffffffffffffffffffffffffffffffffffffffff1681526020019081526020016000206040518060800160405290816000820154815260200160018201548152602001600282015481526020016003820160009054906101000a900473ffffffffffffffffffffffffffffffffffffffff1673ffffffffffffffffffffffffffffffffffffffff1673ffffffffffffffffffffffffffffffffffffffff16815250509050600654600b5482600001516157b2919061758a565b10156157f3576040517f08c379a00000000000000000000000000000000000000000000000000000000081526004016157ea90617b66565b60405180910390fd5b857f000000000000000000000000000000000000000000000000000000000000000073ffffffffffffffffffffffffffffffffffffffff166370a08231306040518263ffffffff1660e01b815260040161584d91906172a3565b602060405180830381865afa15801561586a573d6000803e3d6000fd5b505050506040513d601f19601f8201168201806040525081019061588e91906174ce565b116158ce576040517f08c379a00000000000000000000000000000000000000000000000000000000081526004016158c590617bd2565b60405180910390fd5b80604001516158dc30612e9d565b101561591d576040517f08c379a000000000000000000000000000000000000000000000000000000000815260040161591490617c3e565b60405180910390fd5b61592b3382602001516109af565b50615948615937616032565b89308460200151856040015161664a565b88955050505b5050505b6000600560003373ffffffffffffffffffffffffffffffffffffffff1673ffffffffffffffffffffffffffffffffffffffff1681526020019081526020016000206040518060800160405290816000820154815260200160018201548152602001600282015481526020016003820160009054906101000a900473ffffffffffffffffffffffffffffffffffffffff1673ffffffffffffffffffffffffffffffffffffffff1673ffffffffffffffffffffffffffffffffffffffff16815250509050600654600b548260000151615a29919061758a565b1015615a6a576040517f08c379a0000000000000000000000000000000000000000000000000000000008152600401615a6190617b66565b60405180910390fd5b817f000000000000000000000000000000000000000000000000000000000000000073ffffffffffffffffffffffffffffffffffffffff166370a08231306040518263ffffffff1660e01b8152600401615ac491906172a3565b602060405180830381865afa158015615ae1573d6000803e3d6000fd5b505050506040513d601f19601f82011682018060405250810190615b0591906174ce565b11615b45576040517f08c379a0000000000000000000000000000000000000000000000000000000008152600401615b3c90617bd2565b60405180910390fd5b8060400151615b5330612e9d565b1015615b94576040517f08c379a0000000000000000000000000000000000000000000000000000000008152600401615b8b90617c3e565b60405180910390fd5b615ba23382602001516109af565b50615bbf615bae616032565b85308460200151856040015161664a565b849150509392505050565b6000600d60009054906101000a900473ffffffffffffffffffffffffffffffffffffffff1673ffffffffffffffffffffffffffffffffffffffff1663ba8fba486040518163ffffffff1660e01b8152600401602060405180830381865afa158015615c39573d6000803e3d6000fd5b505050506040513d601f19601f82011682018060405250810190615c5d91906174ce565b905090565b600a5481565b60007fffffffffffffffffffffffffffffffffffffffffffffffffffffffffffffffff9050919050565b6000615c9f826000616203565b9050919050565b600080600d60009054906101000a900473ffffffffffffffffffffffffffffffffffffffff1673ffffffffffffffffffffffffffffffffffffffff1663ba8fba486040518163ffffffff1660e01b8152600401602060405180830381865afa158015615d16573d6000803e3d6000fd5b505050506040513d601f19601f82011682018060405250810190615d3a91906174ce565b90506000615d51615d4a85612e9d565b6000615fe6565b905080821115615d65578092505050615d6b565b81925050505b919050565b600080615e0e600d60009054906101000a900473ffffffffffffffffffffffffffffffffffffffff1673ffffffffffffffffffffffffffffffffffffffff1663ba8fba486040518163ffffffff1660e01b8152600401602060405180830381865afa158015615de3573d6000803e3d6000fd5b505050506040513d601f19601f82011682018060405250810190615e0791906174ce565b6001616203565b90506000615e1b84612e9d565b905080821115615e3957615e30816000616203565b92505050615e49565b615e44826000616203565b925050505b919050565b6000600160008473ffffffffffffffffffffffffffffffffffffffff1673ffffffffffffffffffffffffffffffffffffffff16815260200190815260200160002060008373ffffffffffffffffffffffffffffffffffffffff1673ffffffffffffffffffffffffffffffffffffffff16815260200190815260200160002054905092915050565b6000615ee2826000616203565b9050919050565b60003373ffffffffffffffffffffffffffffffffffffffff16600c60009054906101000a900473ffffffffffffffffffffffffffffffffffffffff1673ffffffffffffffffffffffffffffffffffffffff1614615f7b576040517f08c379a0000000000000000000000000000000000000000000000000000000008152600401615f72906178fe565b60405180910390fd5b81600e60006101000a81548173ffffffffffffffffffffffffffffffffffffffff021916908373ffffffffffffffffffffffffffffffffffffffff160217905550600e60009054906101000a900473ffffffffffffffffffffffffffffffffffffffff169050919050565b600080615ff16109e6565b90506000811461601e57616019616006610871565b828587616841909392919063ffffffff16565b616029565b61602884846168b7565b5b91505092915050565b600033905090565b600073ffffffffffffffffffffffffffffffffffffffff168373ffffffffffffffffffffffffffffffffffffffff16036160a9576040517f08c379a00000000000000000000000000000000000000000000000000000000081526004016160a090617cd0565b60405180910390fd5b600073ffffffffffffffffffffffffffffffffffffffff168273ffffffffffffffffffffffffffffffffffffffff1603616118576040517f08c379a000000000000000000000000000000000000000000000000000000000815260040161610f90617d62565b60405180910390fd5b80600160008573ffffffffffffffffffffffffffffffffffffffff1673ffffffffffffffffffffffffffffffffffffffff16815260200190815260200160002060008473ffffffffffffffffffffffffffffffffffffffff1673ffffffffffffffffffffffffffffffffffffffff168152602001908152602001600020819055508173ffffffffffffffffffffffffffffffffffffffff168373ffffffffffffffffffffffffffffffffffffffff167f8c5be1e5ebec7d5bd14f71427d1e84f3dd0314c0f7b2291e5b200ac8c7c3b925836040516161f6919061700b565b60405180910390a3505050565b60008061620e6109e6565b9050600061621a610871565b9050600085148061622b5750600082145b61624b5761624682828688616841909392919063ffffffff16565b616256565b61625585856168c2565b5b9250505092915050565b600061626c8484615e4e565b90507fffffffffffffffffffffffffffffffffffffffffffffffffffffffffffffffff81146162e657818110156162d8576040517f08c379a00000000000000000000000000000000000000000000000000000000081526004016162cf90617dce565b60405180910390fd5b6162e5848484840361603a565b5b50505050565b600073ffffffffffffffffffffffffffffffffffffffff168373ffffffffffffffffffffffffffffffffffffffff160361635b576040517f08c379a000000000000000000000000000000000000000000000000000000000815260040161635290617e60565b60405180910390fd5b600073ffffffffffffffffffffffffffffffffffffffff168273ffffffffffffffffffffffffffffffffffffffff16036163ca576040517f08c379a00000000000000000000000000000000000000000000000000000000081526004016163c190617ef2565b60405180910390fd5b6163d58383836168cd565b60008060008573ffffffffffffffffffffffffffffffffffffffff1673ffffffffffffffffffffffffffffffffffffffff1681526020019081526020016000205490508181101561645b576040517f08c379a000000000000000000000000000000000000000000000000000000000815260040161645290617f84565b60405180910390fd5b8181036000808673ffffffffffffffffffffffffffffffffffffffff1673ffffffffffffffffffffffffffffffffffffffff16815260200190815260200160002081905550816000808573ffffffffffffffffffffffffffffffffffffffff1673ffffffffffffffffffffffffffffffffffffffff168152602001908152602001600020600082825401925050819055508273ffffffffffffffffffffffffffffffffffffffff168473ffffffffffffffffffffffffffffffffffffffff167fddf252ad1be2c89b69c2b068fc378daa952ba7f163c4a11628f55a4df523b3ef84604051616549919061700b565b60405180910390a361655c8484846168d2565b50505050565b60008061656d610871565b11806165805750600061657e6109e6565b145b905090565b6165d37f000000000000000000000000000000000000000000000000000000000000000085600d60009054906101000a900473ffffffffffffffffffffffffffffffffffffffff16856168d7565b6165dd8382616960565b8273ffffffffffffffffffffffffffffffffffffffff168473ffffffffffffffffffffffffffffffffffffffff167fdcbc1c05240f31ff3ad067ef1ee35ce4997762752e3a095284754544f4c709d7848460405161663c929190617fa4565b60405180910390a350505050565b8273ffffffffffffffffffffffffffffffffffffffff168573ffffffffffffffffffffffffffffffffffffffff161461668957616688838683616260565b5b600560003373ffffffffffffffffffffffffffffffffffffffff1673ffffffffffffffffffffffffffffffffffffffff168152602001908152602001600020600080820160009055600182016000905560028201600090556003820160006101000a81549073ffffffffffffffffffffffffffffffffffffffff02191690555050816009600082825461671c91906176a8565b9250508190555061672d8382616ab6565b600d60009054906101000a900473ffffffffffffffffffffffffffffffffffffffff1673ffffffffffffffffffffffffffffffffffffffff1663c74b197c85846040518363ffffffff1660e01b815260040161678a929190617732565b600060405180830381600087803b1580156167a457600080fd5b505af11580156167b8573d6000803e3d6000fd5b505050508273ffffffffffffffffffffffffffffffffffffffff168473ffffffffffffffffffffffffffffffffffffffff168673ffffffffffffffffffffffffffffffffffffffff167ffbde797d201c681b91056529119e0b02407c7bb96a4a2c75c01fc9667232c8db8585604051616832929190617fa4565b60405180910390a45050505050565b60008061684f868686616c83565b90506001600281111561686557616864617fcd565b5b83600281111561687857616877617fcd565b5b14801561689657506000848061689157616890617600565b5b868809115b156168ab576001816168a8919061758a565b90505b80915050949350505050565b600082905092915050565b600082905092915050565b505050565b505050565b61695a846323b872dd60e01b8585856040516024016168f893929190617ffc565b604051602081830303815290604052907bffffffffffffffffffffffffffffffffffffffffffffffffffffffff19166020820180517bffffffffffffffffffffffffffffffffffffffffffffffffffffffff8381831617835250505050616d5e565b50505050565b600073ffffffffffffffffffffffffffffffffffffffff168273ffffffffffffffffffffffffffffffffffffffff16036169cf576040517f08c379a00000000000000000000000000000000000000000000000000000000081526004016169c69061807f565b60405180910390fd5b6169db600083836168cd565b80600260008282546169ed919061758a565b92505081905550806000808473ffffffffffffffffffffffffffffffffffffffff1673ffffffffffffffffffffffffffffffffffffffff168152602001908152602001600020600082825401925050819055508173ffffffffffffffffffffffffffffffffffffffff16600073ffffffffffffffffffffffffffffffffffffffff167fddf252ad1be2c89b69c2b068fc378daa952ba7f163c4a11628f55a4df523b3ef83604051616a9e919061700b565b60405180910390a3616ab2600083836168d2565b5050565b600073ffffffffffffffffffffffffffffffffffffffff168273ffffffffffffffffffffffffffffffffffffffff1603616b25576040517f08c379a0000000000000000000000000000000000000000000000000000000008152600401616b1c90618111565b60405180910390fd5b616b31826000836168cd565b60008060008473ffffffffffffffffffffffffffffffffffffffff1673ffffffffffffffffffffffffffffffffffffffff16815260200190815260200160002054905081811015616bb7576040517f08c379a0000000000000000000000000000000000000000000000000000000008152600401616bae906181a3565b60405180910390fd5b8181036000808573ffffffffffffffffffffffffffffffffffffffff1673ffffffffffffffffffffffffffffffffffffffff1681526020019081526020016000208190555081600260008282540392505081905550600073ffffffffffffffffffffffffffffffffffffffff168373ffffffffffffffffffffffffffffffffffffffff167fddf252ad1be2c89b69c2b068fc378daa952ba7f163c4a11628f55a4df523b3ef84604051616c6a919061700b565b60405180910390a3616c7e836000846168d2565b505050565b6000806000801985870985870292508281108382030391505060008103616cbe57838281616cb457616cb3617600565b5b0492505050616d57565b808411616cca57600080fd5b60008486880990508281118203915080830392506000600186190186169050808604955080840493506001818260000304019050808302841793506000600287600302189050808702600203810290508087026002038102905080870260020381029050808702600203810290508087026002038102905080870260020381029050808502955050505050505b9392505050565b6000616dc0826040518060400160405280602081526020017f5361666545524332303a206c6f772d6c6576656c2063616c6c206661696c65648152508573ffffffffffffffffffffffffffffffffffffffff16616e259092919063ffffffff16565b9050600081511115616e205780806020019051810190616de09190617787565b616e1f576040517f08c379a0000000000000000000000000000000000000000000000000000000008152600401616e1690618235565b60405180910390fd5b5b505050565b6060616e348484600085616e3d565b90509392505050565b606082471015616e82576040517f08c379a0000000000000000000000000000000000000000000000000000000008152600401616e79906182c7565b60405180910390fd5b6000808673ffffffffffffffffffffffffffffffffffffffff168587604051616eab919061832e565b60006040518083038185875af1925050503d8060008114616ee8576040519150601f19603f3d011682016040523d82523d6000602084013e616eed565b606091505b5091509150616efe87838387616f0a565b92505050949350505050565b60608315616f6c576000835103616f6457616f2485616f7f565b616f63576040517f08c379a0000000000000000000000000000000000000000000000000000000008152600401616f5a90618391565b60405180910390fd5b5b829050616f77565b616f768383616fa2565b5b949350505050565b6000808273ffffffffffffffffffffffffffffffffffffffff163b119050919050565b600082511115616fb55781518083602001fd5b806040517f08c379a0000000000000000000000000000000000000000000000000000000008152600401616fe991906170b6565b60405180910390fd5b6000819050919050565b61700581616ff2565b82525050565b60006020820190506170206000830184616ffc565b92915050565b600081519050919050565b600082825260208201905092915050565b60005b83811015617060578082015181840152602081019050617045565b60008484015250505050565b6000601f19601f8301169050919050565b600061708882617026565b6170928185617031565b93506170a2818560208601617042565b6170ab8161706c565b840191505092915050565b600060208201905081810360008301526170d0818461707d565b905092915050565b600080fd5b6170e681616ff2565b81146170f157600080fd5b50565b600081359050617103816170dd565b92915050565b60006020828403121561711f5761711e6170d8565b5b600061712d848285016170f4565b91505092915050565b600073ffffffffffffffffffffffffffffffffffffffff82169050919050565b600061716182617136565b9050919050565b61717181617156565b811461717c57600080fd5b50565b60008135905061718e81617168565b92915050565b600080604083850312156171ab576171aa6170d8565b5b60006171b98582860161717f565b92505060206171ca858286016170f4565b9150509250929050565b60008115159050919050565b6171e9816171d4565b82525050565b600060208201905061720460008301846171e0565b92915050565b600080600060608486031215617223576172226170d8565b5b60006172318682870161717f565b93505060206172428682870161717f565b9250506040617253868287016170f4565b9150509250925092565b600060ff82169050919050565b6172738161725d565b82525050565b600060208201905061728e600083018461726a565b92915050565b61729d81617156565b82525050565b60006020820190506172b86000830184617294565b92915050565b6000602082840312156172d4576172d36170d8565b5b60006172e28482850161717f565b91505092915050565b60008060408385031215617302576173016170d8565b5b6000617310858286016170f4565b92505060206173218582860161717f565b9150509250929050565b60006080820190506173406000830187616ffc565b61734d6020830186616ffc565b61735a6040830185616ffc565b6173676060830184617294565b95945050505050565b6000819050919050565b600061739561739061738b84617136565b617370565b617136565b9050919050565b60006173a78261737a565b9050919050565b60006173b98261739c565b9050919050565b6173c9816173ae565b82525050565b60006020820190506173e460008301846173c0565b92915050565b600080600060608486031215617403576174026170d8565b5b6000617411868287016170f4565b93505060206174228682870161717f565b92505060406174338682870161717f565b9150509250925092565b60008060408385031215617454576174536170d8565b5b60006174628582860161717f565b92505060206174738582860161717f565b9150509250929050565b60006174888261739c565b9050919050565b6174988161747d565b82525050565b60006020820190506174b3600083018461748f565b92915050565b6000815190506174c8816170dd565b92915050565b6000602082840312156174e4576174e36170d8565b5b60006174f2848285016174b9565b91505092915050565b7f4e487b7100000000000000000000000000000000000000000000000000000000600052602260045260246000fd5b6000600282049050600182168061754257607f821691505b602082108103617555576175546174fb565b5b50919050565b7f4e487b7100000000000000000000000000000000000000000000000000000000600052601160045260246000fd5b600061759582616ff2565b91506175a083616ff2565b92508282019050808211156175b8576175b761755b565b5b92915050565b60006175c982616ff2565b91506175d483616ff2565b92508282026175e281616ff2565b915082820484148315176175f9576175f861755b565b5b5092915050565b7f4e487b7100000000000000000000000000000000000000000000000000000000600052601260045260246000fd5b600061763a82616ff2565b915061764583616ff2565b92508261765557617654617600565b5b828204905092915050565b600061766b82616ff2565b91507fffffffffffffffffffffffffffffffffffffffffffffffffffffffffffffffff820361769d5761769c61755b565b5b600182019050919050565b60006176b382616ff2565b91506176be83616ff2565b92508282039050818111156176d6576176d561755b565b5b92915050565b6000819050919050565b60006177016176fc6176f7846176dc565b617370565b616ff2565b9050919050565b617711816176e6565b82525050565b600060208201905061772c6000830184617708565b92915050565b60006040820190506177476000830185617294565b6177546020830184616ffc565b9392505050565b617764816171d4565b811461776f57600080fd5b50565b6000815190506177818161775b565b92915050565b60006020828403121561779d5761779c6170d8565b5b60006177ab84828501617772565b91505092915050565b7f646f6e2774206861766520656e6f75676820746f6b656e730000000000000000600082015250565b60006177ea601883617031565b91506177f5826177b4565b602082019050919050565b60006020820190508181036000830152617819816177dd565b9050919050565b7f646f6e2774206861766520656e6f75676820746f6b656e7320617070726f766560008201527f6400000000000000000000000000000000000000000000000000000000000000602082015250565b600061787c602183617031565b915061788782617820565b604082019050919050565b600060208201905081810360008301526178ab8161786f565b9050919050565b7f4d7573742062652074686520676f762121000000000000000000000000000000600082015250565b60006178e8601183617031565b91506178f3826178b2565b602082019050919050565b60006020820190508181036000830152617917816178db565b9050919050565b7f455243343632363a206465706f736974206d6f7265207468616e206d61780000600082015250565b6000617954601e83617031565b915061795f8261791e565b602082019050919050565b6000602082019050818103600083015261798381617947565b9050919050565b7f4e6f7420656e6f7567682061737365747320696e207468652077616c6c657400600082015250565b60006179c0601f83617031565b91506179cb8261798a565b602082019050919050565b600060208201905081810360008301526179ef816179b3565b9050919050565b7f455243343632363a206d696e74206d6f7265207468616e206d61780000000000600082015250565b6000617a2c601b83617031565b9150617a37826179f6565b602082019050919050565b60006020820190508181036000830152617a5b81617a1f565b9050919050565b7f45524332303a2064656372656173656420616c6c6f77616e63652062656c6f7760008201527f207a65726f000000000000000000000000000000000000000000000000000000602082015250565b6000617abe602583617031565b9150617ac982617a62565b604082019050919050565b60006020820190508181036000830152617aed81617ab1565b9050919050565b7f4e6f207265717565737420666f756e64206f722072657571657374206e6f742060008201527f776974686472617761626c652079657400000000000000000000000000000000602082015250565b6000617b50603083617031565b9150617b5b82617af4565b604082019050919050565b60006020820190508181036000830152617b7f81617b43565b9050919050565b7f4e6f7420656e6f7567682064616920696e207661756c74000000000000000000600082015250565b6000617bbc601783617031565b9150617bc782617b86565b602082019050919050565b60006020820190508181036000830152617beb81617baf565b9050919050565b7f6e6f7420656e6f756768206c697120696e20746865207661756c740000000000600082015250565b6000617c28601b83617031565b9150617c3382617bf2565b602082019050919050565b60006020820190508181036000830152617c5781617c1b565b9050919050565b7f45524332303a20617070726f76652066726f6d20746865207a65726f2061646460008201527f7265737300000000000000000000000000000000000000000000000000000000602082015250565b6000617cba602483617031565b9150617cc582617c5e565b604082019050919050565b60006020820190508181036000830152617ce981617cad565b9050919050565b7f45524332303a20617070726f766520746f20746865207a65726f20616464726560008201527f7373000000000000000000000000000000000000000000000000000000000000602082015250565b6000617d4c602283617031565b9150617d5782617cf0565b604082019050919050565b60006020820190508181036000830152617d7b81617d3f565b9050919050565b7f45524332303a20696e73756666696369656e7420616c6c6f77616e6365000000600082015250565b6000617db8601d83617031565b9150617dc382617d82565b602082019050919050565b60006020820190508181036000830152617de781617dab565b9050919050565b7f45524332303a207472616e736665722066726f6d20746865207a65726f20616460008201527f6472657373000000000000000000000000000000000000000000000000000000602082015250565b6000617e4a602583617031565b9150617e5582617dee565b604082019050919050565b60006020820190508181036000830152617e7981617e3d565b9050919050565b7f45524332303a207472616e7366657220746f20746865207a65726f206164647260008201527f6573730000000000000000000000000000000000000000000000000000000000602082015250565b6000617edc602383617031565b9150617ee782617e80565b604082019050919050565b60006020820190508181036000830152617f0b81617ecf565b9050919050565b7f45524332303a207472616e7366657220616d6f756e742065786365656473206260008201527f616c616e63650000000000000000000000000000000000000000000000000000602082015250565b6000617f6e602683617031565b9150617f7982617f12565b604082019050919050565b60006020820190508181036000830152617f9d81617f61565b9050919050565b6000604082019050617fb96000830185616ffc565b617fc66020830184616ffc565b9392505050565b7f4e487b7100000000000000000000000000000000000000000000000000000000600052602160045260246000fd5b60006060820190506180116000830186617294565b61801e6020830185617294565b61802b6040830184616ffc565b949350505050565b7f45524332303a206d696e7420746f20746865207a65726f206164647265737300600082015250565b6000618069601f83617031565b915061807482618033565b602082019050919050565b600060208201905081810360008301526180988161805c565b9050919050565b7f45524332303a206275726e2066726f6d20746865207a65726f2061646472657360008201527f7300000000000000000000000000000000000000000000000000000000000000602082015250565b60006180fb602183617031565b91506181068261809f565b604082019050919050565b6000602082019050818103600083015261812a816180ee565b9050919050565b7f45524332303a206275726e20616d6f756e7420657863656564732062616c616e60008201527f6365000000000000000000000000000000000000000000000000000000000000602082015250565b600061818d602283617031565b915061819882618131565b604082019050919050565b600060208201905081810360008301526181bc81618180565b9050919050565b7f5361666545524332303a204552433230206f7065726174696f6e20646964206e60008201527f6f74207375636365656400000000000000000000000000000000000000000000602082015250565b600061821f602a83617031565b915061822a826181c3565b604082019050919050565b6000602082019050818103600083015261824e81618212565b9050919050565b7f416464726573733a20696e73756666696369656e742062616c616e636520666f60008201527f722063616c6c0000000000000000000000000000000000000000000000000000602082015250565b60006182b1602683617031565b91506182bc82618255565b604082019050919050565b600060208201905081810360008301526182e0816182a4565b9050919050565b600081519050919050565b600081905092915050565b6000618308826182e7565b61831281856182f2565b9350618322818560208601617042565b80840191505092915050565b600061833a82846182fd565b915081905092915050565b7f416464726573733a2063616c6c20746f206e6f6e2d636f6e7472616374000000600082015250565b600061837b601d83617031565b915061838682618345565b602082019050919050565b600060208201905081810360008301526183aa8161836e565b905091905056fea26469706673582212203f864791b1b5dd34a949108f1e20564de445b1343c1108e4bdbe80817b46d35b64736f6c63430008110033",
  "linkReferences": {},
  "deployedLinkReferences": {}
}