{
  "_format": "hh-sol-artifact-1",
  "contractName": "FettiERC20",
  "sourceName": "contracts/FettiERC20.sol",
  "abi": [
    {
      "inputs": [],
      "stateMutability": "nonpayable",
      "type": "constructor"
    },
    {
      "anonymous": false,
      "inputs": [
        {
          "indexed": true,
          "internalType": "address",
          "name": "owner",
          "type": "address"
        },
        {
          "indexed": true,
          "internalType": "address",
          "name": "spender",
          "type": "address"
        },
        {
          "indexed": false,
          "internalType": "uint256",
          "name": "value",
          "type": "uint256"
        }
      ],
      "name": "Approval",
      "type": "event"
    },
    {
      "anonymous": false,
      "inputs": [
        {
          "indexed": true,
          "internalType": "address",
          "name": "sender",
          "type": "address"
        },
        {
          "indexed": true,
          "internalType": "address",
          "name": "owner",
          "type": "address"
        },
        {
          "indexed": false,
          "internalType": "uint256",
          "name": "assets",
          "type": "uint256"
        },
        {
          "indexed": false,
          "internalType": "uint256",
          "name": "shares",
          "type": "uint256"
        }
      ],
      "name": "Deposit",
      "type": "event"
    },
    {
      "anonymous": false,
      "inputs": [
        {
          "indexed": true,
          "internalType": "address",
          "name": "from",
          "type": "address"
        },
        {
          "indexed": true,
          "internalType": "address",
          "name": "to",
          "type": "address"
        },
        {
          "indexed": false,
          "internalType": "uint256",
          "name": "value",
          "type": "uint256"
        }
      ],
      "name": "Transfer",
      "type": "event"
    },
    {
      "anonymous": false,
      "inputs": [
        {
          "indexed": true,
          "internalType": "address",
          "name": "sender",
          "type": "address"
        },
        {
          "indexed": true,
          "internalType": "address",
          "name": "receiver",
          "type": "address"
        },
        {
          "indexed": true,
          "internalType": "address",
          "name": "owner",
          "type": "address"
        },
        {
          "indexed": false,
          "internalType": "uint256",
          "name": "assets",
          "type": "uint256"
        },
        {
          "indexed": false,
          "internalType": "uint256",
          "name": "shares",
          "type": "uint256"
        }
      ],
      "name": "Withdraw",
      "type": "event"
    },
    {
      "inputs": [
        {
          "internalType": "address",
          "name": "owner",
          "type": "address"
        },
        {
          "internalType": "address",
          "name": "spender",
          "type": "address"
        }
      ],
      "name": "allowance",
      "outputs": [
        {
          "internalType": "uint256",
          "name": "",
          "type": "uint256"
        }
      ],
      "stateMutability": "view",
      "type": "function"
    },
    {
      "inputs": [
        {
          "internalType": "address",
          "name": "spender",
          "type": "address"
        },
        {
          "internalType": "uint256",
          "name": "amount",
          "type": "uint256"
        }
      ],
      "name": "approve",
      "outputs": [
        {
          "internalType": "bool",
          "name": "",
          "type": "bool"
        }
      ],
      "stateMutability": "nonpayable",
      "type": "function"
    },
    {
      "inputs": [],
      "name": "asset",
      "outputs": [
        {
          "internalType": "address",
          "name": "assetTokenAddress",
          "type": "address"
        }
      ],
      "stateMutability": "view",
      "type": "function"
    },
    {
      "inputs": [
        {
          "internalType": "address",
          "name": "account",
          "type": "address"
        }
      ],
      "name": "balanceOf",
      "outputs": [
        {
          "internalType": "uint256",
          "name": "",
          "type": "uint256"
        }
      ],
      "stateMutability": "view",
      "type": "function"
    },
    {
      "inputs": [
        {
          "internalType": "uint256",
          "name": "shares",
          "type": "uint256"
        }
      ],
      "name": "convertToAssets",
      "outputs": [
        {
          "internalType": "uint256",
          "name": "assets",
          "type": "uint256"
        }
      ],
      "stateMutability": "view",
      "type": "function"
    },
    {
      "inputs": [
        {
          "internalType": "uint256",
          "name": "assets",
          "type": "uint256"
        }
      ],
      "name": "convertToShares",
      "outputs": [
        {
          "internalType": "uint256",
          "name": "shares",
          "type": "uint256"
        }
      ],
      "stateMutability": "view",
      "type": "function"
    },
    {
      "inputs": [],
      "name": "decimals",
      "outputs": [
        {
          "internalType": "uint8",
          "name": "",
          "type": "uint8"
        }
      ],
      "stateMutability": "pure",
      "type": "function"
    },
    {
      "inputs": [
        {
          "internalType": "address",
          "name": "spender",
          "type": "address"
        },
        {
          "internalType": "uint256",
          "name": "subtractedValue",
          "type": "uint256"
        }
      ],
      "name": "decreaseAllowance",
      "outputs": [
        {
          "internalType": "bool",
          "name": "",
          "type": "bool"
        }
      ],
      "stateMutability": "nonpayable",
      "type": "function"
    },
    {
      "inputs": [
        {
          "internalType": "uint256",
          "name": "assets",
          "type": "uint256"
        },
        {
          "internalType": "address",
          "name": "receiver",
          "type": "address"
        }
      ],
      "name": "deposit",
      "outputs": [
        {
          "internalType": "uint256",
          "name": "shares",
          "type": "uint256"
        }
      ],
      "stateMutability": "nonpayable",
      "type": "function"
    },
    {
      "inputs": [
        {
          "internalType": "address",
          "name": "spender",
          "type": "address"
        },
        {
          "internalType": "uint256",
          "name": "addedValue",
          "type": "uint256"
        }
      ],
      "name": "increaseAllowance",
      "outputs": [
        {
          "internalType": "bool",
          "name": "",
          "type": "bool"
        }
      ],
      "stateMutability": "nonpayable",
      "type": "function"
    },
    {
      "inputs": [
        {
          "internalType": "address",
          "name": "",
          "type": "address"
        }
      ],
      "name": "maxDeposit",
      "outputs": [
        {
          "internalType": "uint256",
          "name": "maxAssets",
          "type": "uint256"
        }
      ],
      "stateMutability": "view",
      "type": "function"
    },
    {
      "inputs": [
        {
          "internalType": "address",
          "name": "",
          "type": "address"
        }
      ],
      "name": "maxMint",
      "outputs": [
        {
          "internalType": "uint256",
          "name": "maxShares",
          "type": "uint256"
        }
      ],
      "stateMutability": "pure",
      "type": "function"
    },
    {
      "inputs": [
        {
          "internalType": "address",
          "name": "owner",
          "type": "address"
        }
      ],
      "name": "maxRedeem",
      "outputs": [
        {
          "internalType": "uint256",
          "name": "maxShares",
          "type": "uint256"
        }
      ],
      "stateMutability": "view",
      "type": "function"
    },
    {
      "inputs": [
        {
          "internalType": "address",
          "name": "owner",
          "type": "address"
        }
      ],
      "name": "maxWithdraw",
      "outputs": [
        {
          "internalType": "uint256",
          "name": "maxAssets",
          "type": "uint256"
        }
      ],
      "stateMutability": "view",
      "type": "function"
    },
    {
      "inputs": [
        {
          "internalType": "uint256",
          "name": "shares",
          "type": "uint256"
        },
        {
          "internalType": "address",
          "name": "receiver",
          "type": "address"
        }
      ],
      "name": "mint",
      "outputs": [
        {
          "internalType": "uint256",
          "name": "assets",
          "type": "uint256"
        }
      ],
      "stateMutability": "nonpayable",
      "type": "function"
    },
    {
      "inputs": [],
      "name": "name",
      "outputs": [
        {
          "internalType": "string",
          "name": "",
          "type": "string"
        }
      ],
      "stateMutability": "view",
      "type": "function"
    },
    {
      "inputs": [
        {
          "internalType": "uint256",
          "name": "assets",
          "type": "uint256"
        }
      ],
      "name": "previewDeposit",
      "outputs": [
        {
          "internalType": "uint256",
          "name": "shares",
          "type": "uint256"
        }
      ],
      "stateMutability": "view",
      "type": "function"
    },
    {
      "inputs": [
        {
          "internalType": "uint256",
          "name": "shares",
          "type": "uint256"
        }
      ],
      "name": "previewMint",
      "outputs": [
        {
          "internalType": "uint256",
          "name": "assets",
          "type": "uint256"
        }
      ],
      "stateMutability": "view",
      "type": "function"
    },
    {
      "inputs": [
        {
          "internalType": "uint256",
          "name": "shares",
          "type": "uint256"
        }
      ],
      "name": "previewRedeem",
      "outputs": [
        {
          "internalType": "uint256",
          "name": "assets",
          "type": "uint256"
        }
      ],
      "stateMutability": "view",
      "type": "function"
    },
    {
      "inputs": [
        {
          "internalType": "uint256",
          "name": "assets",
          "type": "uint256"
        }
      ],
      "name": "previewWithdraw",
      "outputs": [
        {
          "internalType": "uint256",
          "name": "shares",
          "type": "uint256"
        }
      ],
      "stateMutability": "view",
      "type": "function"
    },
    {
      "inputs": [
        {
          "internalType": "uint256",
          "name": "shares",
          "type": "uint256"
        },
        {
          "internalType": "address",
          "name": "receiver",
          "type": "address"
        },
        {
          "internalType": "address",
          "name": "owner",
          "type": "address"
        }
      ],
      "name": "redeem",
      "outputs": [
        {
          "internalType": "uint256",
          "name": "assets",
          "type": "uint256"
        }
      ],
      "stateMutability": "nonpayable",
      "type": "function"
    },
    {
      "inputs": [
        {
          "internalType": "address",
          "name": "vault_",
          "type": "address"
        }
      ],
      "name": "setVault",
      "outputs": [
        {
          "internalType": "contract IVault",
          "name": "vault",
          "type": "address"
        }
      ],
      "stateMutability": "nonpayable",
      "type": "function"
    },
    {
      "inputs": [],
      "name": "symbol",
      "outputs": [
        {
          "internalType": "string",
          "name": "",
          "type": "string"
        }
      ],
      "stateMutability": "view",
      "type": "function"
    },
    {
      "inputs": [],
      "name": "totalAssets",
      "outputs": [
        {
          "internalType": "uint256",
          "name": "totalManagedAssets",
          "type": "uint256"
        }
      ],
      "stateMutability": "view",
      "type": "function"
    },
    {
      "inputs": [],
      "name": "totalDaiInVault",
      "outputs": [
        {
          "internalType": "uint256",
          "name": "totalManagedAssets",
          "type": "uint256"
        }
      ],
      "stateMutability": "view",
      "type": "function"
    },
    {
      "inputs": [],
      "name": "totalSupply",
      "outputs": [
        {
          "internalType": "uint256",
          "name": "",
          "type": "uint256"
        }
      ],
      "stateMutability": "view",
      "type": "function"
    },
    {
      "inputs": [
        {
          "internalType": "address",
          "name": "to",
          "type": "address"
        },
        {
          "internalType": "uint256",
          "name": "amount",
          "type": "uint256"
        }
      ],
      "name": "transfer",
      "outputs": [
        {
          "internalType": "bool",
          "name": "",
          "type": "bool"
        }
      ],
      "stateMutability": "nonpayable",
      "type": "function"
    },
    {
      "inputs": [
        {
          "internalType": "address",
          "name": "from",
          "type": "address"
        },
        {
          "internalType": "address",
          "name": "to",
          "type": "address"
        },
        {
          "internalType": "uint256",
          "name": "amount",
          "type": "uint256"
        }
      ],
      "name": "transferFrom",
      "outputs": [
        {
          "internalType": "bool",
          "name": "",
          "type": "bool"
        }
      ],
      "stateMutability": "nonpayable",
      "type": "function"
    },
    {
      "inputs": [
        {
          "internalType": "uint256",
          "name": "assets",
          "type": "uint256"
        },
        {
          "internalType": "address",
          "name": "receiver",
          "type": "address"
        },
        {
          "internalType": "address",
          "name": "owner",
          "type": "address"
        }
      ],
      "name": "withdraw",
      "outputs": [
        {
          "internalType": "uint256",
          "name": "shares",
          "type": "uint256"
        }
      ],
      "stateMutability": "nonpayable",
      "type": "function"
    }
  ],
  "bytecode": "0x60a06040523480156200001157600080fd5b506040518060400160405280600581526020017f66657474690000000000000000000000000000000000000000000000000000008152506040518060400160405280600381526020017f464554000000000000000000000000000000000000000000000000000000000081525081600390816200008f9190620003ad565b508060049081620000a19190620003ad565b50505033600560006101000a81548173ffffffffffffffffffffffffffffffffffffffff021916908373ffffffffffffffffffffffffffffffffffffffff160217905550738f3cf7ad23cd3cadbd9735aff958023239c6a06373ffffffffffffffffffffffffffffffffffffffff1660808173ffffffffffffffffffffffffffffffffffffffff168152505062000494565b600081519050919050565b7f4e487b7100000000000000000000000000000000000000000000000000000000600052604160045260246000fd5b7f4e487b7100000000000000000000000000000000000000000000000000000000600052602260045260246000fd5b60006002820490506001821680620001b557607f821691505b602082108103620001cb57620001ca6200016d565b5b50919050565b60008190508160005260206000209050919050565b60006020601f8301049050919050565b600082821b905092915050565b600060088302620002357fffffffffffffffffffffffffffffffffffffffffffffffffffffffffffffffff82620001f6565b620002418683620001f6565b95508019841693508086168417925050509392505050565b6000819050919050565b6000819050919050565b60006200028e62000288620002828462000259565b62000263565b62000259565b9050919050565b6000819050919050565b620002aa836200026d565b620002c2620002b98262000295565b84845462000203565b825550505050565b600090565b620002d9620002ca565b620002e68184846200029f565b505050565b5b818110156200030e5762000302600082620002cf565b600181019050620002ec565b5050565b601f8211156200035d576200032781620001d1565b6200033284620001e6565b8101602085101562000342578190505b6200035a6200035185620001e6565b830182620002eb565b50505b505050565b600082821c905092915050565b6000620003826000198460080262000362565b1980831691505092915050565b60006200039d83836200036f565b9150826002028217905092915050565b620003b88262000133565b67ffffffffffffffff811115620003d457620003d36200013e565b5b620003e082546200019c565b620003ed82828562000312565b600060209050601f83116001811462000425576000841562000410578287015190505b6200041c85826200038f565b8655506200048c565b601f1984166200043586620001d1565b60005b828110156200045f5784890151825560018201915060208501945060208101905062000438565b868310156200047f57848901516200047b601f8916826200036f565b8355505b6001600288020188555050505b505050505050565b60805161318d620004be6000396000818161088101528181610a7b0152611720015261318d6000f3fe608060405234801561001057600080fd5b50600436106101cf5760003560e01c806370a0823111610104578063ba087652116100a2578063ce96cb7711610071578063ce96cb7714610606578063d905777e14610636578063dd62ed3e14610666578063ef8b30f714610696576101cf565b8063ba08765214610558578063ba8fba4814610588578063c63d75b6146105a6578063c6e6f592146105d6576101cf565b8063a457c2d7116100de578063a457c2d714610498578063a9059cbb146104c8578063b3d7f6b9146104f8578063b460af9414610528576101cf565b806370a082311461041a57806394bf804d1461044a57806395d89b411461047a576101cf565b8063313ce56711610171578063402d267d1161014b578063402d267d1461035a5780634cdad5061461038a5780636817031b146103ba5780636e553f65146103ea576101cf565b8063313ce567146102ee57806338d52e0f1461030c578063395093511461032a576101cf565b8063095ea7b3116101ad578063095ea7b3146102405780630a28a4771461027057806318160ddd146102a057806323b872dd146102be576101cf565b806301e1d114146101d457806306fdde03146101f257806307a2d13a14610210575b600080fd5b6101dc6106c6565b6040516101e99190612107565b60405180910390f35b6101fa61075e565b60405161020791906121b2565b60405180910390f35b61022a60048036038101906102259190612205565b6107f0565b6040516102379190612107565b60405180910390f35b61025a60048036038101906102559190612290565b610804565b60405161026791906122eb565b60405180910390f35b61028a60048036038101906102859190612205565b610827565b6040516102979190612107565b60405180910390f35b6102a861083b565b6040516102b59190612107565b60405180910390f35b6102d860048036038101906102d39190612306565b610845565b6040516102e591906122eb565b60405180910390f35b6102f6610874565b6040516103039190612375565b60405180910390f35b61031461087d565b604051610321919061239f565b60405180910390f35b610344600480360381019061033f9190612290565b6108a5565b60405161035191906122eb565b60405180910390f35b610374600480360381019061036f91906123ba565b6108dc565b6040516103819190612107565b60405180910390f35b6103a4600480360381019061039f9190612205565b61091a565b6040516103b19190612107565b60405180910390f35b6103d460048036038101906103cf91906123ba565b61092e565b6040516103e19190612446565b60405180910390f35b61040460048036038101906103ff9190612461565b610a2b565b6040516104119190612107565b60405180910390f35b610434600480360381019061042f91906123ba565b610b7b565b6040516104419190612107565b60405180910390f35b610464600480360381019061045f9190612461565b610bc3565b6040516104719190612107565b60405180910390f35b610482610c37565b60405161048f91906121b2565b60405180910390f35b6104b260048036038101906104ad9190612290565b610cc9565b6040516104bf91906122eb565b60405180910390f35b6104e260048036038101906104dd9190612290565b610d40565b6040516104ef91906122eb565b60405180910390f35b610512600480360381019061050d9190612205565b610d63565b60405161051f9190612107565b60405180910390f35b610542600480360381019061053d91906124a1565b610d77565b60405161054f9190612107565b60405180910390f35b610572600480360381019061056d91906124a1565b610ded565b60405161057f9190612107565b60405180910390f35b610590610e63565b60405161059d9190612107565b60405180910390f35b6105c060048036038101906105bb91906123ba565b610efb565b6040516105cd9190612107565b60405180910390f35b6105f060048036038101906105eb9190612205565b610f25565b6040516105fd9190612107565b60405180910390f35b610620600480360381019061061b91906123ba565b610f39565b60405161062d9190612107565b60405180910390f35b610650600480360381019061064b91906123ba565b611003565b60405161065d9190612107565b60405180910390f35b610680600480360381019061067b91906124f4565b6110e1565b60405161068d9190612107565b60405180910390f35b6106b060048036038101906106ab9190612205565b611168565b6040516106bd9190612107565b60405180910390f35b6000600660009054906101000a900473ffffffffffffffffffffffffffffffffffffffff1673ffffffffffffffffffffffffffffffffffffffff16630a0d0c3f6040518163ffffffff1660e01b8152600401602060405180830381865afa158015610735573d6000803e3d6000fd5b505050506040513d601f19601f820116820180604052508101906107599190612549565b905090565b60606003805461076d906125a5565b80601f0160208091040260200160405190810160405280929190818152602001828054610799906125a5565b80156107e65780601f106107bb576101008083540402835291602001916107e6565b820191906000526020600020905b8154815290600101906020018083116107c957829003601f168201915b5050505050905090565b60006107fd82600061117c565b9050919050565b60008061080f6111c8565b905061081c8185856111d0565b600191505092915050565b6000610834826001611399565b9050919050565b6000600254905090565b6000806108506111c8565b905061085d8582856113f6565b610868858585611482565b60019150509392505050565b60006012905090565b60007f0000000000000000000000000000000000000000000000000000000000000000905090565b6000806108b06111c8565b90506108d18185856108c285896110e1565b6108cc9190612605565b6111d0565b600191505092915050565b60006108e66116f8565b6108f1576000610913565b7fffffffffffffffffffffffffffffffffffffffffffffffffffffffffffffffff5b9050919050565b600061092782600061117c565b9050919050565b60003373ffffffffffffffffffffffffffffffffffffffff16600560009054906101000a900473ffffffffffffffffffffffffffffffffffffffff1673ffffffffffffffffffffffffffffffffffffffff16146109c0576040517f08c379a00000000000000000000000000000000000000000000000000000000081526004016109b790612685565b60405180910390fd5b81600660006101000a81548173ffffffffffffffffffffffffffffffffffffffff021916908373ffffffffffffffffffffffffffffffffffffffff160217905550600660009054906101000a900473ffffffffffffffffffffffffffffffffffffffff169050919050565b6000610a36826108dc565b831115610a78576040517f08c379a0000000000000000000000000000000000000000000000000000000008152600401610a6f906126f1565b60405180910390fd5b827f000000000000000000000000000000000000000000000000000000000000000073ffffffffffffffffffffffffffffffffffffffff166370a08231336040518263ffffffff1660e01b8152600401610ad2919061239f565b602060405180830381865afa158015610aef573d6000803e3d6000fd5b505050506040513d601f19601f82011682018060405250810190610b139190612549565b1015610b54576040517f08c379a0000000000000000000000000000000000000000000000000000000008152600401610b4b9061275d565b60405180910390fd5b6000610b5f84611168565b9050610b74610b6c6111c8565b84868461171b565b5092915050565b60008060008373ffffffffffffffffffffffffffffffffffffffff1673ffffffffffffffffffffffffffffffffffffffff168152602001908152602001600020549050919050565b6000610bce82610efb565b831115610c10576040517f08c379a0000000000000000000000000000000000000000000000000000000008152600401610c07906127c9565b60405180910390fd5b6000610c1b84610d63565b9050610c30610c286111c8565b84838761171b565b5092915050565b606060048054610c46906125a5565b80601f0160208091040260200160405190810160405280929190818152602001828054610c72906125a5565b8015610cbf5780601f10610c9457610100808354040283529160200191610cbf565b820191906000526020600020905b815481529060010190602001808311610ca257829003601f168201915b5050505050905090565b600080610cd46111c8565b90506000610ce282866110e1565b905083811015610d27576040517f08c379a0000000000000000000000000000000000000000000000000000000008152600401610d1e9061285b565b60405180910390fd5b610d3482868684036111d0565b60019250505092915050565b600080610d4b6111c8565b9050610d58818585611482565b600191505092915050565b6000610d7082600161117c565b9050919050565b6000610d8282610f39565b841115610dc4576040517f08c379a0000000000000000000000000000000000000000000000000000000008152600401610dbb906128c7565b60405180910390fd5b6000610dcf85610827565b9050610de5610ddc6111c8565b858588856117e0565b509392505050565b6000610df882611003565b841115610e3a576040517f08c379a0000000000000000000000000000000000000000000000000000000008152600401610e3190612933565b60405180910390fd5b6000610e458561091a565b9050610e5b610e526111c8565b858584896117e0565b509392505050565b6000600660009054906101000a900473ffffffffffffffffffffffffffffffffffffffff1673ffffffffffffffffffffffffffffffffffffffff1663ba8fba486040518163ffffffff1660e01b8152600401602060405180830381865afa158015610ed2573d6000803e3d6000fd5b505050506040513d601f19601f82011682018060405250810190610ef69190612549565b905090565b60007fffffffffffffffffffffffffffffffffffffffffffffffffffffffffffffffff9050919050565b6000610f32826000611399565b9050919050565b600080600660009054906101000a900473ffffffffffffffffffffffffffffffffffffffff1673ffffffffffffffffffffffffffffffffffffffff1663ba8fba486040518163ffffffff1660e01b8152600401602060405180830381865afa158015610fa9573d6000803e3d6000fd5b505050506040513d601f19601f82011682018060405250810190610fcd9190612549565b90506000610fe4610fdd85610b7b565b600061117c565b905080821115610ff8578092505050610ffe565b81925050505b919050565b6000806110a1600660009054906101000a900473ffffffffffffffffffffffffffffffffffffffff1673ffffffffffffffffffffffffffffffffffffffff1663ba8fba486040518163ffffffff1660e01b8152600401602060405180830381865afa158015611076573d6000803e3d6000fd5b505050506040513d601f19601f8201168201806040525081019061109a9190612549565b6001611399565b905060006110ae84610b7b565b9050808211156110cc576110c3816000611399565b925050506110dc565b6110d7826000611399565b925050505b919050565b6000600160008473ffffffffffffffffffffffffffffffffffffffff1673ffffffffffffffffffffffffffffffffffffffff16815260200190815260200160002060008373ffffffffffffffffffffffffffffffffffffffff1673ffffffffffffffffffffffffffffffffffffffff16815260200190815260200160002054905092915050565b6000611175826000611399565b9050919050565b60008061118761083b565b9050600081146111b4576111af61119c6106c6565b82858761193d909392919063ffffffff16565b6111bf565b6111be84846119b3565b5b91505092915050565b600033905090565b600073ffffffffffffffffffffffffffffffffffffffff168373ffffffffffffffffffffffffffffffffffffffff160361123f576040517f08c379a0000000000000000000000000000000000000000000000000000000008152600401611236906129c5565b60405180910390fd5b600073ffffffffffffffffffffffffffffffffffffffff168273ffffffffffffffffffffffffffffffffffffffff16036112ae576040517f08c379a00000000000000000000000000000000000000000000000000000000081526004016112a590612a57565b60405180910390fd5b80600160008573ffffffffffffffffffffffffffffffffffffffff1673ffffffffffffffffffffffffffffffffffffffff16815260200190815260200160002060008473ffffffffffffffffffffffffffffffffffffffff1673ffffffffffffffffffffffffffffffffffffffff168152602001908152602001600020819055508173ffffffffffffffffffffffffffffffffffffffff168373ffffffffffffffffffffffffffffffffffffffff167f8c5be1e5ebec7d5bd14f71427d1e84f3dd0314c0f7b2291e5b200ac8c7c3b9258360405161138c9190612107565b60405180910390a3505050565b6000806113a461083b565b905060006113b06106c6565b905060008514806113c15750600082145b6113e1576113dc8282868861193d909392919063ffffffff16565b6113ec565b6113eb85856119be565b5b9250505092915050565b600061140284846110e1565b90507fffffffffffffffffffffffffffffffffffffffffffffffffffffffffffffffff811461147c578181101561146e576040517f08c379a000000000000000000000000000000000000000000000000000000000815260040161146590612ac3565b60405180910390fd5b61147b84848484036111d0565b5b50505050565b600073ffffffffffffffffffffffffffffffffffffffff168373ffffffffffffffffffffffffffffffffffffffff16036114f1576040517f08c379a00000000000000000000000000000000000000000000000000000000081526004016114e890612b55565b60405180910390fd5b600073ffffffffffffffffffffffffffffffffffffffff168273ffffffffffffffffffffffffffffffffffffffff1603611560576040517f08c379a000000000000000000000000000000000000000000000000000000000815260040161155790612be7565b60405180910390fd5b61156b8383836119c9565b60008060008573ffffffffffffffffffffffffffffffffffffffff1673ffffffffffffffffffffffffffffffffffffffff168152602001908152602001600020549050818110156115f1576040517f08c379a00000000000000000000000000000000000000000000000000000000081526004016115e890612c79565b60405180910390fd5b8181036000808673ffffffffffffffffffffffffffffffffffffffff1673ffffffffffffffffffffffffffffffffffffffff16815260200190815260200160002081905550816000808573ffffffffffffffffffffffffffffffffffffffff1673ffffffffffffffffffffffffffffffffffffffff168152602001908152602001600020600082825401925050819055508273ffffffffffffffffffffffffffffffffffffffff168473ffffffffffffffffffffffffffffffffffffffff167fddf252ad1be2c89b69c2b068fc378daa952ba7f163c4a11628f55a4df523b3ef846040516116df9190612107565b60405180910390a36116f28484846119ce565b50505050565b6000806117036106c6565b11806117165750600061171461083b565b145b905090565b6117697f000000000000000000000000000000000000000000000000000000000000000085600660009054906101000a900473ffffffffffffffffffffffffffffffffffffffff16856119d3565b6117738382611a5c565b8273ffffffffffffffffffffffffffffffffffffffff168473ffffffffffffffffffffffffffffffffffffffff167fdcbc1c05240f31ff3ad067ef1ee35ce4997762752e3a095284754544f4c709d784846040516117d2929190612c99565b60405180910390a350505050565b8273ffffffffffffffffffffffffffffffffffffffff168573ffffffffffffffffffffffffffffffffffffffff161461181f5761181e8386836113f6565b5b6118298382611bb2565b600660009054906101000a900473ffffffffffffffffffffffffffffffffffffffff1673ffffffffffffffffffffffffffffffffffffffff1663c74b197c85846040518363ffffffff1660e01b8152600401611886929190612cc2565b600060405180830381600087803b1580156118a057600080fd5b505af11580156118b4573d6000803e3d6000fd5b505050508273ffffffffffffffffffffffffffffffffffffffff168473ffffffffffffffffffffffffffffffffffffffff168673ffffffffffffffffffffffffffffffffffffffff167ffbde797d201c681b91056529119e0b02407c7bb96a4a2c75c01fc9667232c8db858560405161192e929190612c99565b60405180910390a45050505050565b60008061194b868686611d7f565b90506001600281111561196157611960612ceb565b5b83600281111561197457611973612ceb565b5b14801561199257506000848061198d5761198c612d1a565b5b868809115b156119a7576001816119a49190612605565b90505b80915050949350505050565b600082905092915050565b600082905092915050565b505050565b505050565b611a56846323b872dd60e01b8585856040516024016119f493929190612d49565b604051602081830303815290604052907bffffffffffffffffffffffffffffffffffffffffffffffffffffffff19166020820180517bffffffffffffffffffffffffffffffffffffffffffffffffffffffff8381831617835250505050611e5a565b50505050565b600073ffffffffffffffffffffffffffffffffffffffff168273ffffffffffffffffffffffffffffffffffffffff1603611acb576040517f08c379a0000000000000000000000000000000000000000000000000000000008152600401611ac290612dcc565b60405180910390fd5b611ad7600083836119c9565b8060026000828254611ae99190612605565b92505081905550806000808473ffffffffffffffffffffffffffffffffffffffff1673ffffffffffffffffffffffffffffffffffffffff168152602001908152602001600020600082825401925050819055508173ffffffffffffffffffffffffffffffffffffffff16600073ffffffffffffffffffffffffffffffffffffffff167fddf252ad1be2c89b69c2b068fc378daa952ba7f163c4a11628f55a4df523b3ef83604051611b9a9190612107565b60405180910390a3611bae600083836119ce565b5050565b600073ffffffffffffffffffffffffffffffffffffffff168273ffffffffffffffffffffffffffffffffffffffff1603611c21576040517f08c379a0000000000000000000000000000000000000000000000000000000008152600401611c1890612e5e565b60405180910390fd5b611c2d826000836119c9565b60008060008473ffffffffffffffffffffffffffffffffffffffff1673ffffffffffffffffffffffffffffffffffffffff16815260200190815260200160002054905081811015611cb3576040517f08c379a0000000000000000000000000000000000000000000000000000000008152600401611caa90612ef0565b60405180910390fd5b8181036000808573ffffffffffffffffffffffffffffffffffffffff1673ffffffffffffffffffffffffffffffffffffffff1681526020019081526020016000208190555081600260008282540392505081905550600073ffffffffffffffffffffffffffffffffffffffff168373ffffffffffffffffffffffffffffffffffffffff167fddf252ad1be2c89b69c2b068fc378daa952ba7f163c4a11628f55a4df523b3ef84604051611d669190612107565b60405180910390a3611d7a836000846119ce565b505050565b6000806000801985870985870292508281108382030391505060008103611dba57838281611db057611daf612d1a565b5b0492505050611e53565b808411611dc657600080fd5b60008486880990508281118203915080830392506000600186190186169050808604955080840493506001818260000304019050808302841793506000600287600302189050808702600203810290508087026002038102905080870260020381029050808702600203810290508087026002038102905080870260020381029050808502955050505050505b9392505050565b6000611ebc826040518060400160405280602081526020017f5361666545524332303a206c6f772d6c6576656c2063616c6c206661696c65648152508573ffffffffffffffffffffffffffffffffffffffff16611f219092919063ffffffff16565b9050600081511115611f1c5780806020019051810190611edc9190612f3c565b611f1b576040517f08c379a0000000000000000000000000000000000000000000000000000000008152600401611f1290612fdb565b60405180910390fd5b5b505050565b6060611f308484600085611f39565b90509392505050565b606082471015611f7e576040517f08c379a0000000000000000000000000000000000000000000000000000000008152600401611f759061306d565b60405180910390fd5b6000808673ffffffffffffffffffffffffffffffffffffffff168587604051611fa791906130d4565b60006040518083038185875af1925050503d8060008114611fe4576040519150601f19603f3d011682016040523d82523d6000602084013e611fe9565b606091505b5091509150611ffa87838387612006565b92505050949350505050565b60608315612068576000835103612060576120208561207b565b61205f576040517f08c379a000000000000000000000000000000000000000000000000000000000815260040161205690613137565b60405180910390fd5b5b829050612073565b612072838361209e565b5b949350505050565b6000808273ffffffffffffffffffffffffffffffffffffffff163b119050919050565b6000825111156120b15781518083602001fd5b806040517f08c379a00000000000000000000000000000000000000000000000000000000081526004016120e591906121b2565b60405180910390fd5b6000819050919050565b612101816120ee565b82525050565b600060208201905061211c60008301846120f8565b92915050565b600081519050919050565b600082825260208201905092915050565b60005b8381101561215c578082015181840152602081019050612141565b60008484015250505050565b6000601f19601f8301169050919050565b600061218482612122565b61218e818561212d565b935061219e81856020860161213e565b6121a781612168565b840191505092915050565b600060208201905081810360008301526121cc8184612179565b905092915050565b600080fd5b6121e2816120ee565b81146121ed57600080fd5b50565b6000813590506121ff816121d9565b92915050565b60006020828403121561221b5761221a6121d4565b5b6000612229848285016121f0565b91505092915050565b600073ffffffffffffffffffffffffffffffffffffffff82169050919050565b600061225d82612232565b9050919050565b61226d81612252565b811461227857600080fd5b50565b60008135905061228a81612264565b92915050565b600080604083850312156122a7576122a66121d4565b5b60006122b58582860161227b565b92505060206122c6858286016121f0565b9150509250929050565b60008115159050919050565b6122e5816122d0565b82525050565b600060208201905061230060008301846122dc565b92915050565b60008060006060848603121561231f5761231e6121d4565b5b600061232d8682870161227b565b935050602061233e8682870161227b565b925050604061234f868287016121f0565b9150509250925092565b600060ff82169050919050565b61236f81612359565b82525050565b600060208201905061238a6000830184612366565b92915050565b61239981612252565b82525050565b60006020820190506123b46000830184612390565b92915050565b6000602082840312156123d0576123cf6121d4565b5b60006123de8482850161227b565b91505092915050565b6000819050919050565b600061240c61240761240284612232565b6123e7565b612232565b9050919050565b600061241e826123f1565b9050919050565b600061243082612413565b9050919050565b61244081612425565b82525050565b600060208201905061245b6000830184612437565b92915050565b60008060408385031215612478576124776121d4565b5b6000612486858286016121f0565b92505060206124978582860161227b565b9150509250929050565b6000806000606084860312156124ba576124b96121d4565b5b60006124c8868287016121f0565b93505060206124d98682870161227b565b92505060406124ea8682870161227b565b9150509250925092565b6000806040838503121561250b5761250a6121d4565b5b60006125198582860161227b565b925050602061252a8582860161227b565b9150509250929050565b600081519050612543816121d9565b92915050565b60006020828403121561255f5761255e6121d4565b5b600061256d84828501612534565b91505092915050565b7f4e487b7100000000000000000000000000000000000000000000000000000000600052602260045260246000fd5b600060028204905060018216806125bd57607f821691505b6020821081036125d0576125cf612576565b5b50919050565b7f4e487b7100000000000000000000000000000000000000000000000000000000600052601160045260246000fd5b6000612610826120ee565b915061261b836120ee565b9250828201905080821115612633576126326125d6565b5b92915050565b7f4d7573742062652074686520676f762121000000000000000000000000000000600082015250565b600061266f60118361212d565b915061267a82612639565b602082019050919050565b6000602082019050818103600083015261269e81612662565b9050919050565b7f455243343632363a206465706f736974206d6f7265207468616e206d61780000600082015250565b60006126db601e8361212d565b91506126e6826126a5565b602082019050919050565b6000602082019050818103600083015261270a816126ce565b9050919050565b7f4e6f7420656e6f7567682061737365747320696e207468652077616c6c657400600082015250565b6000612747601f8361212d565b915061275282612711565b602082019050919050565b600060208201905081810360008301526127768161273a565b9050919050565b7f455243343632363a206d696e74206d6f7265207468616e206d61780000000000600082015250565b60006127b3601b8361212d565b91506127be8261277d565b602082019050919050565b600060208201905081810360008301526127e2816127a6565b9050919050565b7f45524332303a2064656372656173656420616c6c6f77616e63652062656c6f7760008201527f207a65726f000000000000000000000000000000000000000000000000000000602082015250565b600061284560258361212d565b9150612850826127e9565b604082019050919050565b6000602082019050818103600083015261287481612838565b9050919050565b7f455243343632363a207769746864726177206d6f7265207468616e206d617800600082015250565b60006128b1601f8361212d565b91506128bc8261287b565b602082019050919050565b600060208201905081810360008301526128e0816128a4565b9050919050565b7f455243343632363a2072656465656d206d6f7265207468616e206d6178000000600082015250565b600061291d601d8361212d565b9150612928826128e7565b602082019050919050565b6000602082019050818103600083015261294c81612910565b9050919050565b7f45524332303a20617070726f76652066726f6d20746865207a65726f2061646460008201527f7265737300000000000000000000000000000000000000000000000000000000602082015250565b60006129af60248361212d565b91506129ba82612953565b604082019050919050565b600060208201905081810360008301526129de816129a2565b9050919050565b7f45524332303a20617070726f766520746f20746865207a65726f20616464726560008201527f7373000000000000000000000000000000000000000000000000000000000000602082015250565b6000612a4160228361212d565b9150612a4c826129e5565b604082019050919050565b60006020820190508181036000830152612a7081612a34565b9050919050565b7f45524332303a20696e73756666696369656e7420616c6c6f77616e6365000000600082015250565b6000612aad601d8361212d565b9150612ab882612a77565b602082019050919050565b60006020820190508181036000830152612adc81612aa0565b9050919050565b7f45524332303a207472616e736665722066726f6d20746865207a65726f20616460008201527f6472657373000000000000000000000000000000000000000000000000000000602082015250565b6000612b3f60258361212d565b9150612b4a82612ae3565b604082019050919050565b60006020820190508181036000830152612b6e81612b32565b9050919050565b7f45524332303a207472616e7366657220746f20746865207a65726f206164647260008201527f6573730000000000000000000000000000000000000000000000000000000000602082015250565b6000612bd160238361212d565b9150612bdc82612b75565b604082019050919050565b60006020820190508181036000830152612c0081612bc4565b9050919050565b7f45524332303a207472616e7366657220616d6f756e742065786365656473206260008201527f616c616e63650000000000000000000000000000000000000000000000000000602082015250565b6000612c6360268361212d565b9150612c6e82612c07565b604082019050919050565b60006020820190508181036000830152612c9281612c56565b9050919050565b6000604082019050612cae60008301856120f8565b612cbb60208301846120f8565b9392505050565b6000604082019050612cd76000830185612390565b612ce460208301846120f8565b9392505050565b7f4e487b7100000000000000000000000000000000000000000000000000000000600052602160045260246000fd5b7f4e487b7100000000000000000000000000000000000000000000000000000000600052601260045260246000fd5b6000606082019050612d5e6000830186612390565b612d6b6020830185612390565b612d7860408301846120f8565b949350505050565b7f45524332303a206d696e7420746f20746865207a65726f206164647265737300600082015250565b6000612db6601f8361212d565b9150612dc182612d80565b602082019050919050565b60006020820190508181036000830152612de581612da9565b9050919050565b7f45524332303a206275726e2066726f6d20746865207a65726f2061646472657360008201527f7300000000000000000000000000000000000000000000000000000000000000602082015250565b6000612e4860218361212d565b9150612e5382612dec565b604082019050919050565b60006020820190508181036000830152612e7781612e3b565b9050919050565b7f45524332303a206275726e20616d6f756e7420657863656564732062616c616e60008201527f6365000000000000000000000000000000000000000000000000000000000000602082015250565b6000612eda60228361212d565b9150612ee582612e7e565b604082019050919050565b60006020820190508181036000830152612f0981612ecd565b9050919050565b612f19816122d0565b8114612f2457600080fd5b50565b600081519050612f3681612f10565b92915050565b600060208284031215612f5257612f516121d4565b5b6000612f6084828501612f27565b91505092915050565b7f5361666545524332303a204552433230206f7065726174696f6e20646964206e60008201527f6f74207375636365656400000000000000000000000000000000000000000000602082015250565b6000612fc5602a8361212d565b9150612fd082612f69565b604082019050919050565b60006020820190508181036000830152612ff481612fb8565b9050919050565b7f416464726573733a20696e73756666696369656e742062616c616e636520666f60008201527f722063616c6c0000000000000000000000000000000000000000000000000000602082015250565b600061305760268361212d565b915061306282612ffb565b604082019050919050565b600060208201905081810360008301526130868161304a565b9050919050565b600081519050919050565b600081905092915050565b60006130ae8261308d565b6130b88185613098565b93506130c881856020860161213e565b80840191505092915050565b60006130e082846130a3565b915081905092915050565b7f416464726573733a2063616c6c20746f206e6f6e2d636f6e7472616374000000600082015250565b6000613121601d8361212d565b915061312c826130eb565b602082019050919050565b6000602082019050818103600083015261315081613114565b905091905056fea2646970667358221220f36ee919c62f9c19e57071d1f8c6f3b7012a6e51081f458bd342e02304c62f0a64736f6c63430008110033",
  "linkReferences": {},
  "deployedLinkReferences": {}
}