{
  "_format": "hh-sol-artifact-1",
  "contractName": "Pool",
  "sourceName": "contracts/Pool.sol",
  "abi": [
    {
      "inputs": [],
      "stateMutability": "nonpayable",
      "type": "constructor"
    },
    {
      "inputs": [
        {
          "internalType": "uint256",
          "name": "loanId_",
          "type": "uint256"
        },
        {
          "internalType": "uint256",
          "name": "amount",
          "type": "uint256"
        }
      ],
      "name": "addColateral",
      "outputs": [
        {
          "internalType": "uint256",
          "name": "",
          "type": "uint256"
        }
      ],
      "stateMutability": "nonpayable",
      "type": "function"
    },
    {
      "inputs": [
        {
          "internalType": "uint256",
          "name": "loanId_",
          "type": "uint256"
        },
        {
          "internalType": "uint256",
          "name": "amount_",
          "type": "uint256"
        },
        {
          "internalType": "address payable",
          "name": "sendTo_",
          "type": "address"
        }
      ],
      "name": "borrow",
      "outputs": [
        {
          "internalType": "uint256",
          "name": "",
          "type": "uint256"
        }
      ],
      "stateMutability": "nonpayable",
      "type": "function"
    },
    {
      "inputs": [
        {
          "internalType": "address",
          "name": "receiver_",
          "type": "address"
        },
        {
          "internalType": "uint256",
          "name": "amount_",
          "type": "uint256"
        }
      ],
      "name": "depositColateral",
      "outputs": [
        {
          "internalType": "uint256",
          "name": "",
          "type": "uint256"
        }
      ],
      "stateMutability": "nonpayable",
      "type": "function"
    },
    {
      "inputs": [],
      "name": "lenderSplit",
      "outputs": [
        {
          "internalType": "uint256",
          "name": "",
          "type": "uint256"
        }
      ],
      "stateMutability": "view",
      "type": "function"
    },
    {
      "inputs": [
        {
          "internalType": "uint256",
          "name": "loanId_",
          "type": "uint256"
        },
        {
          "internalType": "uint256",
          "name": "amount_",
          "type": "uint256"
        },
        {
          "internalType": "address",
          "name": "payer_",
          "type": "address"
        }
      ],
      "name": "liquidate",
      "outputs": [],
      "stateMutability": "nonpayable",
      "type": "function"
    },
    {
      "inputs": [],
      "name": "pendingDai",
      "outputs": [
        {
          "internalType": "uint256",
          "name": "",
          "type": "uint256"
        }
      ],
      "stateMutability": "view",
      "type": "function"
    },
    {
      "inputs": [
        {
          "internalType": "uint256",
          "name": "loanId_",
          "type": "uint256"
        },
        {
          "internalType": "uint256",
          "name": "amount_",
          "type": "uint256"
        }
      ],
      "name": "repayLoan",
      "outputs": [
        {
          "internalType": "uint256",
          "name": "",
          "type": "uint256"
        }
      ],
      "stateMutability": "nonpayable",
      "type": "function"
    },
    {
      "inputs": [],
      "name": "totalLoanedOut",
      "outputs": [
        {
          "internalType": "uint256",
          "name": "amount",
          "type": "uint256"
        }
      ],
      "stateMutability": "view",
      "type": "function"
    },
    {
      "inputs": [
        {
          "internalType": "address",
          "name": "receiver_",
          "type": "address"
        },
        {
          "internalType": "uint256",
          "name": "loanId_",
          "type": "uint256"
        }
      ],
      "name": "widthdrawColateral",
      "outputs": [
        {
          "internalType": "uint256",
          "name": "",
          "type": "uint256"
        }
      ],
      "stateMutability": "nonpayable",
      "type": "function"
    }
  ],
  "bytecode": "0x608060405234801561001057600080fd5b50610498806100206000396000f3fe608060405234801561001057600080fd5b50600436106100935760003560e01c80637b943d35116100665780637b943d35146101465780638a700b5314610164578063d6bda0c014610194578063e7fb0790146101c4578063f354a339146101e257610093565b806308ef74c91461009857806314393ba3146100c857806322e3ea69146100f8578063606708ce14610128575b600080fd5b6100b260048036038101906100ad9190610276565b6101fe565b6040516100bf91906102c5565b60405180910390f35b6100e260048036038101906100dd919061033e565b610206565b6040516100ef91906102c5565b60405180910390f35b610112600480360381019061010d919061033e565b61020e565b60405161011f91906102c5565b60405180910390f35b610130610216565b60405161013d91906102c5565b60405180910390f35b61014e61021b565b60405161015b91906102c5565b60405180910390f35b61017e60048036038101906101799190610276565b610220565b60405161018b91906102c5565b60405180910390f35b6101ae60048036038101906101a991906103bc565b610228565b6040516101bb91906102c5565b60405180910390f35b6101cc610231565b6040516101d991906102c5565b60405180910390f35b6101fc60048036038101906101f7919061040f565b610236565b005b600092915050565b600092915050565b600092915050565b600090565b600090565b600092915050565b60009392505050565b600090565b505050565b600080fd5b6000819050919050565b61025381610240565b811461025e57600080fd5b50565b6000813590506102708161024a565b92915050565b6000806040838503121561028d5761028c61023b565b5b600061029b85828601610261565b92505060206102ac85828601610261565b9150509250929050565b6102bf81610240565b82525050565b60006020820190506102da60008301846102b6565b92915050565b600073ffffffffffffffffffffffffffffffffffffffff82169050919050565b600061030b826102e0565b9050919050565b61031b81610300565b811461032657600080fd5b50565b60008135905061033881610312565b92915050565b600080604083850312156103555761035461023b565b5b600061036385828601610329565b925050602061037485828601610261565b9150509250929050565b6000610389826102e0565b9050919050565b6103998161037e565b81146103a457600080fd5b50565b6000813590506103b681610390565b92915050565b6000806000606084860312156103d5576103d461023b565b5b60006103e386828701610261565b93505060206103f486828701610261565b9250506040610405868287016103a7565b9150509250925092565b6000806000606084860312156104285761042761023b565b5b600061043686828701610261565b935050602061044786828701610261565b925050604061045886828701610329565b915050925092509256fea2646970667358221220b9f05b6e0464d19ffb0264a245e63c53029fd7e44e88da1e5112b308de54434964736f6c63430008110033",
  "linkReferences": {},
  "deployedLinkReferences": {}
}